:020000040800F2
:10000000A8120020E1010008693600082932000822
:1000100065360008D91200085D40000800000000A5
:10002000000000000000000000000000853D000806
:10003000E912000800000000D1370008853F0008E1
:10004000FB010008FB010008FB010008FB010008A0
:10005000FB010008FB010008FB010008FB01000890
:10006000FB010008FB010008FB010008DD1200088D
:10007000FB010008FB010008FB010008FB01000870
:10008000FB010008FB010008FB010008FB01000860
:10009000FB010008FB010008FB010008FB01000850
:1000A000FB010008FB010008FB010008FB01000840
:1000B000FB010008FB010008FB010008FB01000830
:1000C000FB010008FB010008FB010008FB01000820
:1000D000FB010008FB010008FB010008FB01000810
:1000E000FB010008FB010008FB01000800F002F81A
:1000F00000F067F80AA090E8000C82448344AAF15B
:100100000107DA4501D100F05CF8AFF2090EBAE858
:100110000F0013F0010F18BFFB1A43F0010318473B
:10012000E07B0000007C0000103A24BF78C878C152
:10013000FAD8520724BF30C830C144BF04680C60ED
:10014000704700000023002400250026103A28BF35
:1001500078C1FBD8520728BF30C148BF0B60704739
:10016000662905F0F280692900F0D080642900F04A
:10017000CD80752900F0CA806F2900F0618178294F
:1001800000F088810368DB0928BF41F08001632902
:1001900000F09185E32900F0A485002070471FB589
:1001A00000F00AFE04000020002104F09FFC401C27
:1001B00060600020002104F083FCE0601FBD10B5EA
:1001C00010BD00F0F9FE1146FFF7E9FF03F05AFFFA
:1001D00000F017FF03B4FFF7F2FF03BC00F05AFF73
:1001E0000948804709480047FEE7FEE7FEE7FEE7CB
:1001F000FEE7FEE7FEE7FEE7FEE7FEE70448054907
:10020000054A064B7047000011400008ED00000849
:10021000A8060020A8120020A80A0020A80A002092
:100220000FB41CB5074B06AA7B446946009005989D
:1002300000F01FFD0020694600F02EFD1CBC5DF89B
:1002400014FB00006D0A000070B504468569006863
:10025000C10601D5302600E02026C00707D070BDBA
:10026000D4E9012130469047206A401C20626D1E6F
:10027000F6D570BD70B5044685690078C00707D112
:1002800070BDD4E9012120209047206A401C2062E3
:100290006D1EF6D570BD09684A0501D540B270479C
:1002A000C905FCD500B2704709684A0501D5C0B23E
:1002B0007047C905FCD580B2704770B50C4605463D
:1002C000012A05D02878800600D5EA69002302E0DB
:1002D000012305E05B1C934202D2E05C0028F9D1C7
:1002E000A869E618C01AA861286A18442862284636
:1002F000FFF7AAFF04E0D5E9012114F8010B9047AC
:10030000B442F8D32846FFF7B5FF70BD2DE9F041A0
:100310000646002410687529314616A510D0FFF74F
:10032000BAFF002802DA404213A507E031688A07C5
:1003300001D512A502E0490704D511A5012401E069
:10034000FFF7B2FF00210A2206F1240709E0B0FB03
:10035000F2FCB0FBF2F302FB1C003030785418467C
:10036000491C0028F3D123462A463046BDE8F04117
:1003700000F013BA000000002D0000002B00000068
:10038000200000002DE9FF5F15468A460446DFF88D
:10039000AC80F8440027D8E900103E46CDE90010B3
:1003A00010E03AF816106A4602A800F0A6FC411CBC
:1003B00007D02178890603D5E269391891420DD812
:1003C0000744761C2078800602D5E069B84205DD36
:1003D000AE42E6DB3AF816000028E2D1A069C01B65
:1003E000A0612046FFF730FFD8E90010CDE90010EA
:1003F000002017E03AF818106A4602A800F07DFCC9
:10040000B0F1FF3F81460BD000250DF1080B05E050
:10041000D4E901211BF8050090476D1C4D45F7D329
:1004200008F10100B0428046E4DB206A38442062D3
:100430002046FFF71FFFBDE8FF9F0000BA4F0000F6
:1004400070B5044621461068FFF72EFF002104F125
:10045000240505E000F007023032C0086A54491C48
:100460000028F7D12068002308A2050708D500F06E
:100470002000084304D0E069012305A2401EE0618A
:100480002046BDE8704000F088B900000000000080
:100490003000000070B504460D4621461068FFF795
:1004A00003FF2188090502D50F4A7A4402E00E4A6B
:1004B0007A440E32002104F1240305E000F00F0617
:1004C0000009965D5E54491C0028F7D1207800236E
:1004D000000704D5702D02D009B102231132204645
:1004E000BDE8704000F059B9AA4E00002DE9F05F58
:1004F000894604464FF0000ADFF874B1FB44C0F8A7
:1005000020A02046E1688847002874D0252806D01E
:10051000D4E901219047206A401C2062F1E70026BF
:100520005F462046E16888472028054607DB312DD5
:1005300005D2781910F8200C08B10643F1E7B0078E
:1005400001D526F00406C4F81CA00027C4F818A0A2
:100550002A2D09D0284604F0ABFA38B304EB8708FB
:10056000303DC8F8185019E059F8041B204604EB38
:1005700087029161E1688847012F054618D1E0693B
:10058000002820DA26F020061DE0D8F8180000EB3D
:10059000800005EB40003038C8F818002046E168BC
:1005A0008847054604F084FA0028EED1012F0AD0CE
:1005B0002E2D08D12046E16888477F1C0546022F72
:1005C00046F02006C4DBA069002803DA404246F06A
:1005D0000106A061F00701D026F010066C2D0BD0AB
:1005E000682D09D04C2D39D06A2D35D0742D35D0D9
:1005F0007A2D33D016E038E0E1682F462046884750
:10060000B842054609D16C2F26D04FF48060E168CE
:10061000064320468847054604E06C2F1AD04FF465
:10062000807006430DB3A5F14100192802D820358A
:1006300046F400664A462946204626604E46FFF7A5
:100640008FFD80B101280BD0F61D26F0070000F1C8
:10065000080956E74020E4E78020D8E70020D6E7E5
:1006600006F104094DE7284652E7206ABDE8F09FED
:10067000804E000040EA0103024630B59B0710D1CE
:100680004FF0013400E008C208C91D1B9D4315EA64
:10069000C41FF8D013F0FF0102F8011B0DD01B0A94
:1006A000F8E711F8013B002B02F8013B05D011F8E7
:1006B000013B002B02F8013BF3D130BD032A40F28D
:1006C000308010F0030C00F0158011F8013BBCF1F4
:1006D000020F624498BF11F801CB00F8013B38BF0C
:1006E00011F8013BA2F1040298BF00F801CB38BF1A
:1006F00000F8013B11F0030300F02383083AC0F037
:10070000088051F8043B083A51F804CBA0E80810DF
:10071000F5E7121D5CBF51F8043B40F8043BAFF312
:100720000080D20724BF11F8013B11F801CB48BF6C
:1007300011F8012B24BF00F8013B00F801CB48BFA2
:1007400000F8012B70474FF0000200B513469446A5
:100750009646203922BFA0E80C50A0E80C50B1F119
:100760002001BFF4F7AF090728BFA0E80C5048BF2D
:100770000CC05DF804EB890028BF40F8042B08BFCB
:10078000704748BF20F8022B11F0804F18BF00F8C7
:10079000012B70477047704770472DE9F0470D46B1
:1007A00099469246044600F124080168880604D55B
:1007B000E06921F01001216000E00120A84201DD84
:1007C000471B00E00027A1697A1902EB0900081A0B
:1007D000A0612078C00602D42046FFF735FD002630
:1007E00008E0D4E901211AF806009047206A401C6D
:1007F000761C20624E45F4DB2078C0060AD52046E0
:10080000FFF722FD06E0D4E9012130209047206A5D
:10081000401C2062381EA7F10107F4DC07E0D4E990
:10082000012118F805009047206A401C2062281E0C
:10083000A5F10105F3DC2046FFF71CFD207800063A
:1008400002D50220BDE8F0870120FBE72DE9FF4F2C
:100850000C461E464FF0FF378BB0D2E90001DDF8A1
:1008600060800A908A46C1F30A5505B93D460021C9
:1008700008464FF00000BAF1000F00F4400005DA1E
:1008800000EB80004FF4400101EA50004FEA90591C
:10089000B9F1010F00DDB9460A9850EA4A000ED0BE
:1008A00044F61050A5F2FF3545432F14B8F1000F60
:1008B0001ED07542291E1EDDC9F100021CE0B8F1F0
:1008C000010F4FF0000001D0302103E0F24305E0BA
:1008D0002154401CB042FBDB304600220021215451
:1008E0000B99C1F80880C1E900200FB0BDE8F08F76
:1008F000BD1B6D1CDEE74A4600DA694206A800F01F
:10090000E5FA06AB93E8070003AB83E8070050461F
:100910000A9903F0F0FC8DE80700A0F500501F389D
:1009200000900398002D0ADD42F21F014A46084458
:10093000002303A90390684603F05AFF09E0A0F5DD
:1009400000504A461F38002303A90390684603F06D
:1009500064FF8DE807000004000C03D04FF0FF3067
:10096000410800E01046B8F1000F03D000220092C9
:1009700015461EE0751E05D400F022FA303262558D
:100980006D1EF9D5B3460122084302D000227F1C18
:1009900004E02078302801D100227F1E002A099728
:1009A00084D01DE0112D07DA00F00AFA30326255CA
:1009B0006D1C50EA0102F5D1084302D00098C8B17D
:1009C0000EE00021681E05E0235C625C6354225443
:1009D000401E491C8142F7DBAB46A81B401E099014
:1009E000002004F80B000B98099AC0F80880C0E9B1
:1009F000002B7AE711264FF0000857E72DE9F04F5A
:100A000088460446D21D22F0070191B0D1E90001C9
:100A1000CDE90A0104F038F802460B98C00F01D066
:100A20002D2007E02068810701D52B2002E020213E
:100A300001EAC000032A099001D0072A05DB03461A
:100A40004146204600F002FA0BE12078800601D5ED
:100A5000E06900E00620B8F1650F814606D0B8F1E4
:100A6000660F18D0B8F1670F70D131E00020B9F1EE
:100A7000110F009001DB112301E009F101030AAA23
:100A800001A90CA8FFF7E2FEDDE90C70002609F1D0
:100A90000105834647E001204B4600904FF0004798
:100AA0000AAA01A90CA8FFF7D1FEDDE90DB00C9947
:100AB0005D46002610B909F101000D18B9EB0500DB
:100AC00003D4C0F1FF3609F10105A5EB09002BE0C5
:100AD000B9F1010F01DA4FF001090020B9F1110F4E
:100AE0000090484601DD112300E003460AAA01A94F
:100AF0000CA8FFF7ABFEDDE90C704D4600268346DF
:100B0000207800070AD4AB4500DA5D4601A8012D24
:100B100004DD411911F8011C302907D04F4502DAD4
:100B200017F1040F04DA012082460FE06D1EEEE794
:100B3000002F02DCED1B3E4403E0781CA84200DDE0
:100B40007D1CB81B00F1010A4FF000472078000718
:100B500003D4AA4501DB4FF0FF3A0021B7F1004F63
:100B60000DF143088DF8431024D002202B23002FD1
:100B700001DA7F422D230A21021EA0F1010000DCD0
:100B80005FB197FBF1FC97FBF1F201FB1C7C174670
:100B90000CF1300C08F801CDEEE7A8F1010003706C
:100BA0002188090501D5452100E06521A0F1010852
:100BB00000F8011C09980FA9A1EB0807FF1D00B15F
:100BC0000120411901EBEA70A1693844081A401E5E
:100BD000A0612078C00602D42046FFF735FB0998B3
:100BE00028B1D4E901219047206A401C2062207876
:100BF000C00622D52046FFF727FB1EE0002E04DBAF
:100C0000B34502DD01A8805D00E03020D4E9012178
:100C10009047206A401C2062761CAAF101005FEA1E
:100C2000000A0AD100F0C8F8C0680168405CD4E945
:100C300001219047206A401C2062281EA5F1010571
:100C4000DCDC07E0D4E9012118F8010B9047206AA9
:100C5000401C2062381EA7F10107F3DC2046FFF795
:100C600009FB032011B041E601694A1C02610878C2
:100C7000704700B58FB0CDE90131002105910549DC
:100C80007944CDE9031011466846FFF72FFC0FB0F9
:100C900000BD0000E5FFFFFF0A6802F8010B0A60D3
:100CA000704710B5436913B1AFF3008001E0FFF75F
:100CB00004FB012010BD127800F124010A7000220B
:100CC0004A700122EDE711684FF0FF32E9E710B5F5
:100CD000436913B1AFF3008001E0FFF753FB01203C
:100CE00010BD128800F1240182840022C2840122F6
:100CF000EDE711684FF0FF32E9E72DE9F0411646C4
:100D00000C46054600F050F8036893F801010128ED
:100D100007D0FF2C12D8185D80B101202C70BDE8DF
:100D2000F081D3F807013246214603F20713C718B2
:100D30002846BC46BDE8F041002360474FF0FF3035
:100D4000EDE710B5203AC0F00B80B1E81850A0E8EC
:100D50001850B1E81850A0E81850203ABFF4F5AF89
:100D60005FEA027C24BFB1E81850A0E8185044BFE5
:100D700018C918C0BDE810405FEA827C24BF51F852
:100D8000043B40F8043B08BF7047D20728BF31F846
:100D9000023B48BF11F8012B28BF20F8023B48BF97
:100DA00000F8012B7047000010B500F005F8001D99
:100DB00010BD00BF393D00000048704748000020CA
:100DC00030B5B0F10A0271F100034FEA900E4EEA1D
:100DD000817EB0EB0E0061EB91014FEA101E4EEAEE
:100DE000017E10EB0E0041EB11114FEA102E4EEA7E
:100DF000016E10EB0E0041EB11214FEA104E4EEA4E
:100E0000014E10EB0E0041EB1141401841F1000181
:100E10004FEAD00040EA41704FEAD1014FEA810425
:100E200044EA907410EB800544EB01046D1944EB27
:100E30000404521BA3414FF0000348BF0A3200D5FF
:100E400030BD401C41F1000130BD00002DE9F041F2
:100E50001F46044603260168072A01F4006004DBEC
:100E600008B116A505E016A503E008B115A500E038
:100E700015A521F010002060A069C01EA0610FB16F
:100E8000401EA0612046FFF7DFF94FB1D4E90121F0
:100E900038469047206A401C2062C01C206206E051
:100EA000206AFAE7D4E9012115F8010B9047761E74
:100EB000F8D22046FFF7DEF9BDE8F0814E414E0042
:100EC0006E616E00494E4600696E66002DE9F0477E
:100ED000814616468AB0354878440DC88DE80D0025
:100EE00032487844801C03AC0DC884E80D0041F6FC
:100EF0009B300844372190FBF1F290FBF1F5A5F10E
:100F0000800501FB12041B3C02D56442012000E075
:100F10000020DFF898A080460027FA44AAF1BE0A14
:100F20000EE0E0070AD03246684607EB470101238E
:100F30000AEB810103F071FC8DE8070064107F1C4F
:100F4000002CEED1194F7F44AE3F19E0E80715D0D1
:100F500007EB04100DF1180A90E80E008AE80E0065
:100F6000C068F04201D1981908903246012306A9C1
:100F700003A803F052FC03AB83E807006D10641C68
:100F8000002DE3D14FF0010332466946B8F1000F5E
:100F900003A802D003F02CFC01E003F03EFCC9E9F9
:100FA0000001C9F808200AB0BDE8F0873445000008
:100FB00000487047280000207546FFF7F9FFAE464D
:100FC00005006946534620F00700854618B020B555
:100FD000FFF714F9BDE820404FF000064FF000077E
:100FE0004FF000084FF0000BAC46ACE8C009ACE88D
:100FF000C009ACE8C009ACE8C00921F007018D4682
:10100000704710B50446AFF300802046BDE810409D
:10101000FFF7E0B84FF0013C50F8042B51F8043BC7
:101020009A4221D1A2EB0C03934313EACC1317D1BC
:1010300050F8042B51F8043B9A4215D1A2EB0C0353
:10104000934313EACC130BD150F8042B51F8043B13
:101050009A4209D1A2EB0C03934313EACC13DBD0E1
:101060004FF00000704700BFD01A01BAB1FA81F109
:1010700001F0180122FA01F0CB40DBB2C0B2C01A75
:10108000C1F120012CFA01F3D11A914311EAC311E5
:10109000E6D1704701491820ABBEFEE726000200EA
:1010A000704700000146406A826A12F0500F03D078
:1010B000006A026B084610470168826A42F40072B7
:1010C0008262896801F46021B1F5602F01D1017B52
:1010D00011B100F043BD00BF816A21F480718162CB
:1010E000816AC90448BF00F039BD816A41F001013D
:1010F000816200F033BD0000406A816A41F0400126
:101100008162C16A41F00401C16200F02BBD0000A0
:10111000406A00F025BD0000B0B582B00446002052
:10112000019021688A68D2074FD1886840F0010099
:10113000886040F22000C2F2000000684DF6836132
:10114000C4F21B31A0FB0101880C01900198A0B1F1
:10115000019801380190019878B101980138019007
:10116000019850B1019801380190019828B1019877
:101170000138019001980028EAD101F011F92168A5
:101180008968C9071CD1054603E000BF8068C00715
:101190001AD101F005F9411B20680329F6D38168B3
:1011A000C907F3D1A06A40F01000A062E06A40F0E5
:1011B0000100E062002084F82400012002B0B0BDEC
:1011C000002002B0B0BD00BF002002B0B0BD0000E2
:1011D00070B540F2A000C2F20000806A40F2101622
:1011E00040F69211C2F2000688424FF00001B16150
:1011F00071613161F160B16006D303F019FE002323
:10120000C3F6F47300220FE040F66601884203D86B
:1012100003F05EFF0CE000BF03F00AFE43F233333D
:10122000C3F6F3734FF0333203F0A8FC03F074FC01
:101230000021CCF25C31054603F062FE03F02CFF86
:1012400000210446C4F25C31284603F0DEFE00288B
:1012500018BF00240A2C07D20FA106F1080022466D
:10126000BDE87040FEF7DCBF642C07D20EA106F18A
:1012700008002246BDE87040FEF7D2BF12A10EA0C2
:10128000B4F57A7F38BF014606F108002246BDE872
:101290007040FEF7C5BF00BF52504D5F534554200C
:1012A0003A3030302564200052504D5F5345542071
:1012B0003A3030256420200052504D5F5345542071
:1012C0003A3025642020200052504D5F5345542071
:1012D0003A25642020202000FEE7000040F20C6048
:1012E000C2F2000000F0C8BD7047000070B588B0C1
:1012F00040F28804C2F20004208947F2315188424A
:101300000CD302F07DFA02F065FA40F210110020D1
:10131000C2F200012081087708B070BD40F2A00041
:10132000C2F2000040F210150078C2F20005297FD9
:10133000E0B1012907D8012805D102F061FA02F0D5
:1013400049FA02202877606947F6D501C2F2E961BF
:10135000484341F26F214FEAB000C0F28301884256
:1013600066D308B0BDE8704000F0C8B911F0FD0FB9
:1013700005D102F045FA02F02DFA0120287747F254
:101380006520C0F22000019046F24D10C7F2734074
:10139000002600901E2003218DF81860CDE9046618
:1013A000CDE9026602F024FA40F20804C2F2000419
:1013B0006D4628462146012202F07AFC46F67270FC
:1013C000C0F26C00019046F64370C7F26E40009088
:1013D00014201721CDE90266CDE904668DF8186066
:1013E00002F006FA28462146012202F061FC46F688
:1013F0004410C6F27310009046F66240C6F2654093
:1014000001900F202B21CDF80960CDF80D60CDF8AB
:101410001160CDF815608DF8086002F0E9F92846F2
:101420002146012202F044FC02F05AFC08B070BDD3
:1014300008B0BDE8704000F001B8000070B588B099
:1014400040F21016C2F2000632880020032A8DF8FE
:101450001C00CDE90500CDE903000290019003D303
:101460000A2A07D28DA110E0B2880A2A08D27DA1EB
:101470000BE000BF642A32BF8DA1D2B291A104E07B
:10148000642A26BFD2B281A17BA101AC2046FEF71F
:10149000C7FE0520012102F0ABF940F21801C2F2AB
:1014A00000012046012202F003FC72880020032A7A
:1014B000CDE90100CDE90300059006908DF81C00F0
:1014C00006D30A2A0AD247F6A741C0F600011CE05B
:1014D000F2880A2A0AD27FA117E000BF642A0FD23D
:1014E00047F69641C0F600010FE000BF642A31BF05
:1014F0007DA1D2B247F66641C0F6000105E000BF0B
:1015000047F68641D2B2C0F6000101AC2046FEF794
:1015100087FE05200E2102F06BF940F21805C2F299
:10152000000520462946012202F0C2FB06F108010F
:101530002046FFF79FF805201B2102F059F92046AD
:101540002946012202F0B4FB40F2A004C2F20004DA
:1015500000206178CDE90100CDE9030005900690F7
:101560008DF81C008DF8100044F6207000290CBF87
:10157000C4F24660C2F24E00039042F27200C7F21B
:101580006930029046F64D70C6F6747001900520E1
:10159000282102F02DF940F21801C2F2000101A841
:1015A000012202F085FB40F2F410C2F20000007943
:1015B00000B3A17800208DF81C00CDE90500CDE92D
:1015C00003000290019079B344F64560C0F2200018
:1015D000049047F27420C2F26C00039046F26E70E1
:1015E000C4F22030029046F65410C6F66D100190F9
:1015F00028E000BF00208DF81C00CDE9050046F66C
:101600005410C6F26D50019047F22040C2F26F00B4
:10161000029046F26250C5F22030039047F26540D6
:10162000C0F2200004900DE047F6EC40C0F6000048
:1016300090E84E00007C0DF1040C8CE80E0004963E
:101640008DF814000520352102F0D2F840F218017F
:10165000C2F2000101A8012202F02AFB02F040FBC5
:1016600008B070BD4F6E5F54696D65202030302525
:1016700064207365630000004F6E5F54696D6520E0
:101680002030256420736563000000004F6E5F54B6
:10169000696D652020256420736563004F6E5F547B
:1016A000696D65202030302564206D696E00000072
:1016B0004F6E5F54696D652020302564206D696E22
:1016C000000000004F6E5F54696D65202025642086
:1016D0006D696E004F66665F54696D652030302518
:1016E00064207365630000004F66665F54696D6532
:1016F00020302564207365630000000070B588B059
:1017000040F21016C2F2000632880020032A8DF83B
:101710001C00CDE90500CDE903000290019003D340
:101720000A2A07D28DA110E0B2880A2A08D27DA128
:101730000BE000BF642A32BF8DA1D2B291A104E0B8
:10174000642A26BFD2B281A17BA101AC2046FEF75C
:1017500067FD0520012102F04BF840F21801C2F2AA
:1017600000012046012202F0A3FA72880020032A19
:10177000CDE90100CDE90300059006908DF81C002D
:1017800006D30A2A0AD247F6B941C0F600011CE086
:10179000F2880A2A0AD27FA117E000BF642A0FD27A
:1017A00047F6CB41C0F600010FE000BF642A31BF0D
:1017B0007DA1D2B247F67641C0F6000105E000BF38
:1017C00047F6DC41D2B2C0F6000101AC2046FEF77C
:1017D00027FD05200E2102F00BF840F21805C2F299
:1017E000000520462946012202F062FA06F10801AE
:1017F0002046FEF73FFF05201B2101F0F9FF2046A0
:101800002946012202F054FA40F2A004C2F2000478
:1018100000206178CDE90100CDE903000590069034
:101820008DF81C008DF8100044F6207000290CBFC4
:10183000C4F24660C2F24E00039042F27200C7F258
:101840006930029046F64D70C6F67470019005201E
:10185000282101F0CDFF40F21801C2F2000101A8D9
:10186000012202F025FA40F2F410C2F200000079E1
:1018700000B3A17800208DF81C00CDE90500CDE96A
:1018800003000290019079B344F64560C0F2200055
:10189000049047F27420C2F26C00039046F26E701E
:1018A000C4F22030029046F65410C6F66D10019036
:1018B00028E000BF00208DF81C00CDE9050046F6A9
:1018C0005410C6F26D50019047F22040C2F26F00F2
:1018D000029046F26250C5F22030039047F2654014
:1018E000C0F2200004900DE047F6EC40C0F6000086
:1018F00090E84E00007C0DF1040C8CE80E0004967C
:101900008DF814000520352101F072FF40F2180116
:10191000C2F2000101A8012202F0CAF902F0E0F9C6
:1019200008B070BD4F6E5F54696D65203A30302548
:1019300064207365630000004F6E5F54696D65201D
:101940003A30256420736563000000004F6E5F54D9
:10195000696D65203A256420736563004F6E5F549E
:10196000696D65203A30302564206D696E00000095
:101970004F6E5F54696D65203A302564206D696E45
:10198000000000004F6E5F54696D65203A256420A9
:101990006D696E004F66665F54696D653A3030253B
:1019A00064207365630000004F66665F54696D656F
:1019B0003A3025642073656300000000EFF3108067
:1019C00072B600BFFEE7000010B581B000220092A1
:1019D00090F82420012A03D10221084601B010BD4D
:1019E0004B680122062B80F8242015D8026803EBEF
:1019F0008303A3F1050E1F23D2F834C003FA0EF4BB
:101A00000B682CEA040C03FA0EF444EA0C04546349
:101A1000092B17D937E000BF02680C2B20D803EB45
:101A20008303A3F123041F23D2F830C003FA04FE7A
:101A30000B682CEA0E0C03FA04F444EA0C04146359
:101A4000092B20D8D2F810C003EB43030724896880
:101A50009C402CEA0404994021431161002136E0A6
:101A600003EB8303A3F141041F23D2F82CC003FA34
:101A700004FE0B682CEA0E0C03FA04F444EA0C048E
:101A8000D462092BDED903EB4304D2F80CC0A4F1D5
:101A90001E0E0724896804FA0EF42CEA040401FAE5
:101AA0000EF1214323F00104102CD1600ED142F23B
:101AB0000841C4F20101A1F10804A2420ED0816ADA
:101AC00041F020018162012101E000BF00210022DC
:101AD00080F82420084601B010BD00BF0A68120239
:101AE00030D40A68102B42F400020A602CD140F274
:101AF0002001C2F2000109684DF68362C4F21B3274
:101B0000A1FB0212910C01EB8101490000910099A7
:101B1000E1B10099013900910099C9B100990139E9
:101B200000910099B1B1009901390091009999B1E2
:101B3000009901390091009900294FF00001E8D186
:101B4000C5E700BF0021C2E70021C0E70021BEE7D2
:101B50000021BCE70021BAE70021B8E77047000088
:101B60007047000070470000B0B5002800F0A88062
:101B70000446806A20B121688868C0070BD114E050
:101B80000020E06284F82400204600F09BF82168E1
:101B90008868C00709D0886820F00100886000F0DC
:101BA000FFFB21688A68D20726D1A06AC0063AD412
:101BB000A06A41F2021290430230A062E069D4E9C7
:101BC000013240EA030C531EB3FA83F35D09134656
:101BD000B2F5807F18BF2B02207D257B01284CEABF
:101BE000450030D135B3A56A45F02005A562E56A08
:101BF00045F00105E56226E0054602E08868C00779
:101C0000D3D000F0CDFB401B21680328F6D38868B1
:101C1000C007F3D0A06A40F01000A062E06A40F074
:101C20000100E062A06AA06A40F01000A0620120FA
:101C3000B0BD00BFD4F818C04EF60005CFF6FF7552
:101C400005EB4C352B434D68B2F5807F25F4694593
:101C500043EA05034B608B684FF2FD75CFF6E175E3
:101C600003EA050343EA00038B6001D0012A07D190
:101C700022690023CFF6F07303EB025201E000BFAC
:101C80000022CB6A23F470031A43CA62896840F6C3
:101C9000FE62CFF61F721140814207D10020E06240
:101CA000A16A012262F30101A162B0BDA06A40F005
:101CB000100020F00200A062E06A40F00100E06243
:101CC0000120B0BD70B586B0044640F60000C4F2F5
:101CD0000100216800F5E052002691420596049625
:101CE00002D006B070BD00BF41F21801C4F202017B
:101CF0000A6842F400720A600A6802F400720192F3
:101D0000019A0A6842F004020A60096801F00401BD
:101D100001910199F02102910321039102A900F0A0
:101D200021FA40F20C650820C2F20005C4F202005C
:101D30004FF40072C5E9000605F1100080214FF450
:101D400000634CC02846C5E90261EE6100F064F909
:101D5000002818BFFFF732FE25626C6206B070BD26
:101D600070B515460446006842F60002C4F201024E
:101D700090420E4605D042F20041C4F20101884271
:101D800009D142F20440C4F20100006810F4702F3F
:101D90001CBF012070BD94F82400012804BF02205C
:101DA00070BD012084F824002046FFF7B5F918B172
:101DB000002184F8241070BD42F204402168A26A18
:101DC000C4F2010040F601739A4300F57F7302F5F7
:101DD00080729942A26243D0A06A20F48010A0626F
:101DE0004868400504D5A06A012262F30D30A06264
:101DF000A26A0020D2044FF0000244BFE26A22F03F
:101E00000602E26284F82400206A41F2A502C0F6CC
:101E1000000241F2111341F2F90C00F1280EC0F654
:101E20000003C0F6000C8EE80C106FF002020A608E
:101E30008A682B4642F480728A604C31324600F048
:101E40002FF92068816801F460228168B2F5602F63
:101E50000CBF41F4A00141F480118160002070BDED
:101E6000026812F4702FB7D0A26A42F48012A26204
:101E700000684005BCD5B6E710B5D0E90FCE0168C3
:101E8000DCF800300A6823FA0EF35C072AD512F05A
:101E9000040427D00A68920603D40A6822F00402D8
:101EA0000A602F22C4F20202914240F20402C4F2FC
:101EB00002025BDD3023C4F20203994272D0442354
:101EC000C4F20203994273D05823C4F20203994228
:101ED00040F07A804FF480231360C16A002940F0FB
:101EE00098806FE09C0727D512F0020424D00A687E
:101EF000920606D40A6822F00A020A60012280F8DB
:101F000021202F22C4F20202914240F20402C4F2C4
:101F100002023BDD3023C4F20203994260D0442325
:101F2000C4F2020399425FD05823C4F202039942DB
:101F300060D14FF4003365E01B0743D512F008026F
:101F400008BF10BD0A6822F00E020A60012101FAE2
:101F50000EF2CCF80420816380F82110016B00227E
:101F6000002980F8202054D12CE000BF0823C4F2BF
:101F70000203994222D01C23C4F20203994223D1C6
:101F800040231360C16A002943D11BE00823C4F237
:101F9000020399422CD01C23C4F20203994229D196
:101FA00020232FE04FF480631360C16A89BB09E0EE
:101FB0004FF480431360C16A59BB03E004231360EC
:101FC000C16A31BB10BD00BF02F168044FF08063ED
:101FD000A14208BF4FF480031360C16AC9B9F1E799
:101FE0004FF400730EE000BF4FF400530AE000BF4F
:101FF000022307E002F168044FF00073A14208BF1A
:102000004FF400131360816A0022002980F8202019
:10201000D8D0BDE810400847014600284FF0010025
:1020200008BF70472DE9F043D1F800C04FF6F873B0
:10203000CBF6FD734CF6CD426344CCF6CC42A3FB09
:1020400002236FF0030707EA93030027C4F2020795
:1020500001F10C09C1E90F730223D1E9012E99E8BE
:102060007002D1F81C8081F82130DCF8003043F692
:10207000F077BB431A4342EA0E0222432A4332431B
:1020800042EA090242EA0802CCF8002000228A63F0
:1020900081F8210081F820200020BDE8F04370473E
:1020A000F0B590F820C0BCF1010F32D04FF0010E16
:1020B00080F820E090F821C0BCF1010F26D14FF04C
:1020C000020C80F821C04FF0000CC0F838C0D0E9F5
:1020D00000C4C56AC66BDCF80070102C27F001073D
:1020E000CCF80070006C0EFA00F070600846CCF876
:1020F000043004BF10460A46CCF80800CCF80C2087
:10210000DCF8000045B140F00E000DE0002180F841
:1021100020100220F0BD00BF20F00400CCF8000029
:10212000DCF8000040F00A00CCF80000DCF8000009
:1021300040F00100CCF800000020F0BDB0B504462E
:1021400000F02EF9054640F20000C2F200000078CF
:10215000611C18BF044400BF00F022F9401BA042DC
:10216000FAD3B0BD2DE9F04F82B041F20042C4F283
:1021700001020E680423904208BF0323002E00933F
:1021800000F0F68040F2004C4FF6FF7E0022C4F2D1
:10219000010C0124C1F2100E4FF0000A4FF00009AB
:1021A00047E000BF012502F00C040F27A7402BEAEF
:1021B000070705FA04F43C4343F82640D1F804B07D
:1021C00040F20C455FEACB23DCF8083054BF23EA29
:1021D000080343EA0803C4F20105CCF808302B6871
:1021E0005FEA8B2454BF23EA080343EA08032B6009
:1021F0005FEA8B34DCF8043054BF23EA080343EA77
:1022000008035FEACB34CCF80430DCF800304FF040
:10221000010454BF23EA080343EA0803CCF8003062
:102220000E680AF1010A36FA0AF302F1040200F01C
:102230009F8004FA0AF816EA080FF1D04B6873453C
:1022400012DC122B56D8DFE803F0350B4549555503
:1022500055555555555555555555554D510000BF7A
:10226000D1F80C9046E000BF4FF6FF75C1F2210592
:10227000AB420FDC0025C1F21105AB421AD000259C
:10228000C1F21205AB4215D00025C1F22105AB42C7
:1022900010D02FE00025C1F22205AB420AD0002564
:1022A000C1F23105AB4205D00025C1F23205AB4287
:1022B00020D100BF8B684BB1012B14BFC0F8148034
:1022C000C0F810804FF0080914E000BF4FF0040977
:1022D00010E000BFCB6803F108090BE04FF00009E4
:1022E00008E000BFCB6803F1040903E0CB6803F109
:1022F0000C0900BF13460546BAF1080F24BF203B66
:1023000004352E680F279F40BE4309FA03F3334379
:102310002B60CB79DB067FF583AF41F21804C4F262
:10232000020423684FEA9A0643F0010323602368FE
:1023300040F6000403F001030193019BACF57E73AA
:1023400053F826B0C4F20104A0420FD040F6004476
:10235000C4F20104A0423FF425AF41F20004C4F2EC
:102360000104009DA04208BF02251CE700251AE7D2
:1023700002B0BDE8F08F00008068084018BF01205F
:1023800070470000C26802EA0103914341EA034139
:1023900001617047002A08BF09040161704700000D
:1023A00040F2A460C2F200000068704770B5B8B394
:1023B000044690F83D0028B9002084F83C002046EF
:1023C00000F0A2FA242084F83D002068016821F082
:1023D00001010160016841F400410160016821F4DC
:1023E0000041016000F01CFD48F28041C0F21E0176
:1023F00040F60013D4F804E088424FF00001C0F228
:102400003D0348F2A16C4FF0000238BF0121984211
:10241000C0F2010C38BF0122E64538BF0A460AB1B6
:10242000012070BD4DF68361C4F21B31A0FB011287
:102430002168950C4B684FF4967623F03F0343EAEE
:102440009243754344F6D3564B60C1F262060B6A61
:10245000A5FB0656B50923F03F03E64538BF950CAA
:102460006A1C1A430A62CA6948F2A0664CF6FF73F6
:10247000C0F20106B64522EA03020BD801384FEA42
:102480004E03B0FBF3F001306FF31F30042898BF08
:1024900004201EE0A368013863B119230EFB03F387
:1024A000B0FBF3F001306FF31F3078B100F58040DE
:1024B00008E000BF0EEB4E03B0FBF3F001306FF30A
:1024C0001F3028B100F5004003E000BF012000E00C
:1024D00001201043C8610868D4E9072320F0C00038
:1024E000104318430860886848F2FF3204F10C0674
:1024F00090434CCE18431043A5698860C86820F00B
:10250000FF0030432843C860086840F001000860BD
:1025100000202021206484F83D10206384F83E00D0
:1025200070BD00002DE9F04F83B01E4692468846EC
:102530000446FFF735FF94F83D1020291CD121688F
:10254000054600BF8869800712D5FFF729FF401BA9
:1025500021681A28F6D388698007F3D50020202146
:10256000206384F83D1084F83E00216C0226C2E00E
:1025700094F83C00012805D10226304603B0BDE89E
:10258000F08F00BF4FF0010984F83C900868C00745
:1025900003D1086840F0010008600868002720F4B3
:1025A00000600860242084F83D000020CFF6FF7012
:1025B0002764E06208F0FE08BAF1010F88BFD14637
:1025C0004FF0A00A4FF0200B04E000BF01374F4549
:1025D00000F0A4800868002240F480700860204663
:1025E0004FF001113346009500F080FE216800286D
:1025F00056D1C1F81080FFF7D3FE21684B694A69B4
:1026000094F83D50A02D054605D013F0020008BFF8
:1026100012F480601AD084F83DB048690A688007D7
:1026200042F400720A6047D46FF48060486100BFD2
:1026300088698007CAD5FFF7B3FE401B21681A28B6
:10264000F6D388698007F3D54CE000BFB6B100BF70
:10265000FFF7A6FE401BB04288BF84F83DA021686A
:102660004A69486994F83D30A02BD4D012F0020298
:1026700008BF10F48060EBD0CDE700BFFFF790FEFD
:1026800084F83DA021684A69486994F83D30A02B40
:10269000C1D012F00202BED110F48060EED0BAE7D1
:1026A00008680326C00544BF4FF40070206430461C
:1026B00003B0BDE8F08F00BF002602964869029083
:1026C000886902900298886901E000BF80698007EC
:1026D0001AD5FFF765FE411B20681A29F6D38169D8
:1026E0008907F3D500202021206384F83D1084F869
:1026F0003E00216C012641F02001216484F83C0059
:10270000304603B0BDE8F08F202084F83D0084F807
:102710003C60304603B0BDE8F08F00BF202084F855
:102720003D000020012684F83C00304603B0BDE89F
:10273000F08F00002DE9F04383B01E46174689460E
:102740000446FFF72DFE94F83D10202920D10546C0
:10275000206800BF8169890716D5FFF721FE411B5C
:1027600020681A29F6D381698907F3D50020202132
:10277000206384F83D1084F83E00216C41F0200174
:10278000216484F83C0003E094F83C10012903D153
:10279000022003B0BDE8F083012184F83C100168F9
:1027A000C90703D1016841F001010160016840F2ED
:1027B000020821F400610160212184F83D101021FC
:1027C00084F83E100021216467626685618DC0F245
:1027D00001082185A8F10211E162E16A0A9E11F562
:1027E000803F18BF01291DD1016841F4807101604B
:1027F00020464FF0011100223346009500F076FD8F
:1028000050B120680068C00544BF4FF400702064D8
:10281000012003B0BDE8F0832069B0F5804F07D1F7
:10282000FE2015E00829DFD0216B1229DCD0DFE77C
:10283000062000EAD9102168F030086108F106018D
:10284000204632462B4600F03BFE0028E0D1FF2018
:10285000216800EA090008612046414632462B46BD
:1028600000F02EFE0028D3D100200290206841699C
:10287000029180690290029806E000BF204631462E
:102880002A4600F0D3FC18BB208D68B320463146A1
:102890002A4600F085FED8B9606A2168024612F81F
:1028A000013B0B616262628D013A6285228D531E8B
:1028B00023854F697F07E1D51B04DFD043780230C1
:1028C0000B616062608D01386085901E2085D5E7C0
:1028D000206C04289CD12068016841F400710160DB
:1028E000012003B0BDE8F0832068016841F4007165
:1028F0000160202084F83D00002084F83E0084F828
:102900003C0003B0BDE8F08310B586B0006845F226
:102910000041C4F20001884202D006B010BD00BFE1
:10292000012041F218040490C4F20204206802A9B4
:1029300040F008002060206800F008000190019835
:102940004FF440700290122003900320059040F64F
:102950000040C4F20100FFF705FC0420C4F20100AE
:10296000016841F0E06141F002010160606840F4FB
:1029700000106060606800F400100190019806B0DB
:1029800010BD000070B548B304460068D4E90112D8
:102990004CF6CC43036045F25553036041608260BE
:1029A000FFF7FEFC2168CA68920711D0054641F284
:1029B0003D3602E0C86880070AD0FFF7F1FC401BF3
:1029C0002168B042F6D3C8688007F3D0032070BDF9
:1029D0004AF6AA200860002070BD00BF012070BD2B
:1029E00001684AF6AA2200200A60704740F20000FF
:1029F00040F2A461C2F20000C2F2000100780A684D
:102A0000104408607047000080B542F20000C4F234
:102A10000200016841F010010160032000F08AF813
:102A20000F2000F005F800F027F8002080BD00001E
:102A300070B540F20006C2F2000640F22001327882
:102A4000C2F200014FF47A730968B3FBF2F2044654
:102A5000B1FBF2F1084600F0D1FB0F2C4FF001055D
:102A600008D838B94FF0FF3021460022002500F089
:102A700035F87460284670BD82B041F21800C4F287
:102A800002000168022241F001010160016801F0C9
:102A9000010101910199416841F080514160406814
:102AA00000F08050009000980420C4F201000168FA
:102AB00062F31A61016002B070470000002848BF4D
:102AC000704700F01F01012202FA01F14EF20012DC
:102AD0004009CEF2000242F82010704710B54EF6C1
:102AE0000C5CCEF2000CDCF80030C3F3022E8EF04A
:102AF0000704042C28BF0424BEF103034FF0FF3E5B
:102B00000EFA04F438BF0023A14399400EFA03F3F0
:102B10009A43114300F00F02043A624409010C3257
:102B200000F16043B0F1FF3FC8BF03F5644211708C
:102B300010BD00004EF60C51CEF200010A684FF6AF
:102B4000FF031A4060F30A2242F0806040F0FD70FB
:102B5000086070472DE9F04182B00446007841F2E8
:102B60001C06C007C4F202064AD0306810F0805834
:102B700008D1306840F080503060306800F08050FC
:102B80000190019847F20007C4F200073868C005B9
:102B900012D4386840F480703860FFF701FC0546B5
:102BA0003868C00508D4FFF7FBFB401B6428F7D941
:102BB000032002B0BDE8F081706810F4407012D0BC
:102BC000616801F4407188420DD0706840F2404263
:102BD000C4F24222012320F4407113600023C00795
:102BE000136071602AD17068616820F440700843F6
:102BF000B8F1000F706003D1306820F08050306071
:102C00002068810707D556F8181CA26821F44041B6
:102C1000114346F8181CC00604D4002002B0BDE8D9
:102C2000F08100BF56F8180CE16820F480000843DA
:102C300046F8180C002002B0BDE8F081FFF7B0FBA9
:102C4000054641F2883700BF70688007CBD4FFF794
:102C5000A7FB401BB8424FF00300F5D9EBE700009B
:102C60002DE9F04381B0002800F0858042F2000891
:102C7000C4F202080446D8F800000D4600F0070030
:102C800088420CD2D8F8000020F007002843C8F88A
:102C90000000D8F8000000F00700A8426BD12068BF
:102CA00041F204098107C4F2020917D5410705D58D
:102CB000D9F8001041F4E061C9F80010010705D50A
:102CC000D9F8001041F46051C9F80010D9F800108B
:102CD000A26821F0F0011143C9F80010C00741D1EA
:102CE000D8F8000000F00700A8420CD9D8F800007E
:102CF00020F007002843C8F80000D8F8000000F0D2
:102D00000700A84237D12068410707D5D9F800103D
:102D1000E26821F4E0611143C9F80010000708D50A
:102D2000D9F80000216920F4605040EAC100C9F8D8
:102D30000000D9F8002002F00C00082841F2002021
:102D4000C0F27A0050D147F65643C2F38341C0F631
:102D50000003595CD2033BD440F60010C0F23D00A2
:102D6000484341E0606802280AD001282AD159F876
:102D7000041C890308D4012001B0BDE8F08300BF22
:102D800059F8041C8901F6D5D9F8001021F0030187
:102D90000843C9F80000FFF703FB064641F28837F5
:102DA000D9F80000616800F00C00B0EB810F97D0FB
:102DB000FFF7F6FA801BB842F2D9032001B0BDE854
:102DC000F08300BF59F8041C8907D4D5DCE700BFA5
:102DD000D9F8002047F65443C2F34042C0F600033E
:102DE0009A5C4843B0FBF2F0D9F8001045F2284253
:102DF000C1F30311C0F60002515C40F2200220FA38
:102E000001F140F20400C2F200000068C2F20002C8
:102E10001160FFF70DFE002001B0BDE8F083000057
:102E200040F2200041F20401C2F20000C4F20201AB
:102E30000068096845F23842C1F30221C0F6000279
:102E4000515CC840704700002DE9F04182B0002875
:102E500068D00446007841F20006C007C4F20206BA
:102E600025D0706800F00C0004281BD0706800F0BA
:102E70000C00082802D17068C00313D460680028D1
:102E800000F06881B0F5A02F00F07C81B0F5803FA4
:102E900000F07C81306820F480303060306820F4AD
:102EA000802076E13068800301D56068D0B3207857
:102EB000800718D5706810F00C0F07D0706800F00C
:102EC0000C0008286ED17068C0036BD4306880078E
:102ED00002D52069012825D13068616920F0F80009
:102EE00040EAC1003060207800071FD420784007F6
:102EF00032D4E56995B1706800F00C00082840F004
:102F00008F80012D0ED07068216A00F480328A42D1
:102F100008D1616A00F47010884203D1002002B029
:102F2000BDE8F081012002B0BDE8F081A069002871
:102F300062D00020C4F242200121C0F88014FFF7C3
:102F40002FFA0546706A800700F18C80FFF728FA97
:102F5000401B0228F6D92AE1F06910F0805808D108
:102F6000F06940F08050F061F06900F0805000900E
:102F7000009847F20007C4F200073868C00529D45A
:102F8000386840F480703860FFF70AFA054600BFE1
:102F90003868C0051ED4FFF703FA401B6428F7D930
:102FA00005E100BF2069002840F20000C4F2422081
:102FB00000F0828001210160FFF7F2F9054600BFB1
:102FC000306880073FF588AFFFF7EAF9401B022819
:102FD000F6D9ECE0E068002800F08080052800F0D9
:102FE0009780012800F09880306A20F0010030625C
:102FF000306A20F0040092E00020C4F24220002158
:10300000C0F88014FFF7CCF9054600BF706A80074E
:103010007FF56CAFFFF7C4F9401B0228F6D9C6E074
:103020000027C4F2422700203866FFF7B9F9022DC5
:1030300005460BD13068800140F1BE80FFF7B0F942
:10304000401B02284FF00300F4D968E73068800184
:103050007FF564AFFFF7A4F9401B02284FF003008F
:10306000F4D95CE740F22000C2F20000006844F6A8
:10307000D351C1F26201A0FB0101480A019000BFD7
:1030800000BF0198411E002801913FF42FAF00BFFF
:103090000198411E002801913FF428AF00BF01981C
:1030A000411E002801913FF421AF00BF0198411E4D
:1030B00000280191E4D119E700210160FFF770F9C0
:1030C000054600BF306880077FF50DAFFFF768F950
:1030D000401B02284FF00300F4D920E7306A20F0AB
:1030E00001003062306A20F004003062FFF758F9C6
:1030F000054641F2883700BF306A800720D5FFF7C8
:103100004FF9401BB8424FF00300F5D907E700BF65
:10311000306A40F004003062306A40F001003062F2
:10312000FFF73EF9054641F2883700BF306A800755
:1031300006D4FFF735F9401BB842F7D937E000BF96
:10314000B8F1000F7FF4D5AEF06920F08050F06147
:10315000CFE600BF306820F480303060306820F463
:1031600080203060FFF71CF9054600BF30688003FF
:103170007FF59DAEFFF714F9401B64284FF0030064
:10318000F4D9CCE6306840F480203060306840F4F8
:1031900080303060FFF704F9054600BF30688003D7
:1031A0003FF585AEFFF7FCF8401B6428F6D90320F5
:1031B00002B0BDE8F08100BF206AB0F5803F05D1C4
:1031C0007168A26821F40031114371607168626A0C
:1031D00021F4741110430843706001203866FFF732
:1031E000DFF80446306880013FF598AEFFF7D8F865
:1031F000001B02284FF00300F4D990E6411E002086
:10320000B0EB116F1CBF012070474EF21002CEF2DE
:10321000000251604EF62351CEF20001F0230B70F4
:103220000721906011607047FEE7000070B50368E9
:10323000044653F8140F400711D40E46481C29D0F9
:1032400086BB00BF1868400527D4FFF7A9F823689C
:1032500053F8140F400739D518684007F2D50020FD
:1032600070BD00BF18684007F9D41868400514D431
:1032700018684007F3D4186840050ED41868400752
:10328000EDD41868400508D4186840074FF00000D6
:1032900048BF70BD18684005E4D56FF480601860C1
:1032A000042014E0154603E053F8140F4007D6D469
:1032B00018684005F1D4FFF773F8401B2368B0424B
:1032C000F2D958694007EFD4202000E020200021E7
:1032D0002022216384F83D2084F83E10226C1043A4
:1032E0002064012084F83C1070BD00002DE9F041FD
:1032F000054600681E46144601F47F0201338FB272
:1033000042D0DDF81880B2F5803F40F087804069F8
:103310003840C01BB0FA80F04009A04240F0C8809D
:103320004EB924E040693840C01BB0FA80F0400933
:10333000A04240F0BD80FFF733F8A0EB08012868F9
:10334000B142EFD941693940C91BB1FA81F149094C
:10335000A142E7D19BE000BF40693840C01BB0FAF2
:1033600080F04009A0424FF0000040F0A680FFF737
:1033700017F8286841693940C91BB1FA81F1490938
:10338000A142E9D183E000BFB2F5803F24D100BF64
:1033900041693940C91BB1FA81F14909A14240F0A4
:1033A000878041693940C91BB1FA81F14909A142BD
:1033B00040F07E8041693940C91BB1FA81F1490969
:1033C000A14275D141693940C91BB1FA81F149095E
:1033D000A142DDD06CE000BF81693940C91BB1FA60
:1033E00081F14909A14263D181693940C91BB1FA10
:1033F00081F14909A1425BD181693940C91BB1FA08
:1034000081F14909A14253D181693940C91BB1FAFF
:1034100081F14909A142DFD04AE000BF806938400C
:10342000C01BB0FA80F04009A04241D146B923E068
:1034300080693840C01BB0FA80F04009A0423BD1FF
:10344000FEF7AEFFA0EB08012868B142F0D9816910
:103450003940C91BB1FA81F14909A142E8D116E00E
:1034600080693840C01BB0FA80F04009A0424FF09C
:10347000000018BFBDE8F081FEF792FF286881695F
:103480003940C91BB1FA81F14909A142E8D10020B4
:103490002021286385F83D1085F83E00296C41F015
:1034A0002001296485F83C000120BDE8F08100BFBF
:1034B0000020BDE8F08100BF0020BDE8F0810000E1
:1034C000F0B581B0044600681D4643698FB203EA37
:1034D0000701B94202D1002001B0F0BD4169164692
:1034E000013201F4806125D0002940D1CEB100BF66
:1034F000FEF756FF411B2068B14203D941693940AC
:10350000B9424BD141693940B942E4D041694905DA
:10351000EED52CE041693940B942DCD0416949051A
:1035200025D4FEF73DFF206841693940B942F1D00A
:10353000202024E0D9B941693940B942CBD0416952
:10354000490514D441693940B942C4D0416949059B
:103550000DD441693940B942BDD04169490506D40D
:1035600041693940B942B6D041694905E3D501689E
:1035700041F4007101606FF4806141610420002119
:103580002022216384F83D2084F83E10226C1043F1
:10359000206484F83C10012001B0F0BD2020EEE74B
:1035A00070B50368044653F8140F000611D40E4694
:1035B000481C29D086BB00BF1868400527D4FEF7F9
:1035C000EFFE236853F8140F000639D5186800067B
:1035D000F2D5002070BD00BF18680006F9D4186845
:1035E000400514D418680006F3D4186840050ED4BA
:1035F00018680006EDD41868400508D4186800065D
:103600004FF0000048BF70BD18684005E4D56FF466
:1036100080601860042014E0154603E053F8140F8E
:103620000006D6D418684005F1D4FEF7B9FE401B59
:103630002368B042F2D958690006EFD4202000E098
:10364000202000212022216384F83D2084F83E10B0
:10365000226C10432064012084F83C1070BD0000EF
:1036600000F050BAFEE70000FEE7000070B540F23F
:10367000A001C2F20001887820B1C869802825D253
:1036800000202CE040F2F414C2F200042079022859
:1036900004D0012818BF70BD022020716079032872
:1036A00060D0022864D0012872D120690421013839
:1036B000206140F60000C4F201000122FEF76AFE1C
:1036C0002069052864D2022061E000BFB0F5786F60
:1036D0008FBFF02000F5782000F5FF400009096A4F
:1036E00040F2F415C2F200058029288002D20021A0
:1036F00009E000BFB1F5786F8FBFF02101F57821A7
:1037000001F5FF41090982B24EF660238CB25A439B
:103710006343C5E90223C5E9042340F21012C2F253
:1037200000021080C0EB0010800040F60006908080
:10373000C1EB0110C4F20106800069805180D08085
:10374000304604210022FEF725FE287900B170BD25
:1037500040F20133304604210022AB80BDE87040C6
:10376000FEF718BED4E90201C4E9040101200EE00D
:10377000606904210138606140F60000C4F2010074
:103780000022FEF707FE6069052801D20320607160
:1037900020694BF27321C4F2E751A0FB0123626957
:1037A00044F6D356C1F26206A0FB0605A2FB010156
:1037B000A2FB0602980B40F21013C2F2000318801D
:1037C000A8099880880B58809009D88070BD0000A7
:1037D0007047000080B540F20C20C2F200004FF4A8
:1037E0008061FCF7B0FFBDE8804000F079BA0000CE
:1037F00040F2CC02C2F2000250809180704700007B
:103800002DE9F04182B040F25060C2F20000782110
:10381000012244F62063FEF785FE4FF0000418B144
:10382000204602B0BDE8F08140F250654FF42E40D2
:10383000C2F20005ADF806000A260DF10602284680
:10384000782102230096FEF775FF4FF400580DF122
:103850000602284678210223ADF806800096FEF77E
:1038600069FF4FF480570DF10602284678210223A4
:10387000ADF806700096FEF75DFF4FF43040ADF8EE
:1038800006000DF106022846782102230096FEF775
:1038900051FF0DF10602284678210223ADF80640BB
:1038A0000096FEF747FF0DF1060228467821022315
:1038B000ADF806700096FEF73DFF4FF48040ADF87E
:1038C00006000DF106022846782102230096FEF735
:1038D00031FF4FF44040ADF806000DF106022846D6
:1038E000782102230096FEF725FF4FF42040ADF823
:1038F00006000DF106022846782102230096FEF705
:1039000019FF4FF40140ADF806000DF106022846FC
:10391000782102230096FEF70DFF4FF47F40ADF8AB
:1039200006000DF106022846782102230096FEF7D4
:1039300001FF4FF42640ADF806000DF106022846BF
:10394000782102230096FEF7F5FE4FF42840ADF8EB
:1039500006000DF106022846782102230096FEF7A4
:10396000E9FE4FF47C50ADF806000DF10602284642
:10397000782102230096FEF7DDFE4FF42440ADF8D7
:1039800006000DF106022846782102230096FEF774
:10399000D1FE4FF45340ADF806000DF10602284663
:1039A000782102230096FEF7C5FE0DF10602284697
:1039B00078210223ADF806400096FEF7BBFE4FF4D7
:1039C0005540ADF806000DF1060228467821022385
:1039D0000096FEF7AFFE4FF47040ADF806000DF113
:1039E00006022846782102230096FEF7A3FE4FF434
:1039F0005940ADF806000DF1060228467821022351
:103A00000096FEF797FE4FF40850ADF806000DF152
:103A100006022846782102230096FEF78BFE4FF41B
:103A20005A40ADF806000DF106022846782102231F
:103A30000096FEF77FFE4FF49050ADF806000DF1B2
:103A400006022846782102230096FEF773FE4FF403
:103A50005B40ADF806000DF10602284678210223EE
:103A60000096FEF767FE0DF1060228467821022334
:103A7000ADF806800096FEF75DFE4FF40D40ADF800
:103A800006000DF106022846782102230096FEF773
:103A900051FE4FF4A050ADF806000DF10602284685
:103AA000782102230096FEF745FE4FF42F40ADF833
:103AB00006000DF106022846782102230096FEF743
:103AC00039FE4FF43850ADF806000DF106022846D5
:103AD000782102230096FEF72DFE40F20C20C2F260
:103AE00000004FF48061FCF72EFE00F0F9F840F280
:103AF000CC00C2F20000C0F802400124204602B00F
:103B0000BDE8F08110B5FFF77BFEFFF763FE0020F4
:103B10000521FFF76DFE40F21004C2F200041AA066
:103B20002146012200F0C4F800202021FFF760FEAA
:103B300017A02146012200F0BBF800F0D1F84FF4A5
:103B40007A70FEF7FBFAFFF745FE00200521FFF72C
:103B50004FFE11A02146012200F0AAF800202021EA
:103B6000FFF746FE0FA02146012200F0A1F800F069
:103B7000B7F84FF47A70FEF7E1FAFFF741FEBDE8BF
:103B80001040FFF727BE00BF474153494F4E00008A
:103B90004149525445430000204861766520612028
:103BA000000000006E696365646179002DE9F04FE3
:103BB00087B040F2CC03C2F20003B3F802A00E7843
:103BC00006EB0A077F2F05D89F884D7803972F446F
:103BD0003F2F03D9002007B0BDE8F08F1B78B2FA61
:103BE00082F77F09002B05971CBF3A460123002D61
:103BF0000693009050D0013A2038B2FA82F240F297
:103C00000C290190002750093346C2F200090490A4
:103C100004E000BF00230137AF423DD2002BF9D0B2
:103C20000398C21994B23F2CF5D801984C6805FB53
:103C30000070012334F8108002F0070003FA00F549
:103C40004FF68070C0F20F00029700EA021EE843B0
:103C5000002703E00E780137B74219D20AEB0706B6
:103C6000B6B27F2EF6D8764408FA07F319F806B0F4
:103C70001B04049B0BEA000CDDE9052458BF82EA13
:103C80000403002B18BF4BEA050C09F806C0E1E756
:103C90004D78029F3346BEE7F0B240F2CC0150446B
:103CA000C2F2000148805DF81C0BBDE8F08F0000F7
:103CB00070B503787BB114460D46461CD8B2294630
:103CC0002246FFF773FF16F8011C884206D116F84A
:103CD000013B002BF2D1002070BD00BF084670BD33
:103CE0002DE9F04FC1B00DF1040B40F250660BF11D
:103CF00001094FF000086FF07F050A24C2F20006A8
:103D00004FF0000A40F20C20C2F20000284400F1FB
:103D10008007AAF150008DF80500304678215A46F8
:103D200002238DF804800094FEF704FD30467821CC
:103D30005A460223ADF804800094FEF7FBFC4FF4D2
:103D40008050ADF80400304678215A460223009492
:103D5000FEF7F0FC40208DF80400484639468022EA
:103D6000FCF7ACFC304678215A4681230094FEF7DC
:103D7000E1FC8035B5F5607F0AF1010AC2D141B09E
:103D8000BDE8F08F704700002DE9F04F81B040F2A0
:103D90008808C2F20008B8F804001428C0F0AD800A
:103DA00040F2301940F2E000C2F20009C2F2000015
:103DB00049460422FDF7D4FFD9F810A0BAF10A0F42
:103DC0007AD30020C9E90500C9E9070009F1240BED
:103DD00009F14C0209F1740309F19C074FF0010C41
:103DE0004FF0010E6646754609EB86000646DBF885
:103DF000004056F8241F01358C4282BFC9F8144098
:103E0000CBF8001034600646146856F84C1F8C42FC
:103E100082BFC9F818401160346006461C6856F825
:103E2000741F8C4282BFC9F81C40196034603C6822
:103E300050F89C1FEEB28C4282BFC9F82040396016
:103E40000460B245D0D80EF1010E09EB8C005FFA88
:103E50008EFC00F1240B00F14C0200F17403E245EA
:103E600000F19C07BED809F130030FCB09F15807C8
:103E700008441044184440F2A0018008C2F2000136
:103E8000C8618DCF104418443844800809F1800778
:103E900008628DCF104418443844800809F1A807FF
:103EA00048628DCF10441844384480088862FDF77A
:103EB0008FF900201CE000BFD9F8000009EB8A014F
:103EC0004862D9F81000D9F8041009EB8000C164E9
:103ED000D9F81000D9F8081009EB80004167D9E93A
:103EE000031009EB8000C0F89C10D9F810000130D5
:103EF000C9F810000020A8F8040001B0BDE8F08F58
:103F0000B0B540F60004C4F2010420460221FEF7D9
:103F100033FA40F28805C2F20005287620460421D3
:103F2000FEF72AFA687620464FF48061FEF724FAFD
:103F300004F50064E87620464FF40051FEF71CFAC1
:103F40006A7EE9882877CAB1312906D920464FF41C
:103F50000051FEF717FA0020E880E86B40F6B83110
:103F6000884203D90120A876B0BD00BFC0087C28D4
:103F700088BFB0BD0020A876B0BD00BFC829E5D27B
:103F8000EBE7000080B500F045F8BDE88040FEF7A3
:103F90002DBD000010B540F2A000C2F20000007874
:103FA00020B1BDE81040FFF761BB00BF40F2F41440
:103FB000C2F200040020A0802060C4E90200C4E92D
:103FC000040040F60000C4F2010004210022FEF7C4
:103FD000E1F920694BF2732CC4F2E75CA0FB0C23DF
:103FE000626944F6D35EC1F2620EA0FB0E01A2FB31
:103FF0000C04A2FB0E02980B40F21013C2F2000355
:10400000188088099880A00B58809009D88010BD2E
:104010007047000080B540F28800C2F200000188BD
:10402000828801310180511CC2888180511C00F1BD
:104030000C03C1800ECB013201F1010C0189C0E9F2
:1040400003C201310181591C4161FFF79DFEFFF759
:1040500057FFBDE88040FFF79DBF0000FEE700006E
:1040600080B540F28800C2F20000418801314180F1
:1040700040F2D400C2F20000FEF7B2FCBDE880407E
:10408000FDF734B994B0FEF7BFFC0A200A90012076
:1040900010210E90CDE90F104FF4002000240225CE
:1040A00013900AA80D94CDE90B440494CDE9024481
:1040B000CDE91154FEF7C8FE20B1EFF3108072B6BF
:1040C000FEE700BF0F20CDE905054FF48060CDE984
:1040D000080405A800210794FEF7C2FD20B1EFF304
:1040E000108072B6FEE700BF4FF00209002701A85A
:1040F000CDF804900397FEF72DFD28B1EFF3108063
:1041000072B600BFFEE700BF41F21804C4F2020419
:10411000206840F6000840F0100020602068C4F2DB
:10412000010800F010000A900A98206808F500665F
:1041300040F00400206020684FF4005100F00400BB
:104140000A900A982068002240F008002060206849
:104150004FF4005500F008000A900A983046FEF728
:1041600019F94046042100224FF0040AFEF712F923
:104170000A950AAD4FF0010B30462946CDE90BB741
:10418000CDF83490FDF7EEFF40462946CDE90A9779
:104190000C97FDF7E7FF03200D9040462946CDE937
:1041A0000AAB0C97FDF7DEFF4FF480600AA981E8A7
:1041B000810240462946FDF7D5FF54F8040C40F231
:1041C000D40540F0010044F8040C54F8040CC2F289
:1041D000000500F001000A900A9808F5E051284611
:1041E00040F80C1F4FF480714FF46022077307757D
:1041F000C261C0E90171C0F810A0FDF7B5FC28B19B
:10420000EFF3108072B600BFFEE700BF062005F195
:104210000C060C900AA93046CDE90AABFDF7D4FB99
:1042200020B1EFF3108072B6FEE700BF05200A90C0
:1042300002200B900AA93046FDF7C6FB20B1EFF330
:10424000108072B6FEE700BF06200A9003200B9094
:104250000AA93046FDF7B8FB20B1EFF3108072B623
:10426000FEE700BF07200A9004200B900AA9304601
:10427000FDF7AAFB20B1EFF3108072B6FEE700BF96
:10428000A8F55840062140F6FF7285E80700284649
:10429000FEF778FB20B1EFF3108072B6FEE700BFA7
:1042A00040F25060A8F53441C2F2000041F680228D
:1042B00000234FF48047C0F2060280E80E00C0E9F8
:1042C0000337C0E90533C0E90733FEF76FF828B1BB
:1042D000EFF3108072B600BFFEE700BF0B20052190
:1042E0000022FEF7FBFB0B20FEF7E8FBFFF7B8F917
:1042F000FFF7B6FEFCE75FEA400C08BF91F0000F45
:104300004FEA8C234FEAC12243EA51514FEA1C5035
:1043100018BF00F5F0404FEA300018BF41F00041EF
:104320005FEA6C5C00F02980BCF1FF3F08BF40F001
:1043300080407047130C06BF12044FF0100C4FF072
:10434000000C130E04BF12020CF1080C130F04BF73
:1043500012010CF1040C930F04BF92000CF1020C3B
:10436000D30F04BF52000CF1010C11464FF00002B4
:10437000A0F11F00A0EB0C00704711F0004F08BF28
:10438000704731F000413FF4D5AF0B0C06BF090474
:104390004FF0100C4FF0000C0B0E04BF09020CF193
:1043A000080C0B0F04BF09010CF1040C8B0F04BFA8
:1043B00089000CF1020CCB0F04BF49000CF1010C79
:1043C000CCF1200322FA03F341EA030102FA0CF2D2
:1043D000A0EB0C0000F101007047000023F07F47C4
:1043E00020F07F4C80EA030000F00040ACEB0703B4
:1043F00003F57C5303F1FF032DE9804909B44FEA2B
:10440000144324EA03484FEA154B25EA0B4E0FF2FA
:10441000042606EB13273E7803FB0667C7F5000763
:1044200007FB06F64FEAD64606F102064FEA543776
:1044300007FB066CCCF1005C4FEA1C472CEA074CEA
:104440000CFB06F507FB06F404EB15464FEA96163F
:1044500049085FEA320234BF00204FF000404FEAC3
:10446000D13706FB07FC4FEA1C4C0CFB0BF7D21BA9
:1044700003FB0CF761EB07010CFB0EF7B0EB0740F9
:1044800072EB17420CFB08F734BFA2EB0742B2EB0A
:10449000074261EB17414FEA0C444FEA910706FBD4
:1044A00007FC4FEA1C4C0CFB0BF7B0EBC74072EB60
:1044B000573203FB0CF734BFA2EBC742B2EBC74243
:1044C00061EB57310CFB0EF7B0EBC70072EB577284
:1044D0000CFB08F734BFA2EBC702B2EBC70261EBDB
:1044E00057714FEA816141EA92114FEA826242EAD2
:1044F00090124FEA806004EBCC04039F4FEAD1375F
:1045000006FB07FC4FEA1C4C0CFB0BF7D21B03FB12
:104510000CF761EB07010CFB0EF7B0EB074072EBF9
:1045200017420CFB08F734BFA2EB0742B2EB07427D
:1045300061EB17414FEA8C5504EB9C244FEA91073D
:1045400006FB07FC4FEA1C4C0CFB0BF7B0EBC7401B
:1045500072EB573203FB0CF734BFA2EBC742B2EB4E
:10456000C74261EB57310CFB0EF7B0EBC70072EBA3
:1045700057720CFB08F734BFA2EBC702B2EBC702BD
:1045800061EB57714FEA816141EA92114FEA826211
:1045900042EA90124FEA806015EB4C2544F100048A
:1045A0004FEAD13706FB07FC4FEA1C4C0CFB0BF71C
:1045B000D21B03FB0CF761EB07010CFB0EF7B0EB12
:1045C000074072EB17420CFB08F734BFA2EB07421F
:1045D000B2EB074261EB17414FEA813141EA924168
:1045E0004FEA823242EA90424FEA80304FEA0C763C
:1045F00015EB1C1544F1000448EA03434EEA0B484E
:104600004FF0000EB2EB080C71EB030724BF6246BB
:1046100039464EEB0E0E4FF0000B00185241494147
:104620004BEB0B0BB2EB080C71EB03077BF1000BB0
:1046300024BF624639464EEB0E0E4FF0000B0018B9
:10464000524149414BEB0B0BB2EB080C71EB0307EA
:104650007BF1000B24BF624639464EEB0E0E51EA49
:10466000020718BF46F0010616EB0E7655F1000260
:1046700054F1000103D5BDE88901BDE80088BDE81B
:104680008901BDE80048B619524141EB0101A3F18F
:104690000103704780807F7E7D7C7B7A7978777696
:1046A00076757473727171706F6E6E6D6C6C6B6A0F
:1046B0006A696868676666656464636362616160AD
:1046C000605F5F5E5E5D5D5C5C5B5B5A5A5959582A
:1046D0005857575656555555545453535252525194
:1046E000515050504F4F4F4E4E4D4D4D4C4C4C4BEA
:1046F0004B4B4A4A4A494949484848474747474631
:10470000464645454544444444434343434242426C
:10471000424141419C46002B30D477002BD04FEAD8
:1047200037071CB503B44FF010004FF01001BAF179
:10473000000F06D0BCF1000FDCBF40F0080040F0D5
:1047400008014FF000000FBCBDE810400BF1010B59
:10475000BBF1010F08BF5FEA170722BF12F1010288
:1047600011F101014FF0004143F1000300F000405E
:1047700043EA00007047F9D35708D0E746EA0646F7
:104780004FEA164613F1400F1FDD13F1200FDFBF74
:1047900016430A46002120335B42BED0C3F12007F6
:1047A00046EA06464FEA164602FA07F746EA0706C1
:1047B00022FA03F2C3F1200701FA07F742EA0702DF
:1047C00021FA03F14FF00003A7E746EA020646EAA2
:1047D00006464FEA164646EA0106BCBF46EA0646CA
:1047E000360C4FF000034FF000024FF0000194E749
:1047F0002DE9804C70B49A46934691E8380007C87A
:1048000031EA400C48BF34EA430C03D5FFF7E6FD1C
:10481000FFF780FFF0BCBDE8008C2DE9804C70B440
:104820009A46934691E8380007C810F0804F08BFB9
:1048300013F0804F03D100F005F8FFF76BFFF0BCD9
:10484000BDE8008C20F07F4723F07F4C80EA030016
:1048500000F0004007EB0C03A3F57C53A3F1FE032B
:1048600092F0000F00F0B38095F0000F00F0778019
:104870002DE901494FEA114021EA00484FEA144668
:1048800024EA064700FB06FC08FB06F607FB08F8CF
:1048900018EB06484CEB164C00FB07F718EB0748E3
:1048A0004CEB17404FEA124B22EA0B4E4FEA1546EB
:1048B00025EA06470BFB06FC0EFB06F607FB0EFE81
:1048C0001EEB064E4CEB164C0BFB07F71EEB074E90
:1048D0004CEB174B18EB0B0840F1000018EB0E0BDC
:1048E00058EB000840F100008F1A4FF000014FF024
:1048F00000063CBFC943661B14BFB5EB040C002186
:104900003CBFC943F61B4FEA174427EA04454FEA68
:104910001C472CEA074C04FB076205FB07F70CFB5E
:1049200005F616EB074642EB174204FB0CFC16EBB0
:104930000C4642EB1C421BEB060658EB02024141BF
:104940004EEA8E0E46EA9E0601D5BDE80189B619EB
:10495000524141EB0101A3F10103BDE801894FEA96
:10496000144524EA05464FEA114721EA074C05FBA6
:1049700007F406FB07F70CFB06F111EB074144EBCC
:10498000174405FB0CFC11EB0C4144EB1C444FEAB3
:10499000124722EA074C05FB07F206FB07F70CFB60
:1049A00006F616EB074642EB174205FB0CFC16EB2E
:1049B0000C4642EB1C456A1854F1000148BF704791
:1049C000B619524141EB0101A3F10103704795F083
:1049D000000F37D04FEA114221EA02464FEA14474E
:1049E00024EA074C02FB07F106FB07F70CFB06F471
:1049F00014EB074441EB174102FB0CFC14EB0C4495
:104A000041EB1C414FEA154725EA074C02FB07F52D
:104A100006FB07F70CFB06F616EB074645EB1745BA
:104A200002FB0CFC16EB0C4645EB1C42121951F133
:104A3000000148BF7047B619524141EB0101A3F193
:104A4000010370474FEA144524EA05464FEA11472F
:104A500021EA074C05FB07F106FB07F70CFB06F202
:104A600012EB074241EB174105FB0CFC12EB0C4229
:104A700051EB1C414FF0000648BF7047921841EBC4
:104A80000101A3F101037047490050EAC12018BF9A
:104A900004204A0D18BF40F0010040F2FF72B2EB53
:104AA000515F08BF40F00200012808BF0520704791
:104AB00030380A2801D201207047002070470000DA
:104AC00010B500290AD00878002807D00548784496
:104AD000FCF7A0FA002801D0002010BD024878445D
:104AE00010BD0000523200004A32000010B500290B
:104AF0000AD00878002807D005487844FCF78AFADD
:104B0000002801D0002010BD0248784410BD0000EC
:104B1000423200003A32000021F0004201F000432E
:104B2000A2F16052B2F5801F28BFD2F17F6C0BD981
:104B30005FEA001C43EAC20242EB507018BF7047A4
:104B400028BF20F001007047B2F5801FBCBF184697
:104B500070474FEA410C1CF5001F02D2084600F0D6
:104B600079BB70B500F077F900000089FFF7F6BF58
:104B70004FF00040A0F58000704700002DE9C041D3
:104B800030B4DFF8A4C23CEA111418BF3CEA131495
:104B900000F0ED801CEA111481EA030544EAD574A3
:104BA00018BF1CEA131500F0C880A4EB050404F13B
:104BB0007F7404F500344FF0004545EAC12145EA11
:104BC000C32341EA505143EA52534FEAC0204FEA0F
:104BD000C222994208BF904200F09D804FEA1365BF
:104BE0000FF24416765D4FEA134506FB05F7C7F151
:104BF000807706FB07F74FEAD737A7FB03687642B3
:104C0000A7FB06CEC8F5803838BFA8F1010807FB1E
:104C100008E6A6FB028C4FF0000EE6FB03CEDCF1AB
:104C2000000CCEF1004E38BFAEF1010EA6FB0C58C1
:104C30004FF00007E6FB0E87A1FB08C6A0FB07CEDE
:104C400016EB0E064FF0000545F10005E1FB076588
:104C500015F1E04E7EBFA4F580345FEA46066D4153
:104C600016F1800745F100054FEA172747EA056767
:104C70004FEA15254FEA0666A6F1DE46B6F1805FDB
:104C800020D9384605EBC47124F0010C01EB0C115E
:104C9000BCF1FE6F02D8F0BCBDE8008124425CBFCD
:104CA00001F5801E9EEAC47F02D4F0BCBDE80081FD
:104CB000244200F13980A1F1C041F0BCBDE80041BF
:104CC00000F017B94FEAD02040EA41504FEAD12115
:104CD0004FEAD22242EA43524FEAD323A7FB02868D
:104CE00007FB036605FB02661EEA0E0F58BFA6EB24
:104CF0000056B6EB00564FEA520E4EEAC37E18EB52
:104D00000E0E56EB530EBCD518EB02085E417F1C0D
:104D100055F10005B5E74FF480154FF000074FF04F
:104D200000064FF00008ACE701F1C04101F000417E
:104D30004FF00000F0BCBDE800810CEA131511EA49
:104D40000C1F00D00CE013EA0C1F00F026804FF07F
:104D5000000081EA030101F00041F0BCBDE80081E0
:104D6000F0BCBDE8004181EA030100F0C2B8F0BC2C
:104D7000BDE8004170B500F06EF800BF097EFC3E52
:104D800000F007B84FF0000081EA030101F0004194
:104D9000704781EA030100F0ACB8F0BCBDE8004107
:104DA00022494FF000007047FFFDFBF9F7F5F4F2E0
:104DB000F0EEEDEBE9E8E6E4E3E1E0DEDDDBDAD8B6
:104DC000D7D5D4D3D1D0CFCDCCCBCAC8C7C6C5C414
:104DD000C2C1C0BFBEBDBCBBBAB9B8B7B6B5B4B32B
:104DE000B2B1B0AFAEADACABAAA9A8A8A7A6A5A416
:104DF000A3A3A2A1A09F9F9E9D9C9C9B9A999998DA
:104E00009797969595949393929191908F8F8E8E7C
:104E10008D8C8C8B8B8A8989888887878685858409
:104E200084838382828181800000FF070000F87FF5
:104E3000B0FA80F310FA03F10AD0C3F11D0303F5B1
:104E400080634FEA03524FEA415002EBD121704791
:104E50004FF0000070470EF1020E2EF0030E5EF8C8
:104E6000046B364205D4012A43EB030515F5001FF8
:104E700012D8012841EB010C1CF5001F0CD80ED1F3
:104E80004FEAD17C0CEB4C0C0CF1020C15F5001F19
:104E900008BF4CEBD37C04E04FF0080C01E04FEA74
:104EA000D37C0CEB4C0526FA05F606F00706B6F1A6
:104EB000040C06D20EEB860CBDE870404CF0010CE1
:104EC0006047DFE80CF0090B02024FF00041A1F54A
:104ED00000214FF0000070BD19461046012851EB2B
:104EE000010418BFD4F5001484BF002001F0004174
:104EF00070BD0808A0F500114FEA310170470000AD
:104F000090EA010F48BF81F0004100F1B081421AE0
:104F10003CBF801A89184FEAD052A2EBD1534FF010
:104F20007F4C1CEA410F18BF9CEA026F00F03B80E7
:104F30004FF0004C4CEA00204CEA012121FA03FC1E
:104F400010EB0C0C1ED202F1FF325FEA1C2040EB8A
:104F5000C25038BF70471CF07F0F4FEA400C18BF9B
:104F6000BCF17F4F38BF7047C3F12003994008BFA1
:104F700020F00100BCF17F4F38BF7047A0F1C04066
:104F800000F068B94FEA3C00000A40EBC25028BF6D
:104F90001CF0FF0F4FEA400CE6D018BFBCF17F4F6A
:104FA00038BF7047EAE79CEA026F05D010EA5C0F51
:104FB00008BF00F00040704710B500F005F900BFD1
:104FC00064FBBE3E10B500F033F80CBF012000209A
:104FD00010BD10B500F02CF814BF0120002010BD4A
:104FE00010B500F089F88CBF0120002010BD10B56D
:104FF00000F082F82CBF0120002010BD10B500F099
:10500000AFF894BF0120002010BD10B500F0A8F843
:1050100034BF0120002010BD401058BFC0F14040F7
:10502000491058BFC1F140418142EFF30080704701
:1050300050EA010C00F113801CF5000F58BFBCF5BD
:10504000000F01D48842704707D710F5000F58BFF2
:1050500011F5000F15D488427047894270471CF53E
:10506000000F04D5BCF5000FF7D5814270474FF013
:10507000807C1CEB400F38BF1CEB410F01D28142FA
:10508000704710B500F0A0F8922449004FF000508E
:105090004FF08051FFF7C0BF41000B0ED3F19E02CD
:1050A00008D950F400034FEA032323FA02F048BF63
:1050B0004042704710B500F087F800BF4992248045
:1050C000002070476FF0004282EA20007047000025
:1050D000B0FA80F310FA03F2C3F19D030AD0D905A8
:1050E00001EB1220530638BF704700F1010008BFE2
:1050F00020F001007047000050EA010C00F113801D
:105100001CF5000F58BFBCF5000F01D48842704752
:1051100007D710F5000F58BF11F5000F15D48842BE
:105120007047894270471CF5000F04D5BCF5000F8D
:10513000F7D5814270474FF0807C1CEB400F38BFA1
:105140001CEB410F01D28142704710B500F03CF8D2
:10515000922449004FF080504FF00051FFF75CBFA0
:1051600050EA010C00F113801CF5000F58BFBCF58C
:10517000000F01D48842704707D710F5000F58BFC1
:1051800011F5000F15D488427047894270471CF50D
:10519000000F04D5BCF5000FF7D5814270474FF0E2
:1051A000807C1CEB400F38BF1CEB410F01D28142C9
:1051B000704710B500F008F8922449004FF00050F5
:1051C0004FF08051FFF728BF0EF1020E2EF0030EB4
:1051D0005EF8044B244204D44FEA4102B2F17F4FFF
:1051E00011D84FEA4003B3F17F4F0CD80ED14FEAEC
:1051F000D07C0CEB4C0C0CF1020CB2F17F4F08BFD1
:105200004CEBD17C04E04FF0080C01E04FEAD17C7C
:105210000CEB4C0324FA03F404F00704B4F1040C7F
:1052200006D20EEB840CBDE810404CF0010C604738
:10523000DFE80CF0070802024FF00040A0F5800004
:1052400010BD0846420018BFD2F1807288BF00F03E
:10525000004010BDFF2141EAD050C005704700005A
:1052600090EA010F48BF81F000413FF550AE421A6D
:1052700004D882F00042A0EB020011444FEAD05261
:10528000A2EBD1534FF07F4C1CEA410F18BF9CEAB0
:10529000026F4AD04FF0004C4CEA00204CEA01214A
:1052A00021FA03FCB0EB0C0C0FD412F0FE0F36D039
:1052B0005FEA4C001DD5001240EBC25038BF70476A
:1052C0001CF03F0F18BF70470BE05FEA1C20A2F1F3
:1052D000010240EBC25038BF70471CF07F0F18BF6F
:1052E0007047C3F12003994014BF401E20F0010015
:1052F00070474FEA1223800808BF7047B0FA80FC5D
:10530000A2EB0C02CCF1280C60FA0CF093EA122FFD
:1053100004BF00EBC25070474FEAC3707047130AD6
:105320005FEADC1008BF7047F6E79CEA026F04D022
:1053300010EA5C0F08BF0020704710B5FFF744FF6C
:1053400040DFF63E81F000407047FBF757BB00009E
:1053500000000000000000003031323334353637B1
:1053600038394142434445464030580030313233A9
:1053700034353637383961626364656640307800A9
:10538000040000080000000000000002000100000E
:105390001000000002400000000000A0000000001B
:1053A00005400000000000C8000000000C400000A4
:1053B0000000409C00000000194000000020BCBE1E
:1053C0000000000034400000BFC91B8E0000000434
:1053D000B5400000504BCFD06607E2CF010000007F
:1053E0006C4100003E8251AADFEEA73401000000AC
:1053F000D9420000DCB5A0E23A301F97FFFFFFFF63
:10540000B4450000FD25A0C8E9A3C14FFFFFFFFF81
:10541000FF3F00000000008000000000FF3F000090
:1054200000000080000000000000000000000000FC
:10543000010203040607080900000000010203043A
:10544000000000000000000000000000000000005C
:10545000000000000000000000000000000000004C
:10546000000000000000000C000C000C000C000C00
:10547000000C000C000C000C000C000C0000000CD8
:10548000000C0000000000000000001B001B001BBF
:10549000001B001B000000000000000000000000D6
:1054A0000000000000000000000000000000801963
:1054B000801980198019C07FC07F80190033C07F98
:1054C000C07F0033003300330033000000000000D1
:1054D0000000001E003F807580650074003C001EC7
:1054E00000078005806580658075003F001E000410
:1054F000000400000000007000D840D8C0D880D957
:1055000000730006000C801BC036C066C046C00693
:1055100080030000000000000000001E003F003378
:1055200000330033001E000CC03CC0668063806105
:105530008063C03E801C0000000000000000000CE2
:10554000000C000C000C000C00000000000000002B
:10555000000000000000000000000000000000004B
:10556000800000010003000600060004000C000C8F
:10557000000C000C000C000C0004000600060003E8
:1055800000018000002000100018000C000C000436
:105590000006000600060006000600060004000CD7
:1055A000000C0018001000200000000C002D003F2F
:1055B000001E00330000000000000000000000009A
:1055C00000000000000000000000000000000000DB
:1055D0000000000C000C000C000CC0FFC0FF000C11
:1055E000000C000C000C0000000000000000000097
:1055F00000000000000000000000000000000000AB
:1056000000000000000000000000000C000C00047E
:10561000000400080000000000000000000000007E
:10562000000000000000001E001E0000000000003E
:10563000000000000000000000000000000000006A
:10564000000000000000000000000000000000005A
:105650000000000C000C000000000000000000032F
:10566000000300030006000600060006000C000C04
:10567000000C000C001800180018000000000000CA
:105680000000001E003F0033806180618061806DFA
:10569000806D8061806180610033003F001E0000EA
:1056A0000000000000000006000E001E003600266C
:1056B00000060006000600060006000600060006BA
:1056C00000060000000000000000001E003F807384
:1056D00080618061800100030006000C001800302A
:1056E0000060807F807F0000000000000000001C40
:1056F000003E006300630003000E000E0003800103
:10570000800180618073003F001E000000000000E7
:1057100000000006000E000E001E001E00160036DF
:1057200000360066807F807F0006000600060000CD
:10573000000000000000007F007F0060006000604B
:10574000006E007F80638001800180618073003F74
:10575000001E0000000000000000001E003F80331B
:1057600080610060006E007F807380618061806175
:105770008033003F001E0000000000000000807F1A
:10578000807F80010003000300060006000C000C6F
:10579000000C0008001800180018000000000000AD
:1057A0000000001E003F8063806180610021001EB8
:1057B000003F8061806180618061003F001E0000C9
:1057C000000000000000001E003F00738061806147
:1057D00080618073803F801D800180610073003F85
:1057E000001E00000000000000000000000000009B
:1057F0000000000C000C0000000000000000000091
:105800000000000C000C0000000000000000000080
:105810000000000000000000000C000C0000000070
:10582000000000000000000C000C00040004000850
:10583000000000000000000080008003000E00381F
:1058400000600038000E80038000000000000000AF
:105850000000000000000000000000000000807F49
:10586000807F00000000807F807F0000000000003B
:105870000000000000000000000000000000000028
:1058800000400070001C000780010007001C007031
:105890000040000000000000000000000000001FA9
:1058A000803FC071C060C000C00180030007000ECF
:1058B000000C000C0000000C000C000000000000B8
:1058C0000000001E003F803180718063806F806D1A
:1058D000806D806F806700600032003E001C000019
:1058E000000000000000000E000E001B001B001B4B
:1058F000001B80318031803F803F8031C060C060BC
:10590000C0600000000000000000007C007E00631A
:10591000006300630063007E007E0063806180613D
:105920008063007F007E0000000000000000001E79
:10593000003F8031806100600060006000600060B6
:10594000006080618031003F001E00000000000008
:105950000000007C007F0063806380618061806163
:1059600080618061806100630063007E007C0000D4
:10597000000000000000807F807F00600060006009
:105980000060007F007F0060006000600060807F3A
:10599000807F0000000000000000807F807F0060AA
:1059A000006000600060007F007F006000600060B9
:1059B0000060006000600000000000000000001EA9
:1059C000003F803180610060006000608063806320
:1059D000806180618031803F001E00000000000077
:1059E0000000806180618061806180618061807F72
:1059F000807F806180618061806180618061000062
:105A0000000000000000003F003F000C000C000CF4
:105A1000000C000C000C000C000C000C000C003FF3
:105A2000003F0000000000000000800180018001B4
:105A3000800180018001800180018001806180619E
:105A40008073003F001E0000000000000000C060E6
:105A50008061006300660066006C0078007C006670
:105A60000066006380618061C0600000000000008B
:105A70000000006000600060006000600060006086
:105A800000600060006000600060807F807F000038
:105A9000000000000000C071C071C07BC07AC06A05
:105AA000C06AC06EC064C060C060C060C060C060DA
:105AB000C0600000000000000000807180718079EB
:105AC00080798079806D806D806D8065806780676A
:105AD0008067806380630000000000000000001EFB
