:020000040800F2
:10000000180D002035020008BD140008B5140008C2
:10001000B91400082D040008C916000800000000EB
:10002000000000000000000000000000C5140008EF
:100030008905000800000000C1140008C914000868
:100040004F0200084F0200084F0200084F0200084C
:100050004F0200084F0200084F0200084F0200083C
:100060004F0200084F0200084F0200084F0200082C
:100070004F0200084F0200084F0200084F0200081C
:100080004F0200084F0200084F0200080000000065
:100090000000000000000000000000004F02000807
:1000A0004F0200084F020008E11400084F02000848
:1000B0004F0200084F0200084F0200084F020008DC
:1000C0004F0200084F0200084F0200084F020008CC
:1000D0004F0200084F0200084F0200080000000015
:1000E0004F0200084F0200084F0200080000000005
:1000F0000000000000000000000000004F020008A7
:10010000000000004F0200084F0200084F020008E4
:1001100000000000000000000000000000000000DF
:100120004F0200084F0200084F0200084F0200086B
:100130004F02000800000000000000000000000066
:100140000000000000000000000000004F02000856
:100150004F0200084F0200084F0200084F0200083B
:100160004F0200084F0200080000000000000000DD
:10017000000000000000000000000000000000007F
:10018000000000004F020008000000000000000016
:100190004F02000800F002F800F03CF80AA090E8D6
:1001A000000C82448344AAF10107DA4501D100F032
:1001B00031F8AFF2090EBAE80F0013F0010F18BFC3
:1001C000FB1A43F001031847A8170000C8170000E6
:1001D000103A24BF78C878C1FAD8520724BF30C873
:1001E00030C144BF04680C60704700000023002445
:1001F00000250026103A28BF78C1FBD8520728BF37
:1002000030C148BF0B6070471FB501F098FB1FBDA0
:1002100010B510BD00F0D0F81146FFF7F5FF01F062
:100220007BFA00F0EEF803B4FFF7F2FF03BC00F036
:10023000F5F800000948804709480047FEE7FEE757
:10024000FEE7FEE7FEE7FEE7FEE7FEE7FEE7FEE786
:1002500004480549054A064B70470000CD140008C4
:100260009501000818010020180D00201805002035
:100270001805002053EA020C00F069802DE9F04BCC
:100280004FF00006002B1FBFB3FA83F503FA05F405
:1002900024FA05F65E4012BF1643B2FA82F502FA5E
:1002A00005F4C5F120051EBF22FA05FC44EA0C0442
:1002B000203556EA044C4FEA144418BF641C4FF032
:1002C00000084FF00009904271EB030C39D300296C
:1002D00019BFB1FA81F701FA07F6B0FA80F700FA10
:1002E00007F6C7F120071EBF20FA07FC46EA0C06F6
:1002F0002037B6FBF4FCA7EB0507103F07F01F0BF8
:10030000CBF120062CFA06F60CFA0BFB44BFB346E1
:100310000026202FA4BF5E464FF0000B5BEA060CC0
:1003200008BF4FF0010B19EB0B0948EB0608ABFBBC
:10033000027C06FB02CC0BFB03CCC01B71EB0C0157
:10034000C1E70B46024641464846BDE8F08B13B56F
:10035000084318BF4FF0FF300146AFF30080BDE8FF
:100360001C4070474FF0000200B513469446964675
:10037000203922BFA0E80C50A0E80C50B1F12001B8
:10038000BFF4F7AF090728BFA0E80C5048BF0CC066
:100390005DF804EB890028BF40F8042B08BF7047C4
:1003A00048BF20F8022B11F0804F18BF00F8012B36
:1003B0007047704770477047754600F02BF8AE469F
:1003C00005006946534620F00700854618B020B561
:1003D000FFF73EFFBDE820404FF000064FF000075A
:1003E0004FF000084FF0000BAC46ACE8C009ACE899
:1003F000C009ACE8C009ACE8C00921F007018D468E
:10040000704710B50446AFF300802046BDE81040A9
:10041000FFF709BF0048704710000020014918206D
:10042000ABBEFEE72600020070470000FEE70000BA
:10043000B0B584B004464FF67E70C3F60670CDF8B2
:1004400006000020CFF6026040F2CC05CDF80A008D
:100450004EF6BA70C2F20005ADF80E000DF10601BD
:1004600028460A224FF0FF3300F070FFC82000F04A
:100470008DF84FF67E714FF6F560C0F20661001BF5
:10048000CDF806100021ADF80A10010A8DF80E0013
:10049000EF208DF80D108DF80F000DF106012846A4
:1004A0000A224FF0FF338DF80C4000F04FFF4FF45D
:1004B000FA7000F06BF804B0B0BD000080B584B0F5
:1004C0004FF67E70C0F60660CDF806004FF07E4015
:1004D000CDF80A004EF6ED70ADF80E0040F2CC00FB
:1004E000C2F200000DF106010A224FF0FF3300F0C6
:1004F0002DFFC82000F04AF804B080BD80B584B05C
:100500004FF67E70C0F20630CDF806000020CFF620
:100510000160CDF80A004EF6F770ADF80E0040F21B
:10052000CC00C2F200000DF106010A224FF0FF33A9
:1005300000F00CFFC82000F029F804B080BD0000D6
:1005400080B584B0C82000F021F84FF67E70C0F668
:100550000640CDF806004FF07E40CDF80A004EF67A
:10056000EF70ADF80E0040F2CC00C2F200000DF1C9
:1005700006010A224FF0FF3300F0E8FEC82000F029
:1005800005F804B080BD000070470000B0B5044617
:1005900000F002F9054640F20000C2F200000078C7
:1005A000611C18BF044400BF00F0F6F8401BA042D5
:1005B000FAD3B0BD2DE9F04F82B000F13E4241F2D6
:1005C000000502F1FF77C4F2020507224FEAB726C1
:1005D000A84208BF0422042E38BF4FEAB7224FF0CA
:1005E000010A002400274FF00008009208E000BF35
:1005F000023708F10108202F04F1040400F0B48050
:100600000E680AFA08F916EA090FF1D0D1F804A029
:100610000AF0030BABF10106012E17D803228668FE
:1006200002FA07FECA6826EA0E06BA403243826022
:100630004268CAF3001522EA090205FA08F54FEAF2
:10064000480C6FEA0E062A4342600BE00322BA40D0
:10065000D643BBF1030FBC4604D1BC464FF0030B9D
:1006600022E000BFC2688D68324005FA0CF52A43CB
:10067000BBF1020FC26017D16FF0030202EA580209
:10068000024404F01C030F25D2F820E005FA03FA17
:100690000D692EEA0A0E05FA03F343EA0E0313620C
:1006A000D1F804A00AF0030B02680BFA0CF33240F5
:1006B0001A431AF4403F4FF0010A026098D000221A
:1006C00043F644030192C4F202031A6843F6004E53
:1006D00042F480421A601A68C4F2010E02F48042A9
:1006E0000192019A28F003024FF6084C7244CFF6AB
:1006F000FF7C52F80C3004F00C060F25B540AB43DC
:10070000009D05FA06F6334342F80C30DEF8082067
:100710004B6842EA090643F60C4CDD0258BF22EA58
:100720000906CEF80860C4F2010CDCF800209D0236
:1007300042EA090658BF22EA0906CCF80060DEF852
:1007400004209D0342EA090658BF22EA0906CEF8B2
:100750000460DEF80020DB0342EA090658BF22EA03
:100760000906CEF8006043E702B0BDE8F08F000054
:100770000069084018BF012070470000426902EA82
:100780000103914341EA034181617047002A08BF98
:10079000090481617047000040F21410C2F20000A9
:1007A0000068704740F2000040F21411C2F20000ED
:1007B000C2F2000100780A68104408607047000027
:1007C00080B543F60040C4F20200016841F40071B4
:1007D0000160016841F480610160016841F4807149
:1007E0000160032000F084F80F2000F005F800F00D
:1007F00027F8002080BD000070B540F20006C2F26C
:10080000000640F208013278C2F200014FF47A7318
:100810000968B3FBF2F20446B1FBF2F1084600F0BE
:1008200041FB0F2C4FF0010508D838B94FF0FF30CD
:1008300021460022002500F02FF87460284670BD84
:1008400082B0002043F640010190C4F202014A68E0
:1008500042F480424A604A6802F480420192019A5E
:100860000090086840F080500860086800F08050F0
:100870000090009802B07047002848BF704700F011
:100880001F01012202FA01F14EF200124009CEF2DC
:10089000000242F82010704710B54EF60C5CCEF204
:1008A000000CDCF80030C3F3022E8EF00704042C99
:1008B00028BF0424BEF103034FF0FF3E0EFA04F4F8
:1008C00038BF0023A14399400EFA03F39A43114322
:1008D00000F00F02043A624409010C3200F1604357
:1008E000B0F1FF3FC8BF03F56442117010BD0000B6
:1008F0004EF60C51CEF200010A684FF6FF031A4083
:1009000060F30A2242F0806040F0FD70086070479A
:100910002DE9F041002800F08B8043F60808C4F26E
:1009200002080446D8F8F8030D4600F00700884294
:1009300007D288F8F853D8F8F80300F00700A84267
:1009400076D12068810717D5410705D5D8F8001062
:1009500041F4E051C8F80010010705D5D8F800109F
:1009600041F46041C8F80010D8F80010A26821F0E6
:10097000F0011143C8F80010C0073FD1D8F8F803C0
:1009800000F00700A84207D988F8F853D8F8F80310
:1009900000F00700A8424BD12068410707D5D8F8DE
:1009A0000010E26821F4E0511143C8F8001000077C
:1009B00008D5D8F80000216920F4604040EAC10061
:1009C000C8F8000000F07CF8D8F8001041F6581282
:1009D000C1F30311C0F60002515C40F2080220FA94
:1009E00001F140F20400C2F200000068C2F200020D
:1009F0001160FFF701FF0020BDE8F0816068811EF3
:100A0000022907D258F8081C89015CBF0120BDE803
:100A1000F08111E0012807D158F8081C89035CBF58
:100A20000120BDE8F08107E058F8081C890703D4CD
:100A30000120BDE8F08100BFD8F8001021F00301CB
:100A40000843C8F80000FFF7A7FE064641F28837C2
:100A5000D8F80000616800F00C00B0EB810F8DD079
:100A6000FFF79AFE801BB842F2D90320BDE8F0815F
:100A700040F2080043F60801C2F20000C4F202018D
:100A80000068096841F66812C1F38221C0F60002CD
:100A9000515CC8407047000040F2080043F608016E
:100AA000C2F20000C4F202010068096841F668124F
:100AB000C1F34231C0F60002515CC84070470000EB
:100AC00010B543F60404C4F20204606800F00C00A0
:100AD00008280BD0042819BF42F20040C0F2F400ED
:100AE00047F64000C0F27D1010BD00BF20682168AD
:100AF0002368490247F64001C0F27D1100F03F0231
:100B0000C3F388105CBF42F20041C0F2F401A1FBC4
:100B100000010023FFF7AEFB21680222C1F301416F
:100B200002EB4101B0FBF1F010BD00002DE9F041F6
:100B300082B000286AD00446007843F60006C00759
:100B4000C4F202060BD0B06800F00C00042840F09C
:100B5000A1803068800302D56068002856D02078D4
:100B600080071AD5B06810F00C0F09D0B06800F0FB
:100B70000C00082840F0A8807068400200F1A480B2
:100B80003068800702D5E06801283FD130682169CC
:100B900020F0F80040EAC10030602078000739D426
:100BA000207840074ED4A5695DB3B06800F00C0012
:100BB000082840F0BD80012D28D07068E16900F45C
:100BC00080028A4222D1216A00F03F028A421DD16E
:100BD00047F6C071626A0140B1EB821F16D1A26A6A
:100BE0000023CFF6FF7303EBC23200F440316FF302
:100BF0000F0291420AD1E16A00F07060B0EB016F20
:100C000004D1002002B0BDE8F08100BF012002B095
:100C1000BDE8F0816069002840F20000C4F247207E
:100C200076D00121C0F8801EFFF7B6FD054600BF53
:100C3000706F8007B4D4FFF7AFFD401B0228F7D9CF
:100C4000DDE000BF306C10F080580AD10020019028
:100C5000306C40F080503064306C00F08050019077
:100C6000019847F20007C4F200073868C00541D474
:100C7000386840F480703860FFF78EFD054600BF8D
:100C80003868C00536D4FFF787FD401B0228F7D926
:100C9000B5E000BFB06800F00C00082803D1706810
:100CA00040023FF556AF6068B0F5803F07D0B0F521
:100CB000A02F40F08D80306840F480203060306894
:100CC00040F4803030608DE0E068002852D0002091
:100CD000C4F2472001210160FFF75EFD054600BF19
:100CE000306880073FF552AFFFF756FD401B0228E2
:100CF000F6D984E0A068012805D005284ED1306FD0
:100D000040F004003067306F40F0010030674FE082
:100D10000021C0F8801EFFF73FFD0546706F800779
:100D20007FF53EAFFFF738FD401B0228F6D966E09D
:100D30000027C4F2472700203866FFF72DFD022D5B
:100D400005460BD1306880015ED5FFF725FD401BBD
:100D500002284FF00300F5D954E700BF3068800146
:100D60007FF54FAFFFF718FD401B02284FF003003F
:100D7000F4D947E70020C4F2472000210160FFF7C3
:100D80000BFD0546306880077FF507AFFFF704FDD0
:100D9000401B02284FF00300F4D933E7316F0028DD
:100DA00021F001013167316F21F0040131674DD02D
:100DB000FFF7F2FC054641F2883700BF306F80072D
:100DC00056D4FFF7E9FC401BB842F7D917E000BF43
:100DD0003168002821F480313160316821F48021AC
:100DE00031604FD0FFF7D8FC054600BF3068800364
:100DF0003FF5B5AEFFF7D0FC401B6428F6D90320C1
:100E000002B0BDE8F08100BF04F11C052FCD0843FE
:100E10000021CFF6FF7140EA821001EBC3316FF37E
:100E20000F0140EA05600843706001203866FFF753
:100E3000B3FC0446306880013FF5E3AEFFF7ACFC3D
:100E4000001B02284FF00300F4D9DBE6FFF7A4FCF7
:100E5000054641F2883700BF306F800708D5FFF79D
:100E60009BFC401BB8424FF00300F5D9CAE600BF17
:100E7000B8F1000F7FF497AE306C20F080503064F2
:100E800091E600BFFFF788FC054600BF306880038D
:100E90007FF565AEFFF780FC401B64284FF0030030
:100EA000F4D9AFE6411E0020B0EB116F1CBF01204A
:100EB00070474EF21002CEF2000251604EF62351FE
:100EC000CEF20001F0230B70072190601160704793
:100ED0007047000070470000002804BF01207047E1
:100EE00010B5044690F83D0028B9002084F83C0075
:100EF000204600F01FF8022084F83D002068211DE4
:100F000000F0F4FA012084F8460084F83E0084F8EA
:100F10003F0084F8400084F8410084F8420084F8DF
:100F2000430084F8440084F8450084F83D00002024
:100F300010BD000081B0006844F60001C4F2010158
:100F4000884201D001B070470020009043F6440071
:100F5000C4F20200016841F480210160006800F4DD
:100F600080200090009801B07047000090F83D107C
:100F700001291CBF01207047022180F83D10006844
:100F800040F6FF32C168C4F20002904241F0010114
:100F9000C1600FDCB0F1804F1DD040F20041C4F2BF
:100FA0000001884217D040F60001C4F200018842D7
:100FB00011D017E040F60041C4F2000188420AD087
:100FC00044F20001C4F20101884204D00021C4F2BD
:100FD0000101884206D1816801F00701062904BF9A
:100FE00000207047016841F0010101600020704756
:100FF0007047000070B504460068C5680669B1070F
:1010000016D515F0020113D06FF002010161012124
:1010100021778069800703D02046FFF7E9FF05E0CC
:10102000204600F08FF8204600F08EF80020207750
:10103000700719D515F0040016D020686FF0040170
:10104000016102212177806910F4407F04D020469D
:10105000FFF7CEFF06E000BF204600F073F8204601
:1010600000F072F800202077300717D515F008003F
:1010700014D020686FF00801016104212177C06954
:10108000800703D02046FFF7B3FF05E0204600F0BD
:1010900059F8204600F058F800202077F00619D5BE
:1010A00015F0100016D020686FF0100101610821C2
:1010B0002177C06910F4407F04D02046FFF798FFE5
:1010C00006E000BF204600F03DF8204600F03CF866
:1010D00000202077F00718BF15F0010002D130067C
:1010E00009D412E020686FF001010161204600F090
:1010F0002DF8300609D515F0800006D020686FF075
:10110000800101612046FFF7E3FE700609D515F066
:10111000400006D020686FF040010161204600F0D9
:10112000ADF8B00658BF70BD15F0200008D021689A
:101130006FF0200220460A61BDE87040FFF7CABE8A
:1011400070BD000070470000704700002DE9F043BB
:1011500081B040F20044C4F202040068A4F53C41AE
:10116000884203D001B0BDE8F08300BF40F27005B3
:10117000C2F20005A968EA680131A960511C6868DB
:10118000E9602969AA7801300131002A6860296183
:101190005AD0022938D36A7800212961511ECAB277
:1011A000032A4FF001062ED84FF4FF6000EAC10079
:1011B0004FF4807121FA00F74FF4803121FA00F8E2
:1011C0004FF0807121FA00F940F20231C0F20411AF
:1011D00026FA00F221FA00F6A4F580608021FFF7DC
:1011E000D5FAFAB220460121FFF7D0FA5FFA88F269
:1011F00020460221FFF7CAFA5FFA89F2204604214D
:10120000FFF7C4FA68686E7045F62941CCF28F2169
:10121000484345F629414FEAB000C0F28F21884289
:1012200005D204F580604FF40051FFF7A7FA20467D
:101230004FF48061FFF79CFAB0FA80F04009A87083
:1012400001B0BDE8F08300BF204607210022FFF770
:101250009DFAA4F5806080210022FFF797FA686864
:1012600045F62941CCF28F2148434DF20A714FEAED
:101270003010C0F2A3018842D9D8D2E770470000ED
:10128000002804BF0120704710B5044690F84100C3
:1012900028B9002084F84000204600F021F82420DE
:1012A00084F841002068C16821F40051C1602046E3
:1012B00000F098F92068016921F4904101614169C9
:1012C00021F02A014161C16841F40051C160002050
:1012D0002021606484F8411084F84210606310BDDE
:1012E00080B586B0016841F20000C4F2010081427D
:1012F00002D006B080BD00BF002143F6300201914C
:10130000C4F20202536900F5744043F010035361C4
:10131000536903F010030193019B0191136843F09B
:1013200002031360126802F002020192019AC022C5
:1013300001920222CDE902210321049107210591A6
:1013400001A9FFF737F906B080BD00002DE9F04193
:10135000044690F8410020281CBF0220BDE8F0811F
:101360000F4600294FF0010000F082801646002A47
:1013700008BFBDE8F0814FF0000821201D46C4F8E9
:10138000448084F84100FFF707FAA684E684A16848
:101390000646B1F5805F05D12069002814BF3846A4
:1013A000B8460746E08CC8B1681C19D0002D61D141
:1013B000216807E017F8010B4860E08C0138E084F1
:1013C000E08C68B3086800064CD5002FF2D138F8DD
:1013D000020B00276FF35F20EEE700BF21681FE0DC
:1013E000216802E00868000609D40868000606D4EF
:1013F000086800065CBF08685FEA0060F2D51FB1AC
:1014000017F8010B05E000BF38F8020B00276FF357
:101410005F204860E08C0138E084E08C0028E4D153
:10142000086840061CD4EDB1681C0FD1086840065E
:1014300016D40868400613D40868400610D408681B
:1014400040064FF00000F1D50FE000BFFFF7A4F910
:10145000801BA84208D82068C16800684006F5D5FE
:10146000002002E0FFF798F90320202184F84110C2
:10147000BDE8F081216800BF0868000608D4FFF7C6
:101480008BF9801BA842EFD82168C868F4E700BF39
:1014900017B117F8010B04E038F8020B00276FF3BF
:1014A0005F204860E08C0138E084E08C0028E3D1C4
:1014B000B6E70000FEE70000FEE70000FEE70000E0
:1014C0007047000070470000FFF76CB94EF6885077
:1014D000CEF20000016841F4700101607047000025
:1014E00040F28400C2F20000FFF784BDB0B540F2C4
:1014F000FF7E0568C4F2000E40F2000C7045C4F295
:10150000010C1DDD40F60003C4F20003984220D018
:1015100060451ED040F60043C4F20003984218D044
:101520004FF6FF73C4F2000398421DDC704527DCC0
:10153000B0F1804F3CD040F20043C4F2000335E0EC
:10154000B0F1804F05D040F20043C4F2000398424E
:10155000E6D14B6825F0700243EA02054FF6FF73AF
:10156000C4F200039842E1DD44F2FF33C4F2010308
:10157000984211DC60451BD044F2000314E000BF28
:1015800040F60003C4F20003984211D040F6004335
:10159000C4F200030AE000BF44F60003C4F20103F2
:1015A000984205D044F20043C4F20103984204D1AA
:1015B000CB6825F4407243EA02050A688C684B69DF
:1015C0006045C462826202D10969CCF830100268B9
:1015D00025F0800142F004021943026001224261B9
:1015E0000160B0BD10B504460068D4E902C22369A9
:1015F000016921F4405111430161626943EA0C0120
:10160000E3691143C268194349F20C639A431143D9
:10161000C1604169A26921F4407141F20043114364
:1016200040F48062C4F201039A42416102D1FFF7A3
:1016300033FA01E0FFF71CFAE16963681922B1F59A
:10164000004FA0FB02011FD15A00DB0FFEF712FE74
:1016500048F21F51C5F2EB11A0FB01235A096FF0AC
:10166000630302FB0300322303EBC000A0FB010174
:101670004FF4F87000EA111000EB0210C1F34211B0
:1016800008442168886010BD9A009B0FFEF7F2FDA8
:1016900048F21F51C5F2EB11A0FB01235A096FF06C
:1016A000630302FB0300322303EB0010A0FB0101E4
:1016B000F02000EA511000EB0210C1F3431108447E
:1016C0002168886010BD0000FEE7000010B540F200
:1016D00070000024C2F200000021C4F202048170F4
:1016E00004F5806007210022FFF750F82046802192
:1016F0000022FFF74BF840F28400C2F20000FFF72F
:1017000035FC4FF47A70FEF741FF1E20FEF790FE85
:10171000BDE81040FEF7F2BE92B043F6300547F246
:101720000007C4F20205C4F20007FFF749F806AC4F
:10173000201D2C21FEF716FE00260596CDE9036636
:10174000CDE9016600962869022140F080502861A9
:10175000286900F08050009000980096386861F386
:101760008F303860386800F44040009000980120C5
:10177000099010200A90204606910C96FFF7D6F9A2
:1017800010B172B6FEE700BF0F20CDE9010601A837
:101790000021CDE903660596FFF7BAF810B172B6DD
:1017A000FEE700BF4FF00009CDF82890CDF8049077
:1017B000286807F5CC3640F00400286028684FF40C
:1017C000005100F0040001900198CDF804902868C1
:1017D000002240F00100286028684FF4005800F013
:1017E000010001900198CDF80490286840F00200B3
:1017F0002860286800F00200019001983046FEF74A
:10180000C5FF07F5C835284680210022FEF7BEFF38
:1018100007F5CA34204607210022FEF7B7FFCDF8AE
:1018200018800DF118084FF0010B4FF0020A3046F6
:101830004146CDF81CB0CDE908A9FEF7BBFE8020DB
:10184000CDE9060B032628464146CDF820A009968F
:10185000FEF7B0FE0720CDE9060B20464146CDE954
:1018600008A6FEF7A7FE4FF4806006A981E8010AEA
:1018700020464146FEF79EFE40F2840007F558419F
:10188000C2F200009F22632380E806028021C0E9A3
:1018900003398161FFF720FB10B172B6FEE700BF8C
:1018A00040F2CC0007F52041C2F200000C234FF4B7
:1018B000165280E80602C0E90399C0E90539C0F86C
:1018C0001C90FFF7DDFC18B172B600BFFEE700BF49
:1018D0001A200F210022FEF7DFFF1A20FEF7CCFFAF
:1018E000FFF7F4FE00F002F8FCE7000010B540F24C
:1018F0007004C2F20004A06845F69171C0F20101C3
:10190000884208D3FEF71CFEFEF7D8FDA06841F21E
:101910008831401AA060E06849F27141884238BFBE
:1019200010BD21784FF47A70E060481CC1B20129E3
:10193000207003D8BDE81040FEF7E0BD10BDF1EE09
:10194000100A4FF6FF71C0F2C03120EA010040F0EA
:101950004070E1EE100A7047000000000000000037
:101960000102030406070809000000000102030445
:10197000901900080000002010000000D0010008AD
:10198000A019000810000020080D0000EC0100085C
:1019900001000000100000000024F400000000001E
:040000050800019559
:00000001FF
