:020000040800F2
:1000000000500020252B00083D2A0008452A000842
:100010004D2A0008552A00085D2A0008000000004B
:10002000000000000000000000000000652A000839
:10003000712A0008000000007D2A0008892A0008B3
:100040006D2B00086D2B00086D2B00086D2B000830
:100050006D2B00086D2B00086D2B00086D2B000820
:100060006D2B00086D2B00086D2B00086D2B000810
:100070006D2B00086D2B00086D2B00086D2B000800
:100080006D2B00086D2B00086D2B00086D2B0008F0
:10009000992A00086D2B00086D2B00086D2B0008B5
:1000A0006D2B00086D2B00086D2B00086D2B0008D0
:1000B0006D2B00086D2B00086D2B00086D2B0008C0
:1000C0006D2B00086D2B00086D2B00086D2B0008B0
:1000D0006D2B00086D2B00086D2B00086D2B0008A0
:1000E0006D2B00086D2B00086D2B00080000000030
:1000F0000000000000000000000000000000000000
:0C01000000000000000000005FF808F1A3
:10010C0010B5054C237833B9044B13B10448AFF345
:10011C0000800123237010BDE401002000000000CA
:10012C00F0BD000808B5034B1BB103490348AFF3FE
:10013C00008008BD00000000E8010020F0BD0008B0
:10014C0081F0004102E000BF83F0004330B54FEA7C
:10015C0041044FEA430594EA050F08BF90EA020FE9
:10016C001FBF54EA000C55EA020C7FEA645C7FEA7C
:10017C00655C00F0E2804FEA5454D4EB5555B8BF9F
:10018C006D420CDD2C4480EA020281EA030382EA10
:10019C00000083EA010180EA020281EA0303362DA2
:1001AC0088BF30BD11F0004F4FEA01314FF4801C75
:1001BC004CEA113102D0404261EB410113F0004F87
:1001CC004FEA03334CEA133302D0524263EB43033E
:1001DC0094EA050F00F0A780A4F10104D5F1200EDC
:1001EC000DDB02FA0EFC22FA05F2801841F1000137
:1001FC0003FA0EF2801843FA05F359410EE0A5F10B
:10020C0020050EF1200E012A03FA0EFC28BF4CF03B
:10021C00020C43FA05F3C01851EBE37101F00045F1
:10022C0007D54FF0000EDCF1000C7EEB00006EEBFE
:10023C000101B1F5801F1BD3B1F5001F0CD3490888
:10024C005FEA30004FEA3C0C04F101044FEA4452DF
:10025C0012F5800F80F09A80BCF1004F08BF5FEA66
:10026C00500C50F1000041EB045141EA050130BD46
:10027C005FEA4C0C404141EB0101013C28BFB1F558
:10028C00801FE9D291F0000F04BF01460020B1FAA3
:10029C0081F308BF2033A3F10B03B3F120020CDA76
:1002AC000C3208DD02F1140CC2F10C0201FA0CF054
:1002BC0021FA02F10CE002F11402D8BFC2F1200CB9
:1002CC0001FA02F120FA0CFCDCBF41EA0C0190406F
:1002DC00E41AA2BF01EB0451294330BD6FEA0404B8
:1002EC001F3C1CDA0C340EDC04F11404C4F12002A3
:1002FC0020FA04F001FA02F340EA030021FA04F3B5
:10030C0045EA030130BDC4F10C04C4F1200220FA0B
:10031C0002F001FA04F340EA0300294630BD21FA49
:10032C0004F0294630BD94F0000F83F4801306BF0F
:10033C0081F480110134013D4EE77FEA645C18BF03
:10034C007FEA655C29D094EA050F08BF90EA020F9A
:10035C0005D054EA000C04BF1946104630BD91EA92
:10036C00030F1EBF0021002030BD5FEA545C05D195
:10037C004000494128BF41F0004130BD14F58004D4
:10038C003CBF01F5801130BD01F0004545F0FE4148
:10039C0041F470014FF0000030BD7FEA645C1ABF7D
:1003AC00194610467FEA655C1CBF0B46024650EAB4
:1003BC00013406BF52EA033591EA030F41F40021E0
:1003CC0030BD00BF90F0000F04BF0021704730B566
:1003DC004FF4806404F132044FF000054FF000013B
:1003EC0050E700BF90F0000F04BF0021704730B5FC
:1003FC004FF4806404F1320410F0004548BF4042D1
:10040C004FF000013EE700BF42004FEAE2014FEA25
:10041C0031014FEA02701FBF12F07F4393F07F4F00
:10042C0081F06051704732F07F4208BF704793F003
:10043C007F4F04BF41F40021704730B54FF4607416
:10044C0001F0004521F000411CE700BF50EA010219
:10045C0008BF704730B54FF000050AE050EA0102C2
:10046C0008BF704730B511F0004502D5404261EB32
:10047C0041014FF4806404F132045FEA915C3FF473
:10048C00D8AE4FF003025FEADC0C18BF03325FEA10
:10049C00DC0C18BF033202EBDC02C2F1200300FAC1
:1004AC0003FC20FA02F001FA03FE40EA0E0021FAE6
:1004BC0002F11444BDE600BF70B54FF0FF0C4CF4D4
:1004CC00E06C1CEA11541DBF1CEA135594EA0C0F86
:1004DC0095EA0C0F00F0DEF82C4481EA030621EAC1
:1004EC004C5123EA4C5350EA013518BF52EA0335FC
:1004FC0041F4801143F4801338D0A0FB02CE4FF0AE
:10050C000005E1FB02E506F00042E0FB03E54FF0DD
:10051C000006E1FB03569CF0000F18BF4EF0010ED5
:10052C00A4F1FF04B6F5007F64F5407404D25FEAD1
:10053C004E0E6D4146EB060642EAC62141EA555184
:10054C004FEAC52040EA5E504FEACE2EB4F1FD0CC6
:10055C0088BFBCF5E06F1ED8BEF1004F08BF5FEA44
:10056C00500E50F1000041EB045170BD06F00046F6
:10057C0046EA010140EA020081EA0301B4EB5C04A3
:10058C00C2BFD4EB0C0541EA045170BD41F480119B
:10059C004FF0000E013C00F3AB8014F1360FDEBFC0
:1005AC00002001F0004170BDC4F10004203C35DA9C
:1005BC000C341BDC04F11404C4F1200500FA05F31F
:1005CC0020FA04F001FA05F240EA020001F00042C0
:1005DC0021F0004110EBD37021FA04F642EB060136
:1005EC005EEA430E08BF20EAD37070BDC4F10C0460
:1005FC00C4F1200500FA04F320FA05F001FA04F224
:10060C0040EA020001F0004110EBD37041F100010F
:10061C005EEA430E08BF20EAD37070BDC4F120051A
:10062C0000FA05F24EEA020E20FA04F301FA05F282
:10063C0043EA020321FA04F001F0004121FA04F22A
:10064C0020EA020000EBD3705EEA430E08BF20EAFA
:10065C00D37070BD94F0000F0FD101F00046400034
:10066C0041EB010111F4801F08BF013CF7D041EAB6
:10067C00060195F0000F18BF704703F000465200BA
:10068C0043EB030313F4801F08BF013DF7D043EA8B
:10069C000603704794EA0C0F0CEA135518BF95EA41
:1006AC000C0F0CD050EA410618BF52EA4306D1D1C8
:1006BC0081EA030101F000414FF0000070BD50EAE7
:1006CC00410606BF1046194652EA430619D094EA71
:1006DC000C0F02D150EA013613D195EA0C0F05D15B
:1006EC0052EA03361CBF104619460AD181EA0301AF
:1006FC0001F0004141F0FE4141F470014FF0000067
:10070C0070BD41F0FE4141F4780170BD70B54FF001
:10071C00FF0C4CF4E06C1CEA11541DBF1CEA135581
:10072C0094EA0C0F95EA0C0F00F0A7F8A4EB050463
:10073C0081EA030E52EA03354FEA013100F088805A
:10074C004FEA03334FF0805545EA131343EA126323
:10075C004FEA022245EA111545EA10654FEA0026D8
:10076C000EF000419D4208BF964244F1FD0404F591
:10077C00407402D25B084FEA3202B61A65EB0305ED
:10078C005B084FEA32024FF480104FF4002CB6EBAA
:10079C00020E75EB030E22BFB61A754640EA0C002A
:1007AC005B084FEA3202B6EB020E75EB030E22BF6A
:1007BC00B61A754640EA5C005B084FEA3202B6EBAB
:1007CC00020E75EB030E22BFB61A754640EA9C006A
:1007DC005B084FEA3202B6EB020E75EB030E22BF3A
:1007EC00B61A754640EADC0055EA060E18D04FEAF8
:1007FC00051545EA16754FEA06164FEAC30343EA98
:10080C0052734FEAC2025FEA1C1CC0D111F4801F64
:10081C000BD141EA00014FF000004FF0004CB6E75D
:10082C0011F4801F04BF01430020B4F1FD0C88BFFC
:10083C00BCF5E06F3FF6AFAEB5EB030C04BFB6EB07
:10084C00020C5FEA500C50F1000041EB045170BDFA
:10085C000EF0004E4EEA113114EB5C04C2BFD4EB27
:10086C000C0541EA045170BD41F480114FF0000EAB
:10087C00013C90E645EA060E8DE60CEA135594EA27
:10088C000C0F08BF95EA0C0F3FF43BAF94EA0C0F2A
:10089C000AD150EA01347FF434AF95EA0C0F7FF49F
:1008AC0025AF104619462CE795EA0C0F06D152EAF3
:1008BC0003353FF4FDAE1046194622E750EA4106D7
:1008CC0018BF52EA43067FF4C5AE50EA41047FF4E8
:1008DC000DAF52EA43057FF4EBAE12E74FEA41024B
:1008EC00B2F1E04324BFB3F5001CDCF1FE5C0DD982
:1008FC0001F0004C4FEAC0024CEA5070B2F1004FCC
:10090C0040EB830008BF20F00100704711F0804FCE
:10091C0021D113F13872BCBF01F00040704741F493
:10092C0080114FEA5252C2F11802C2F1200C10FA97
:10093C000CF320FA02F018BF40F001004FEAC1237B
:10094C004FEAD32303FA0CFC40EA0C0023FA02F31F
:10095C004FEA4303CCE77FEA625307D150EA0133F5
:10096C001EBF4FF0FE4040F44000704701F00040C5
:10097C0040F0FE4040F40000704700BF42000ED231
:10098C00B2F1FE4F0BD34FF09E03B3EB126209D4BE
:10099C004FEA002343F0004323FA02F070474FF074
:1009AC000000704712F1610F01D1420202D14FF0E9
:1009BC00FF3070474FF00000704700BF80B500AFAC
:1009CC001E22002109480AF067FD14220021084864
:1009DC000AF062FD00F0C8FD00F056F900F0E2FBF1
:1009EC000E2104480AF05AF900BF80BD18020020FD
:1009FC003602002008BE000880B500AF0F4B1B6804
:100A0C00B3F57A7F16D90D4B00221A600C4803F00F
:100A1C0060FF0C4B1B6801330A4A13604FF4005102
:100A2C00094802F0E6FB00F093FB00F041F900F0FE
:100A3C00A5FB01E001F06EFC00BF80BD00020020B0
:100A4C0068070020140200200010014080B400AFA1
:100A5C000E4B1B6801330D4A13600C4B9B68013322
:100A6C000A4A9360094B5B680133084A5360074B91
:100A7C001B690133054A1361044BDB680133034ADC
:100A8C00D36000BFBD4680BC704700BF0002002091
:100A9C0080B588B004AFBA601A460346FB810B469A
:100AAC00BB811346FB80BA89FB881344202B19DCCD
:100ABC00FB893F2B16D8FB891B021AB2B7F90C30F5
:100ACC0013431BB29AB24FF47A730293FB880193CF
:100ADC00BB6800930223AE21044802F0E5FD0F2011
:100AEC0002F0A2F800BF1037BD4680BD14070020ED
:100AFC0080B588B004AFBA601A460346FB810B463A
:100B0C00BB811346FB80BA89FB881344202B19DC6C
:100B1C00FB893F2B16D8FB891B021AB2B7F90C3094
:100B2C0013431BB29AB24FF47A730293FB8801936E
:100B3C00BB6800930223AE21044802F0AFFE0F20E5
:100B4C0002F072F800BF1037BD4680BD14070020BC
:100B5C0080B584B000AF03463960FB71FB79012B83
:100B6C0002D0022B41D081E00C22002141480AF036
:100B7C0093FC0C22002140480AF08EFC3F4B2022B3
:100B8C00DA710023FB730CE0FB7B0B333A681A44DD
:100B9C00FB7B1178394A13440A469A70FB7B01336C
:100BAC00FB73FB7B042BEFD90023BB730DE0BB7BEA
:100BBC0015333A681A44BB7B063311782F4A134419
:100BCC000A469A70BB7B0133BB73BB7B042BEED9FB
:100BDC000C23284A00210120FFF75AFF0C23264A38
:100BEC0000210120FFF784FF40E00C220021244863
:100BFC000AF052FC0C22002122480AF04DFC1F4B3B
:100C0C002022DA7400237B730CE07B7B0B333A6875
:100C1C001A447B7B1178194A13440A469A737B7BDE
:100C2C0001337B737B7B042BEFD900233B730DE0EB
:100C3C003B7B15333A681A443B7B063311780F4AD9
:100C4C0013440A469A733B7B01333B733B7B042B67
:100C5C00EED90C230A4A00210220FFF719FF0C23BE
:100C6C00084A00210220FFF743FF00BF00BF1037E6
:100C7C00BD4680BD4E020020660200204C020020C2
:100C8C005A0200207202002080B500AF0C23064AE5
:100C9C0000210120FFF72CFF0C23044A0021022025
:100CAC00FFF726FF00BF80BD660200207202002005
:100CBC0080B500AF0D4B1B8801339AB20B4B1A80D9
:100CCC000A4B1B88B3F5167F0ED90C23084A00215A
:100CDC000120FFF70DFF0C23064A00210220FFF72D
:100CEC0007FF024B00221A8000BF80BD4C0200207F
:100CFC00660200207202002080B483B000AF7860DE
:100D0C007B680E4A82FB03129210DB17D31ADBB2FC
:100D1C001B01D8B27A68094B83FB02139910D317C5
:100D2C00C91A0B469B000B445B00D11ACBB203448F
:100D3C00DBB218460C37BD4680BC704767666666EA
:100D4C0080B483B000AF0346FB71FB791B09DBB2A7
:100D5C001A4613469B0013445B001A46FB7903F0BA
:100D6C000F03134418460C37BD4680BC7047000077
:100D7C0090B589B004AF0446084611461A4623467E
:100D8C00FB710346BB710B467B7113463B71FB79C0
:100D9C001846FFF7B1FF03463B72BB791846FFF7C5
:100DAC00ABFF03467B727B791846FFF7A5FF034622
:100DBC00BB723B791846FFF79FFF0346FB7297F80F
:100DCC0020301846FFF798FF03463B7397F8243002
:100DDC001846FFF791FF03467B7397F828301846A7
:100DEC00FFF78AFF0346BB734FF47A730293072312
:100DFC00019307F10803009301230022D02103483B
:100E0C0002F052FC00BF1437BD4690BD1407002001
:100E1C0080B586B004AF4FF47A7302930723019325
:100E2C003B46009301230022D0211F4802F036FDDF
:100E3C003B781846FFF784FF0346DAB21B4B1A7057
:100E4C007B781846FFF77CFF0346DAB2174B5A70D3
:100E5C00BB781846FFF774FF0346DAB2134B9A704F
:100E6C00FB781846FFF76CFF0346DAB20F4BDA70CB
:100E7C003B791846FFF764FF0346DAB20B4B1A7145
:100E8C007B791846FFF75CFF0346DAB2074B5A71C1
:100E9C00BB791846FFF754FF0346DAB2034B9A713D
:100EAC0000BF0837BD4680BD14070020800200201B
:100EBC00B0B586B004AF4FF47A730293022301935A
:100ECC003B1D009301231122D021124802F0E6FCB5
:100EDC003B791846FFF786FA04460D467B799B0949
:100EEC00DBB21846FFF77EFA4FF000020A4BFFF711
:100EFC000DFC02460B4620462946FFF727F9024611
:100F0C000B4610461946FFF7E9FC0346184608370E
:100F1C00BD46B0BD140700200000104080B586B05F
:100F2C0004AF0023FB710023BB71642302930123E4
:100F3C000193FB1D009301230F22D021134802F0D3
:100F4C00ADFCFB7903F00403002B1BD1642302934B
:100F5C0001230193BB1D009301230E22D0210B48CA
:100F6C0002F09CFCBB7943F02003DBB21A466423ED
:100F7C00029301230193009201230E22D0210348F6
:100F8C0002F092FB00BF0837BD4680BD140700205D
:100F9C0080B500AF1422002169480AF07DFA694B34
:100FAC003A2283F83120674B93F83120654B83F854
:100FBC002E20644B93F82E20624B83F82720614B34
:100FCC0093F827205F4B83F824205E4B202283F874
:100FDC002B205C4B93F82B205A4B83F82A205A4B2E
:100FEC009B785A4AA2FB0323DB08DBB23033DAB21C
:100FFC00544B83F82220544B9A78544BA3FB021386
:10100C00D9080B469B000B445B00D31ADBB2303380
:10101C00DAB24C4B83F823204B4B5B784B4AA2FB48
:10102C000323DB08DBB23033DAB2464B83F82520DE
:10103C00454B5A78454BA3FB0213D9080B469B0032
:10104C000B445B00D31ADBB23033DAB23D4B83F87E
:10105C0026203D4B1B783D4AA2FB0323DB08DBB269
:10106C003033DAB2374B83F82820374B1A78374BAA
:10107C00A3FB0213D9080B469B000B445B00D31A4D
:10108C00DBB23033DAB22F4B83F829202E4B1B798D
:10109C002E4AA2FB0323DB08DBB23033DAB2294B36
:1010AC0083F82C20284B1A79284BA3FB0213D90860
:1010BC000B469B000B445B00D31ADBB23033DAB225
:1010CC00204B83F82D20204B5B79204AA2FB032375
:1010DC00DB08DBB23033DAB21A4B83F82F201A4B11
:1010EC005A791A4BA3FB0213D9080B469B000B44ED
:1010FC005B00D31ADBB23033DAB2124B83F83020F8
:10110C00114B9B79114AA2FB0323DB08DBB2303372
:10111C00DAB20C4B83F832200B4B9A790B4BA3FBB6
:10112C000213D9080B469B000B445B00D31ADBB2AD
:10113C003033DAB2034B83F8332000BF80BD00BFDD
:10114C00360200201402002080020020CDCCCCCC32
:10115C0080B500AFFFF7E2FEFFF7AAFE0346064A92
:10116C00D360FFF755FEFFF713FF01F06FF800F0A7
:10117C001FFA00BF80BD00BF8002002080B500AF09
:10118C00074B1B780133DAB2054B1A7000F03CF8B0
:10119C0000F01CF900F03CF900F090F900BF80BDA4
:1011AC009002002080B500AF01223021134802F0DC
:1011BC0008F800F029F800F009F9114B5B78012BC5
:1011CC000AD1104B1A890E4BDB889A4204D20022AA
:1011DC0010210A4801F0F5FF094B9B78012B0AD12D
:1011EC00084B1A89064B5B899A4204D200222021B3
:1011FC00024801F0E6FF00BF80BD00BF00080140BF
:10120C00900200208002002080B400AF6C4B9B78D1
:10121C001A46920013441A4691001A460B46134480
:10122C009B009BB2664A527813449AB2644B1A8163
:10123C00644B9B7E303B9BB21A465201D21A9200F1
:10124C001344DB009AB25F4BDB7E303B9BB21946FA
:10125C0089000B4419468800194603460B449B0031
:10126C009BB213449AB2574B5B7F303B9BB21946EF
:10127C0089000B445B009BB213449BB2514A927F92
:10128C0013449BB2303B9AB24F4B9A804D4B93F820
:10129C002030303B9BB21A465201D21A92001344B2
:1012AC00DB009AB2474B93F82130303B9BB2194686
:1012BC0089000B4419468800194603460B449B00D1
:1012CC009BB213449AB23F4B93F82330303B9BB202
:1012DC00194689000B445B009BB213449BB2394AFC
:1012EC0092F8242013449BB2303B9AB2364BDA80EE
:1012FC00344B93F82630303B9BB21A465201D21A2B
:10130C0092001344DB009AB22E4B93F82730303BFB
:10131C009BB2194689000B441946880019460346AE
:10132C000B449B009BB213449AB2264B93F8293082
:10133C00303B9BB2194689000B445B009BB21344B3
:10134C009BB2204A92F82A2013449BB2303B9AB2AB
:10135C001D4B1A811B4B93F82C30303B9BB21A4619
:10136C005201D21A92001344DB009AB2154B93F837
:10137C002D30303B9BB2194689000B44194688002E
:10138C00194603460B449B009BB213449AB20D4B77
:10139C0093F82F30303B9BB2194689000B445B000D
:1013AC009BB213449BB2074A92F8302013449BB271
:1013BC00303B9AB2044B5A8100BFBD4680BC70478B
:1013CC00800200204C0200209002002080B400AF6C
:1013DC000E4B9A880D4BDB889A4203D20B4B0022A2
:1013EC005A7002E0094B01225A70084B1A89074BBC
:1013FC005B899A4203D2054B00229A7002E0034BA0
:10140C0001229A7000BFBD4680BC7047900200203C
:10141C0080B500AF264B5B78002B23D010212548DC
:10142C0001F0B8FE0346002B0BD0234B1A89204B3E
:10143C009B889A423AD3002210211E4801F0C1FE2B
:10144C0034E01D4B1A891A4BDB889A422ED31A4B67
:10145C001B89B3F5966F29D801221021154801F08C
:10146C00B0FE23E01021134801F094FE0346002B3C
:10147C0011D0114B1A890E4B9B889A4216D30E4BE6
:10148C001A890B4BDB889A4210D200221021094892
:10149C0001F097FE0AE0084B1A89054BDB889A424B
:1014AC0004D301221021034801F08BFE00BF80BD44
:1014BC0090020020000801408002002080B500AF9F
:1014CC00264B9B78002B23D02021254801F062FE6F
:1014DC000346002B0BD0234B1A89204B1B899A42B5
:1014EC003AD3002220211E4801F06BFE34E01D4B44
:1014FC001A891A4B5B899A422ED31A4B1B89B3F566
:10150C00966F29D801222021154801F05AFE23E0BC
:10151C002021134801F03EFE0346002B11D0114B45
:10152C001A890E4B1B899A4216D30E4B1A890B4BF8
:10153C005B899A4210D200222021094801F041FE19
:10154C000AE0084B1A89054B5B899A4204D30122A5
:10155C002021034801F035FE00BF80BD9002002021
:10156C00000801408002002080B500AF00F07AFB3B
:10157C0000F099FD0521052000F0DCFC0122084952
:10158C00084800F06BFD28210A2000F0D3FC012252
:10159C000549064800F062FD00F028FC00BF80BD44
:1015AC001000002018BE00080800002020BE000813
:1015BC0080B500AF444B1B782C2B5FDC002B77DD08
:1015CC00013B2B2B74D801A252F823F09116000882
:1015DC009116000891160008911600089116000843
:1015EC009116000891160008911600089116000833
:1015FC009116000891160008911600089116000823
:10160C0091160008BD1600089716000897160008DA
:10161C0097160008971600089716000897160008EA
:10162C00971600089716000897160008BD160008B4
:10163C009D1600089D1600089D1600089D160008B2
:10164C009D1600089D1600089D1600089D160008A2
:10165C009D160008BD160008A3160008A316000866
:10166C00A3160008A3160008A3160008A31600086A
:10167C00A3160008A3160008A31600082E3BD12BB6
:10168C0016D80BE000F02AF815E000F0A3F812E0F1
:10169C0000F08EF90FE000F037FA0CE00A4B002254
:1016AC001A70094B5B780133DAB2074B5A7002E0BF
:1016BC0000F00CF800BF044B1B780133DAB2024B7C
:1016CC001A7000BF80BD00BF9C02002080B500AF27
:1016DC0000F0C8FA00F0E7FC00BF80BD80B582B016
:1016EC0000AF0021002000F025FC01222E492F48DC
:1016FC0000F0B4FC0A21002000F01CFC01222A4955
:10170C002B4800F0ABFC3B4605220021184609F0A3
:10171C00C3FE284BDB681846FFF730F90346DBB2F3
:10172C001A463B462449184609F096FE142100201F
:10173C0000F000FC3B4601222049184600F08EFCCC
:10174C002021222000F0F6FB012217491C4800F052
:10175C0085FC2B21002000F0EDFB012212491948D9
:10176C0000F07CFC2B21282000F0E4FB01220E4928
:10177C00154800F073FC3521002000F0DBFB012242
:10178C000949124800F06AFC3521282000F0D2FBF0
:10179C00012205490E4800F061FC00F027FB00BF58
:1017AC000837BD4680BD00BF000000202CBE0008DD
:1017BC00360200208002002040BE000810000020ED
:1017CC0044BE000854BE0008660200205CBE00083F
:1017DC0072020020F0B58BB004AF07F10C030A22A3
:1017EC000021184609F058FE654B93F822301D462F
:1017FC00634B93F823301E46614B93F825301A4601
:10180C005F4B93F8263019465D4B93F828301C46F5
:10181C005B4B93F8293007F10C0003930294019170
:10182C00009233462A46574909F016FE3B460A22D7
:10183C000021184609F030FE514B93F82C301D4610
:10184C004F4B93F82D301E464D4B93F82F301A46C4
:10185C004B4B93F830301946494B93F832301C46B9
:10186C00474B93F83330384603930294019100921E
:10187C0033462A46434909F0EFFD434BDB78013BE5
:10188C00062B57D801A252F823F000BFB518000858
:10189C00C9180008DD180008F1180008051900081F
:1018AC00191900082D19000805211A2000F042FB17
:1018BC0001223649364800F0D1FB45E005211A20BB
:1018CC0000F038FB01223149324800F0C7FB3BE005
:1018DC000521152000F02EFB01222C492E4800F08A
:1018EC00BDFB31E005210B2000F024FB0122274930
:1018FC002A4800F0B3FB27E00521102000F01AFB6A
:10190C0001222249264800F0A9FB1DE005211A20DE
:10191C0000F010FB01221D49224800F09FFB13E050
:10192C000521102000F006FB012218491E4800F08A
:10193C0095FB09E00521232000F0FCFA0122134954
:10194C001A4800F08BFB00BF1921052000F0F2FAB9
:10195C0007F10C0301220D49184600F07FFB2D21E5
:10196C00052000F0E7FA3B4601220849184600F032
:10197C0075FB00F03BFA00BF1C37BD46F0BD00BF45
:10198C001402002064BE0008800200200800002021
:10199C0074BE00087CBE000884BE00088CBE000823
:1019AC0098BE0008A4BE0008ACBE0008B8BE000873
:1019BC0080B584B000AF0023FB730BE0FA7BFB7B9C
:1019CC0046490A44927E10333B4403F8082CFB7BB7
:1019DC000133FB73FB7B042BF0D90023BB730CE0AE
:1019EC00BB7B9A1DBB7B3D490A44927E10333B4422
:1019FC0003F8102CBB7B0133BB73BB7B042BEFD9DF
:101A0C00374B5B7803F00103DBB2002B30D00021A5
:101A1C00052000F08FFA01223249334800F01EFBFA
:101A2C0020210A2000F086FA01223049304800F0CB
:101A3C0015FB1B21462000F07DFA07F1080301225B
:101A4C002C49184600F00AFB3221052000F072FAEE
:101A5C0001222649284800F001FB2D21462000F0E8
:101A6C0069FA3B4601222349184600F0F7FA2FE0A9
:101A7C000721012000F05EFA01221E491F4800F0E8
:101A8C00EDFA0321282000F055FA07F10803012292
:101A9C001449184600F0E2FA1B21012000F04AFA22
:101AAC0001221249164800F0D9FA2921012000F030
:101ABC0041FA01220F49134800F0D0FA25212820C1
:101ACC0000F038FA3B4601220649184600F0C6FAE7
:101ADC0000F08CF900BF1037BD4680BD4C020020D1
:101AEC009C02002010000020C0BE00080000002056
:101AFC00C8BE000808000020D0BE0008DCBE0008EC
:101B0C00E0BE0008E8BE000880B584B000AF00233A
:101B1C00FB730CE0FA7BFB7B47490A4492F82620C6
:101B2C0010333B4403F8082CFB7B0133FB73FB7B2A
:101B3C00042BEFD90023BB730DE0BB7B9A1DBB7B41
:101B4C003D490A4492F8262010333B4403F8102CEC
:101B5C00BB7B0133BB73BB7B042BEED9374B5B7860
:101B6C0003F00103DBB2002B30D00021052000F084
:101B7C00E1F901223249334800F070FA20210A20A1
:101B8C0000F0D8F901223049304800F067FA1B21E7
:101B9C00462000F0CFF907F1080301222C49184622
:101BAC0000F05CFA3221052000F0C4F9012226492C
:101BBC00284800F053FA2D21462000F0BBF93B4693
:101BCC0001222349184600F049FA2FE00721012091
:101BDC0000F0B0F901221E491F4800F03FFA032122
:101BEC00282000F0A7F907F1080301221449184630
:101BFC0000F034FA1B21012000F09CF9012212495B
:101C0C00164800F02BFA2921012000F093F901224B
:101C1C000F49134800F022FA2521282000F08AF9F8
:101C2C003B4601220649184600F018FA00F0DEF88F
:101C3C0000BF1037BD4680BD4C0200209C02002026
:101C4C0010000020ECBE000800000020C8BE0008F8
:101C5C0008000020D0BE0008F4BE0008E0BE00085A
:101C6C00E8BE000880B582B000AF00F025FA44F65B
:101C7C002063012278215B4802F084F80346002B94
:101C8C0001D00023A9E040F6C4137B6002E07B681E
:101C9C00013B7B607B68002BF9D1AE2200217820C0
:101CAC0000F084FA20220021782000F07FFA102224
:101CBC000021782000F07AFAB0220021782000F080
:101CCC0075FA00220021782000F070FA1022002111
:101CDC00782000F06BFA40220021782000F066FAA0
:101CEC00C0220021782000F061FAA0220021782087
:101CFC0000F05CFA81220021782000F057FA0022D3
:101D0C000021782000F052FAA6220021782000F061
:101D1C004DFAA8220021782000F048FA3F22002139
:101D2C00782000F043FAA4220021782000F03EFA3B
:101D3C00D3220021782000F039FA002200217820EB
:101D4C0000F034FAD5220021782000F02FFAF0228E
:101D5C000021782000F02AFAD9220021782000F006
:101D6C0025FA22220021782000F020FADA22002124
:101D7C00782000F01BFA12220021782000F016FACD
:101D8C00DB220021782000F011FA2022002178209B
:101D9C0000F00CFA8D220021782000F007FA1422B2
:101DAC000021782000F002FAAF220021782000F008
:101DBC00FDF92E220021782000F0F8F9002000F027
:101DCC0043F800F013F8084B00221A80064B00224F
:101DDC005A80054B01225A71012318460837BD461B
:101DEC0080BD00BF14070020A002002080B582B087
:101DFC0000AF0023FB711DE0FB79503BDBB21A46B0
:101E0C000021782000F0D2F900220021782000F087
:101E1C00CDF910220021782000F0C8F9FB79DB0104
:101E2C00084A1A4480234021782000F059F9FB79A4
:101E3C000133FB71FB79072BDED900BF00BF0837DC
:101E4C00BD4680BDA802002080B582B000AF03461D
:101E5C00FB71FB79002B01D1002300E0FF234FF431
:101E6C0080621946034809F017FB00BF0837BD46CE
:101E7C0080BD00BFA802002080B483B000AF034631
:101E8C00FB800B46BB801346FB70FB887F2B48D82E
:101E9C00BB883F2B45D8254B1B79002B06D0FB78F4
:101EAC00002B0CBF01230023DBB2FB70FB78012B52
:101EBC001AD1FA88BB88DB0898B20346DB011344BD
:101ECC001B4AD35C5AB2BB8803F00703012101FA09
:101EDC0003F35BB2134359B2FA880346DB01134494
:101EEC00C9B2134AD1541DE0FA88BB88DB0898B2FA
:101EFC000346DB0113440E4AD35C5AB2BB8803F091
:101F0C000703012101FA03F35BB2DB435BB213401D
:101F1C0059B2FA880346DB011344C9B2044AD154BE
:101F2C0000E000BF0C37BD4680BC7047A00200200B
:101F3C00A802002080B483B000AF03460A46FB80A1
:101F4C001346BB80054AFB881380044ABB88538028
:101F5C0000BF0C37BD4680BC704700BFA0020020FC
:101F6C0080B586B000AF03463960FB711346BB7178
:101F7C00394B1B881A463B681B7813447F2B07DCB4
:101F8C00354B5B881A463B685B7813443F2B01DD6D
:101F9C0000235DE000237B614BE03B685A68FB79D2
:101FAC00203B3968497801FB03F319467B690B44E4
:101FBC005B0013441B88FB6000233B6130E0FA6834
:101FCC003B6902FA03F303F40043002B10D0224BBD
:101FDC001A883B699BB2134498B21F4B5A887B6991
:101FEC009BB213449BB2BA791946FFF745FF14E034
:101FFC00194B1A883B699BB2134498B2164B5A88FA
:10200C007B699BB2134499B2BB79002B0CBF0123A3
:10201C000023DBB21A46FFF72FFF3B6901333B610C
:10202C003B681B781A463B699342C8D37B690133E2
:10203C007B613B685B781A467B699342ADD3064B58
:10204C001B883A68127813449AB2034B1A80FB79B6
:10205C0018461837BD4680BDA002002080B584B05C
:10206C0000AFF860B9601346FB7112E0FB681B7897
:10207C00FA79B9681846FFF773FF03461A46FB68EE
:10208C001B789A4202D0FB681B7808E0FB6801338E
:10209C00FB60FB681B78002BE8D1FB681B781846AB
:1020AC001037BD4680BD80B500AF0020FFF7CCFED9
:1020BC00FFF79CFE00BF80BD80B483B000AF074B20
:1020CC007B6002E07B68013B7B607B68002BF9D175
:1020DC0000BF00BF0C37BD4680BC704790D00300DA
:1020EC0090B5C7B002AF0446084607F58871A1F554
:1020FC0088710A60194607F58873A3F20913224602
:10210C001A7007F58873A3F5857302461A7007F5E4
:10211C008873A3F586730A461A8007F58873A3F5AE
:10212C00827307F58872A2F5857212781A700023F3
:10213C0087F80F3115E097F80F3107F58872A2F583
:10214C00887212681A4497F80F310133117807F529
:10215C008872A2F58272D15497F80F31013387F847
:10216C000F3197F80F319BB207F58872A2F5867282
:10217C0012889A42DFD807F58873A3F209131B78EB
:10218C0099B207F58873A3F586731B8801339BB24C
:10219C0007F10C020A200090034801F087F900BFF8
:1021AC0007F58A77BD4690BD1407002080B586B030
:1021BC0002AF0346FB710B46BB7113467B71BB79B7
:1021CC003B737B797B73FB7999B207F10C020A2381
:1021DC0000930223034801F069F900BF1037BD4694
:1021EC0080BD00BF1407002080B485B000AF7860BC
:1021FC000B46FB70134B0022DA600023FB7316E0D6
:10220C00FB7B7A681344104A92F86B2011461A78BB
:10221C000D4B0B4483F83E200B4B93F86B30013382
:10222C00DAB2094B83F86B20FB7B0133FB73FA7B2F
:10223C00FB789A42E4D300BF00BF1437BD4680BC84
:10224C00704700BF00020020A806002080B500AF38
:10225C00284B1B780133DAB2264B1A70254B1B78AE
:10226C0003F00103DBB2002B16D03C2200212248E4
:10227C0009F012F9214A22491F4809F0EDF80346EA
:10228C00DAB21C4B83F83D201A4B93F83D301946BB
:10229C00194808F003FD2BE03C220021164809F0F8
:1022AC00FBF8184A1849144809F0D6F80346DAB274
:1022BC00104B83F83D200F4B93F83D3019460E48D8
:1022CC0008F0ECFC3C2200210B4809F0E5F80F4A21
:1022DC000F49094809F0C0F80346DAB2054B83F8F8
:1022EC003D20044B93F83D301946034808F0D6FCCA
:1022FC0000BF80BDA8060020A906002036020020E1
:10230C00F8BE00086602002008BF00087202002018
:10231C0020BF000880B500AF254BDB680A2B45D9E0
:10232C00244B93F86B30002B40D03C2200212248E8
:10233C0009F0B2F8214A22491F4809F08DF80346EA
:10234C00DAB21C4B83F83D201A4B93F83D301946FA
:10235C00194808F0A3FC00F03DF80346002B04D00C
:10236C001821184808F09AFC17E000F051F90346C0
:10237C00002B04D01F21144808F090FC0DE000F055
:10238C0089F90346002B04D01F21104808F086FC65
:10239C0003E021210E4808F081FC2D220021074882
:1023AC0009F07AF8034B002283F86B2000BF80BD44
:1023BC0000020020A8060020A9060020E606002046
:1023CC0038BF000848BF000864BF000884BF00087D
:1023DC00A4BF000890B589B004AF8949894809F0B9
:1023EC0063F8B860BB6807331B783D2B40F0038162
:1023FC00BB681B331B783A2B40F0FD800123BB7369
:10240C001E220021804809F047F800237B730BE063
:10241C007B7BBA681A447B7B11787C4A13440A464E
:10242C001A717B7B01337B737B7B1D2BF0D9BB68D3
:10243C0009331B78303BDBB21A46920013445B0025
:10244C00DAB2BB680A331B781344DBB2303BFB7146
:10245C00BB680C331B78303BDBB21A46920013443A
:10246C005B00DAB2BB680D331B781344DBB2303B34
:10247C00BB71BB680F331B78303BDBB21A46920042
:10248C0013445B00DAB2BB6810331B781344DBB225
:10249C00303B7B71BB6816331B78303BDBB21A4682
:1024AC00920013445B00DAB2BB6817331B781344F9
:1024BC00DBB2303B3B71BB6819331B78303BDBB272
:1024CC001A46920013445B00DAB2BB681A331B78CD
:1024DC001344DBB2303BFB70BB681C331B78303BC6
:1024EC00DBB21A46920013445B00DAB2BB681D33B0
:1024FC001B781344DBB2303BBB70BB6812331B78C8
:10250C00532B07D1BB6813331B78752B02D10123D6
:10251C00FB734FE0BB6812331B784D2B07D1BB68A4
:10252C0013331B786F2B02D10223FB7342E0BB6881
:10253C0012331B78542B07D1BB6813331B78752BC4
:10254C0002D10323FB7335E0BB6812331B78572B86
:10255C0007D1BB6813331B78652B02D10423FB73A3
:10256C0028E0BB6812331B78542B07D1BB6813339C
:10257C001B78682B02D10523FB731BE0BB6812335D
:10258C001B78462B07D1BB6813331B78722B02D1F7
:10259C000623FB730EE0BB6812331B78532B07D159
:1025AC00BB6813331B78612B02D10723FB7301E04B
:1025BC000023BB73BB7B002B0DD0FC7BFA79B97964
:1025CC007879BB780293FB7801933B79009323468F
:1025DC00FEF7CEFB0FE00023BB73BB7BBB70BB785D
:1025EC00FB70FB783B713B79FB73FB7B7B717B79DD
:1025FC00BB71BB79FB71BB7B18461437BD4690BDD4
:10260C00C0BF0008E60600201802002014020020BB
:10261C0080B582B000AF1B491B4808F045FF3860FD
:10262C003B6805331B78312B26D13B6806331B786E
:10263C003D2B21D13B6817331B783A2B1CD11E2222
:10264C000021124808F028FF0023FB710BE0FB79F6
:10265C003A681A44FB7911780D4A13440A461A71E8
:10266C00FB790133FB71FB79192BF0D90749012058
:10267C00FEF76EFA012300E0002318460837BD462A
:10268C0080BD00BFCCBF0008E60600201802002069
:10269C001402002080B582B000AF1B491B4808F023
:1026AC0003FF38603B6805331B78322B26D13B681F
:1026BC0006331B783D2B21D13B6817331B783A2B03
:1026CC001CD11E220021124808F0E6FE0023FB71EB
:1026DC000BE0FB793A681A44FB7911780D4A1344E4
:1026EC000A461A71FB790133FB71FB79192BF0D96E
:1026FC0007490220FEF72CFA012300E000231846BC
:10270C000837BD4680BD00BFD8BF0008E6060020D4
:10271C00180200201402002080B500AF00F022FA4D
:10272C0000F00DF800F0ACF800F062F800F08EF854
:10273C0008F0F0F9FEF742F9FEF75EF9FCE780B518
:10274C0094B000AF07F1280328220021184608F0A6
:10275C00A3FE07F1140300221A605A609A60DA6033
:10276C001A613B1D00221A605A609A60DA600A23D3
:10277C00BB620123BB631023FB6301233B64022375
:10278C007B640023BB644FF42013FB6407F1280324
:10279C00184603F00DFE0346002B01D000F0D0F8D4
:1027AC000F237B610223BB610023FB614FF4806329
:1027BC003B6200237B6207F114030121184604F0ED
:1027CC0079F80346002B01D000F0BAF810237B6097
:1027DC004FF480033B613B1D184604F0E5F90346BA
:1027EC00002B01D000F0ACF800BF5037BD4680BDC7
:1027FC0080B500AF124B134A1A60114B124A5A6043
:10280C000F4B00229A600E4B0022DA600C4B4FF4F7
:10281C0080421A610A4B00225A61094B00229A61CC
:10282C00074B0022DA61064B00221A62044800F0C2
:10283C00F9FC0346002B01D000F082F800BF80BDEC
:10284C001407002000540040801A060080B500AF29
:10285C00094B0A4A1A60084B03225A60064B40F691
:10286C00FF729A60044801F0F0FF0346002B01D080
:10287C0000F066F800BF80BD680700200030004003
:10288C0080B588B000AF07F1100300221A605A60BF
:10289C009A60DA60274B9B69264A43F010039361D8
:1028AC00244B9B6903F01003FB60FB68214B9B6975
:1028BC00204A43F0040393611E4B9B6903F004030D
:1028CC00BB60BB681B4B9B691A4A43F008039361BE
:1028DC00184B9B6903F008037B607B6801224FF463
:1028EC000051154800F06DFC01223021134800F016
:1028FC0068FC4FF400533B6101237B610123BB61F6
:10290C000323FB6107F1100319460B4800F0BEFAD4
:10291C0030233B6101237B610123BB610323FB61FA
:10292C0007F110031946054800F0B0FA00BF203734
:10293C00BD4680BD0010024000100140000801405F
:10294C0080B400AF72B600BF00BFFDE780B485B0A5
:10295C0000AF154B9B69144A43F001039361124B72
:10296C009B6903F00103BB60BB680F4BDB690E4A2C
:10297C0043F08053D3610C4BDB6903F080537B60D5
:10298C007B680A4B5B68FB60FB6823F0E063FB60D1
:10299C00FB6843F00073FB60044AFB68536000BFA4
:1029AC001437BD4680BC7047001002400000014047
:1029BC0080B588B000AF786007F1100300221A6070
:1029CC005A609A60DA607B681B68164A934225D17C
:1029DC00154B9B69144A43F008039361124B9B6996
:1029EC0003F00803FB60FB68C0233B6112237B618F
:1029FC000123BB610323FB6107F1100319460B484C
:102A0C0000F044FA084BDB69074A43F40013D36126
:102A1C00054BDB6903F40013BB60BB6800BF2037B8
:102A2C00BD4680BD0054004000100240000C014027
:102A3C0080B400AF00BFFDE780B400AF00BFFDE77E
:102A4C0080B400AF00BFFDE780B400AF00BFFDE76E
:102A5C0080B400AF00BFFDE780B400AF00BFBD463F
:102A6C0080BC704780B400AF00BFBD4680BC7047CF
:102A7C0080B400AF00BFBD4680BC704780B500AFCE
:102A8C00FDF7E4FF00F0B4F800BF80BD80B500AFE7
:102A9C00024802F049F800BF80BD00BF441400207A
:102AAC0080B586B000AF7860144A154BD31A7B61A1
:102ABC007B693B61134B1B68002B02D1114B124AF3
:102ACC001A60104B1A687B6813443A699A4207D211
:102ADC0008F000FD03460C221A604FF0FF3309E0AA
:102AEC00084B1B68FB60074B1A687B681344054A4C
:102AFC001360FB6818461837BD4680BD0050002097
:102B0C000020000074070020881A002080B400AF59
:102B1C0000BFBD4680BC7047FFF7F8FF0B480C495F
:102B2C000C4A002302E0D458C4500433C4188C421D
:102B3C00F9D3094A094C002301E013600432A24284
:102B4C00FBD308F0CDFCFFF7E7FD70470000002039
:102B5C00E4010020A8E80008E4010020841A002009
:102B6C00FEE7000080B500AF084B1B68074A43F036
:102B7C0010031360032000F047F90F2000F008F851
:102B8C00FFF7E4FE0023184680BD00BF0020024082
:102B9C0080B582B000AF7860124B1A68124B1B786C
:102BAC0019464FF47A73B3FBF1F3B2FBF3F3184607
:102BBC0000F05FF90346002B01D001230EE07B6887
:102BCC000F2B0AD8002279684FF0FF3000F027F95C
:102BDC00064A7B681360002300E00123184608377F
:102BEC00BD4680BD18000020200000201C000020E5
:102BFC0080B400AF054B1B781A46054B1B68134479
:102C0C00034A136000BFBD4680BC70472000002003
:102C1C007807002080B400AF024B1B681846BD46F5
:102C2C0080BC70477807002080B584B000AF786016
:102C3C00FFF7F0FFB8607B68FB60FB68B3F1FF3F08
:102C4C0005D00A4B1B781A46FB681344FB6000BF87
:102C5C00FFF7E0FF0246BB68D31AFA689A42F7D82E
:102C6C0000BF00BF1037BD4680BD00BF2000002054
:102C7C0080B485B000AF78607B6803F00703FB601D
:102C8C000C4BDB68BB60BA684FF6FF031340BB60AC
:102C9C00FB681A02BB68134343F0BF6343F4003371
:102CAC00BB60044ABB68D36000BF1437BD4680BC10
:102CBC00704700BF00ED00E080B400AF044BDB6850
:102CCC001B0A03F007031846BD4680BC704700BFC3
:102CDC0000ED00E080B483B000AF0346FB7197F9C0
:102CEC000730002B0BDBFB7903F01F02064997F929
:102CFC0007305B09012000FA02F241F8232000BFE3
:102D0C000C37BD4680BC704700E100E080B483B056
:102D1C0000AF03463960FB7197F90730002B0ADBD3
:102D2C003B68DAB20C4997F907301201D2B20B4466
:102D3C0083F800230AE03B68DAB20849FB7903F018
:102D4C000F03043B1201D2B20B441A7600BF0C37AE
:102D5C00BD4680BC704700BF00E100E000ED00E024
:102D6C0080B489B000AFF860B9607A60FB6803F09A
:102D7C000703FB61FB69C3F10703042B28BF042382
:102D8C00BB61FB690433062B02D9FB69033B00E0F2
:102D9C0000237B614FF0FF32BB6902FA03F3DA4385
:102DAC00BB681A407B699A404FF0FF317B6901FA8E
:102DBC0003F3D9437B680B40134318462437BD46B5
:102DCC0080BC704780B582B000AF78607B68013BF7
:102DDC00B3F1807F01D301230FE00A4A7B68013BEA
:102DEC0053600F214FF0FF30FFF790FF054B00228F
:102DFC009A60044B07221A60002318460837BD4618
:102E0C0080BD00BF10E000E080B582B000AF7860FC
:102E1C007868FFF72DFF00BF0837BD4680BD80B531
:102E2C0086B000AF0346B9607A60FB7300237B6108
:102E3C00FFF742FF78617A68B9687869FFF790FF0D
:102E4C00024697F90F3011461846FFF75FFF00BF97
:102E5C001837BD4680BD80B582B000AF0346FB710C
:102E6C0097F907301846FFF735FF00BF0837BD4606
:102E7C0080BD80B582B000AF78607868FFF7A2FFA4
:102E8C00034618460837BD4680BD000080B48BB0A1
:102E9C0000AF7860396000237B6200233B6269E1FC
:102EAC0001227B6A02FA03F3FB613B681B68FA6937
:102EBC001340BB61BA69FB699A4240F058813B6888
:102ECC005B689A4A93425ED0984A934275D8984A66
:102EDC00934258D0964A93426FD8964A934252D016
:102EEC00944A934269D8944A93424CD0924A934262
:102EFC0063D8924A934246D0904A93425DD8122BA3
:102F0C002AD8122B59D801A252F823F0932F00087B
:102F1C006D2F00087F2F0008C12F0008C72F000855
:102F2C00C72F0008C72F0008C72F0008C72F00089D
:102F3C00C72F0008C72F0008C72F0008C72F00088D
:102F4C00C72F0008C72F0008C72F0008C72F00087D
:102F5C00752F0008892F0008794A934213D02CE072
:102F6C003B68DB683B6229E03B68DB6804333B620F
:102F7C0024E03B68DB6808333B621FE03B68DB689E
:102F8C000C333B621AE03B689B68002B02D1042394
:102F9C003B6213E03B689B68012B05D108233B6225
:102FAC007B68FA691A6109E008233B627B68FA695D
:102FBC005A6103E000233B6200E000BFBB69FF2BBA
:102FCC0001D87B6801E07B6804337B61BB69FF2B14
:102FDC0002D87B6A9B0002E07B6A083B9B003B614A
:102FEC007B691A680F213B6901FA03F3DB431A4032
:102FFC00396A3B6901FA03F31A437B691A603B682F
:10300C005B6803F08053002B00F0B1804D4B9B6943
:10301C004C4A43F0010393614A4B9B6903F0010353
:10302C00BB60BB68484A7B6A9B08023352F823306A
:10303C00FB607B6A03F003039B000F2202FA03F38D
:10304C00DB43FA681340FB607B68404A934213D021
:10305C007B683F4A93420DD07B683E4A934207D02F
:10306C007B683D4A934201D1032306E0042304E02C
:10307C00022302E0012300E000237A6A02F003023B
:10308C0092009340FA681343FB602F497B6A9B08BC
:10309C000233FA6841F823203B685B6803F4801321
:1030AC00002B06D02D4B9A682C49BB6913438B60BF
:1030BC0006E02A4B9A68BB69DB43284913408B60B6
:1030CC003B685B6803F40013002B06D0234BDA68D3
:1030DC002249BB691343CB6006E0204BDA68BB691D
:1030EC00DB431E491340CB603B685B6803F4003341
:1030FC00002B06D0194B5A681849BB6913434B6017
:10310C0006E0164B5A68BB69DB43144913404B600D
:10311C003B685B6803F48033002B21D00F4B1A689B
:10312C000E49BB6913430B6021E000BF0000321055
:10313C0000003110000022100000211000001210BD
:10314C000000111000100240000001400008014076
:10315C00000C01400010014000140140000401402B
:10316C000B4B1A68BB69DB43094913400B607B6A44
:10317C0001337B623B681A687B6A22FA03F3002BEB
:10318C007FF48EAE00BF00BF2C37BD4680BC7047AD
:10319C000004014080B485B000AF78600B467B80A2
:1031AC007B689A687B881340002B02D00123FB7349
:1031BC0001E00023FB73FB7B18461437BD4680BC33
:1031CC00704780B483B000AF78600B467B801346A9
:1031DC007B707B78002B03D07A887B681A6103E0C4
:1031EC007B881A047B681A6100BF0C37BD4680BC13
:1031FC00704780B485B000AF78600B467B807B68ED
:10320C00DB68FB607A88FB6813401A04FB68D943BF
:10321C007B880B401A437B681A6100BF1437BD468C
:10322C0080BC704780B584B000AF78607B68002BA1
:10323C0001D101232BE17B6893F83D30DBB2002BED
:10324C0006D17B68002283F83C207868FFF7B0FB3E
:10325C007B68242283F83D207B681B681A687B6896
:10326C001B6822F001021A607B681B681A687B6875
:10327C001B6842F400421A607B681B681A687B6802
:10328C001B6822F400421A6003F05CFCF8607B6857
:10329C005B68814A934207D8FB68804A934294BF8B
:1032AC0001230023DBB206E0FB687D4A934294BF06
:1032BC0001230023DBB2002B01D00123E7E0FB68E4
:1032CC00784AA2FB03239B0CBB607B681B685B6882
:1032DC0023F03F017B681B68BA680A435A607B681D
:1032EC001B681B6A23F03F017B685B686A4A934248
:1032FC0002D8BB68013309E0BB684FF4967202FB3D
:10330C0003F3694AA2FB03239B0901337A68126811
:10331C000B4313627B681B68DB6923F44F4222F07A
:10332C00FF027B685B685C498B4219D8FB68591EAD
:10333C007B685B685B00B1FBF3F3591C40F6FC73D4
:10334C000B40002B0AD0FB68591E7B685B685B0046
:10335C00B1FBF3F30133C3F30B0351E004234FE050
:10336C007B689B68002B11D1FB68581E7B685968E1
:10337C000B465B000B44B0FBF3F30133C3F30B03BD
:10338C00002B0CBF01230023DBB212E0FB68581E9C
:10339C007B6859680B469B000B4499000B44B0FBAF
:1033AC00F3F30133C3F30B03002B0CBF01230023F6
:1033BC00DBB2002B01D0012322E07B689B68002B41
:1033CC000ED1FB68581E7B6859680B465B000B449A
:1033DC00B0FBF3F30133C3F30B0343F400430FE0EF
:1033EC00FB68581E7B6859680B469B000B44990080
:1033FC000B44B0FBF3F30133C3F30B0343F440432F
:10340C00796809681343CB617B681B681B6823F0E0
:10341C00C0017B68DA697B681B6A1A437B681B688E
:10342C000A431A607B681B689B6823F4034323F0F0
:10343C00FF037A6811697A68D26811437A68126856
:10344C000B4393607B681B68DB6823F0FF017B6890
:10345C005A697B689B691A437B681B680A43DA606C
:10346C007B681B681A687B681B6842F001021A6053
:10347C007B6800221A647B68202283F83D207B68DD
:10348C0000221A637B68002283F83E200023184632
:10349C001037BD4680BD00BFA08601007F841E0092
:1034AC00FF083D0083DE1B43D34D621080B588B00E
:1034BC0002AFF8607A601A460B467B8113463B815B
:1034CC00FFF7A8FB7861FB6893F83D30DBB2202B4B
:1034DC0040F0E0807B690093192301227049F86861
:1034EC0000F07EFF0346002B01D00223D3E0FB68E3
:1034FC0093F83C30012B01D10223CCE0FB68012274
:10350C0083F83C20FB681B681B6803F00103012B4C
:10351C0007D0FB681B681A68FB681B6842F0010245
:10352C001A60FB681B681A68FB681B6822F400624F
:10353C001A60FB68212283F83D20FB68102283F877
:10354C003E20FB6800221A64FB687A685A62FB68AA
:10355C003A895A85FB685B8D9AB2FB681A85FB68C1
:10356C00504ADA6279897B693A6AF86800F038FD6A
:10357C000346002B01D001238DE000233B61FB6847
:10358C001B685B693B61FB681B689B693B613B6922
:10359C0066E07A69396AF86801F03CF80346002B5A
:1035AC000DD0FB681B6C042B07D1FB681B681A68D9
:1035BC00FB681B6842F400721A6001236BE0FB6825
:1035CC005B6A1A78FB681B681A61FB685B6A5A1C99
:1035DC00FB685A62FB685B8D9BB2013B9AB2FB683D
:1035EC005A85FB681B8D013B9AB2FB681A85FB68F8
:1035FC001B685B6903F00403042B1BD1FB681B8D58
:10360C00002B17D0FB685B6A1A78FB681B681A6181
:10361C00FB685B6A5A1CFB685A62FB685B8D9BB249
:10362C00013B9AB2FB685A85FB681B8D013B9AB231
:10363C00FB681A857A69396AF86801F033F8034631
:10364C00002B0DD0FB681B6C042B07D1FB681B688F
:10365C001A68FB681B6842F400721A6001231AE0B6
:10366C00FB681B8D002B94D1FB681B681A68FB68E8
:10367C001B6842F400721A60FB68202283F83D201C
:10368C00FB68002283F83E20FB68002283F83C2074
:10369C00002300E0022318461837BD4680BD00BF4A
:1036AC00020010000000FFFF80B588B002AFF86088
:1036BC00084611461A4603467B810B463B8113464E
:1036CC00FB80FFF7A7FA7861FB6893F83D30DBB21B
:1036DC00202B40F0D9807B690093192301226D497E
:1036EC00F86800F07DFE0346002B01D00223CCE0ED
:1036FC00FB6893F83C30012B01D10223C5E0FB6839
:10370C00012283F83C20FB681B681B6803F0010353
:10371C00012B07D0FB681B681A68FB681B6842F01A
:10372C0001021A60FB681B681A68FB681B6822F4AC
:10373C0000621A60FB68212283F83D20FB6840225E
:10374C0083F83E20FB6800221A64FB683A6A5A62CE
:10375C00FB68BA8C5A85FB685B8D9AB2FB681A853C
:10376C00FB684D4ADA62F8883A8979897B6901935A
:10377C00BB6A00930346F86800F0B4FC0346002BC8
:10378C0052D0012381E07A69B96AF86800F042FFEF
:10379C000346002B0DD0FB681B6C042B07D1FB6878
:1037AC001B681A68FB681B6842F400721A600123DC
:1037BC006BE0FB685B6A1A78FB681B681A61FB6834
:1037CC005B6A5A1CFB685A62FB681B8D013B9AB200
:1037DC00FB681A85FB685B8D9BB2013B9AB2FB6858
:1037EC005A85FB681B685B6903F00403042B1BD12F
:1037FC00FB681B8D002B17D0FB685B6A1A78FB6883
:10380C001B681A61FB685B6A5A1CFB685A62FB688E
:10381C001B8D013B9AB2FB681A85FB685B8D9BB2D2
:10382C00013B9AB2FB685A85FB681B8D002BAAD111
:10383C007A69B96AF86800F035FF0346002B0DD0A1
:10384C00FB681B6C042B07D1FB681B681A68FB68B0
:10385C001B6842F400721A60012316E0FB681B68B7
:10386C001A68FB681B6842F400721A60FB6820221D
:10387C0083F83D20FB68002283F83E20FB68002281
:10388C0083F83C20002300E0022318461837BD467D
:10389C0080BD00BF020010000000FFFF80B58CB09F
:1038AC0002AFF860084611461A4603467B810B4668
:1038BC003B811346FB8000233B62FFF7ABF9786238
:1038CC00FB6893F83D30DBB2202B40F050827B6AD2
:1038DC000093192301228249F86800F081FD034608
:1038EC00002B01D0022343E2FB6893F83C30012B00
:1038FC0001D102233CE2FB68012283F83C20FB68E7
:10390C001B681B6803F00103012B07D0FB681B68C5
:10391C001A68FB681B6842F001021A60FB681B689E
:10392C001A68FB681B6822F400621A60FB6822228A
:10393C0083F83D20FB68402283F83E20FB68002280
:10394C001A64FB683A6B5A62FB68BA8E5A85FB683C
:10395C005B8D9AB2FB681A85FB68624ADA62F8885A
:10396C003A8979897B6A0193BB6B00930346F868AB
:10397C0000F04EFC0346002B01D00123F8E1FB685C
:10398C001B8D002B13D10023FB61FB681B685B694B
:10399C00FB61FB681B689B69FB61FB69FB681B682F
:1039AC001A68FB681B6842F400721A60CCE1FB6871
:1039BC001B8D012B1ED1FB681B681A68FB681B68EA
:1039CC0022F480621A6072B600BF0023BB61FB68F0
:1039DC001B685B69BB61FB681B689B69BB61BB694E
:1039EC00FB681B681A68FB681B6842F400721A605B
:1039FC0062B635E0FB681B8D022B1ED1FB681B6881
:103A0C001A68FB681B6842F400621A6072B600BF49
:103A1C0000237B61FB681B685B697B61FB681B682F
:103A2C009B697B617B69FB681B681A68FB681B6878
:103A3C0022F480621A6062B612E0FB681B681A6896
:103A4C00FB681B6842F480621A6000233B61FB68D0
:103A5C001B685B693B61FB681B689B693B613B694D
:103A6C0072E1FB681B8D032B00F21F81FB681B8D21
:103A7C00012B23D17A6AB96BF86800F05BFE034620
:103A8C00002B01D0012373E1FB681B681A69FB68EA
:103A9C005B6AD2B21A70FB685B6A5A1CFB685A628A
:103AAC00FB681B8D013B9AB2FB681A85FB685B8D2A
:103ABC009BB2013B9AB2FB685A8545E1FB681B8DB2
:103ACC00022B52D17B6A0093BB6B00220649F8682B
:103ADC0000F086FC0346002B08D0012348E100BF10
:103AEC00020010000000FFFF0400010072B600BFCE
:103AFC00FB681B681A68FB681B6842F400721A604A
:103B0C00FB681B681A69FB685B6AD2B21A70FB68A7
:103B1C005B6A5A1CFB685A62FB681B8D013B9AB2AC
:103B2C00FB681A85FB685B8D9BB2013B9AB2FB6804
:103B3C005A8562B600BFFB681B681A69FB685B6A32
:103B4C00D2B21A70FB685B6A5A1CFB685A62FB683B
:103B5C001B8D013B9AB2FB681A85FB685B8D9BB28F
:103B6C00013B9AB2FB685A85EEE07B6A0093BB6B13
:103B7C0000228149F86800F033FC0346002B01D089
:103B8C000123F5E0FB681B681A68FB681B6822F4CC
:103B9C0080621A6072B600BFFB681B681A69FB680A
:103BAC005B6AD2B21A70FB685B6A5A1CFB685A6279
:103BBC00FB681B8D013B9AB2FB681A85FB685B8D19
:103BCC009BB2013B9AB2FB685A856C4B1B68DB08B5
:103BDC006B4AA2FB03231A0A13469B001344DA0018
:103BEC00D31A3B623B6A013B3B623B6A002B18D108
:103BFC00FB6800221A63FB68202283F83D20FB68D7
:103C0C00002283F83E20FB681B6C43F02002FB680B
:103C1C001A6462B600BFFB68002283F83C200123C3
:103C2C00A6E0FB681B685B6903F00403042BD9D185
:103C3C00FB681B681A68FB681B6842F400721A6008
:103C4C00FB681B681A69FB685B6AD2B21A70FB6866
:103C5C005B6A5A1CFB685A62FB681B8D013B9AB26B
:103C6C00FB681A85FB685B8D9BB2013B9AB2FB68C3
:103C7C005A8562B600BFFB681B681A69FB685B6AF1
:103C8C00D2B21A70FB685B6A5A1CFB685A62FB68FA
:103C9C001B8D013B9AB2FB681A85FB685B8D9BB24E
:103CAC00013B9AB2FB685A854EE07A6AB96BF868A8
:103CBC0000F040FD0346002B01D0012358E0FB68C7
:103CCC001B681A69FB685B6AD2B21A70FB685B6A84
:103CDC005A1CFB685A62FB681B8D013B9AB2FB684D
:103CEC001A85FB685B8D9BB2013B9AB2FB685A85C7
:103CFC00FB681B685B6903F00403042B24D1FB688D
:103D0C001B8D032B07D1FB681B681A68FB681B68AB
:103D1C0022F480621A60FB681B681A69FB685B6A94
:103D2C00D2B21A70FB685B6A5A1CFB685A62FB6859
:103D3C001B8D013B9AB2FB681A85FB685B8D9BB2AD
:103D4C00013B9AB2FB685A85FB681B8D002B7FF4F4
:103D5C0088AEFB68202283F83D20FB68002283F8A4
:103D6C003E20FB68002283F83C20002300E0022365
:103D7C0018462837BD4680BD0400010018000020FD
:103D8C0089B5F81480B58AB002AFF8607A603B60F0
:103D9C000B467B81FEF73EFFF8610023BB61FB689D
:103DAC0093F83D30DBB2202B40F01181FB6900937E
:103DBC00192301228849F86800F012FB0346002BF6
:103DCC0001D0022304E1FB6893F83C30012B01D1B4
:103DDC000223FDE0FB68012283F83C20FB681B6892
:103DEC001B6803F00103012B07D0FB681B681A68E2
:103DFC00FB681B6842F001021A60FB681B681A68BA
:103E0C00FB681B6822F400621A60FB68242283F8AA
:103E1C003D20FB6800221A64FB68704ADA62FB687A
:103E2C001B681A68FB681B6842F480721A60FB6995
:103E3C0000933B6800224FF00111F86800F0D0FAB3
:103E4C000346002B0DD0FB681B681B6803F48073C2
:103E5C00B3F5807F03D1FB684FF400721A6403231F
:103E6C00B6E07B89DBB21A46FB681B6802F0FE02E7
:103E7C001A61FEF7CFFEF861FB681B685B6903F003
:103E8C000203022B0CBF01230023DBB2FB75FB6882
:103E9C001B685B6903F48063B3F5806F0CBF01236F
:103EAC000023DBB2BB7525E0FEF7B4FE0246FB69CE
:103EBC00D31A3A689A4202D33B68002B03D1FB68B1
:103ECC00A02283F83D20FB681B685B6903F00203AA
:103EDC00022B0CBF01230023DBB2FB75FB681B68B4
:103EEC005B6903F48063B3F5806F0CBF012300237F
:103EFC00DBB2BB75FB6893F83D30DBB2A02B05D071
:103F0C00FB7D002B02D1BB7D002BCDD0FB6820228A
:103F1C0083F83D20FB681B685B6903F00203022BEE
:103F2C0029D1FB681B681A68FB681B6842F4007295
:103F3C001A6000233B61FB681B685B693B61FB6893
:103F4C001B689B693B613B69FB6900931923012248
:103F5C002149F86800F044FA0346002B01D00123F4
:103F6C0036E0FB68202283F83D20FB68002283F8B2
:103F7C003C2000232CE0FB681B681A68FB681B685C
:103F8C0042F400721A60FB681B686FF480625A611D
:103F9C00FB690093192301220F49F86800F020FAFD
:103FAC000346002B01D0012312E0BB690133BB6136
:103FBC00BA697B689A42FFF432AFFB68202283F81F
:103FCC003D20FB68002283F83C20012300E0022303
:103FDC0018462037BD4680BD020010000000FFFFD0
:103FEC0080B588B002AFF8607A603B600B467B818D
:103FFC00FB68DB6A7B617B69082B06D07B69012B34
:10400C0003D07B6913F5803F08D1FB681B681A68E5
:10401C00FB681B6842F480721A600BE0FB681B6B38
:10402C00122B07D1FB681B681A68FB681B6842F4EB
:10403C0080721A603B6800937B6800224FF001117C
:10404C00F86800F0CDF90346002B0DD0FB681B6817
:10405C001B6803F48073B3F5807F03D1FB684FF4C6
:10406C0000721A64032335E0FB681B69B3F5804FBB
:10407C0008D17B89DBB21A46FB681B6802F0FE0292
:10408C001A611BE07B89DB11DBB203F00603DBB2A8
:10409C0063F00F03DAB2FB681B681A613B687A683D
:1040AC000E49F86800F016FA0346002B01D00123E4
:1040BC0010E07B89DAB2FB681B681A613B687A688E
:1040CC000749F86800F006FA0346002B01D00123DB
:1040DC0000E0002318461837BD4680BD08000100DB
:1040EC000200010080B588B002AFF86008461146A6
:1040FC001A4603467B810B463B811346FB80FB68CB
:10410C001B681A68FB681B6842F480721A607B6A31
:10411C0000933B6A00224FF00111F86800F060F93F
:10412C000346002B0DD0FB681B681B6803F48073DF
:10413C00B3F5807F03D1FB684FF400721A6403233C
:10414C005FE07B89DBB21A46FB681B6802F0FE025B
:10415C001A617B6A3A6A2D49F86800F0BBF903468C
:10416C00002B01D001234CE000237B61FB681B6812
:10417C005B697B61FB681B689B697B617B697A6A05
:10418C00396AF86800F046FA0346002B0DD0FB683C
:10419C001B6C042B07D1FB681B681A68FB681B6837
:1041AC0042F400721A6001232BE0FB88012B05D12D
:1041BC003B89DAB2FB681B681A6121E03B891B0A58
:1041CC009BB2DAB2FB681B681A617A6A396AF868C2
:1041DC0000F020FA0346002B0DD0FB681B6C042B5F
:1041EC0007D1FB681B681A68FB681B6842F40072F5
:1041FC001A60012305E03B89DAB2FB681B681A617F
:10420C00002318461837BD4680BD00BF02000100D0
:10421C0080B588B002AFF860084611461A460346CE
:10422C007B810B463B811346FB80FB681B681A683D
:10423C00FB681B6842F480621A60FB681B681A6892
:10424C00FB681B6842F480721A607B6A00933B6ABD
:10425C0000224FF00111F86800F0C2F80346002B61
:10426C000DD0FB681B681B6803F48073B3F5807F6B
:10427C0003D1FB684FF400721A640323AAE07B8914
:10428C00DBB21A46FB681B6802F0FE021A617B6AFD
:10429C003A6A5249F86800F01DF90346002B01D028
:1042AC00012397E000237B61FB681B685B697B61E2
:1042BC00FB681B689B697B617B697A6A396AF86861
:1042CC0000F0A8F90346002B0DD0FB681B6C042BE7
:1042DC0007D1FB681B681A68FB681B6842F4007204
:1042EC001A60012376E0FB88012B05D13B89DAB2F9
:1042FC00FB681B681A6121E03B891B0A9BB2DAB28E
:10430C00FB681B681A617A6A396AF86800F082F9EE
:10431C000346002B0DD0FB681B6C042B07D1FB68EC
:10432C001B681A68FB681B6842F400721A60012350
:10433C0050E03B89DAB2FB681B681A617A6A396A09
:10434C00F86800F067F90346002B0DD0FB681B6C76
:10435C00042B07D1FB681B681A68FB681B6842F4C6
:10436C0000721A60012335E0FB681B681A68FB6851
:10437C001B6842F480721A607B6A00933B6A0022CD
:10438C004FF00111F86800F02BF80346002B0DD00C
:10439C00FB681B681B6803F48073B3F5807F03D143
:1043AC00FB684FF400721A64032313E07B89DBB2C1
:1043BC0043F00103DAB2FB681B681A617B6A3A6A44
:1043CC000649F86800F086F80346002B01D001235B
:1043DC0000E0002318461837BD4680BD02000100DE
:1043EC0080B584B000AFF860B9603B601346FB71D8
:1043FC0048E03B68B3F1FF3F44D0FEF70BFC0246AC
:10440C00BB69D31A3A689A4202D33B68002B39D164
:10441C00BB681B0CDBB2012B0DD1FB681B685B6905
:10442C00DA43BB6813409BB2002B0CBF0123002363
:10443C00DBB21A460CE0FB681B689B69DA43BB686D
:10444C0013409BB2002B0CBF01230023DBB21A4696
:10445C00FB799A4216D1FB6800221A63FB68202272
:10446C0083F83D20FB68002283F83E20FB681B6C20
:10447C0043F02002FB681A64FB68002283F83C209E
:10448C00012323E0BB681B0CDBB2012B0DD1FB68B5
:10449C001B685B69DA43BB6813409BB2002B0CBFF3
:1044AC0001230023DBB21A460CE0FB681B689B69F6
:1044BC00DA43BB6813409BB2002B0CBF01230023D3
:1044CC00DBB21A46FB799A4293D000231846103778
:1044DC00BD4680BD80B584B000AFF860B9607A602D
:1044EC003B6071E0FB681B685B6903F48063B3F5A8
:1044FC00806F23D1FB681B681A68FB681B6842F449
:10450C0000721A60FB681B686FF480625A61FB686A
:10451C0000221A63FB68202283F83D20FB680022EE
:10452C0083F83E20FB681B6C43F00402FB681A64A2
:10453C00FB68002283F83C20012367E07B68B3F121
:10454C00FF3F41D0FEF766FB02463B68D31A7A6800
:10455C009A4202D37B68002B36D1BB681B0CDBB2B2
:10456C00012B0CD1FB681B685B69DA43BB681340F9
:10457C009BB2002B14BF01230023DBB20BE0FB68C2
:10458C001B689B69DA43BB6813409BB2002B14BFBA
:10459C0001230023DBB2002B16D0FB6800221A6328
:1045AC00FB68202283F83D20FB68002283F83E2024
:1045BC00FB681B6C43F02002FB681A64FB6800224A
:1045CC0083F83C20012321E0BB681B0CDBB2012BE0
:1045DC000CD1FB681B685B69DA43BB6813409BB268
:1045EC00002B14BF01230023DBB20BE0FB681B681C
:1045FC009B69DA43BB6813409BB2002B14BF0123A9
:10460C000023DBB2002B7FF46DAF0023184610376C
:10461C00BD4680BD80B584B000AFF860B9607A60EB
:10462C0034E0F86800F0E3F80346002B01D00123D6
:10463C0034E0BB68B3F1FF3F28D0FEF7EBFA02463B
:10464C007B68D31ABA689A4202D3BB68002B1DD17F
:10465C00FB681B685B6903F08003802B16D0FB683A
:10466C0000221A63FB68202283F83D20FB6800229D
:10467C0083F83E20FB681B6C43F02002FB681A6435
:10468C00FB68002283F83C20012307E0FB681B68D1
:10469C005B6903F08003802BC3D1002318461037CD
:1046AC00BD4680BD80B584B000AFF860B9607A605B
:1046BC0034E0F86800F09BF80346002B01D001238E
:1046CC0034E0BB68B3F1FF3F28D0FEF7A3FA0246F3
:1046DC007B68D31ABA689A4202D3BB68002B1DD1EF
:1046EC00FB681B685B6903F00403042B16D0FB68A2
:1046FC0000221A63FB68202283F83D20FB6800220D
:10470C0083F83E20FB681B6C43F02002FB681A64A4
:10471C00FB68002283F83C20012307E0FB681B6840
:10472C005B6903F00403042BC3D100231846103734
:10473C00BD4680BD80B584B000AFF860B9607A60CA
:10474C0049E0FB681B685B6903F01003102B19D15F
:10475C00FB681B686FF010025A61FB6800221A6339
:10476C00FB68202283F83D20FB68002283F83E2062
:10477C00FB681A6CFB681A64FB68002283F83C2007
:10478C00012330E0FEF746FA02467B68D31ABA687A
:10479C009A4202D3BB68002B1DD1FB681B685B6976
:1047AC0003F04003402B16D0FB6800221A63FB6811
:1047BC00202283F83D20FB68002283F83E20FB6812
:1047CC001B6C43F02002FB681A64FB68002283F820
:1047DC003C20012307E0FB681B685B6903F0400386
:1047EC00402BAED1002318461037BD4680BD80B497
:1047FC0083B000AF78607B681B685B6903F48063EF
:10480C00B3F5806F1BD17B681B686FF480625A61B3
:10481C007B6800221A637B68202283F83D207B682A
:10482C00002283F83E207B681B6C43F004027B68FB
:10483C001A647B68002283F83C20012300E00023EB
:10484C0018460C37BD4680BC704780B584B000AFAD
:10485C0078607B68002B01D1012336E07B681B68F4
:10486C004CF6CC421A607B681B6845F255521A60B4
:10487C007B681B687A6852685A607B681B687A6828
:10488C0092689A60FEF7C6F9F86011E0FEF7C2F97B
:10489C000246FB68D31A41F23C32934208D97B683A
:1048AC001B68DB6803F00303002B01D003230CE02F
:1048BC007B681B68DB6803F00303002BE6D17B6885
:1048CC001B684AF6AA221A60002318461037BD4608
:1048DC0080BD80B483B000AF78607B681B684AF6FB
:1048EC00AA221A60002318460C37BD4680BC7047BC
:1048FC0080B584B000AF78607B68002B01D10123B8
:10490C00E8E07B6893F89132DBB2002B06D17B6830
:10491C00002283F89022786806F0F4FA7B68032270
:10492C0083F891227B6800225A717B681B681846B9
:10493C0002F013FA7B6818687B6804330ECB02F024
:10494C00E9F90346002B05D07B68022283F89122FB
:10495C000123BFE07B681B680021184602F017FAA0
:10496C000346002B05D07B68022283F89122012399
:10497C00B0E00023FB733EE0FA7B796813469B00A2
:10498C001344DB000B44113301221A70FA7B796853
:10499C0013469B001344DB000B441033FA7B1A7054
:1049AC00FA7B796813469B001344DB000B441333EA
:1049BC0000221A70FA7B796813469B001344DB00C3
:1049CC000B44203300221A60FA7B796813469B0053
:1049DC001344DB000B44243300221A60FB7B796800
:1049EC005A1C13469B001344DB000B4400221A6034
:1049FC00FB7B0133FB737B681B79FA7B9A42BBD33D
:104A0C000023FB7344E0FA7B796813469B00134444
:104A1C00DB000B4403F2511300221A70FA7B796805
:104A2C0013469B001344DB000B4403F5A873FA7B7D
:104A3C001A70FA7B796813469B001344DB000B4415
:104A4C0003F2531300221A70FA7B796813469B0009
:104A5C001344DB000B4403F5B07300221A60FA7B9D
:104A6C00796813469B001344DB000B4403F5B273C7
:104A7C0000221A60FA7B796813469B001344DB0012
:104A8C000B4403F5B47300221A60FB7B0133FB73F8
:104A9C007B681B79FA7B9A42B5D37B6818687B6874
:104AAC0004330ECB02F07FF90346002B05D07B6854
:104ABC00022283F8912201230CE07B6800225A73B6
:104ACC007B68012283F891227B681B68184604F0EE
:104ADC00FEFB002318461037BD4680BD80B582B062
:104AEC0000AF78607B6893F89032012B01D10223E0
:104AFC0016E07B68012283F890227B681B681846BD
:104B0C0002F015F90121786806F06FFC7B681B68D0
:104B1C00184604F0D2FB7B68002283F89022002315
:104B2C0018460837BD4680BD80B588B000AF7860A8
:104B3C007B681B68184604F0D4FBB861BB6903F4AE
:104B4C000043002B03D0786800F01AFB19E1BB6915
:104B5C0003F48063002B13D07B681B68B3F84430DC
:104B6C009AB27B681B6822F4806292B2A3F844204C
:104B7C00786806F042FA0021786800F005F900E147
:104B8C00BB6903F48043002B0CD07B681B68B3F823
:104B9C0044309AB27B681B6822F4804292B2A3F82C
:104BAC004420EEE0BB6903F40053002B0CD07B686F
:104BBC001B68B3F844309AB27B681B6822F400522D
:104BCC0092B2A3F84420DCE0BB6903F48053002BC1
:104BDC0027D07B681B68B3F840309AB27B681B689F
:104BEC0022F0040292B2A3F840207B681B68B3F851
:104BFC0040309AB27B681B6822F0080292B2A3F88C
:104C0C004020786806F032FA7B681B68B3F84430B1
:104C1C009AB27B681B6822F4805292B2A3F84420AB
:104C2C00AFE0BB6903F40063002B00F0838000232A
:104C3C00FB7710E07B681B681A46FB7F9B001A44CD
:104C4C00FB7F128892B25B0020333B4423F8182C74
:104C5C00FB7F0133FB77FB7F072BEBD97B681B6852
:104C6C00B3F840309AB27B681B6842F0010292B2F2
:104C7C00A3F840207B681B68B3F840309AB27B687D
:104C8C001B6822F0010292B2A3F8402000BF7B689F
:104C9C001B68B3F844309BB203F48063002BF6D04E
:104CAC007B681B68B3F844309AB27B681B6822F4AB
:104CBC00806292B2A3F844200023FB770FE0FB7FC5
:104CCC007A6812681146FA7F92000A445B0020331E
:104CDC003B4433F8183C1380FB7F0133FB77FB7F9D
:104CEC00072BECD97B681B68B3F840309AB27B6811
:104CFC001B6842F0080292B2A3F840207B681B6844
:104D0C00B3F844309AB27B681B6822F4006292B20A
:104D1C00A3F844207B681B68B3F840309AB27B68D8
:104D2C001B6842F0040292B2A3F84020786806F0A7
:104D3C0083F926E0BB6903F40073002B0FD07B686A
:104D4C001B68B3F844309AB27B681B6822F400727B
:104D5C0092B2A3F84420786806F041F911E0BB69DF
:104D6C0003F48073002B0CD07B681B68B3F84430C1
:104D7C009AB27B681B6822F4807292B2A3F844202A
:104D8C0000BF2037BD4680BD80B582B000AF7860D3
:104D9C000B46FB707B6893F89032012B01D10223F8
:104DAC0012E07B68012283F890227B68FA785A73B0
:104DBC007B681B68FA781146184604F06BFA7B681E
:104DCC00002283F89022002318460837BD4680BD88
:104DDC0080B584B000AF7860084611461A46034689
:104DEC00FB700B463B801346BB700023FB7297F99C
:104DFC000330002B0EDAFB7803F0070213469B00FE
:104E0C001344DB0010337A681344FB60FB68012207
:104E1C005A700EE0FB7803F0070213469B00134414
:104E2C00DB0003F5A8737A681344FB60FB6800226F
:104E3C005A70FB7803F00703DAB2FB681A703A88F1
:104E4C00FB681A61FB68BA78DA70BB78022B02D166
:104E5C00FB6800221A717B6893F89032012B01D108
:104E6C0002230EE07B68012283F890227B681B688A
:104E7C00F968184601F0B4FF7B68002283F8902291
:104E8C00FB7A18461037BD4680BD80B584B000AFA4
:104E9C0078600B46FB7097F90330002B0EDAFB7829
:104EAC0003F0070213469B001344DB0010337A68AF
:104EBC001344FB60FB6801225A700EE0FB7803F090
:104ECC00070213469B001344DB0003F5A8737A68B2
:104EDC001344FB60FB6800225A70FB7803F0070355
:104EEC00DAB2FB681A707B6893F89032012B01D10F
:104EFC0002230EE07B68012283F890227B681B68FA
:104F0C00F968184602F02CFB7B68002283F890228B
:104F1C00002318461037BD4680BD80B586B000AF63
:104F2C00F8607A603B600B46FB72FB7A03F0070279
:104F3C0013469B001344DB0003F5A873FA68134473
:104F4C007B617B697A685A617B693A689A617B6993
:104F5C000022DA617B6900225A70FB7A03F00703A6
:104F6C00DAB27B691A70FB681B687969184602F023
:104F7C00E3FC002318461837BD4680BD80B483B0CF
:104F8C0000AF78600B46FB70FB7803F00702796882
:104F9C0013469B001344DB000B4403F5B6731B68EC
:104FAC0018460C37BD4680BC704780B586B000AF44
:104FBC00F8607A603B600B46FB72FB7A03F00702E9
:104FCC0013469B001344DB001033FA6813447B61D7
:104FDC007B697A685A617B693A689A617B690122BC
:104FEC0083F824207B693A681A627B690022DA61B3
:104FFC007B6901225A70FB7A03F00703DAB27B69F2
:10500C001A70FB681B687969184602F095FC00233E
:10501C0018461837BD4680BD80B584B000AF7860A7
:10502C000B46FB70FB7803F007037A681279934206
:10503C0001D901234CE097F90330002B0EDAFB78F1
:10504C0003F0070213469B001344DB0010337A680D
:10505C001344FB60FB6801225A700CE0FA7813468B
:10506C009B001344DB0003F5A8737A681344FB60C0
:10507C00FB6800225A70FB6801229A70FB7803F0DF
:10508C000703DAB2FB681A707B6893F89032012B35
:10509C0001D102231CE07B68012283F890227B68FB
:1050AC001B68F968184603F0F8FFFB7803F0070358
:1050BC00002B08D17B681A687B6803F526731946A8
:1050CC00104604F01DF97B68002283F8902200231F
:1050DC0018461037BD4680BD80B584B000AF7860EF
:1050EC000B46FB70FB7803F00F037A68127993423E
:1050FC0001D9012340E097F90330002B0EDAFB783D
:10510C0003F0070213469B001344DB0010337A684C
:10511C001344FB60FB6801225A700EE0FB7803F02D
:10512C00070213469B001344DB0003F5A8737A684F
:10513C001344FB60FB6800225A70FB6800229A70D3
:10514C00FB7803F00703DAB2FB681A707B6893F8FC
:10515C009032012B01D102230EE07B68012283F8EF
:10516C0090227B681B68F968184603F0E6FF7B68A1
:10517C00002283F89022002318461037BD4680BDCC
:10518C0080B596B000AF7860BBE37B681B68B3F862
:10519C004430A7F84E30B7F84E30DBB203F00F03B3
:1051AC0087F84D3097F84D30002B40F07581B7F8EB
:1051BC004E3003F01003002B4ED17B681B681B880C
:1051CC009BB223F4E14323F07003FB817B681A68E4
:1051DC00FB896FEA43436FEA53439BB213807B68AE
:1051EC0010337B657B681B68B3F850309BB21A4652
:1051FC007B6D1B78DB00134402335B007A6812680A
:10520C00134403F580631B88C3F309027B6DDA61D9
:10521C007B6D5A697B6DDB691A447B6D5A61002189
:10522C00786805F0C2FE7B685B7BDBB2002B00F07C
:10523C0068837B6D9B69002B40F063837B685B7B91
:10524C00DBB263F07F03DAB27B681B68A3F84C20F7
:10525C007B6800225A7354E37B6803F5A8737B6563
:10526C007B681B681B88A7F84A30B7F84A3003F4F0
:10527C000063002B34D07B681B68B3F850309BB2B2
:10528C001A467B6D1B78DB00134406335B007A688F
:10529C001268134403F580631B88C3F309027B6D0A
:1052AC00DA617B6818687B6803F526717B6DDA8898
:1052BC007B6DDB699BB204F073F87B681B681B8801
:1052CC009AB240F68F7313403B827B681B683A8A14
:1052DC0042F0800292B21A80786805F039FE10E331
:1052EC00B7F94A30002B80F20C837B681B681B8853
:1052FC009AB240F68F731340FB837B681B68FA8B62
:10530C0042F0800292B21A807B681B68B3F850306E
:10531C009BB21A467B6D1B78DB00134406335B0093
:10532C007A681268134403F580631B88C3F309027F
:10533C007B6DDA617B6DDB69002B19D07B6D5B6952
:10534C00002B15D07B6818687B6D59697B6DDA88EA
:10535C007B6DDB699BB204F023F87B6D5A697B6D26
:10536C00DB691A447B6D5A610021786805F002FEF6
:10537C007B681B681B88A7F84A30B7F84A3003F4DF
:10538C000063002B40F0BD82B7F84A3003F4405361
:10539C00B3F5405F00F0B5827B681B68BB617B682E
:1053AC001B68B3F850309BB21A46BB691344BB61FF
:1053BC00BB6903F20C437B617B691B889BB2C3F313
:1053CC0009039AB27B691A807B6D1B693E2B1DD930
:1053DC007B6D1B695B097B647B6D1B6903F01F0391
:1053EC00002B02D17B6C013B7B647B691B889AB2DE
:1053FC007B6C9BB29B029BB213439BB26FEA434301
:10540C006FEA53439AB27B691A8026E07B6D1B6965
:10541C00002B0AD17B691B889BB26FEA43436FEA6E
:10542C0053439AB27B691A8017E07B6D1B695B084A
:10543C007B647B6D1B6903F00103002B02D07B6C3A
:10544C0001337B647B691B889AB27B6C9BB29B0299
:10545C009BB213439AB27B691A807B681B681B88CA
:10546C009BB223F4804323F070037B827B8A83F40A
:10547C0080537B827B8A83F400537B827B681A681F
:10548C007B8A43F07F4343F47F0343F4004343F0B0
:10549C0080039BB2138034E27B681B681A4697F832
:1054AC004D309B0013441B88A7F84A30B7F94A309B
:1054BC00002B80F2FC807B681B681A4697F84D30F5
:1054CC009B0013441B889AB240F68F731340A7F8C5
:1054DC0048307B681B681A4697F84D309B00134484
:1054EC00B7F8482042F0800292B21A8097F84D200B
:1054FC0013469B001344DB0003F5A8737A6813442E
:10550C007B657B6D1B7B002B25D17B681B68B3F8FF
:10551C0050309BB21A467B6D1B78DB00134406336C
:10552C005B007A681268134403F580631B88C3F32D
:10553C000903A7F85030B7F85030002B00F09280D8
:10554C007B6818687B6D59697B6DDA88B7F85030C9
:10555C0003F026FF86E07B6DDB78022B0AD1B7F8CF
:10556C004A301A46796D786800F0D9F90346A7F8E5
:10557C00503077E07B681B681A467B6D1B789B006C
:10558C0013441B889BB223F4E04323F07003A7F869
:10559C0052307B681B681A467B6D1B789B001A4443
:1055AC00B7F8523043F07F4343F47F0343F4004396
:1055BC0043F0C0039BB213807B681B681A467B6D5B
:1055CC001B789B0013441B889BB203F48043002B75
:1055DC0024D07B681B68B3F850309BB21A467B6DA5
:1055EC001B78DB00134402335B007A6812681344A7
:1055FC0003F580631B88C3F30903A7F85030B7F891
:10560C005030002B2ED07B6818687B6D59697B6DF0
:10561C001A89B7F8503003F0C3FE23E07B681B688F
:10562C00B3F850309BB21A467B6D1B78DB001344E9
:10563C0006335B007A681268134403F580631B8899
:10564C00C3F30903A7F85030B7F85030002B09D03A
:10565C007B6818687B6D59697B6D5A89B7F8503037
:10566C0003F09EFE7B6DDA69B7F850301A447B6DFF
:10567C00DA617B6D5A69B7F850301A447B6D5A6108
:10568C007B6D9B69002B05D0B7F850207B6D1B6997
:10569C009A4206D27B6D1B781946786805F06AFC35
:1056AC0005E07B681B68796D184602F045F9B7F880
:1056BC004A3003F08003002B00F0238197F84D2033
:1056CC0013469B001344DB0010337A6813447B654C
:1056DC007B681B681A4697F84D309B0013441B8857
:1056EC009BB223F4E14323F07003A7F842307B68AC
:1056FC001B681A4697F84D309B001A44B7F8423095
:10570C006FEA43436FEA53439BB213807B6DDB78A4
:10571C00012B40F0A2807B6D00229A617B6D1B7B7C
:10572C00002B00F09380B7F84A3003F04003002BB5
:10573C0046D07B6D5B78002B26D17B681B687B6227
:10574C007B681B68B3F850309BB21A467B6A1344D3
:10575C007B627B6D1B781A017B6A134403F2044352
:10576C003B623B6A1B889BB2C3F309039AB23B6A48
:10577C001A803B6A1B889BB26FEA43436FEA534320
:10578C009AB23B6A1A8061E07B6D5B78012B5DD12C
:10579C007B681B68FB627B681B68B3F850309BB25C
:1057AC001A46FB6A1344FB627B6D1B781A01FB6A79
:1057BC00134403F20443BB62BB6A00221A8045E027
:1057CC007B681B68FB637B6D5B78002B26D17B6849
:1057DC001B687B637B681B68B3F850309BB21A461E
:1057EC007B6B13447B637B6D1B781A017B6B1344BF
:1057FC0003F20C433B633B6B1B889BB2C3F3090363
:10580C009AB23B6B1A803B6B1B889BB26FEA43438B
:10581C006FEA53439AB23B6B1A8017E07B6D5B784F
:10582C00012B13D17B681B68B3F850309BB21A461E
:10583C00FB6B1344FB637B6D1B781A01FB6B1344EE
:10584C0003F20C43BB63BB6B00221A807B6D1B788D
:10585C001946786805F0A9FB53E0B7F84A3003F411
:10586C008073002B46D17B681B68B3F850309BB219
:10587C001A467B6D1B78DB00134402335B007A689D
:10588C001268134403F580631B88C3F30903A7F85C
:10589C0040307B6D9A69B7F840309A4207D97B6DDE
:1058AC009A69B7F84030D21A7B6D9A6102E07B6D31
:1058BC0000229A617B6D9B69002B06D17B6D1B7856
:1058CC001946786805F071FB1BE07B6D5A69B7F8D7
:1058DC0040301A447B6D5A617B6DDA69B7F8403001
:1058EC001A447B6DDA617B681B68796D184602F08F
:1058FC0023F806E0B7F84A301A46796D786800F05C
:10590C001BF97B681B68B3F844309BB21BB2002BAD
:10591C00FFF63BAC002318465837BD4680BD80B51A
:10592C0088B000AFF860B9601346FB80FB8803F4C5
:10593C008043002B7ED0FB681B68B3F850309BB2C1
:10594C001A46BB681B78DB00134402335B00FA6811
:10595C001268134403F580631B88C3F309037B832C
:10596C00BB689A697B8B9A4206D3BB689A697B8B1E
:10597C00D21ABB689A6102E0BB6800229A61BB68CC
:10598C009B69002B23D1FB681B681A46BB681B78EC
:10599C009B0013441B889BB223F4804323F07003B9
:1059AC003B833B8B83F400533B83FB681B681A4699
:1059BC00BB681B789B001A443B8B43F07F4343F43A
:1059CC007F0343F4004343F080039BB21380FB88B6
:1059DC0003F04003002B1FD0FB681B681A46BB6802
:1059EC001B789B0013441B889BB223F4E04323F0E9
:1059FC007003FB82FB681B681A46BB681B789B0014
:105A0C001A44FB8A43F07F4343F47F0343F400437F
:105A1C0043F0C0039BB213807B8B002B00F087807C
:105A2C00FB681868BB685969BB681A897B8B03F0E3
:105A3C00B7FC7CE0FB681B68B3F850309BB21A468D
:105A4C00BB681B78DB00134406335B00FA681268F2
:105A5C00134403F580631B88C3F309037B83BB6882
:105A6C009A697B8B9A4206D3BB689A697B8BD21A54
:105A7C00BB689A6102E0BB6800229A61BB689B69B3
:105A8C00002B23D1FB681B681A46BB681B789B0054
:105A9C0013441B889BB223F4804323F07003FB83D5
:105AAC00FB8B83F40053FB83FB681B681A46BB68B3
:105ABC001B789B001A44FB8B43F07F4343F47F031A
:105ACC0043F4004343F080039BB21380FB8803F044
