S01000004C353532524554362E737265630B
S3150800000000000320C11900082D160008351600083F
S315080000103D160008451600084D160008111A000876
S31508000020000000000000000000000000551600084F
S315080000306316000800000000711600087F16000805
S31508000040111A0008111A0008111A0008111A0008D6
S31508000050111A0008111A0008111A0008111A0008C6
S31508000060111A0008111A0008111A0008111A0008B6
S31508000070111A0008111A0008111A0008111A0008A6
S31508000080111A0008111A0008111A0008111A000896
S31508000090111A0008111A0008111A0008111A000886
S315080000A0111A0008111A0008111A0008111A000876
S315080000B0111A0008111A0008111A0008111A000866
S315080000C0111A0008111A0008111A0008111A000856
S315080000D0111A0008111A0008111A00088D160008CE
S315080000E0A1160008111A0008111A0008111A0008AA
S315080000F0111A0008111A0008111A0008111A000826
S31508000100111A0008111A0008111A0008111A000815
S31508000110111A0008111A0008111A0008111A000805
S31508000120111A0008111A0008111A0008111A0008F5
S31508000130111A0008111A0008111A0008111A0008E5
S31508000140111A0008111A0008111A0008111A0008D5
S31508000150111A0008111A0008111A0008111A0008C5
S31508000160111A0008111A0008111A0008111A0008B5
S31508000170111A000800000000111A0008000000000B
S31508000180111A0008111A0008111A0008111A000895
S31508000190111A0008111A0008111A0008111A000885
S315080001A0111A0008111A0008111A0008111A000875
S315080001B0111A000800000000111A0008111A000898
S315080001C0111A000800000000111A0008111A000888
S315080001D0111A0008111A0008111A0008111A000845
S315080001E0111A0008111A0008111A0008111A000835
S309080001F000000000FD
S315080001F810B5054C237833B9044B13B10448AFF34B
S3150800020800800123237010BDDC01002000000000D7
S31508000218A49D000808B5034B1BB103490348AFF36F
S31508000228008008BD00000000E0010020A49D000829
S31508000238034613F8012B002AFBD1181A0138704710
S3150800024881F0004102E000BF83F0004330B54FEA71
S3150800025841044FEA430594EA050F08BF90EA020FDE
S315080002681FBF54EA000C55EA020C7FEA645C7FEA71
S31508000278655C00F0E2804FEA5454D4EB5555B8BF94
S315080002886D420CDD2C4480EA020281EA030382EA05
S31508000298000083EA010180EA020281EA0303362D97
S315080002A888BF30BD11F0004F4FEA01314FF4801C6A
S315080002B84CEA113102D0404261EB410113F0004F7C
S315080002C84FEA03334CEA133302D0524263EB430333
S315080002D894EA050F00F0A780A4F10104D5F1200ED1
S315080002E80DDB02FA0EFC22FA05F2801841F100012C
S315080002F803FA0EF2801843FA05F359410EE0A5F100
S3150800030820050EF1200E012A03FA0EFC28BF4CF030
S31508000318020C43FA05F3C01851EBE37101F00045E6
S3150800032807D54FF0000EDCF1000C7EEB00006EEBF3
S315080003380101B1F5801F1BD3B1F5001F0CD349087D
S315080003485FEA30004FEA3C0C04F101044FEA4452D4
S3150800035812F5800F80F09A80BCF1004F08BF5FEA5B
S31508000368500C50F1000041EB045141EA050130BD3B
S315080003785FEA4C0C404141EB0101013C28BFB1F54D
S31508000388801FE9D291F0000F04BF01460020B1FA98
S3150800039881F308BF2033A3F10B03B3F120020CDA6B
S315080003A80C3208DD02F1140CC2F10C0201FA0CF049
S315080003B821FA02F10CE002F11402D8BFC2F1200CAE
S315080003C801FA02F120FA0CFCDCBF41EA0C01904064
S315080003D8E41AA2BF01EB0451294330BD6FEA0404AD
S315080003E81F3C1CDA0C340EDC04F11404C4F1200298
S315080003F820FA04F001FA02F340EA030021FA04F3AA
S3150800040845EA030130BDC4F10C04C4F1200220FA00
S3150800041802F001FA04F340EA0300294630BD21FA3E
S3150800042804F0294630BD94F0000F83F4801306BF04
S3150800043881F480110134013D4EE77FEA645C18BFF8
S315080004487FEA655C29D094EA050F08BF90EA020F8F
S3150800045805D054EA000C04BF1946104630BD91EA87
S31508000468030F1EBF0021002030BD5FEA545C05D18A
S315080004784000494128BF41F0004130BD14F58004C9
S315080004883CBF01F5801130BD01F0004545F0FE413D
S3150800049841F470014FF0000030BD7FEA645C1ABF72
S315080004A8194610467FEA655C1CBF0B46024650EAA9
S315080004B8013406BF52EA033591EA030F41F40021D5
S315080004C830BD00BF90F0000F04BF0021704730B55B
S315080004D84FF4806404F132044FF000054FF0000130
S315080004E850E700BF90F0000F04BF0021704730B5F1
S315080004F84FF4806404F1320410F0004548BF4042C6
S315080005084FF000013EE700BF42004FEAE2014FEA1A
S3150800051831014FEA02701FBF12F07F4393F07F4FF5
S3150800052881F06051704732F07F4208BF704793F0F8
S315080005387F4F04BF41F40021704730B54FF460740B
S3150800054801F0004521F000411CE700BF50EA01020E
S3150800055808BF704730B54FF000050AE050EA0102B7
S3150800056808BF704730B511F0004502D5404261EB27
S3150800057841014FF4806404F132045FEA915C3FF468
S31508000588D8AE4FF003025FEADC0C18BF03325FEA05
S31508000598DC0C18BF033202EBDC02C2F1200300FAB6
S315080005A803FC20FA02F001FA03FE40EA0E0021FADB
S315080005B802F11444BDE600BF70B54FF0FF0C4CF4C9
S315080005C8E06C1CEA11541DBF1CEA135594EA0C0F7B
S315080005D895EA0C0F00F0DEF82C4481EA030621EAB6
S315080005E84C5123EA4C5350EA013518BF52EA0335F1
S315080005F841F4801143F4801338D0A0FB02CE4FF0A3
S315080006080005E1FB02E506F00042E0FB03E54FF0D2
S315080006180006E1FB03569CF0000F18BF4EF0010ECA
S31508000628A4F1FF04B6F5007F64F5407404D25FEAC6
S315080006384E0E6D4146EB060642EAC62141EA555179
S315080006484FEAC52040EA5E504FEACE2EB4F1FD0CBB
S3150800065888BFBCF5E06F1ED8BEF1004F08BF5FEA39
S31508000668500E50F1000041EB045170BD06F00046EB
S3150800067846EA010140EA020081EA0301B4EB5C0498
S31508000688C2BFD4EB0C0541EA045170BD41F4801190
S315080006984FF0000E013C00F3AB8014F1360FDEBFB5
S315080006A8002001F0004170BDC4F10004203C35DA91
S315080006B80C341BDC04F11404C4F1200500FA05F314
S315080006C820FA04F001FA05F240EA020001F00042B5
S315080006D821F0004110EBD37021FA04F642EB06012B
S315080006E85EEA430E08BF20EAD37070BDC4F10C0455
S315080006F8C4F1200500FA04F320FA05F001FA04F219
S3150800070840EA020001F0004110EBD37041F1000104
S315080007185EEA430E08BF20EAD37070BDC4F120050F
S3150800072800FA05F24EEA020E20FA04F301FA05F277
S3150800073843EA020321FA04F001F0004121FA04F21F
S3150800074820EA020000EBD3705EEA430E08BF20EAEF
S31508000758D37070BD94F0000F0FD101F00046400029
S3150800076841EB010111F4801F08BF013CF7D041EAAB
S31508000778060195F0000F18BF704703F000465200AF
S3150800078843EB030313F4801F08BF013DF7D043EA80
S315080007980603704794EA0C0F0CEA135518BF95EA36
S315080007A80C0F0CD050EA410618BF52EA4306D1D1BD
S315080007B881EA030101F000414FF0000070BD50EADC
S315080007C8410606BF1046194652EA430619D094EA66
S315080007D80C0F02D150EA013613D195EA0C0F05D150
S315080007E852EA03361CBF104619460AD181EA0301A4
S315080007F801F0004141F0FE4141F470014FF000005C
S3150800080870BD41F0FE4141F4780170BD70B54FF0F6
S31508000818FF0C4CF4E06C1CEA11541DBF1CEA135576
S3150800082894EA0C0F95EA0C0F00F0A7F8A4EB050458
S3150800083881EA030E52EA03354FEA013100F088804F
S315080008484FEA03334FF0805545EA131343EA126318
S315080008584FEA022245EA111545EA10654FEA0026CD
S315080008680EF000419D4208BF964244F1FD0404F586
S31508000878407402D25B084FEA3202B61A65EB0305E2
S315080008885B084FEA32024FF480104FF4002CB6EB9F
S31508000898020E75EB030E22BFB61A754640EA0C001F
S315080008A85B084FEA3202B6EB020E75EB030E22BF5F
S315080008B8B61A754640EA5C005B084FEA3202B6EBA0
S315080008C8020E75EB030E22BFB61A754640EA9C005F
S315080008D85B084FEA3202B6EB020E75EB030E22BF2F
S315080008E8B61A754640EADC0055EA060E18D04FEAED
S315080008F8051545EA16754FEA06164FEAC30343EA8D
S3150800090852734FEAC2025FEA1C1CC0D111F4801F59
S315080009180BD141EA00014FF000004FF0004CB6E752
S3150800092811F4801F04BF01430020B4F1FD0C88BFF1
S31508000938BCF5E06F3FF6AFAEB5EB030C04BFB6EBFC
S31508000948020C5FEA500C50F1000041EB045170BDEF
S315080009580EF0004E4EEA113114EB5C04C2BFD4EB1C
S315080009680C0541EA045170BD41F480114FF0000EA0
S31508000978013C90E645EA060E8DE60CEA135594EA1C
S315080009880C0F08BF95EA0C0F3FF43BAF94EA0C0F1F
S315080009980AD150EA01347FF434AF95EA0C0F7FF494
S315080009A825AF104619462CE795EA0C0F06D152EAE8
S315080009B803353FF4FDAE1046194622E750EA4106CC
S315080009C818BF52EA43067FF4C5AE50EA41047FF4DD
S315080009D80DAF52EA43057FF4EBAE12E74FF0FF3C42
S315080009E806E000BF4FF0010C02E000BF4FF0010C13
S315080009F84DF804CD4FEA410C7FEA6C5C4FEA430C8C
S31508000A0818BF7FEA6C5C1BD001B050EA410C0CBFDA
S31508000A1852EA430C91EA030F02BF90EA020F00203C
S31508000A28704710F1000F91EA030F58BF994208BFA3
S31508000A3890422CBFD8176FEAE37040F00100704760
S31508000A484FEA410C7FEA6C5C02D150EA013C07D1B7
S31508000A584FEA430C7FEA6C5CD6D152EA033CD3D002
S31508000A685DF8040B704700BF8446104662468C46FC
S31508000A781946634600E000BF01B5FFF7B7FF00282F
S31508000A8848BF10F1000F01BD4DF808EDFFF7F4FF58
S31508000A980CBF012000205DF808FB00BF4DF808EDE3
S31508000AA8FFF7EAFF34BF012000205DF808FB00BF06
S31508000AB84DF808EDFFF7E0FF94BF012000205DF828
S31508000AC808FB00BF4DF808EDFFF7CEFF94BF0120DD
S31508000AD800205DF808FB00BF4DF808EDFFF7C4FFD6
S31508000AE834BF012000205DF808FB00BF4FEA410C1F
S31508000AF87FEA6C5C02D150EA013C0AD14FEA430C02
S31508000B087FEA6C5C02D152EA033C02D14FF000003E
S31508000B1870474FF0010070474FEA410212F500127C
S31508000B2815D211D56FF47873B3EB625212D94FEA1E
S31508000B38C12343F0004343EA505311F0004F23FA08
S31508000B4802F018BF404270474FF00000704750EA5D
S31508000B58013005D111F0004008BF6FF0004070471A
S31508000B684FF00000704700BF4A0011D212F5001274
S31508000B7811D20DD56FF47873B3EB62520ED44FEADF
S31508000B88C12343F0004343EA505323FA02F070475F
S31508000B984FF00000704750EA013002D14FF0FF309D
S31508000BA870474FF0000070474FEA4102B2F1E04340
S31508000BB824BFB3F5001CDCF1FE5C0DD901F0004C2E
S31508000BC84FEAC0024CEA5070B2F1004F40EB83007E
S31508000BD808BF20F00100704711F0804F21D113F1AA
S31508000BE83872BCBF01F00040704741F480114FEAE3
S31508000BF85252C2F11802C2F1200C10FA0CF320FA6C
S31508000C0802F018BF40F001004FEAC1234FEAD32388
S31508000C1803FA0CFC40EA0C0023FA02F34FEA4303F2
S31508000C28CCE77FEA625307D150EA01331EBF4FF07B
S31508000C38FE4040F44000704701F0004040F0FE4096
S31508000C4840F40000704700BF53B94AB9002908BFE5
S31508000C5800281CBF4FF0FF314FF0FF3000F0B4B941
S31508000C68ADF1080C6DE904CE00F03CF8DDF804E0B7
S31508000C78DDE9022304B0704738B50022002304468C
S31508000C880D46FFF70BFF28B920462946BDE8384028
S31508000C9800F00AB8204605F1004100F005F8404280
S31508000CA861EB410138BD00BFD0B500220B4B0646A3
S31508000CB80F46FFF781FCFFF757FF0446FFF702FCCC
S31508000CC80022074BFFF778FC02460B4630463946A2
S31508000CD8FFF7BAFAFFF748FF2146D0BD0000F03DF6
S31508000CE80000F0412DE9F04F099D0C46002B4DD127
S31508000CF88A420F4684469646B2FA82F360D94BB1C1
S31508000D0802FA03FEC3F120029F4000FA03FC20FA08
S31508000D1802F217434FEA1E461FFA8EF44FEA1C42A0
S31508000D28B7FBF6F106FB117701FB04F042EA074226
S31508000D38904208D91EEB020201F1FF3702D290420F
S31508000D4800F22D813946121A1FFA8CFCB2FBF6F00E
S31508000D5806FB102200FB04F44CEA024C644508D949
S31508000D681EEB0C0C00F1FF3202D2644500F21A8120
S31508000D78104640EA0140ACEB040C002125B12CFAD8
S31508000D8803F30022C5E90032BDE8F08F8B4205D986
S31508000D980DB1C5E9000100210846F5E7B3FA83F164
S31508000DA800294DD1A342C0F0F280904280F0EF802E
S31508000DB8064623460846002DE6D0C5E90063E3E75C
S31508000DC8002B40F0A2808A1A4FEA1E471FFA8EF6B1
S31508000DD80121B2FBF7F407FB14204FEA1C4242EA4A
S31508000DE8004206FB04F090420FD91EEB020204F1FA
S31508000DF8FF382CBF4FF001094FF00009904203D97C
S31508000E08B9F1000F00F0C8804446121A1FFA8CFC84
S31508000E18B2FBF7F007FB102200FB06F64CEA024C79
S31508000E28664508D91EEB0C0C00F1FF3202D266455E
S31508000E3800F2BB801046ACEB060C40EA04409DE77E
S31508000E48C1F120068B4004FA01FE22FA06F720FAB9
S31508000E5806FCF4408A401F434EEA0C0300FA01FEDA
S31508000E684FEA17484FEA13491FFA87FCB4FBF8F00C
S31508000E7808FB104449EA044400FB0CF9A1450ED9BD
S31508000E883C1900F1FF3A2CBF4FF0010B4FF0000B4D
S31508000E98A14503D9BBF1000F00F093805046A4EB97
S31508000EA809041FFA83F9B4FBF8F308FB134403FB98
S31508000EB80CFC49EA0444A44506D93C1903F1FF3851
S31508000EC801D2A4457AD8434643EA0040A4EB0C0469
S31508000ED8A0FB02984445CC46434602D306D1CE45E4
S31508000EE804D20138B9EB020C68EB07035DB1BEEB17
S31508000EF80C0264EB030404FA06F622FA01F3CC4062
S31508000F081E43C5E9006400213EE702FA03FEC3F161
S31508000F18200104FA03F200FA03FCCC404FEA1E4704
S31508000F2820FA01F11FFA8EF6B4FBF7F00A4307FB1D
S31508000F381044110C41EA044100FB06F48C420ED910
S31508000F481EEB010100F1FF382CBF4FF001094FF0E5
S31508000F5800098C4202D9B9F1000F2CD04046091B6A
S31508000F6892B2B1FBF7F407FB141142EA014204FBFB
S31508000F7806F1914207D91EEB020204F1FF3801D2A5
S31508000F88914215D84446521A44EA004121E7861A7E
S31508000F9864EB030301200EE7023C724435E7023985
S31508000FA87244D0E6F4440238E3E6F444023842E7E9
S31508000FB8023C7244E7E702387144D0E7023B3C44F6
S31508000FC882E702383C446AE7704700BF80B500AF3D
S31508000FD800F01BFD00F078F800F096F900F0D8F854
S31508000FE800F044F900F02EF900F0BDF86423072252
S31508000FF82D492E4803F0A0FC642000F07DFD2C48FE
S3150800100801F05AF80346002B01D000F015FA294BCF
S3150800101840F223121A60274B00225A60254B0022F9
S315080010289A60244B0822DA60224B00221A61214B67
S3150800103800225A611F4B00229A611E4B0022DA6170
S315080010481C4B00221A6200220121194801F0A8F94E
S31508001058194A1849164801F057F80346002B01D0D3
S3150800106800F0EAF9154B1B78154AA2FB03235B091E
S31508001078DAB2114B1A70114B1A78124BA3FB0213EA
S31508001088D9080B469B000B445B00D31ADAB20A4B05
S315080010985A700A4B1B780133DAB2084B1A70642067
S315080010A800F02AFDD4E700BFC09D00085C020020B6
S315080010B8F8010020F0020020000000204403002068
S315080010C81F85EB51CDCCCCCC80B598B000AF07F1D5
S315080010D8180348220021184605F06FFA3B1D00221E
S315080010E81A605A609A60DA601A614FF4806001F0F3
S315080010F873FE0346002B01D000F09EF90123BB615D
S315080011084FF48033FB6102237B640323BB64022309
S31508001118FB6408233B6507237B650223BB6502231B
S31508001128FB6507F11803184601F0E6FE0346002B8F
S3150800113801D000F081F90F237B600223BB600023EE
S31508001148FB6000233B6100237B613B1D0221184697
S3150800115802F0A8FB0346002B01D000F06DF900BF8A
S315080011686037BD4680BD80B500AF00220021272024
S3150800117800F0C1FD272000F0D8FD00220021282014
S3150800118800F0B9FD282000F0D0FD00BF80BD0000A2
S3150800119880B586B000AF294B294A1A60274B00222A
S315080011A85A60264B00229A60244B0022DA60234BA9
S315080011B800221A74214B00225A74204B00229A7472
S315080011C81E4B03225A611D4B01229A611B4B0C22A6
S315080011D8DA611A4B02221A62184B01225A62174B15
S315080011E801229A62154B0122DA62144B01221A630C
S315080011F8124B0A225A63114B00229A630F4B00229C
S31508001208DA630E4800F0ACFD0346002B01D000F067
S3150800121813F900233B6000237B600223BB6001238C
S31508001228FB6000233B6100237B613B461946034864
S3150800123800F0E8FE00BF1837BD4680BDF80100205B
S3150800124800A4004080B500AF002001F087FD0346E2
S31508001258002B01D000F0F0F801F0A0FD0346002BA2
S3150800126801D000F0E9F800BF80BD000080B500AFE6
S31508001278234B244A1A60224B4FF416525A60204BC5
S3150800128800229A601E4B0022DA601D4B00221A6162
S315080012981B4B0C225A611A4B00229A61184B4FF4C1
S315080012A80042DA61164B00221A62154B00225A626E
S315080012B8134B00229A62124803F0EEFA0346002BF3
S315080012C801D000F0B9F800210D4804F01BF90346CF
S315080012D8002B01D000F0B0F80021094804F050F9B5
S315080012E80346002B01D000F0A7F8054804F0D1F80A
S315080012F80346002B01D000F09FF800BF80BD00BF51
S315080013085C0200200044004080B58AB000AF07F1AF
S31508001318140300221A605A609A60DA601A61364B1A
S31508001328DB6C354A43F00403D364334BDB6C03F0B8
S3150800133804033B613B69304BDB6C2F4A43F080035F
S31508001348D3642D4BDB6C03F08003FB60FB682A4BE8
S31508001358DB6C294A43F00103D364274BDB6C03F0A3
S315080013680103BB60BB68244BDB6C234A43F00203CA
S31508001378D364214BDB6C03F002037B607B68002295
S3150800138810211E4801F0D2FC10237B610123BB61A2
S315080013980023FB6100233B6207F11403194617482B
S315080013A801F044FB48F204037B610023BB61002378
S315080013B8FB6107F114031946114801F037FBC023EE
S315080013C87B610023BB610023FB6107F114031946FF
S315080013D80C4801F02BFB4FF480737B610023BB613B
S315080013E80023FB6107F114031946044801F01EFBA4
S315080013F800BF2837BD4680BD0010024000000242E3
S31508001408000402420008024280B582B000AF786044
S3150800141839603B6803F00103002B05D0044B054AE5
S315080014284021786800F0B4FE00BF0837BD4680BD85
S315080014383C0300201403002080B400AF72B600BF36
S3150800144800BFFDE780B582B000AF0F4B1B6E0E4A92
S3150800145843F0010313660C4B1B6E03F001037B6014
S315080014687B68094B9B6D084A43F080539365064B86
S315080014789B6D03F080533B603B6801F009FD00BF94
S315080014880837BD4680BD00BF0010024080B5AEB023
S3150800149800AF786007F1A40300221A605A609A60C0
S315080014A8DA601A6107F1100394220021184605F03C
S315080014B884F87B681B68284A934249D14FF0007321
S315080014C83B614FF08073BB6707F11003184602F0BB
S315080014D8CDFC0346002B01D0FFF7AEFF1F4BDB6D93
S315080014E81E4A43F40073D3651C4BDB6D03F4007383
S315080014F8FB60FB68194BDB6C184A43F00203D3649C
S31508001508164BDB6C03F00203BB60BB684FF44073F1
S31508001518C7F8A4300223C7F8A8300023C7F8AC30A8
S315080015280323C7F8B0300923C7F8B43007F1A40372
S3150800153819460B4801F07AFA0A4B5B68094A43F4DC
S3150800154880235360074B5B68064A43F400235360BD
S3150800155800BFB837BD4680BD00A400400010024051
S31508001568000402420000014080B5AEB000AF7860C2
S3150800157807F1A40300221A605A609A60DA601A61B1
S3150800158807F1100394220021184605F016F87B681F
S315080015981B68214A93423AD102233B610023BB6464
S315080015A807F11003184602F061FC0346002B01D028
S315080015B8FFF742FF194B9B6D184A43F400339365AE
S315080015C8164B9B6D03F40033FB60FB68134BDB6C0F
S315080015D8124A43F00103D364104BDB6C03F0010392
S315080015E8BB60BB680C23C7F8A4300223C7F8A83029
S315080015F80023C7F8AC300323C7F8B0300723C7F869
S31508001608B43007F1A4031946054801F00FFA00BFDC
S31508001618B837BD4680BD00BF0044004000100240F0
S315080016280000024280B400AF00BFFDE780B400AFF7
S3150800163800BFFDE780B400AF00BFFDE780B400AF88
S3150800164800BFFDE780B400AF00BFFDE780B400AF78
S3150800165800BFBD465DF8047B704780B400AF00BF85
S31508001668BD465DF8047B704780B400AF00BFBD4631
S315080016785DF8047B704780B500AF00F01DFA00BF1F
S3150800168880BD000080B500AF024800F06FFF00BFBC
S3150800169880BD00BFF801002080B500AF024800F001
S315080016A865FF00BF80BD00BFF801002080B400AF09
S315080016B801231846BD465DF8047B704780B582B09D
S315080016C800AF7860396004F0CBFF034616221A602B
S315080016D84FF0FF3318460837BD4680BD80B582B03F
S315080016E800AF78604FF0FF317868FFF7E7FF00BF73
S315080016F8FDE780B586B000AFF860B9607A60002368
S315080017087B610AE0AFF300800146BB685A1CBA60E1
S31508001718CAB21A707B6901337B617A697B689A4217
S31508001728F0DB7B6818461837BD4680BD80B586B09D
S3150800173800AFF860B9607A6000237B6109E0BB688E
S315080017485A1CBA601B781846AFF300807B690133C8
S315080017587B617A697B689A42F1DB7B681846183799
S31508001768BD4680BD80B483B000AF78604FF0FF33C4
S3150800177818460C37BD465DF8047B704780B483B0BD
S3150800178800AF786039603B684FF400525A6000230E
S3150800179818460C37BD465DF8047B704780B483B09D
S315080017A800AF7860012318460C37BD465DF8047B00
S315080017B8704780B485B000AFF860B9607A600023D6
S315080017C818461437BD465DF8047B704780B586B061
S315080017D800AF7860144A154BD31A7B617B693B6165
S315080017E8134B1B68002B02D1114B124A1A60104B77
S315080017F81A687B6813443A699A4207D204F030FF9C
S3150800180803460C221A604FF0FF3309E0084B1B68A1
S31508001818FB60074B1A687B681344054A1360FB6824
S3150800182818461837BD4680BD00000320000400008E
S3150800183848030020A004002080B400AF064BD3F864
S315080018488830054A43F47003C2F8883000BFBD469D
S315080018585DF8047B704700BF00ED00E080B487B0F0
S3150800186800AF4F4B1B6803F00803002B07D14C4BFE
S31508001878D3F894301B0A03F00F037B6105E0484B45
S315080018881B681B0903F00F037B61464A7B6952F8FC
S3150800189823307B61424B9B6803F00C030C2B66D8FC
S315080018A801A252F823F000BFE518000877190008C6
S315080018B87719000877190008ED180008771900083D
S315080018C87719000877190008F51800087719000825
S315080018D87719000877190008FD180008324A7B6945
S315080018E8136048E0304B314A1A6044E02E4B304AC0
S315080018F81A6040E02A4BDB6803F00303FB60284BB9
S31508001908DB681B0903F00F030133BB60FB68022B76
S3150800191803D0FB68032B06D00BE0244ABB68B2FB4E
S31508001928F3F33B610BE0224ABB68B2FBF3F33B6176
S3150800193805E07A69BB68B2FBF3F33B6100BF184B55
S31508001948DB681B0A03F07F023B6902FB03F33B6172
S31508001958134BDB685B0E03F0030301335B007B6004
S315080019683A697B68B2FBF3F30F4A136003E00E4A41
S315080019787B69136000BF0A4B9B681B0903F00F03BA
S315080019880C4AD35C3B60084B1A683B6822FA03F397
S31508001998054A136000BF1C37BD465DF8047B7047CF
S315080019A800100240E09D0008080000200024F4000A
S315080019B800366E01C89D0008DFF834D0FFF73CFFF3
S315080019C8002103E00B4B5B58435004310A480B4B84
S315080019D842189A42F6D30A4A02E0002342F8043B20
S315080019E8084B9A42F9D304F041FEFFF7EFFAFEE7EF
S315080019F80000032098A2000800000020DC0100204F
S31508001A08DC0100209C040020FEE780B582B000AF08
S31508001A180023FB71042000F063F9FFF71FFF072076
S31508001A2800F00EF80346002B02D00123FB7101E0F3
S31508001A38FFF708FDFB7918460837BD4680BD000044
S31508001A4880B584B000AF78600023FB73174B1B780A
S31508001A58002B23D0164B1A68144B1B7819464FF4DB
S31508001A687A73B3FBF1F3B2FBF3F3184600F06BF99C
S31508001A780346002B0FD17B68072B09D80022796803
S31508001A884FF0FF3000F037F90A4A7B68136007E021
S31508001A980123FB7304E00123FB7301E00123FB73B5
S31508001AA8FB7B18461037BD4680BD00BF10000020D6
S31508001AB8080000200C00002080B400AF064B1B78F5
S31508001AC81A46064B1B681344044A136000BFBD46F2
S31508001AD85DF8047B704700BF100000204C03002007
S31508001AE880B400AF034B1B681846BD465DF8047BF7
S31508001AF8704700BF4C03002080B584B000AF7860FB
S31508001B08FFF7EEFFB8607B68FB60FB68B3F1FF3F41
S31508001B1805D00A4B1B781A46FB681344FB6000BFBE
S31508001B28FFF7DEFF0246BB68D31AFA689A42F7D867
S31508001B3800BF00BF1037BD4680BD00BF100000209B
S31508001B4880B485B000AF78607B6803F00703FB6054
S31508001B580C4BDB68BB60BA684FF6FF031340BB60E3
S31508001B68FB681A02BB68134343F0BF6343F40033A8
S31508001B78BB60044ABB68D36000BF1437BD465DF82E
S31508001B88047B704700ED00E080B400AF044BDB68C7
S31508001B981B0A03F007031846BD465DF8047B704721
S31508001BA800ED00E080B483B000AF0346FB7197F9F7
S31508001BB80730002B0BDBFB7903F01F02074997F95F
S31508001BC807305B09012000FA02F241F8232000BF1A
S31508001BD80C37BD465DF8047B704700BF00E100E09E
S31508001BE880B483B000AF03463960FB7197F90730B4
S31508001BF8002B0ADB3B68DAB20C4997F90730520121
S31508001C08D2B20B4483F800230AE03B68DAB20849E3
S31508001C18FB7903F00F03043B5201D2B20B441A7640
S31508001C2800BF0C37BD465DF8047B704700E100E04D
S31508001C3800ED00E080B489B000AFF860B9607A605A
S31508001C48FB6803F00703FB61FB69C3F10703032B72
S31508001C5828BF0323BB61FB690333062B02D9FB693B
S31508001C68043B00E000237B614FF0FF32BB6902FAB0
S31508001C7803F3DA43BB681A407B699A404FF0FF3191
S31508001C887B6901FA03F3D9437B680B40134318466B
S31508001C982437BD465DF8047B7047000080B582B0DE
S31508001CA800AF78607B68013BB3F1807F01D30123DD
S31508001CB80FE00A4A7B68013B536007214FF0FF3063
S31508001CC8FFF78EFF054B00229A60044B07221A601D
S31508001CD8002318460837BD4680BD00BF10E000E05F
S31508001CE880B582B000AF78607868FFF729FF00BF33
S31508001CF80837BD4680BD80B586B000AF0346B960D3
S31508001D087A60FB73FFF740FF78617A68B968786983
S31508001D18FFF790FF024697F90F3011461846FFF766
S31508001D285FFF00BF1837BD4680BD80B582B000AFDB
S31508001D380346FB7197F907301846FFF733FF00BFCC
S31508001D480837BD4680BD80B582B000AF7860786830
S31508001D58FFF7A4FF034618460837BD4680BD0000AE
S31508001D6880B584B000AF78607B68002B01D1012369
S31508001D7842E17B6893F85C30DBB2002B06D17B68BE
S31508001D88002283F85D207868FFF780FB7B681B686C
S31508001D989A697B681B6822F010029A61FFF7A0FE11
S31508001DA8F86012E0FFF79CFE0246FB68D31A0A2B76
S31508001DB80BD97B681B6E43F001027B681A667B6841
S31508001DC8032283F85C20012316E17B681B689B695C
S31508001DD803F00803082BE5D07B681B689A697B68BB
S31508001DE81B6842F001029A61FFF77AFEF86012E072
S31508001DF8FFF776FE0246FB68D31A0A2B0BD97B68CF
S31508001E081B6E43F001027B681A667B68032283F817
S31508001E185C200123F0E07B681B689B6903F00103DB
S31508001E28002BE5D07B681B689A697B681B6842F0BB
S31508001E3802029A61724A7B685B6813607B681B7C3E
S31508001E48012B08D17B681B689A697B681B6822F096
S31508001E5840029A6107E07B681B689A697B681B6879
S31508001E6842F040029A617B685B7C012B08D17B684B
S31508001E781B689A697B681B6842F480429A6107E086
S31508001E887B681B689A697B681B6822F480429A619A
S31508001E987B689B7C012B08D17B681B689A697B68E1
S31508001EA81B6822F480529A6107E07B681B689A6966
S31508001EB87B681B6842F480529A617B681B689B6939
S31508001EC823F440717B689A687B681B680A439A61A1
S31508001ED87B681B689A697B681B6822F0A4029A616A
S31508001EE87B681B681A697B681B6822F010021A61EE
S31508001EF87B68DB68012B08D17B681B689A697B6855
S31508001F081B6842F004029A612CE07B68DB68002BA8
S31508001F1828D07B68DB68022B1CD07B681B689A690B
S31508001F287B681B6842F080029A617B681B681A699D
S31508001F387B681B6842F010021A617B68DB68032B12
S31508001F4810D17B681B689A697B681B6842F0200277
S31508001F589A6107E07B681B689A697B681B6842F088
S31508001F6820029A617B689B69013B5A067B68DB6994
S31508001F78013B1B021A437B681B6A013B42EA0301C1
S31508001F887B685B69013B1A047B681B680A43DA614C
S31508001F987B689B68B3F5407F15D17B689B6A5A1E98
S31508001FA87B68DB6A013B1B021A437B681B6B013B98
S31508001FB81B0142EA03017B685B6A013B1A047B68DA
S31508001FC81B680A43DA607B681B68D3F8C0107B680D
S31508001FD8DA6B7B681B680A43C3F8C020786800F088
S31508001FE853FC7B6800229A657B6800221A667B6820
S31508001FF8012283F85C20002318461037BD4680BDA9
S3150800200800A5004080B487B000AF786039607B6867
S3150800201893F85C30FB75FB7D012B02D0FB7D022B08
S315080020283DD13B681B68002B19D13B689B689A070A
S315080020383B68DB68DB061A433B681B691B041A43C3
S315080020483B685B6913433B617B681A6C3B685B6852
S315080020589B001344BB60BB683A691A601DE03B687D
S31508002068DB685A073B681B6913433B613B689B68F7
S315080020789A073B685B691343FB607B685A6C3B6845
S315080020885B68DB001344BB60BB683A691A60BB68C7
S315080020980433BB60BB68FA681A60002306E07B68ED
S315080020A81B6E43F002027B681A66012318461C3722
S315080020B8BD465DF8047B704780B483B000AF78608E
S315080020C87B6893F85C30DBB2012B10D17B6802225F
S315080020D883F85C207B681B689A697B681B6822F012
S315080020E801029A617B6800221A66002306E07B686B
S315080020F81B6E43F004027B681A66012318460C37E0
S31508002108BD465DF8047B704780B586B000AFF860B9
S31508002118B9607A60FB6893F85C30DBB2022B2CD185
S31508002128FB681B68D3F8C43003F40013002B07D0E8
S31508002138FB681B6E43F40072FB681A66012323E0EA
S31508002148FB681B68D3F8C4301B0C03F003037B61D8
S315080021587B697A68B968F86800F0ECFBFB681B6865
S3150800216801217A6901FA02F2C3F8CC2001227B69B7
S315080021789A40FB689A65002306E0FB681B6E43F0E5
S315080021880802FB681A66012318461837BD4680BD3B
S3150800219880B48BB000AFF860B9607A603B60002302
S315080021A8FB61FB6893F85C30FB76FB7E022B40F0FC
S315080021B8E880BB68402B37D1FB681B68D3F890309A
S315080021C803F00F03002B07D1FB681B6E43F48072DC
S315080021D8FB681A660123DBE0FB681B68D3F89030B6
S315080021E81B0E03F00103012B0AD1FB681B68D3F801
S315080021F880305B0A03F00103012B01D10123FB613F
S31508002208FB681B68D3F890301B0A03F00303FA69C6
S315080022181344FB61FB68996CFA691346DB0013449F
S31508002228DB000B447B6236E0FB681B68D3F8983002
S3150800223803F00F03002B07D1FB681B6E43F480726B
S31508002248FB681A660123A3E0FB681B68D3F8983075
S315080022581B0E03F00103012B0AD1FB681B68D3F890
S3150800226880301B0A03F00103012B01D10123FB610E
S31508002278FB681B68D3F898301B0A03F00303FA694E
S315080022881344FB61FB68D96CFA691346DB001344EF
S31508002298DB000B447B627B6A1B6803F080427B6821
S315080022A85A607B685B68002B07D17B6A1B689B0CA6
S315080022B8C3F30A027B681A6005E07B6A1B6823F089
S315080022C860427B681A607B6A1B6803F000527B6869
S315080022D89A607B6A1B6803F000427B681A617B6A0E
S315080022E804337B627B6A1B689AB27B68DA617B6A0D
S315080022F81B681B0C03F00F027B68DA607B6A1B6895
S3150800230803F480127B685A617B6A1B6803F400121F
S315080023187B689A617B6A1B681B0E03F07F027B68E1
S315080023281A627B6A1B68DA0F7B685A627B6A04330F
S315080023387B627B6A7B6100233B620AE07A693B6AB7
S315080023481A4439683B6A0B4412781A703B6A013397
S315080023583B627B68DB68114AD35C1A463B6A934240
S31508002368ECD3BB68402B05D1FB681B68FA69C3F830
S31508002378942004E0FB681B68FA69C3F89C200023CC
S3150800238806E0FB681B6E43F00802FB681A66012321
S3150800239818462C37BD465DF8047B7047209E000812
S315080023A880B487B000AFF860B9607A60FB6893F8C4
S315080023B85C30FB75FB7D012B03D0FB7D022B40F0BF
S315080023C8C880FB681B689B6D3B61BB6803F0070305
S315080023D8002B04D03B6903F00103002B3BD0BB68F4
S315080023E803F03803002B04D03B6903F00203002BE3
S315080023F831D0BB6803F4E073002B04D03B6903F0C3
S315080024080403002B27D0BB6803F4F053002B04D031
S315080024183B6903F00803002B1DD0BB6803F460432F
S31508002428002B04D03B6903F01003002B13D0BB68BC
S3150800243803F44033002B04D03B6903F02003002B38
S3150800244809D0BB6803F47C03002B0CD03B6903F066
S315080024584003002B07D1FB681B68DA6DFB681B680D
S3150800246842F00102DA65BB6803F00703002B04D0C3
S315080024783B6903F00103002B3BD1BB6803F0380323
S31508002488002B04D03B6903F00203002B31D1BB684B
S3150800249803F4E073002B04D03B6903F00403002B14
S315080024A827D1BB6803F4F053002B04D03B6903F02B
S315080024B80803002B1DD1BB6803F46043002B04D026
S315080024C83B6903F01003002B13D1BB6803F44033B0
S315080024D8002B04D03B6903F02003002B09D1BB6805
S315080024E803F47C03002B0CD03B6903F04003002B54
S315080024F807D0FB681B68DA6DFB681B6842F00202A6
S31508002508DA65BB6803F08003002B09D0FB681B68F3
S31508002518D3F8DC10FB681B687A680A43C3F8DC2022
S31508002528BB6803F48073002B09D0FB681B68D3F8D3
S31508002538E010FB681B687A680A43C3F8E020FB6862
S315080025481B68596DFB681B68BA680A435A650023F5
S3150800255806E0FB681B6E43F00202FB681A66012355
S3150800256818461C37BD465DF8047B704780B58CB0A5
S3150800257800AF78607B681B681B6D03F4E053FB6249
S315080025887B681B685B6DFA6A1340FB627B681B688D
S315080025981B6D03F00703BB627B681B685B6DBA6A31
S315080025A81340BB627B681B681B6D03F038037B62AC
S315080025B87B681B685B6D7A6A13407B627B681B685D
S315080025C81B6D03F471033B627B681B685B6D3A6A93
S315080025D813403B627B681B681B6D03F46023FB6131
S315080025E87B681B685B6DFA691340FB617B681B682F
S315080025F85B6DBB617B681B681B6D7B617B6903F040
S315080026084003002B0BD0BB6903F04003002B06D010
S315080026187B681B6840221A65786800F016F97B699A
S3150800262803F48073002B19D0BB6903F48073002B5D
S3150800263814D07B681B68D3F8D8303B617B681B6865
S31508002648D3F8E0303A6913403B617B681B684FF45E
S3150800265880721A653969786800F0D8F8FB6A002B21
S3150800266807D07B681B68FA6A1A65F96A786800F001
S31508002678A2F8BB6A002B07D07B681B68BA6A1A657A
S31508002688B96A7868FEF7C0FE7B6A002B07D07B68B4
S315080026981B687A6A1A65796A786800F097F87B6918
S315080026A803F40073002B0CD0BB6903F40073002BEA
S315080026B807D07B681B684FF400721A65786800F0C3
S315080026C890F87B6903F08003002B18D0BB6903F0E8
S315080026D88003002B13D07B681B68D3F8D430FB60C3
S315080026E87B681B68D3F8DC30FA681340FB607B68A4
S315080026F81B6880221A65F968786800F07CF87B6997
S3150800270803F40053002B0CD0BB6903F40053002BC9
S3150800271807D07B681B684FF400521A65786800F082
S3150800272880F87B6903F40043002B0CD0BB6903F4DB
S315080027380043002B07D07B681B684FF400421A65D4
S31508002748786800F078F87B6903F48043002B0FD08B
S31508002758BB6903F48043002B0AD07B681B684FF4D7
S3150800276880421A657B681B6E43F080027B681A668E
S31508002778FB69002B07D07B681B68FA691A65F96933
S31508002788786800F076F83B6A002B09D07B681B68E6
S315080027983A6A1A657B681A6E3B6A1A437B681A6630
S315080027A87B681B6E002B02D0786800F058F800BFCB
S315080027B83037BD4680BD80B483B000AF78603960D5
S315080027C800BF0C37BD465DF8047B704780B483B0FC
S315080027D800AF7860396000BF0C37BD465DF8047BEA
S315080027E8704780B483B000AF786000BF0C37BD4629
S315080027F85DF8047B704780B483B000AF78603960B1
S3150800280800BF0C37BD465DF8047B704780B483B0BB
S3150800281800AF7860396000BF0C37BD465DF8047BA9
S31508002828704780B483B000AF786000BF0C37BD46E8
S315080028385DF8047B704780B483B000AF786000BF4A
S315080028480C37BD465DF8047B704780B483B000AF8B
S31508002858786000BF0C37BD465DF8047B704780B4C6
S3150800286883B000AF786000BF0C37BD465DF8047BBF
S31508002878704780B483B000AF7860396000BF0C3702
S31508002888BD465DF8047B704780B485B000AF7860B4
S31508002898274BBB607B68BA681A647B681B68D3F8E1
S315080028A8803023F4F8117B685B6B1A047B681B6815
S315080028B80A43C3F88020BB6803F170027B685A6430
S315080028C87B681B68D3F8803023F070617B689B6B44
S315080028D81A067B681B680A43C3F88020BB6803F19D
S315080028E8B0027B689A64BB6803F5C4727B68DA64CD
S315080028F8BB6803F518727B681A65BB6803F51E7210
S315080029087B685A65BB68FB6005E0FB6800221A60AD
S31508002918FB680433FB60BB6803F55473FA689A428C
S31508002928F3D300BF00BF1437BD465DF8047B704774
S3150800293800AC004080B489B000AFF860B9607A602E
S315080029483B60BB685B68002B0AD1BB681A69BB6821
S315080029589B681A43BB681B689B041343FB610AE020
S31508002968BB681A69BB689B681A43BB681B6813432C
S3150800297843F08043FB61BB681B6A1A06BB68DB69C0
S315080029881A43BB689B691A43BB685B691A43BB68E9
S31508002998DB681B0413433B61FB68596D3A681346A9
S315080029A8DB001344DB000B44BB61BB69FA691A6098
S315080029B8BB690433BB61BB693A691A60BB690433EE
S315080029C8BB6100237B6120E07B6903337A68134483
S315080029D81B781A067B69023379680B441B781B0433
S315080029E81A437B69013379680B441B781B02134326
S315080029F879687A690A4412781A43BB691A60BB6906
S31508002A080433BB617B6904337B61BB68DB68064AB0
S31508002A18D35C1A467B699342D6D300BF00BF2437D6
S31508002A28BD465DF8047B7047209E000880B487B0D1
S31508002A3800AF7860396000237B6158E13B681A6803
S31508002A4801217B6901FA03F31340FB60FB68002B3D
S31508002A5800F04A813B685B6803F00303012B05D045
S31508002A683B685B6803F00303022B30D17B689B68DD
S31508002A783B617B695B00032202FA03F3DB433A698D
S31508002A8813403B613B68DA687B695B0002FA03F32B
S31508002A983A6913433B617B683A699A607B685B6865
S31508002AA83B6101227B6902FA03F3DB433A69134067
S31508002AB83B613B685B681B0903F001027B6902FA04
S31508002AC803F33A6913433B617B683A695A603B6882
S31508002AD85B6803F00303032B17D07B68DB683B614D
S31508002AE87B695B00032202FA03F3DB433A69134066
S31508002AF83B613B689A687B695B0002FA03F33A69AB
S31508002B0813433B617B683A69DA603B685B6803F0A4
S31508002B180303022B23D17B69DA087B68083253F84A
S31508002B2822303B617B6903F007039B000F2202FAF8
S31508002B3803F3DB433A6913403B613B681A697B69CF
S31508002B4803F007039B0002FA03F33A6913433B6150
S31508002B587B69DA087B680832396943F822107B688A
S31508002B681B683B617B695B00032202FA03F3DB43BC
S31508002B783A6913403B613B685B6803F003027B696B
S31508002B885B0002FA03F33A6913433B617B683A69C7
S31508002B981A603B685B6803F44033002B00F0A48096
S31508002BA85A4A7B699B08183352F823303B617B697C
S31508002BB803F00303DB000F2202FA03F3DB433A6947
S31508002BC813403B617B68524A934225D07B68514A39
S31508002BD893421FD07B68504A934219D07B684F4A64
S31508002BE8934213D07B684E4A93420DD07B684D4A70
S31508002BF8934207D07B684C4A934201D106230CE0DE
S31508002C0807230AE0052308E0042306E0032304E073
S31508002C18022302E0012300E000237A6902F0030296
S31508002C28D20093403A6913433B6138497B699B084C
S31508002C3818333A6941F82320344B1B683B61FB6813
S31508002C48DB433A6913403B613B685B6803F48013CE
S31508002C58002B03D03A69FB6813433B612B4A3B694F
S31508002C6813602A4B5B683B61FB68DB433A69134090
S31508002C783B613B685B6803F40013002B03D03A6991
S31508002C88FB6813433B61214A3B6953601F4BD3F8E2
S31508002C9884303B61FB68DB433A6913403B613B6818
S31508002CA85B6803F40033002B03D03A69FB681343C7
S31508002CB83B61164A3B69C2F88430144BD3F8803016
S31508002CC83B61FB68DB433A6913403B613B685B68D9
S31508002CD803F48033002B03D03A69FB6813433B613E
S31508002CE80A4A3B69C2F880307B6901337B613B68D5
S31508002CF81A687B6922FA03F3002B7FF49FAE00BF9C
S31508002D0800BF1C37BD465DF8047B704700F40240D7
S31508002D18000002420004024200080242000C024275
S31508002D2800100242001402420018024280B483B01E
S31508002D3800AF78600B467B8013467B707B78002B48
S31508002D4803D07A887B689A6102E07A887B689A62F7
S31508002D5800BF0C37BD465DF8047B704780B485B064
S31508002D6800AF78600023FB730B4B1B6803F0010365
S31508002D78002B02D00123FB7307E0074B1B6823F0DF
S31508002D88040205497B6813430B60FB7B1846143716
S31508002D98BD465DF8047B70470004034080B400AF65
S31508002DA8054B1B68044A43F00103136000231846C1
S31508002DB8BD465DF8047B70470004034080B400AF45
S31508002DC8044B1B6803F4C0631846BD465DF8047BCC
S31508002DD8704700BF0070004080B584B000AF7860C7
S31508002DE8274B1B6803F4C063BB6000F061F8034611
S31508002DF8B3F5004F01D101233EE0214BDB6803F40C
S31508002E080043B3F5004F01D1012335E0BA687B6862
S31508002E189A4201D100232FE0194B1B6823F4C0629C
S31508002E2817497B6813430B60164B1B685B09164AE0
S31508002E38A2FB0323DB09322202FB03F3134AA2FB94
S31508002E480323DB080133FB6002E0FB68013BFB60F8
S31508002E580B4B5B6903F48063B3F5806F02D1FB689B
S31508002E68002BF2D1064B5B6903F48063B3F5806FD8
S31508002E7801D1032300E0002318461037BD4680BD5C
S31508002E880070004008000020C55A7C0ACDCCCCCC7E
S31508002E9880B400AF054B9B68044A43F480439360AB
S31508002EA800BFBD465DF8047B704700BF0070004050
S31508002EB880B483B000AF0F4B1B693B603B6803F4D3
S31508002EC88053002B03D04FF480537B600AE03B689D
S31508002ED803F40043002B03D14FF400437B6001E061
S31508002EE800237B607B6818460C37BD465DF8047B73
S31508002EF8704700BF0070004080B588B000AF7860A2
S31508002F087B68002B02D1012300F0C2BC994B9B6851
S31508002F1803F00C03BB61974BDB6803F003037B6183
S31508002F287B681B6803F01003002B00F0E980BB6977
S31508002F38002B06D0BB690C2B40F083807B69012BDC
S31508002F487FD18C4B1B6803F00203002B06D07B68E5
S31508002F58DB69002B02D1012300F09ABC7B685A6A08
S31508002F68844B1B6803F00803002B04D0814B1B68AD
S31508002F7803F0F00305E07F4BD3F894301B0903F000
S31508002F88F003934224D27B685B6A184600F09CFEDD
S31508002F980346002B02D0012300F07ABC754B1B6848
S31508002FA8744A43F008031360724B1B6823F0F00257
S31508002FB87B685B6A6F4913430B606E4B5B6823F447
S31508002FC87F427B681B6A1B026A4913434B6026E0EB
S31508002FD8684B1B68674A43F008031360654B1B6810
S31508002FE823F0F0027B685B6A624913430B60614B06
S31508002FF85B6823F47F427B681B6A1B025D4913439F
S315080030084B60BB69002B0AD17B685B6A184600F0DF
S315080030185BFE0346002B02D0012300F039BC00F002
S3150800302817FE0346544A1360544B1B681846FEF7A6
S3150800303807FD0346FB73FB7B002B60D0FB7B00F088
S3150800304827BC7B68DB69002B39D04A4B1B68494A81
S3150800305843F001031360FEF743FD38610FE0FEF7FE
S315080030683FFD02463B69D31A022B08D9414B1B6818
S3150800307803F00203002B02D1032300F009BC3D4BE1
S315080030881B6803F00203002BE9D03A4B1B68394A40
S3150800309843F008031360374B1B6823F0F0027B687C
S315080030A85B6A344913430B60324B5B6823F47F42EF
S315080030B87B681B6A1B022F4913434B6020E02D4B84
S315080030C81B682C4A23F001031360FEF709FD3861D3
S315080030D80EE0FEF705FD02463B69D31A022B07D90F
S315080030E8244B1B6803F00203002B01D00323CFE30C
S315080030F8204B1B6803F00203002BEAD100E000BF4F
S315080031087B681B6803F00103002B7ED0BB69082B7C
S3150800311805D0BB690C2B0ED17B69032B0BD1154B3C
S315080031281B6803F40033002B6ED07B685B68002BA2
S315080031386AD10123ACE37B685B68B3F5803F06D1A7
S315080031480C4B1B680B4A43F48033136024E07B68F6
S315080031585B68B3F5A02F13D1064B1B68054A43F4E1
S3150800316880231360034B1B68024A43F480331360B9
S3150800317812E000BF00100240080000200C000020E2
S315080031888B4B1B688A4A23F480331360884B1B6869
S31508003198874A23F4802313607B685B68002B19D061
S315080031A8FEF79EFC38610EE0FEF79AFC02463B697C
S315080031B8D31A642B07D97E4B1B6803F40033002BFC
S315080031C801D1032364E37A4B1B6803F40033002B0D
S315080031D8EAD01AE0FEF784FC38610EE0FEF780FCB8
S315080031E802463B69D31A642B07D9714B1B6803F44B
S315080031F80033002B01D003234AE36D4B1B6803F405
S315080032080033002BEAD100E000BF7B681B6803F097
S315080032180203002B6CD0BB69042B05D0BB690C2BA9
S3150800322819D17B69022B16D1614B1B6803F480639D
S31508003238002B05D07B68DB68002B01D1012327E327
S315080032485B4B5B6823F0FE427B681B691B06584983
S3150800325813434B604CE07B68DB68002B29D0544B42
S315080032681B68534A43F480731360FEF739FC3861C8
S315080032780EE0FEF735FC02463B69D31A022B07D93E
S315080032884B4B1B6803F48063002B01D10323FFE231
S31508003298474B1B6803F48063002BEAD0444B5B68F2
S315080032A823F0FE427B681B691B06414913434B60A2
S315080032B81EE03F4B1B683E4A23F480731360FEF7F3
S315080032C80FFC38610EE0FEF70BFC02463B69D31A81
S315080032D8022B07D9364B1B6803F48063002B01D0F1
S315080032E80323D5E2324B1B6803F48063002BEAD12B
S315080032F87B681B6803F00803002B62D07B685B6950
S31508003308002B38D07B689B69002B08D1284BD3F84B
S315080033189430274A23F01003C2F8943007E0244B68
S31508003328D3F89430224A43F01003C2F89430204B5D
S31508003338D3F894301E4A43F00103C2F89430FEF7D6
S31508003348CFFB38610FE0FEF7CBFB02463B69D31A81
S31508003358072B08D9164BD3F8943003F00203002B31
S3150800336801D1032394E2124BD3F8943003F00203F5
S31508003378002BE8D025E00E4BD3F894300C4A23F0FE
S315080033880103C2F89430FEF7ABFB386112E0FEF78A
S31508003398A7FB02463B69D31A072B0BD9044BD3F86C
S315080033A8943003F00203002B04D0032370E200BF15
S315080033B800100240A84BD3F8943003F00203002B00
S315080033C8E5D17B681B6803F00403002B00F02D8108
S315080033D80023FB77A04B9B6D03F08053002B0DD180
S315080033E89D4B9B6D9C4A43F0805393659A4B9B6D06
S315080033F803F08053BB60BB680123FB77974B1B68B8
S3150800340803F48073002B1ED1944B1B68934A43F42C
S3150800341880731360FEF764FB38610EE0FEF760FB05
S3150800342802463B69D31A022B07D98C4B1B6803F44F
S315080034388073002B01D103232AE2884B1B6803F407
S315080034488073002BEAD07B689B6803F00103002B86
S315080034581FD07B689B6803F00403002B10D07E4BB3
S31508003468D3F890307C4A43F00403C2F890307A4B7C
S31508003478D3F89030784A43F00103C2F8903018E040
S31508003488754BD3F89030744A43F00103C2F890306C
S315080034980FE0714BD3F890306F4A23F00103C2F856
S315080034A890306D4BD3F890306B4A23F00403C2F87A
S315080034B890307B689B68002B68D0FEF711FB386153
S315080034C811E0FEF70DFB02463B69D31A41F2883232
S315080034D8934208D9604BD3F8903003F00203002BC7
S315080034E801D10323D4E15C4BD3F8903003F00203EF
S315080034F8002BE6D07B689B6803F08003002B22D05C
S31508003508554BD3F89030544A43F08003C2F89030AC
S3150800351811E0FEF7E5FA02463B69D31A41F288320A
S31508003528934208D94C4BD3F8903003F40063002B28
S3150800353801D10323ACE1484BD3F8903003F4006378
S31508003548002BE6D068E0444BD3F89030424A23F083
S315080035588003C2F8903011E0FEF7C2FA02463B69CA
S31508003568D31A41F28832934208D93B4BD3F89030A4
S3150800357803F40063002B01D0032389E1364BD3F803
S31508003588903003F40063002BE6D145E0FEF7A8FA6D
S31508003598386111E0FEF7A4FA02463B69D31A41F2EC
S315080035A88832934208D92C4BD3F8903003F002039B
S315080035B8002B01D003236BE1274BD3F8903003F097
S315080035C80203002BE6D1244BD3F8903003F080038E
S315080035D8002B21D0204BD3F890301F4A23F08003C4
S315080035E8C2F8903011E0FEF77BFA02463B69D31A17
S315080035F841F28832934208D9174BD3F8903003F42E
S315080036080063002B01D0032342E1134BD3F8903013
S3150800361803F40063002BE6D1FB7F012B05D10E4B83
S315080036289B6D0D4A23F0805393657B681B6803F0EE
S315080036382003002B4FD07B689B6A002B28D0064BAB
S31508003648D3F89830044A43F00103C2F89830FEF7D5
S3150800365847FA386114E000BF0010024000700040C5
S31508003668FEF73EFA02463B69D31A022B08D98A4B5B
S31508003678D3F8983003F00203002B01D1032307E19E
S31508003688854BD3F8983003F00203002BE8D022E0E4
S31508003698814BD3F89830804A23F00103C2F8983052
S315080036A8FEF71EFA38610FE0FEF71AFA02463B697A
S315080036B8D31A022B08D9784BD3F8983003F00203AB
S315080036C8002B01D00323E3E0734BD3F8983003F0BB
S315080036D80203002BE8D17B68DB6A002B00F0D78051
S315080036E86D4B9B6803F00C030C2B00F091807B68EC
S315080036F8DB6A022B66D1684B1B68674A23F080731E
S315080037081360FEF7EDF938610EE0FEF7E9F90246AF
S315080037183B69D31A022B07D95F4B1B6803F0007362
S31508003728002B01D00323B3E05B4B1B6803F000733F
S31508003738002BEAD1584BDA68584B13407A68116B54
S315080037487A68526B013A120111437A68926B12022F
S3150800375811437A68126C5208013A520511437A687D
S31508003768526C5208013A520611437A68D26BD2064D
S315080037780A4349491343CB60474B1B68464A43F0FB
S3150800378880731360444BDB68434A43F08073D36005
S31508003798FEF7A6F938610EE0FEF7A2F902463B697C
S315080037A8D31A022B07D93C4B1B6803F00073002B6E
S315080037B801D103236CE0384B1B6803F00073002B18
S315080037C8EAD064E0344B1B68334A23F080731360ED
S315080037D8FEF786F938610EE0FEF782F902463B697C
S315080037E8D31A022B07D92C4B1B6803F00073002B3E
S315080037F801D003234CE0284B1B6803F00073002B09
S31508003808EAD1254BDA682449254B1340CB603EE0BC
S315080038187B68DB6A012B01D1012339E01E4BDB6883
S315080038287B617B6903F003027B681B6B9A422CD188
S315080038387B6903F0F0027B685B6B013B1B019A42CC
S3150800384823D17B6903F4FE427B689B6B1B029A4271
S315080038581BD17B6903F078427B68DB6BDB069A42EF
S3150800386813D17B6903F4C0027B681B6C5B08013BB8
S315080038785B059A4209D17B6903F0C0627B685B6C79
S315080038885B08013B5B069A4201D0012300E000234E
S3150800389818462037BD4680BD001002400C809F019F
S315080038A8FCFFEEFE80B586B000AF7860396000236D
S315080038B87B617B68002B01D101231CE1904B1B68B7
S315080038C803F00F033A689A4210D98D4B1B6823F008
S315080038D80F028B493B6813430B60894B1B6803F03F
S315080038E80F033A689A4201D0012304E17B681B68F2
S315080038F803F00203002B10D07B689A68814B9B68FB
S3150800390803F0F0039A4208D97E4B9B6823F0F0022D
S315080039187B689B687B4913438B607B681B6803F04D
S315080039280103002B00F085807B685B68032B1FD199
S31508003938744B1B6803F00073002B01D10123DAE0EE
S3150800394800F026FA38613B696F4A934247D96D4BAE
S315080039589B6803F0F003002B41D16A4B9B6823F060
S31508003968F003684A43F08003936080237B6136E05E
S315080039787B685B68022B07D1624B1B6803F400332C
S31508003988002B15D10123B6E07B685B68002B07D1AD
S315080039985C4B1B6803F00203002B09D10123AAE03C
S315080039A8584B1B6803F48063002B01D10123A2E05E
S315080039B800F0B0F838613B69534A93420FD9514B26
S315080039C89B6803F0F003002B09D14E4B9B6823F044
S315080039D8F0034C4A43F08003936080237B61494B8C
S315080039E89B6823F003027B685B68464913438B6030
S315080039F8FEF776F8F86013E0FEF772F80246FB68F9
S31508003A08D31A41F2883293420AD93E4B9B6803F08F
S31508003A180C027B685B689B009A4201D003236AE024
S31508003A28384B9B6803F00C027B685B689B009A42DC
S31508003A38E2D17B69802B05D1324B9B68314A23F04A
S31508003A48F00393607B681B6803F00203002B10D011
S31508003A587B689A682B4B9B6803F0F0039A4208D256
S31508003A68284B9B6823F0F0027B689B68254913431B
S31508003A788B60234B1B6803F00F033A689A4210D2EF
S31508003A881F4B1B6823F00F021D493B6813430B6045
S31508003A981B4B1B6803F00F033A689A4201D00123AF
S31508003AA829E07B681B6803F00403002B08D0154B34
S31508003AB89B6823F4E0627B68DB68124913438B60D2
S31508003AC87B681B6803F00803002B09D00D4B9B681D
S31508003AD823F460527B681B69DB000A4913438B6031
S31508003AE800F0B6F80346094A1360094B1B681846DE
S31508003AF8FDF7A6FF034618461837BD4680BD00BF22
S31508003B08002002400010024000B4C4040800002047
S31508003B180C00002080B489B000AF0023FB610023A5
S31508003B28BB61474B9B6803F00C033B61444BDB685E
S31508003B3803F00303FB603B69002B05D03B690C2B9C
S31508003B4821D1FB68012B1ED13D4B1B6803F00803E6
S31508003B58002B07D13A4BD3F894301B0A03F00F030E
S31508003B68FB6105E0364B1B681B0903F00F03FB6175
S31508003B78344AFB6952F82330FB613B69002B0DD1A7
S31508003B88FB69BB610AE03B69042B02D12E4BBB617A
S31508003B9804E03B69082B01D12C4BBB613B690C2B14
S31508003BA846D1274BDB6803F00303BB60244BDB686D
S31508003BB81B0903F00F0301337B60BB68022B03D094
S31508003BC8BB68032B0DD019E01F4A7B68B2FBF3F3D9
S31508003BD81B4AD268120A02F07F0202FB03F37B61D2
S31508003BE819E01A4A7B68B2FBF3F3154AD268120A37
S31508003BF802F07F0202FB03F37B610CE0FA697B683B
S31508003C08B2FBF3F30E4AD268120A02F07F0202FBED
S31508003C1803F37B6100BF0A4BDB685B0E03F0030303
S31508003C2801335B003B607A693B68B2FBF3F3BB611F
S31508003C38BB6918462437BD465DF8047B704700BF44
S31508003C4800100240E09D00080024F40000366E01CA
S31508003C5880B500AFFFF75EFF0246054B9B681B0958
S31508003C6803F00F030349CB5C22FA03F3184680BD19
S31508003C7800100240C89D000880B500AFFFF7E8FFAE
S31508003C880246054B9B681B0A03F007030349CB5CEE
S31508003C9822FA03F3184680BD00100240D89D000892
S31508003CA880B500AFFFF7D4FF0246054B9B68DB0AD1
S31508003CB803F007030349CB5C22FA03F3184680BDD1
S31508003CC800100240D89D000880B586B000AF78601D
S31508003CD800237B612C4B9B6D03F08053002B03D08C
S31508003CE8FFF76CF8386114E0274B9B6D264A43F0BA
S31508003CF880539365244B9B6D03F08053FB60FB68E8
S31508003D08FFF75CF83861204B9B6D1F4A23F08053F8
S31508003D1893653B69002B03D03B69B3F5007F0BD14C
S31508003D287B68802B19D97B68A02B02D902237B6173
S31508003D3813E001237B6110E07B68802B02D90323FB
S31508003D487B610AE07B68802B02D102237B6104E051
S31508003D587B68702B01D101237B610C4B1B6823F010
S31508003D680F020A497B6913430B60084B1B6803F06B
S31508003D780F037A699A4201D0012300E00023184606
S31508003D881837BD4680BD00BF00100240002002401B
S31508003D9880B487B000AF314BDB6803F00303FB60E0
S31508003DA82E4BDB681B0903F00F030133BB60FB6866
S31508003DB8032B15D0FB68032B39D8FB68012B1CD0BD
S31508003DC8FB68022B33D1264ABB68B2FBF3F3234AB6
S31508003DD8D268120A02F07F0202FB03F33B6129E06C
S31508003DE8204ABB68B2FBF3F31C4AD268120A02F0EF
S31508003DF87F0202FB03F33B611CE0184B1B6803F0C8
S31508003E080803002B07D1154BD3F894301B0A03F087
S31508003E180F037B6105E0114B1B681B0903F00F03B1
S31508003E287B61114A7B6952F823303B6102E0002323
S31508003E383B6100BF094BDB685B0E03F003030133E4
S31508003E485B007B603A697B68B2FBF3F33B603B68CF
S31508003E5818461C37BD465DF8047B704700100240BB
S31508003E680024F40000366E01E09D000880B588B08D
S31508003E7800AF78600023FB770023BB777B681B6855
S31508003E8803F40063002B40D07B68DB6E802B2AD0B6
S31508003E98802B25D8602B26D0602B21D8402B06D01E
S31508003EA8402B1DD8002B09D0202B10D018E08F4B9B
S31508003EB8DB688E4A43F48033D36015E07B680433A5
S31508003EC80021184600F056FB0346FB770CE07B6892
S31508003ED820330021184600F033FC0346FB7703E03D
S31508003EE80123FB7700E000BFFB7F002B0BD17F4B3C
S31508003EF8D3F89C3023F0E0027B68DB6E7B491343DA
S31508003F08C1F89C3001E0FB7FBB777B681B6803F42C
S31508003F188053002B47D07B681B6FB3F5806F30D072
S31508003F28B3F5806F2AD8B3F5407F2AD0B3F5407F1A
S31508003F3824D8B3F5007F08D0B3F5007F1ED8002B28
S31508003F480AD0B3F5807F10D018E0684BDB68674A5B
S31508003F5843F48033D36015E07B68043300211846A0
S31508003F6800F008FB0346FB770CE07B68203300214A
S31508003F78184600F0E5FB0346FB7703E00123FB77C9
S31508003F8800E000BFFB7F002B0BD1584BD3F89C30C1
S31508003F9823F4E0627B681B6F54491343C1F89C30CD
S31508003FA801E0FB7FBB777B681B6803F40033002BB3
S31508003FB800F0AB800023FB754C4B9B6D03F08053D8
S31508003FC8002B0DD1494B9B6D484A43F080539365A6
S31508003FD8464B9B6D03F08053FB60FB680123FB751A
S31508003FE8434B1B68424A43F480731360FDF778FD18
S31508003FF838610FE0FDF774FD02463B69D31A022BB8
S3150800400808D93B4B1B6803F48073002B09D103239B
S31508004018FB7706E0364B1B6803F48073002BE9D060
S3150800402800E000BFFB7F002B64D1304BD3F89030FB
S3150800403803F44073BB61BB69002B1FD07B68D3F8B8
S315080040489030BA699A4219D0284BD3F8903023F49D
S315080040584073BB61254BD3F89030244A43F4803328
S31508004068C2F89030214BD3F89030204A23F4803395
S31508004078C2F890301D4ABB69C2F89030BB6903F094
S315080040880103002B1FD0FDF72BFD386112E0FDF761
S3150800409827FD02463B69D31A41F28832934209D969
S315080040A8124BD3F8903003F00203002B0AD10323EE
S315080040B8FB7707E00D4BD3F8903003F00203002B8B
S315080040C8E5D000E000BFFB7F002B0CD1074BD3F8E7
S315080040D8903023F440727B68D3F890300349134331
S315080040E8C1F8903008E0FB7FBB7705E00010024076
S315080040F800700040FB7FBB77FB7D012B05D19C4BED
S315080041089B6D9B4A23F0805393657B681B6803F075
S315080041180103002B0AD0964BD3F8883023F0030204
S315080041287B685B6B92491343C1F888307B681B68C8
S3150800413803F00203002B0AD08D4BD3F8883023F0FE
S315080041480C027B689B6B8A491343C1F888307B68E5
S315080041581B6803F00403002B0AD0854BD3F8883074
S3150800416823F030027B68DB6B81491343C1F888303A
S315080041787B681B6803F00803002B0AD07C4BD3F82E
S31508004188883023F0C0027B681B6C79491343C1F851
S3150800419888307B681B6803F01003002B0AD0744B21
S315080041A8D3F8883023F440727B685B6C70491343F4
S315080041B8C1F888307B681B6803F02003002B0AD0F7
S315080041C86B4BD3F8883023F440627B689B6C68494C
S315080041D81343C1F888307B681B6803F40073002B07
S315080041E80AD0634BD3F8883023F440227B68DB6D0A
S315080041F85F491343C1F888307B681B6803F48063FA
S31508004208002B0AD05A4BD3F8883023F440127B681F
S315080042181B6E57491343C1F888307B681B6803F43B
S315080042288003002B0AD0524BD3F8883023F4400277
S315080042387B685B6E4E491343C1F888307B681B68F8
S3150800424803F00073002B31D07B689B6EB3F1007FB7
S315080042580ED0B3F1007F14D8002B15D0B3F1807FA8
S315080042680FD1434BDB68424A43F48013D3600CE012
S315080042787B6804330021184600F07CF90346FB776F
S3150800428803E00123FB7700E000BFFB7F002B0BD17F
S31508004298374BD3F8883023F040727B689B6E3449D5
S315080042A81343C1F8883001E0FB7FBB777B681B683E
S315080042B803F04003002B0AD02D4BD3F8883023F49B
S315080042C840527B68DB6C2A491343C1F888307B68FF
S315080042D81B6803F08003002B0AD0254BD3F88830D7
S315080042E823F440427B681B6D21491343C1F8883083
S315080042F87B681B6803F48073002B0AD01C4BD3F821
S31508004308883023F440327B685B6D19491343C1F83A
S3150800431888307B681B6803F48013002B0AD0144B7B
S31508004328D3F89C3023F003027B689B6D104913432E
S31508004338C1F89C307B681B6803F40053002B2BD00C
S315080043480B4BD3F8883023F040627B685B6F0849CB
S315080043581343C1F888307B685B6FB3F1006F09D1E6
S31508004368034BDB68024A43F48013D36014E000BFAA
S31508004378001002407B685B6FB3F1806F0CD17B68D5
S3150800438804330121184600F0F5F80346FB77FB7F4E
S31508004398002B01D0FB7FBB777B681B6803F40023DF
S315080043A8002B4AD07B689B6FB3F5804F08D1704BBA
S315080043B8D3F89C306E4A43F48043C2F89C3012E026
S315080043C86B4BD3F8883023F040627B689B6F68494B
S315080043D81343C1F88830664BD3F89C30644A23F4F3
S315080043E88043C2F89C307B689B6FB3F1806F0DD110
S315080043F87B6804330121184600F0BCF80346FB77AE
S31508004408FB7F002B19D0FB7FBB7716E07B689B6F79
S31508004418B3F1006F06D1564BDB68554A43F480134F
S31508004428D3600AE07B689B6FB3F5804F05D1504B84
S31508004438DB684F4A43F48033D3607B681B6803F410
S315080044488023002B28D04A4BD3F8883023F04062C3
S315080044587B68DB6F46491343C1F888307B68DB6F96
S31508004468B3F1006F06D1424BDB68414A43F4801327
S31508004478D36011E07B68DB6FB3F1806F0CD17B6882
S3150800448804330121184600F075F80346FB77FB7FCD
S31508004498002B01D0FB7FBB777B681B6803F480433E
S315080044A8002B1ED0324BD3F8883023F040527B6855
S315080044B8D3F880302E491343C1F888307B68D3F87F
S315080044C88030B3F1805F0CD17B680433022118462B
S315080044D800F050F80346FB77FB7F002B01D0FB7FE3
S315080044E8BB777B681B6803F48033002B0BD0204B03
S315080044F8D3F89C3023F004027B68D3F884301C492F
S315080045081343C1F89C307B681B6803F40013002B1F
S315080045180BD0174BD3F89C3023F018027B68D3F8D6
S31508004528883013491343C1F89C307B681B6803F02D
S315080045388073002B17D00E4BD3F89C3023F4401207
S315080045487B68D3F88C300A491343C1F89C307B68DA
S31508004558D3F88C30B3F5001F05D1054BDB68044A40
S3150800456843F48013D360BB7F18462037BD4680BD09
S315080045780010024080B584B000AF78603960002327
S31508004588FB737B681B68032B18D0032B1FD8012BDA
S3150800459802D0022B09D01AE0654B1B6803F0020308
S315080045A8002B17D10123FB7314E0614B1B6803F436
S315080045B88063002B10D10123FB730DE05C4B1B684D
S315080045C803F4C023002B09D10123FB7306E001235A
S315080045D8FB7304E000BF02E000BF00E000BFFB7BFE
S315080045E8002B40F09F80524B1B68514A23F080638A
S315080045F81360FDF775FAB8600FE0FDF771FA024621
S31508004608BB68D31A022B08D9494B1B6803F0006309
S31508004618002B09D00323FB7306E0454B1B6803F000
S315080046280063002BE9D100E000BFFB7B002B79D1A2
S315080046383B68002B16D13E4B1A693E4B13407A68E5
S31508004648926811027A68D268D20611437A68526863
S31508004658013A120111437A6812680A433449134326
S315080046680B6133E03B68012B18D1314B1A69324B81
S3150800467813407A68926811027A6812695208013AF0
S31508004688520511437A685268013A120111437A6849
S3150800469812680A43264913430B6117E0244B1A6923
S315080046A8264B13407A68926811027A68526952084A
S315080046B8013A520611437A685268013A12011143BF
S315080046C87A6812680A431A4913430B61184B1B6820
S315080046D8174A43F080631360FDF702FAB8600FE0E3
S315080046E8FDF7FEF90246BB68D31A022B08D9104B08
S315080046F81B6803F00063002B09D10323FB7306E04C
S315080047080B4B1B6803F00063002BE9D000E000BFE1
S31508004718FB7B002B06D1064B1A697B689B69044903
S3150800472813430B61FB7B18461037BD4680BD00BF97
S31508004738001002400C80FF070C809FFF0C80FFF9D1
S3150800474880B584B000AF786039600023FB737B6856
S315080047581B68032B18D0032B1FD8012B02D0022B5A
S3150800476809D01AE04A4B1B6803F00203002B17D13D
S315080047780123FB7314E0464B1B6803F48063002B84
S3150800478810D10123FB730DE0414B1B6803F4C023CA
S31508004798002B09D10123FB7306E00123FB7304E010
S315080047A800BF02E000BF00E000BFFB7B002B69D119
S315080047B8374B1B68364A23F080531360FDF790F988
S315080047C8B8600FE0FDF78CF90246BB68D31A022BCE
S315080047D808D92F4B1B6803F00053002B09D0032375
S315080047E8FB7306E02A4B1B6803F00053002BE9D13C
S315080047F800E000BFFB7B002B44D13B68002B15D19A
S31508004808234B5A69234B13407A68926811027A68CF
S31508004818D268D20611437A685268013A12011143DE
S315080048287A6812680A431A4913434B61184B1B687E
S31508004838174A43F080531360FDF752F9B8600FE042
S31508004848FDF74EF90246BB68D31A022B08D9104B56
S315080048581B6803F00053002B09D10323FB7306E0FA
S315080048680B4B1B6803F00053002BE9D000E000BF90
S31508004878FB7B002B06D1064B5A697B681B690449E2
S3150800488813434B61FB7B18461037BD4680BD00BFF6
S31508004898001002400C80FF0780B582B000AF786030
S315080048A87B68002B01D1012342E07B68D3F8883066
S315080048B8002B06D17B68002283F884207868FCF7E9
S315080048C853FE7B682422C3F888207B681B681A680D
S315080048D87B681B6822F001021A607B689B6A002BBA
S315080048E802D0786800F0B6FB786800F0B3F803469B
S315080048F8012B01D101231BE07B681B685A687B687A
S315080049081B6822F490425A607B681B689A687B6821
S315080049181B6822F02A029A607B681B681A687B68FB
S315080049281B6842F001021A60786800F035FC0346F5
S3150800493818460837BD4680BD80B58AB002AFF8600C
S31508004948B9603B601346FB80FB68D3F88830202B98
S315080049587BD1BB68002B02D0FB88002B01D1012331
S3150800496874E0FB680022C3F89020FB682122C3F88C
S315080049788820FDF7B5F87861FB68FA88A3F854200B
S31508004988FB68FA88A3F85620FB689B68B3F5805F2E
S3150800499808D1FB681B69002B04D10023FB61BB689F
S315080049A8BB6103E0BB68FB610023BB6130E03B6881
S315080049B800937B6900228021F86800F097FC03467B
S315080049C8002B05D0FB682022C3F8882003233DE086
S315080049D8FB69002B0BD1BB691B881A46FB681B6849
S315080049E8C2F308029A62BB690233BB6107E0FB6936
S315080049F81A78FB681B689A62FB690133FB61FB68D6
S31508004A08B3F856309BB2013B9AB2FB68A3F8562016
S31508004A18FB68B3F856309BB2002BC8D13B680093A5
S31508004A287B6900224021F86800F060FC0346002BE9
S31508004A3805D0FB682022C3F88820032306E0FB6814
S31508004A482022C3F88820002300E0022318462037CE
S31508004A58BD4680BD2DE9B04F8CB000AF7861002304
S31508004A6887F82A307B699A687B691B691A437B69C8
S31508004A785B691A437B69DB691343FB627B691B68BD
S31508004A881A68AA4B13407A691268F96A0B431360C5
S31508004A987B691B685B6823F440517B69DA687B6924
S31508004AA81B680A435A607B699B69FB627B691B68BA
S31508004AB89F4A934204D07B691B6AFA6A1343FB62CE
S31508004AC87B691B689B6823F06E4323F430637A6915
S31508004AD81268F96A0B4393607B691B68DB6A23F0E3
S31508004AE80F017B695A6A7B691B680A43DA627B6924
S31508004AF81B68904A934225D18F4BD3F8883003F028
S31508004B080303032B1AD801A252F823F0254B0008F1
S31508004B18354B00082D4B00083D4B0008012387F844
S31508004B282B3016E1022387F82B3012E1042387F885
S31508004B382B300EE1082387F82B300AE1102387F873
S31508004B482B3006E17B691B687C4A934238D17A4B3D
S31508004B58D3F8883003F00C030C2B2DD801A252F891
S31508004B6823F000BFA14B0008C14B0008C14B000841
S31508004B78C14B0008B14B0008C14B0008C14B0008DF
S31508004B88C14B0008A94B0008C14B0008C14B0008D7
S31508004B98C14B0008B94B0008002387F82B30D8E02A
S31508004BA8022387F82B30D4E0042387F82B30D0E08B
S31508004BB8082387F82B30CCE0102387F82B30C8E079
S31508004BC87B691B685E4A934225D15B4BD3F88830CC
S31508004BD803F03003302B16D0302B18D8202B0AD0E8
S31508004BE8202B14D8002B02D0102B08D00FE0002356
S31508004BF887F82B30ADE0022387F82B30A9E0042389
S31508004C0887F82B30A5E0082387F82B30A1E0102376
S31508004C1887F82B309DE07B691B684A4A934225D161
S31508004C28454BD3F8883003F0C003C02B16D0C02BE9
S31508004C3818D8802B0AD0802B14D8002B02D0402BEA
S31508004C4808D00FE0002387F82B3082E0022387F884
S31508004C582B307EE0042387F82B307AE0082387F880
S31508004C682B3076E0102387F82B3072E07B691B68B7
S31508004C78354A93422AD1304BD3F8883003F4407327
S31508004C88B3F5407F1AD0B3F5407F1BD8B3F5007F3C
S31508004C980CD0B3F5007F15D8002B03D0B3F5807F69
S31508004CA808D00FE0002387F82B3052E0022387F854
S31508004CB82B304EE0042387F82B304AE0082387F880
S31508004CC82B3046E0102387F82B3042E07B691B68B7
S31508004CD8174A93423AD1184BD3F8883003F44063FD
S31508004CE8B3F5406F1AD0B3F5406F1BD8B3F5006F0C
S31508004CF80CD0B3F5006F15D8002B03D0B3F5806F29
S31508004D0808D00FE0002387F82B3022E0022387F823
S31508004D182B301EE0042387F82B301AE0082387F87F
S31508004D282B3016E0102387F82B3012E0F369FFCFF3
S31508004D38008000400038014000100240004400404E
S31508004D4800480040004C004000500040102387F8F7
S31508004D582B307B691B68B04A934240F09B8097F8D2
S31508004D682B30082B27D801A252F823F0994D0008B2
S31508004D78A14D0008A94D0008BF4D0008AF4D000811
S31508004D88BF4D0008BF4D0008BF4D0008B74D0008C5
S31508004D98FEF772FF786214E0FEF782FF786210E089
S31508004DA89E4B7B620DE0FEF7B5FE786209E04FF48C
S31508004DB800437B6205E000237B62012387F82A30DB
S31508004DC800BF7B6A002B00F030817B695B6A944AD6
S31508004DD832F813301A467B6AB3FBF2F3BB617B6978
S31508004DE85A6813465B001344BA699A4205D37B6925
S31508004DF85B681B03BA699A4203D9012387F82A30E4
S31508004E0813E17B6A0022BB60FA607B695B6A844AA5
S31508004E1832F813309BB200223B607A60D7E9002348
S31508004E28D7E90201FBF710FF02460B46104619465A
S31508004E384FF000024FF000030B0243EA1063020228
S31508004E4879694968490800200C46054612EB0408A2
S31508004E5843EB05097B695B6800229A4693465246E6
S31508004E685B4640464946FBF7EFFE02460B461346A5
S31508004E783B623B6AB3F5407F08D33B6AB3F5801FAC
S31508004E8804D27B691B683A6ADA60CEE0012387F8A0
S31508004E982A30CAE07B69DB69B3F5004F66D197F813
S31508004EA82B30082B27D801A252F823F0D94E000830
S31508004EB8E14E0008E94E0008FF4E0008EF4E0008CC
S31508004EC8FF4E0008FF4E0008FF4E0008F74E000880
S31508004ED8FEF7D2FE786214E0FEF7E2FE786210E08A
S31508004EE84E4B7B620DE0FEF715FE786209E04FF43B
S31508004EF800437B6205E000237B62012387F82A309A
S31508004F0800BF7B6A002B00F090807B695B6A444A85
S31508004F1832F813301A467B6AB3FBF2F35A007B69F8
S31508004F285B685B081A447B695B68B2FBF3F33B6210
S31508004F383B6A0F2B16D93B6AB3F5803F12D23B6AF8
S31508004F489BB223F00F03FB833B6A5B089BB203F013
S31508004F5807039AB2FB8B1343FB837B691B68FA8B9F
S31508004F68DA6062E0012387F82A305EE097F82B308A
S31508004F78082B28D801A252F823F000BFA94F000829
S31508004F88B14F0008B94F0008CF4F0008BF4F0008B7
S31508004F98CF4F0008CF4F0008CF4F0008C74F00086B
S31508004FA8FEF76AFE786214E0FEF77AFE786210E089
S31508004FB81A4B7B620DE0FEF7ADFD786209E04FF407
S31508004FC800437B6205E000237B62012387F82A30C9
S31508004FD800BF7B6A002B28D07B695B6A104A32F8C7
S31508004FE813301A467B6AB3FBF2F27B695B685B0887
S31508004FF81A447B695B68B2FBF3F33B623B6A0F2B87
S3150800500810D93B6AB3F5803F0CD23B6A9AB27B69E2
S315080050181B68DA6009E000BF008000400024F4003D
S31508005028309E0008012387F82A307B690122A3F8F5
S315080050386A207B690122A3F868207B6900225A67DF
S315080050487B6900229A6797F82A3018463037BD4692
S31508005058BDE8B08F80B483B000AF78607B689B6A80
S3150800506803F00803002B0AD07B681B685B6823F4E7
S3150800507800417B689A6B7B681B680A435A607B68A1
S315080050889B6A03F00103002B0AD07B681B685B68E0
S3150800509823F400317B68DA6A7B681B680A435A601E
S315080050A87B689B6A03F00203002B0AD07B681B689F
S315080050B85B6823F480317B681A6B7B681B680A4334
S315080050C85A607B689B6A03F00403002B0AD07B6846
S315080050D81B685B6823F480217B685A6B7B681B68AE
S315080050E80A435A607B689B6A03F01003002B0AD0B0
S315080050F87B681B689B6823F480517B68DA6B7B683E
S315080051081B680A439A607B689B6A03F02003002B96
S315080051180AD07B681B689B6823F400517B681A6C65
S315080051287B681B680A439A607B689B6A03F040039E
S31508005138002B1AD07B681B685B6823F480117B6890
S315080051485A6C7B681B680A435A607B685B6CB3F5C4
S31508005158801F0AD17B681B685B6823F4C0017B68DB
S315080051689A6C7B681B680A435A607B689B6A03F0DB
S315080051788003002B0AD07B681B685B6823F4002130
S315080051887B68DA6C7B681B680A435A6000BF0C3771
S31508005198BD465DF8047B704780B598B002AF786065
S315080051A87B680022C3F89020FCF79AFC78657B6830
S315080051B81B681B6803F00803082B2FD16FF07E4382
S315080051C800937B6D00224FF40011786800F08EF882
S315080051D80346002B22D07B681B68BB63BB6B53E86E
S315080051E8003F7B637B6B23F080033B657B681B680A
S315080051F81A463B6D7B643A64396C7A6C41E800233D
S31508005208FB63FB6B002BE6D17B682022C3F888205A
S315080052187B68002283F88420032363E07B681B6885
S315080052281B6803F00403042B49D16FF07E430093EF
S315080052387B6D00224FF48001786800F057F8034622
S31508005248002B3CD07B681B687B627B6A53E8003F6F
S315080052583B623B6A23F49073FB647B681B681A46B7
S31508005268FB6C3B63FA62F96A3A6B41E80023BB6256
S31508005278BB6A002BE6D17B681B6808333B613B6930
S3150800528853E8003FFB60FB6823F00103BB647B68B7
S315080052981B680833BA6CFA61BB61B969FA6941E8EF
S315080052A800237B617B69002BE5D17B682022C3F844
S315080052B88C207B68002283F88420032312E07B680D
S315080052C82022C3F888207B682022C3F88C207B68B4
S315080052D80022DA667B6800221A677B68002283F850
S315080052E88420002318465837BD4680BD80B584B04B
S315080052F800AFF860B9603B601346FB714FE0BB69C5
S31508005308B3F1FF3F4BD0FCF7EBFB02463B68D31AD9
S31508005318BA699A4202D3BB69002B01D103234EE02E
S31508005328FB681B681B6803F00403002B37D0BB68AF
S31508005338802B34D0BB68402B31D0FB681B68DB69EF
S3150800534803F00803082B10D1FB681B6808221A62A9
S31508005358F86800F038F8FB680822C3F89020FB685C
S31508005368002283F88420012329E0FB681B68DB698F
S3150800537803F40063B3F5006F11D1FB681B684FF49B
S3150800538800621A62F86800F01EF8FB682022C3F863
S315080053989020FB68002283F8842003230FE0FB682B
S315080053A81B68DA69BB681340BA689A420CBF0123BE
S315080053B80023DBB21A46FB799A42A0D00023184686
S315080053C81037BD4680BD80B495B000AF78607B685D
S315080053D81B687B637B6B53E8003F3B633B6B23F49B
S315080053E89073FB647B681B681A46FB6C3B64FA631C
S315080053F8F96B3A6C41E80023BB63BB6B002BE6D11B
S315080054087B681B6808333B623B6A53E8003FFB61CD
S31508005418FB6923F0805323F00103BB647B681B6890
S315080054280833BA6CFA62BB62B96AFA6A41E80023B9
S315080054387B627B6A002BE3D17B68DB6E012B18D174
S315080054487B681B68FB60FB6853E8003FBB60BB686A
S3150800545823F010037B647B681B681A467B6CBB6168
S315080054687A617969BA6941E800233B613B69002B8F
S31508005478E6D17B682022C3F88C207B680022DA668E
S315080054887B6800225A6700BF5437BD465DF8047B1F
S31508005498704780B485B000AF78607B6893F884302D
S315080054A8012B01D1022327E07B68012283F8842097
S315080054B87B682422C3F888207B681B681B68FB6006
S315080054C87B681B681A687B681B6822F001021A60E9
S315080054D8FB6823F00053FB607B6800225A667B68EA
S315080054E81B68FA681A607B682022C3F888207B68DC
S315080054F8002283F88420002318461437BD465DF831
