:020000040800F2
:10000000E012002091010008F92C00087528000872
:10001000F52C0008E5080008F9320008000000008F
:10002000000000000000000000000000A9320008ED
:10003000F508000800000000FD2C0008AD320008A3
:10004000AB010008AB010008AB010008AB010008E0
:10005000AB010008AB010008AB010008AB010008D0
:10006000AB010008AB010008AB010008E90800087B
:10007000AB010008AB010008AB010008AB010008B0
:10008000AB010008AB010008AB010008AB010008A0
:10009000AB010008AB010008AB010008AB01000890
:1000A000AB010008AB010008AB010008AB01000880
:1000B000ED320008AB010008AB010008AB010008FD
:1000C000AB010008AB010008AB010008AB01000860
:1000D000AB010008AB010008AB010008AB01000850
:1000E000AB010008AB010008AB01000800F002F80A
:1000F00000F03FF80AA090E8000C82448344AAF183
:100100000107DA4501D100F034F8AFF2090EBAE880
:100110000F0013F0010F18BFFB1A43F0010318473B
:100120001C6200003C620000103A24BF78C878C10D
:10013000FAD8520724BF30C830C144BF04680C60ED
:10014000704700000023002400250026103A28BF35
:1001500078C1FBD8520728BF30C148BF0B60704739
:10016000642900F07D80002070471FB51FBD10B5C9
:1001700010BD00F0ECF91146FFF7F7FF03F0DCF8D3
:1001800000F00AFA03B4FFF7F2FF03BC00F012FA22
:100190000948804709480047FEE7FEE7FEE7FEE71B
:1001A000FEE7FEE7FEE7FEE7FEE7FEE70448054957
:1001B000054A064B70470000BD320008ED000008FC
:1001C000E0060020E0120020E00A0020E00A002003
:1001D0000FB41CB5074B06AA7B44694600900598EE
:1001E00000F06BF90020694600F07AF91CBC5DF85C
:1001F00014FB0000050300002DE9F0410E46044603
:10020000002020622046E168884730B3252805D0C9
:10021000D4E901219047206A401CF2E7E1682046BA
:1002200000278847050018D0A5F14100192802D8F9
:1002300020354FF400673246294620462760FFF7F5
:100240008FFF40B1012804D0F61D26F007060836BE
:10025000D8E7361DD6E72846DAE7206ABDE8F08100
:100260002DE9F0410646002410687529314616A58F
:1002700010D0AFF30080002802DA404213A507E057
:1002800031688A0701D512A502E0490704D511A5F6
:10029000012401E0AFF3008000210A2206F12407C7
:1002A00009E0B0FBF2FCB0FBF2F302FB1C003030C3
:1002B00078541846491C0028F3D123462A46304674
:1002C000BDE8F04100F09BB8000000002D000000E8
:1002D0002B0000002000000040EA0103024630B578
:1002E0009B0710D14FF0013400E008C208C91D1B64
:1002F0009D4315EAC41FF8D013F0FF0102F8011B5B
:100300000DD01B0AF8E711F8013B002B02F8013B66
:1003100005D011F8013B002B02F8013BF3D130BDB1
:10032000032A40F2308010F0030C00F0158011F821
:10033000013BBCF1020F624498BF11F801CB00F8F9
:10034000013B38BF11F8013BA2F1040298BF00F84D
:1003500001CB38BF00F8013B11F0030300F0C5806A
:10036000083AC0F0088051F8043B083A51F804CB31
:10037000A0E80810F5E7121D5CBF51F8043B40F8F7
:10038000043BAFF30080D20724BF11F8013B11F802
:1003900001CB48BF11F8012B24BF00F8013B00F846
:1003A00001CB48BF00F8012B70474FF0000200B5A9
:1003B000134694469646203922BFA0E80C50A0E888
:1003C0000C50B1F12001BFF4F7AF090728BFA0E836
:1003D0000C5048BF0CC05DF804EB890028BF40F802
:1003E000042B08BF704748BF20F8022B11F0804F44
:1003F00018BF00F8012B70477047704770472DE910
:10040000F0470D4699469246044600F124080168DB
:10041000880604D5E06921F01001216000E0012088
:10042000A84201DD471B00E00027A1697A1902EB11
:100430000900081AA0612078C00602D42046AFF354
:100440000080002608E0D4E901211AF80600904750
:10045000206A401C761C20624E45F4DB2078C006E2
:100460000AD52046AFF3008006E0D4E90121302010
:100470009047206A401C2062381EA7F10107F4DC77
:1004800007E0D4E9012118F805009047206A401CD4
:100490002062281EA5F10105F3DC2046AFF30080A1
:1004A0002078000602D50220BDE8F0870120FBE796
:1004B00001694A1C02610878704700B58FB0CDE928
:1004C00001310021059105497944CDE90310114618
:1004D0006846FFF791FE0FB000BD0000E5FFFFFF8B
:1004E0000A6802F8010B0A60704710B5203AC0F0A4
:1004F0000B80B1E81850A0E81850B1E81850A0E8F7
:100500001850203ABFF4F5AF5FEA027C24BFB1E88F
:100510001850A0E8185044BF18C918C0BDE81040D2
:100520005FEA827C24BF51F8043B40F8043B08BFDB
:100530007047D20728BF31F8023B48BF11F8012BA2
:1005400028BF20F8023B48BF00F8012B70477546D2
:1005500000F02CF8AE4605006946534620F007002F
:10056000854618B020B5FFF721FEBDE820404FF0CA
:1005700000064FF000074FF000084FF0000BAC46AC
:10058000ACE8C009ACE8C009ACE8C009ACE8C009F7
:1005900021F007018D46704710B50446AFF3008087
:1005A0002046BDE81040FFF7EDBD00000048704751
:1005B0002800002001491820ABBEFEE726000200FB
:1005C000704700002DE9F04F82B040F2CC09C2F232
:1005D0000009D9F810B040F2A41AC2F2000A0020B3
:1005E000BBF1000FCAE90000CAF80800CAF80C0005
:1005F00049D000204FF0000808F101085FFA88F1A7
:100600008B4540D909EB800000F1180E00F1400540
:1006100000F1680600F190074346CDE9001100BFE4
:1006200009EB81021146DEF8000051F818CF0133C2
:10063000604582BFCAF80000CEF800C008601146CD
:10064000286851F8404FA04282BFCAF804002C60CD
:1006500008601146306851F8684FA04282BFCAF85E
:10066000080034600860386852F8901F884282BFE2
:10067000CAF80C0039601060D9B28B45D0D8009808
:1006800083450198B8D809F124030FCB08441044DE
:100690001844800809F14C03CAF810000FCB084435
:1006A00010441844800809F17403CAF814000FCBF1
:1006B000084410441844800809F19C03CAF8180043
:1006C0000FCB084410441844D9F814108008CAF815
:1006D0001C00481CC9F8140002B0BDE8F08F0000EF
:1006E00010B540F2A410C2F20000406940F6660165
:1006F000884203D803F0A4F90CE000BF03F01CF912
:1007000043F23333C3F6F3734FF0333202F0BAFFE0
:1007100002F086FF40F2C414C2F20004002144F843
:10072000241FC4E90111C4E9031103F06DF9024665
:1007300002A12046BDE81040FFF74ABD52504D3A95
:10074000256400000146406A826A12F0500F03D00F
:10075000006A026B084610470168826A42F4007220
:100760008262896801F46021B1F5602F01D1017BBB
:1007700011B100F077BA00BF816A21F48071816203
:10078000816AC90448BF00F06DBA816A41F0010175
:10079000816200F067BA0000406A816A41F040015E
:1007A0008162C16A41F00401C16200F05FBA0000D9
:1007B000406A00F059BA0000B0B582B0044600208B
:1007C000019021688A68D2074FD1886840F0010003
:1007D000886040F22000C2F2000000684DF683619C
:1007E000C4F21B31A0FB0101880C01900198A0B15B
:1007F000019801380190019878B101980138019071
:10080000019850B1019801380190019828B10198E0
:100810000138019001980028EAD100F03FFE2168DC
:100820008968C9071CD1054603E000BF8068C0077E
:100830001AD100F033FE411B20680329F6D38168EA
:10084000C907F3D1A06A40F01000A062E06A40F04E
:100850000100E062002084F82400012002B0B0BD55
:10086000002002B0B0BD00BF002002B0B0BD00004B
:10087000B0B540F2C415C2F20005A868642838BFBC
:10088000B0BD40F2CC0440F29400C2F20004C2F2C7
:1008900000002146042200F0E7FA20690A2807D365
:1008A000FFF790FE002020610020A860B0BD00BFCF
:1008B000216804EB800081612069616804EB80009D
:1008C00001642069A16804EB80008166D4E903100B
:1008D00004EB8000C0F890102069013020610020F6
:1008E000A860B0BDFEE7000040F2FC50C2F200007C
:1008F00000F046BB70470000F0B587B040F2C4106E
:10090000C2F2000081694A1E172A03D80121C16181
:1009100007B0F0BD19397C296CD8026A0221C16187
:10092000511C0229016269D340F2A417C2F20007E8
:100930003A8A6C46002632A120468DF8186005964A
:10094000CDE90366CDE901660096FFF741FC05207D
:10095000022102F0E3F940F21805C2F20005204638
:100960002946012202F036FCBA8A27A12046CDE9A9
:100970000066CDE90266CDE904668DF81860FFF7E0
:1009800027FC05200F2102F0C9F920462946012243
:1009900002F020FC3A8B1EA12046CDE90066CDE98D
:1009A0000266CDE904668DF81860FFF711FC05209A
:1009B0001C2102F0B3F920462946012202F00AFC6C
:1009C000BA8B15A12046CDE90066CDE90266CDE9D6
:1009D00004668DF81860FFF7FBFB0520292102F063
:1009E0009DF920462946012202F0F4FB02F00AFCA0
:1009F00007B0F0BD0021C0E90611016207B0F0BDEB
:100A0000416463303A256400416463313A256400EF
:100A1000416463323A256400416463333A256400DB
:100A2000B0B588B040F2C414C2F20004D4E90601A3
:100A3000012908BF012805D0022908BF192825D09F
:100A400008B0B0BD0025E56102F05AF9FFF748FE95
:100A500004F1240101AC20468DF81C50CDE9055568
:100A6000CDE90355CDE90155FFF736FC0A201421E5
:100A700002F054F940F20801C2F2000120460122BE
:100A800002F0A8FB02F0BEFB08B0B0BD0020E061A0
:100A900008B0BDE8B04002F033B9000080B540F2C4
:100AA000C410C2F20000C168322938BF80BD82691B
:100AB0000021C160511C8161FFF71EFFBDE880402D
:100AC000FFF7AEBFEFF3108072B600BFFEE7000085
:100AD00010B581B00022009290F82420012A03D1A1
:100AE0000221084601B010BD4B680122062B80F898
:100AF000242015D8026803EB8303A3F1050E1F23FE
:100B0000D2F834C003FA0EF40B682CEA040C03FA92
:100B10000EF444EA0C045463092B17D937E000BFE4
:100B200002680C2B20D803EB8303A3F123041F23BB
:100B3000D2F830C003FA04FE0B682CEA0E0C03FA5C
:100B400004F444EA0C041463092B20D8D2F810C032
:100B500003EB4303072489689C402CEA0404994072
:100B600021431161002136E003EB8303A3F141042B
:100B70001F23D2F82CC003FA04FE0B682CEA0E0CDB
:100B800003FA04F444EA0C04D462092BDED903EB23
:100B90004304D2F80CC0A4F11E0E0724896804FA9D
:100BA0000EF42CEA040401FA0EF1214323F00104AF
:100BB000102CD1600ED142F20841C4F20101A1F122
:100BC0000804A2420ED0816A41F020018162012115
:100BD00001E000BF0021002280F82420084601B077
:100BE00010BD00BF0A68120230D40A68102B42F40C
:100BF00000020A602CD140F22001C2F20001096813
:100C00004DF68362C4F21B32A1FB0212910C01EB80
:100C10008101490000910099E1B1009901390091E9
:100C20000099C9B10099013900910099B1B10099B9
:100C300001390091009999B1009901390091009909
:100C400000294FF00001E8D1C5E700BF0021C2E74D
:100C50000021C0E70021BEE70021BCE70021BAE780
:100C60000021B8E77047000070470000704700009F
:100C7000B0B5002800F0A8800446806A20B1216841
:100C80008868C0070BD114E00020E06284F82400DB
:100C9000204600F09BF821688868C00709D0886862
:100CA00020F00100886000F0F9FB21688A68D20713
:100CB00026D1A06AC0063AD4A06A41F2021290433B
:100CC0000230A062E069D4E9013240EA030C531E0D
:100CD000B3FA83F35D091346B2F5807F18BF2B0288
:100CE000207D257B01284CEA450030D135B3A56A2B
:100CF00045F02005A562E56A45F00105E56226E0BC
:100D0000054602E08868C007D3D000F0C7FB401B4F
:100D100021680328F6D38868C007F3D0A06A40F0A2
:100D20001000A062E06A40F00100E062A06AA06AE0
:100D300040F01000A0620120B0BD00BFD4F818C080
:100D40004EF60005CFF6FF7505EB4C352B434D688D
:100D5000B2F5807F25F4694543EA05034B608B6853
:100D60004FF2FD75CFF6E17503EA050343EA000390
:100D70008B6001D0012A07D122690023CFF6F073DE
:100D800003EB025201E000BF0022CB6A23F47003A0
:100D90001A43CA62896840F6FE62CFF61F7211409C
:100DA000814207D10020E062A16A012262F30101C1
:100DB000A162B0BDA06A40F0100020F00200A06265
:100DC000E06A40F00100E0620120B0BD70B586B07D
:100DD000044640F60000C4F20100216800F5E0522C
:100DE000002691420596049602D006B070BD00BF61
:100DF00041F21801C4F202010A6842F400720A606A
:100E00000A6802F400720192019A0A6842F0040230
:100E10000A60096801F00401019101993C210291E5
:100E20000321039102A900F021FA40F2FC550820A9
:100E3000C2F20005C4F202004FF40072C5E90006D8
:100E400005F1100080214FF400634CC02846C5E92D
:100E50000261EE6100F064F9002818BFFFF732FE6E
:100E600025626C6206B070BD70B515460446006818
:100E700042F60002C4F2010290420E4605D042F250
:100E80000041C4F20101884209D142F20440C4F297
:100E90000100006810F4702F1CBF012070BD94F891
:100EA0002400012804BF022070BD012084F8240022
:100EB0002046FFF781FC18B1002184F8241070BD92
:100EC00042F204402168A26AC4F2010040F60173B4
:100ED0009A4300F57F7302F580729942A26243D073
:100EE000A06A20F48010A0624868400504D5A06A7A
:100EF000012262F30D30A062A26A0020D2044FF0FA
:100F0000000244BFE26A22F00602E26284F8240092
:100F1000206A40F24572C0F6000240F2B17340F21E
:100F2000997C00F1280EC0F60003C0F6000C8EE894
:100F30000C106FF002020A608A682B4642F480723D
:100F40008A604C31324600F02FF92068816801F444
:100F500060228168B2F5602F0CBF41F4A00141F41A
:100F600080118160002070BD026812F4702FB7D02C
:100F7000A26A42F48012A26200684005BCD5B6E7BE
:100F800010B5D0E90FCE0168DCF800300A6823FA0A
:100F90000EF35C072AD512F0040427D00A689206E3
:100FA00003D40A6822F004020A602F22C4F202026B
:100FB000914240F20402C4F202025BDD3023C4F22B
:100FC0000203994272D04423C4F20203994273D0BF
:100FD0005823C4F20203994240F07A804FF48023F0
:100FE0001360C16A002940F098806FE09C0727D504
:100FF00012F0020424D00A68920606D40A6822F08D
:101000000A020A60012280F821202F22C4F2020283
:10101000914240F20402C4F202023BDD3023C4F2EA
:101020000203994260D04423C4F2020399425FD084
:101030005823C4F20203994260D14FF4003365E0B3
:101040001B0743D512F0080208BF10BD0A6822F042
:101050000E020A60012101FA0EF2CCF8042081632D
:1010600080F82110016B0022002980F8202054D143
:101070002CE000BF0823C4F20203994222D01C23B3
:10108000C4F20203994223D140231360C16A0029AC
:1010900043D11BE00823C4F2020399422CD01C2345
:1010A000C4F20203994229D120232FE04FF4806338
:1010B0001360C16A89BB09E04FF480431360C16AC1
:1010C00059BB03E004231360C16A31BB10BD00BFEC
:1010D00002F168044FF08063A14208BF4FF480031F
:1010E0001360C16AC9B9F1E74FF400730EE000BFA5
:1010F0004FF400530AE000BF022307E002F1680446
:101100004FF00073A14208BF4FF400131360816ACF
:101110000022002980F82020D8D0BDE810400847E0
:10112000014600284FF0010008BF70472DE9F04349
:10113000D1F800C04FF6F873CBF6FD734CF6CD42F4
:101140006344CCF6CC42A3FB02236FF0030707EA0B
:1011500093030027C4F2020701F10C09C1E90F73E0
:101160000223D1E9012E99E87002D1F81C8081F8A0
:101170002130DCF8003043F6F077BB431A4342EAF3
:101180000E0222432A43324342EA090242EA08029B
:10119000CCF8002000228A6381F8210081F8202009
:1011A0000020BDE8F0437047F0B590F820C0BCF1D6
:1011B000010F32D04FF0010E80F820E090F821C0EE
:1011C000BCF1010F26D14FF0020C80F821C04FF086
:1011D000000CC0F838C0D0E900C4C56AC66BDCF8A2
:1011E0000070102C27F00107CCF80070006C0EFA8C
:1011F00000F070600846CCF8043004BF10460A4680
:10120000CCF80800CCF80C20DCF8000045B140F028
:101210000E000DE0002180F820100220F0BD00BF7C
:1012200020F00400CCF80000DCF8000040F00A00D8
:10123000CCF80000DCF8000040F00100CCF8000021
:101240000020F0BDB0B5044600F028F9054640F294
:101250000000C2F200000078611C18BF044400BF07
:1012600000F01CF9401BA042FAD3B0BD2DE9F04FAD
:1012700082B041F20042C4F201020E68042390429F
:1012800008BF0323002E009300F0F68040F2004CCC
:101290004FF6FF7E0022C4F2010C0124C1F2100EB1
:1012A0004FF0000A4FF0000947E000BF012502F0AF
:1012B0000C040F27A7402BEA070705FA04F43C4368
:1012C00043F82640D1F804B040F20C455FEACB2346
:1012D000DCF8083054BF23EA080343EA0803C4F2E9
:1012E0000105CCF808302B685FEA8B2454BF23EA51
:1012F000080343EA08032B605FEA8B34DCF8043010
:1013000054BF23EA080343EA08035FEACB34CCF86E
:101310000430DCF800304FF0010454BF23EA080326
:1013200043EA0803CCF800300E680AF1010A36FAE5
:101330000AF302F1040200F09F8004FA0AF816EAA8
:10134000080FF1D04B68734512DC122B56D8DFE83A
:1013500003F0350B4549555555555555555555557A
:101360005555554D510000BFD1F80C9046E000BFD7
:101370004FF6FF75C1F22105AB420FDC0025C1F22B
:101380001105AB421AD00025C1F21205AB4215D0AF
:101390000025C1F22105AB4210D02FE00025C1F29B
:1013A0002205AB420AD00025C1F23105AB4205D07F
:1013B0000025C1F23205AB4220D100BF8B684BB192
:1013C000012B14BFC0F81480C0F810804FF008093A
:1013D00014E000BF4FF0040910E000BFCB6803F138
:1013E00008090BE04FF0000908E000BFCB6803F1EB
:1013F000040903E0CB6803F10C0900BF134605465E
:10140000BAF1080F24BF203B04352E680F279F40F8
:10141000BE4309FA03F333432B60CB79DB067FF538
:1014200083AF41F21804C4F2020423684FEA9A061B
:1014300043F001032360236840F6000403F0010336
:101440000193019BACF57E7353F826B0C4F20104FE
:10145000A0420FD040F60044C4F20104A0423FF481
:1014600025AF41F20004C4F20104009DA04208BF70
:1014700002251CE700251AE702B0BDE8F08F000046
:10148000C26802EA0103914341EA034101617047E6
:10149000002A08BF090401617047000040F2DC60C7
:1014A000C2F200000068704770B5B8B3044690F807
:1014B0003D0028B9002084F83C00204600F0A2FA44
:1014C000242084F83D002068016821F001010160BA
:1014D000016841F400410160016821F400410160AC
:1014E00000F01CFD48F28041C0F21E0140F60013DE
:1014F000D4F804E088424FF00001C0F23D0348F206
:10150000A16C4FF0000238BF01219842C0F2010CDB
:1015100038BF0122E64538BF0A460AB1012070BD36
:101520004DF68361C4F21B31A0FB01122168950CBA
:101530004B684FF4967623F03F0343EA924375439A
:1015400044F6D3564B60C1F262060B6AA5FB065601
:10155000B50923F03F03E64538BF950C6A1C1A43D2
:101560000A62CA6948F2A0664CF6FF73C0F201062F
:10157000B64522EA03020BD801384FEA4E03B0FB0E
:10158000F3F001306FF31F30042898BF04201EE0F1
:10159000A368013863B119230EFB03F3B0FBF3F02A
:1015A00001306FF31F3078B100F5804008E000BFD4
:1015B0000EEB4E03B0FBF3F001306FF31F3028B198
:1015C00000F5004003E000BF012000E001201043CF
:1015D000C8610868D4E9072320F0C000104318430D
:1015E0000860886848F2FF3204F10C0690434CCE44
:1015F00018431043A5698860C86820F0FF00304395
:101600002843C860086840F00100086000202021DD
:10161000206484F83D10206384F83E0070BD000013
:101620002DE9F04F83B01E46924688460446FFF7E8
:1016300035FF94F83D1020291CD12168054600BFD4
:101640008869800712D5FFF729FF401B21681A28F7
:10165000F6D388698007F3D500202021206384F821
:101660003D1084F83E00216C0226C2E094F83C0054
:10167000012805D10226304603B0BDE8F08F00BF37
:101680004FF0010984F83C900868C00703D108684E
:1016900040F0010008600868002720F4006008603E
:1016A000242084F83D000020CFF6FF702764E0621C
:1016B00008F0FE08BAF1010F88BFD1464FF0A00A2A
:1016C0004FF0200B04E000BF01374F4500F0A4802D
:1016D0000868002240F48070086020464FF0011135
:1016E0003346009501F028F92168002856D1C1F849
:1016F0001080FFF7D3FE21684B694A6994F83D508A
:10170000A02D054605D013F0020008BF12F480603A
:101710001AD084F83DB048690A68800742F4007224
:101720000A6047D46FF48060486100BF8869800711
:10173000CAD5FFF7B3FE401B21681A28F6D3886983
:101740008007F3D54CE000BFB6B100BFFFF7A6FE9F
:10175000401BB04288BF84F83DA021684A694869AF
:1017600094F83D30A02BD4D012F0020208BF10F440
:101770008060EBD0CDE700BFFFF790FE84F83DA07E
:1017800021684A69486994F83D30A02BC1D012F015
:101790000202BED110F48060EED0BAE708680326DA
:1017A000C00544BF4FF400702064304603B0BDE86C
:1017B000F08F00BF00260296486902908869029067
:1017C0000298886901E000BF806980071AD5FFF799
:1017D00065FE411B20681A29F6D381698907F3D574
:1017E00000202021206384F83D1084F83E00216C05
:1017F000012641F02001216484F83C00304603B00A
:10180000BDE8F08F202084F83D0084F83C6030462D
:1018100003B0BDE8F08F00BF202084F83D00002019
:10182000012684F83C00304603B0BDE8F08F00008C
:101830002DE9F04383B01E46174689460446FFF75C
:101840002DFE94F83D10202920D10546206800BFC8
:101850008169890716D5FFF721FE411B20681A29E7
:10186000F6D381698907F3D500202021206384F80D
:101870003D1084F83E00216C41F02001216484F881
:101880003C0003E094F83C10012903D1022003B08E
:10189000BDE8F083012184F83C100168C90703D139
:1018A000016841F001010160016840F2020821F481
:1018B00000610160212184F83D10102184F83E1060
:1018C0000021216467626685618DC0F2010821856F
:1018D000A8F10211E162E16A0A9E11F5803F18BF8A
:1018E00001291DD1016841F48071016020464FF04B
:1018F000011100223346009501F01EF850B1206816
:101900000068C00544BF4FF400702064012003B09C
:10191000BDE8F0832069B0F5804F07D1FE2015E0C7
:101920000829DFD0216B1229DCD0DFE7062000EA8E
:10193000D9102168F030086108F1060120463246CE
:101940002B4601F0E3F80028E0D1FF20216800EAEF
:10195000090008612046414632462B4601F0D6F880
:101960000028D3D10020029020684169029180694B
:101970000290029806E000BF204631462A4600F059
:101980007BFF18BB208D68B3204631462A4601F004
:101990002DF9D8B9606A2168024612F8013B0B6143
:1019A0006262628D013A6285228D531E23854F69E2
:1019B0007F07E1D51B04DFD0437802300B61606202
:1019C000608D01386085901E2085D5E7206C042845
:1019D0009CD12068016841F400710160012003B0CE
:1019E000BDE8F0832068016841F4007101602020A7
:1019F00084F83D00002084F83E0084F83C0003B0E9
:101A0000BDE8F08310B586B0006845F20041C4F22D
:101A10000001884202D006B010BD00BF012041F293
:101A200018040490C4F20204206802A940F00800DF
:101A30002060206800F00800019001984FF4407089
:101A40000290122003900320059040F60040C4F25B
:101A50000100FFF70BFC0420C4F20100016841F013
:101A6000E06141F002010160606840F400106060D4
:101A7000606800F400100190019806B010BD0000ED
:101A800070B548B304460068D4E901124CF6CC4363
:101A9000036045F25553036041608260FFF7FEFC2E
:101AA0002168CA68920711D0054641F23D3602E02E
:101AB000C86880070AD0FFF7F1FC401B2168B042DC
:101AC000F6D3C8688007F3D0032070BD4AF6AA2079
:101AD0000860002070BD00BF012070BD01684AF69B
:101AE000AA2200200A60704740F2000040F2DC6148
:101AF000C2F20000C2F2000100780A6810440860D7
:101B00007047000080B542F20000C4F20200016894
:101B100041F010010160032000F08AF80F2000F06E
:101B200005F800F027F8002080BD000070B540F2F5
:101B30000006C2F2000640F220013278C2F2000133
:101B40004FF47A730968B3FBF2F20446B1FBF2F189
:101B5000084600F0D1FB0F2C4FF0010508D838B92A
:101B60004FF0FF3021460022002500F035F8746068
:101B7000284670BD82B041F21800C4F2020001682C
:101B8000022241F001010160016801F001010191AF
:101B90000199416841F080514160406800F08050F7
:101BA000009000980420C4F20100016862F31A61F9
:101BB000016002B070470000002848BF704700F085
:101BC0001F01012202FA01F14EF200124009CEF289
:101BD000000242F82010704710B54EF60C5CCEF2B1
:101BE000000CDCF80030C3F3022E8EF00704042C46
:101BF00028BF0424BEF103034FF0FF3E0EFA04F4A5
:101C000038BF0023A14399400EFA03F39A431143CE
:101C100000F00F02043A624409010C3200F1604303
:101C2000B0F1FF3FC8BF03F56442117010BD000062
:101C30004EF60C51CEF200010A684FF6FF031A402F
:101C400060F30A2242F0806040F0FD700860704747
:101C50002DE9F04182B00446007841F21C06C0072D
:101C6000C4F202064AD0306810F0805808D13068BB
:101C700040F080503060306800F080500190019852
:101C800047F20007C4F200073868C00512D438686C
:101C900040F480703860FFF701FC05463868C005E5
:101CA00008D4FFF7FBFB401B6428F7D9032002B0E0
:101CB000BDE8F081706810F4407012D0616801F4E2
:101CC000407188420DD0706840F24042C4F2422216
:101CD000012320F4407113600023C007136071607A
:101CE0002AD17068616820F440700843B8F1000F91
:101CF000706003D1306820F0805030602068810728
:101D000007D556F8181CA26821F44041114346F843
:101D1000181CC00604D4002002B0BDE8F08100BF4A
:101D200056F8180CE16820F48000084346F8180CB7
:101D3000002002B0BDE8F081FFF7B0FB054641F29C
:101D4000883700BF70688007CBD4FFF7A7FB401B24
:101D5000B8424FF00300F5D9EBE700002DE9F0435E
:101D600081B0002800F0858042F20008C4F2020829
:101D70000446D8F800000D4600F0070088420CD257
:101D8000D8F8000020F007002843C8F80000D8F871
:101D9000000000F00700A8426BD1206841F204095E
:101DA0008107C4F2020917D5410705D5D9F80010FB
:101DB00041F4E061C9F80010010705D5D9F8001019
:101DC00041F46051C9F80010D9F80010A26821F060
:101DD000F0011143C9F80010C00741D1D8F8000044
:101DE00000F00700A8420CD9D8F8000020F0070046
:101DF0002843C8F80000D8F8000000F00700A84207
:101E000037D12068410707D5D9F80010E26821F4DE
:101E1000E0611143C9F80010000708D5D9F80000A7
:101E2000216920F4605040EAC100C9F80000D9F8E7
:101E3000002002F00C00082841F20020C0F27A00D5
:101E400050D146F22A33C2F38341C0F60003595CF5
:101E5000D2033BD440F60010C0F23D00484341E0BD
:101E6000606802280AD001282AD159F8041C890385
:101E700008D4012001B0BDE8F08300BF59F8041C6C
:101E80008901F6D5D9F8001021F003010843C9F8FB
:101E90000000FFF703FB064641F28837D9F800003F
:101EA000616800F00C00B0EB810F97D0FFF7F6FAF5
:101EB000801BB842F2D9032001B0BDE8F08300BF17
:101EC00059F8041C8907D4D5DCE700BFD9F80020F5
:101ED00046F22833C2F34042C0F600039A5C4843FE
:101EE000B0FBF2F0D9F8001043F6FC22C1F3031165
:101EF000C0F60002515C40F2200220FA01F140F2EB
:101F00000400C2F200000068C2F200021160FFF794
:101F10000DFE002001B0BDE8F083000040F220007B
:101F200041F20401C2F20000C4F202010068096833
:101F300043F60C32C1F30221C0F60002515CC840E6
:101F4000704700002DE9F04182B0002868D00446B7
:101F5000007841F20006C007C4F2020625D070687E
:101F600000F00C0004281BD0706800F00C0008285A
:101F700002D17068C00313D46068002800F0688143
:101F8000B0F5A02F00F07C81B0F5803F00F07C819F
:101F9000306820F480303060306820F4802076E1B2
:101FA0003068800301D56068D0B32078800718D5E9
:101FB000706810F00C0F07D0706800F00C00082853
:101FC0006ED17068C0036BD43068800702D5206979
:101FD000012825D13068616920F0F80040EAC1008D
:101FE0003060207800071FD42078400732D4E5699C
:101FF00095B1706800F00C00082840F08F80012D2A
:102000000ED07068216A00F480328A4208D1616A79
:1020100000F47010884203D1002002B0BDE8F081C6
:10202000012002B0BDE8F081A069002862D0002044
:10203000C4F242200121C0F88014FFF72FFA0546B0
:10204000706A800700F18C80FFF728FA401B022895
:10205000F6D92AE1F06910F0805808D1F06940F013
:102060008050F061F06900F080500090009847F2D5
:102070000007C4F200073868C00529D4386840F466
:1020800080703860FFF70AFA054600BF3868C0055F
:102090001ED4FFF703FA401B6428F7D905E100BFFF
:1020A0002069002840F20000C4F2422000F0828043
:1020B00001210160FFF7F2F9054600BF3068800793
:1020C0003FF588AFFFF7EAF9401B0228F6D9ECE0AC
:1020D000E068002800F08080052800F09780012843
:1020E00000F09880306A20F001003062306A20F001
:1020F000040092E00020C4F242200021C0F88014C5
:10210000FFF7CCF9054600BF706A80077FF56CAF1A
:10211000FFF7C4F9401B0228F6D9C6E00027C4F235
:10212000422700203866FFF7B9F9022D05460BD18A
:102130003068800140F1BE80FFF7B0F9401B0228F3
:102140004FF00300F4D968E7306880017FF564AF91
:10215000FFF7A4F9401B02284FF00300F4D95CE715
:1021600040F22000C2F20000006844F6D351C1F2F0
:102170006201A0FB0101480A019000BF00BF019865
:10218000411E002801913FF42FAF00BF0198411E6E
:10219000002801913FF428AF00BF0198411E00289C
:1021A00001913FF421AF00BF0198411E0028019129
:1021B000E4D119E700210160FFF770F9054600BF7F
:1021C000306880077FF50DAFFFF768F9401B0228E4
:1021D0004FF00300F4D920E7306A20F001003062AC
:1021E000306A20F004003062FFF758F9054641F2EA
:1021F000883700BF306A800720D5FFF74FF9401BB2
:10220000B8424FF00300F5D907E700BF306A40F04D
:1022100004003062306A40F001003062FFF73EF99E
:10222000054641F2883700BF306A800706D4FFF7C1
:1022300035F9401BB842F7D937E000BFB8F1000FBD
:102240007FF4D5AEF06920F08050F061CFE600BF9A
:10225000306820F480303060306820F480203060B6
:10226000FFF71CF9054600BF306880037FF59DAE7F
:10227000FFF714F9401B64284FF00300F4D9CCE6B3
:10228000306840F480203060306840F48030306046
:10229000FFF704F9054600BF306880033FF585AEBF
:1022A000FFF7FCF8401B6428F6D9032002B0BDE814
:1022B000F08100BF206AB0F5803F05D17168A26847
:1022C00021F40031114371607168626A21F4741164
:1022D00010430843706001203866FFF7DFF80446BA
:1022E000306880013FF598AEFFF7D8F8001B022850
:1022F0004FF00300F4D990E6411E0020B0EB116FBF
:102300001CBF012070474EF21002CEF20002516055
:102310004EF62351CEF20001F0230B70072190609E
:1023200011607047704700007047000010B590F8CA
:102330003C20012A4FF0020233D080F83D20026891
:10234000D2F804E0D2F808C00C682EF070032343E2
:1023500040F2FF74C4F20004A24253600ADCB2F1FE
:10236000804F13D040F20043C4F200039A420DD0D4
:1023700011E000BF42F60043C4F201039A4205D0C7
:1023800040F60003C4F200039A4204D149682CF0DD
:102390008003194391600121002280F83D1080F8EC
:1023A0003C20104610BD0000002804BF01207047EB
:1023B00010B5044690F83D0028B9002084F83C0090
:1023C000204600F06FF8022084F83D00206840F2BB
:1023D000FF730268C4F2000342F6004C9842C4F254
:1023E000010C15DCB0F1804F1AD040F20041C4F26C
:1023F0000001884214D0984218DCB0F1804F1DD003
:1024000040F20041C4F20001884217D01AE000BF38
:10241000604505D040F60001C4F200018842EAD1CF
:10242000A16822F070020A439842E6DD604505D0BB
:1024300040F60001C4F20001884203D1216922F470
:1024400040720A43A36922F08001D4F804E0E268F4
:10245000194360450160C262C0F828E002D1616999
:10246000CCF83010012141610269D20703D0026922
:1024700022F001020261002084F8461084F83E1028
:1024800084F83F1084F8401084F8411084F842101A
:1024900084F8431084F8441084F8451084F83D1003
:1024A00010BD000081B00068B0F1804F02D001B0D3
:1024B000704700BF41F21C00C4F20200016841F005
:1024C00001010160006800F001000090009801B077
:1024D0007047000090F83D1001291CBF0120704793
:1024E000022180F83D10006840F2FF72C168C4F21A
:1024F0000002904241F00101C16009DCB0F1804F5F
:1025000012D040F20041C4F2000188420CD012E027
:1025100042F60041C4F20101884205D040F60001B4
:10252000C4F20001884206D1816801F00701062942
:1025300004BF00207047016841F0010101600020E4
:102540007047000080B590F83C20012A4FF002024D
:1025500000F0C28080F83D20D0F800C04FF67772BE
:10256000DCF8083023EA0202CCF808200B684F2B75
:1025700028DC1F2B44DD202B45D0302B43D0402BB3
:1025800040F0AC80D1F804E0C968DCF82030DCF819
:10259000202022F00102CCF82020DCF8182022F0C4
:1025A000F00242EA011123F00A0242EA0E02CCF8DC
:1025B0001810CCF82020DCF8081041F0470121F079
:1025C000300180E06F2B27DDB3F5005F48D0B3F515
:1025D000805F7AD0702B40F08180D1E901E3C96837
:1025E000DCF8082043EA0E0322F47F4243EA01218B
:1025F0001143CCF80810DCF8081041F0770162E0D4
:102600000BB1102B6AD1DCF8081021F070011943CE
:1026100041F0070157E000BF502B35D0602B5DD152
:10262000D1F804E0C968DCF82030DCF8202022F082
:102630001002CCF82020DCF8182022F4704242EA84
:10264000013123F0A00242EA0E12CCF81810CCF8A7
:102650002020DCF8081041F0670121F0100132E081
:10266000D1E901E3C968DCF8082043EA0E0322F44B
:102670007F4243EA01211143CCF80810DCF808102E
:1026800041F480411FE000BFD1F804E0C968DCF8E4
:102690002030DCF8202022F00102CCF82020DCF8E9
:1026A000182022F0F00242EA011123F00A0242EA65
:1026B0000E02CCF81810CCF82020DCF8081041F0FD
:1026C000570121F02001CCF808100022012180F8E8
:1026D0003D10002180F83C10104680BD0122F5E736
:1026E0007047000070B504460068C5680669B10708
:1026F00016D515F0020113D06FF00201016101211E
:1027000021778069800703D02046FFF7E9FF05E0C5
:10271000204600F08FF8204600F08EF80020207749
:10272000700719D515F0040016D020686FF0040169
:10273000016102212177806910F4407F04D0204696
:10274000FFF7CEFF06E000BF204600F073F82046FA
:1027500000F072F800202077300717D515F0080038
:1027600014D020686FF00801016104212177C0694D
:10277000800703D02046FFF7B3FF05E0204600F0B6
:1027800059F8204600F058F800202077F00619D5B7
:1027900015F0100016D020686FF0100101610821BB
:1027A0002177C06910F4407F04D02046FFF798FFDE
:1027B00006E000BF204600F03DF8204600F03CF85F
:1027C00000202077F00718BF15F0010002D1300675
:1027D00009D412E020686FF001010161204600F089
:1027E0002DF8300609D515F0800006D020686FF06E
:1027F000800101612046FFF795FD700609D515F0AF
:10280000400006D020686FF040010161204600F0D2
:102810002FF8B00658BF70BD15F0200008D0216811
:102820006FF0200220460A61BDE87040FFF77CBDD2
:1028300070BD0000704700007047000010B50068D0
:10284000B0F1804F18BF10BD40F29460C2F200009A
:10285000016840F2C4144A6AC2F2000462610022B4
:102860004A62FFF737FE20690130206110BD000089
:1028700070470000FEE7000070B50368044653F897
:10288000140F400711D40E46481C29D086BB00BF48
:102890001868400527D4FEF701FE236853F8140F8B
:1028A000400739D518684007F2D5002070BD00BF39
:1028B00018684007F9D41868400514D41868400710
:1028C000F3D4186840050ED418684007EDD4186892
:1028D000400508D4186840074FF0000048BF70BD9D
:1028E00018684005E4D56FF480601860042014E097
:1028F000154603E053F8140F4007D6D41868400576
:10290000F1D4FEF7CBFD401B2368B042F2D95869E1
:102910004007EFD4202000E0202000212022216366
:1029200084F83D2084F83E10226C1043206401207E
:1029300084F83C1070BD00002DE9F04105460068A8
:102940001E46144601F47F0201338FB242D0DDF8F7
:102950001880B2F5803F40F0878040693840C01B46
:10296000B0FA80F04009A04240F0C8804EB924E09F
:1029700040693840C01BB0FA80F04009A04240F0E6
:10298000BD80FEF78BFDA0EB08012868B142EFD9AE
:1029900041693940C91BB1FA81F14909A142E7D126
:1029A0009BE000BF40693840C01BB0FA80F040098E
:1029B000A0424FF0000040F0A680FEF76FFD2868AF
:1029C00041693940C91BB1FA81F14909A142E9D1F4
:1029D00083E000BFB2F5803F24D100BF4169394098
:1029E000C91BB1FA81F14909A14240F087804169D0
:1029F0003940C91BB1FA81F14909A14240F07E80FA
:102A000041693940C91BB1FA81F14909A14275D127
:102A100041693940C91BB1FA81F14909A142DDD0B0
:102A20006CE000BF81693940C91BB1FA81F14909E5
:102A3000A14263D181693940C91BB1FA81F14909C9
:102A4000A1425BD181693940C91BB1FA81F14909C1
:102A5000A14253D181693940C91BB1FA81F14909B9
:102A6000A142DFD04AE000BF80693840C01BB0FA05
:102A700080F04009A04241D146B923E08069384046
:102A8000C01BB0FA80F04009A0423BD1FEF706FD22
:102A9000A0EB08012868B142F0D981693940C91B0F
:102AA000B1FA81F14909A142E8D116E080693840C4
:102AB000C01BB0FA80F04009A0424FF0000018BFE0
:102AC000BDE8F081FEF7EAFC286881693940C91B3E
:102AD000B1FA81F14909A142E8D1002020212863FF
:102AE00085F83D1085F83E00296C41F020012964ED
:102AF00085F83C000120BDE8F08100BF0020BDE862
:102B0000F08100BF0020BDE8F0810000F0B581B089
:102B1000044600681D4643698FB203EA0701B942C3
:102B200002D1002001B0F0BD41691646013201F426
:102B3000806125D0002940D1CEB100BFFEF7AEFCA8
:102B4000411B2068B14203D941693940B9424BD198
:102B500041693940B942E4D041694905EED52CE0DC
:102B600041693940B942DCD04169490525D4FEF7B5
:102B700095FC206841693940B942F1D0202024E019
:102B8000D9B941693940B942CBD04169490514D41A
:102B900041693940B942C4D0416949050DD4416900
:102BA0003940B942BDD04169490506D4416939402F
:102BB000B942B6D041694905E3D5016841F40071D5
:102BC00001606FF4806141610420002120222163B3
:102BD00084F83D2084F83E10226C1043206484F871
:102BE0003C10012001B0F0BD2020EEE770B5036875
:102BF000044653F8140F000611D40E46481C29D081
:102C000086BB00BF1868400527D4FEF747FC236841
:102C100053F8140F000639D518680006F2D50020C5
:102C200070BD00BF18680006F9D41868400514D4B8
:102C300018680006F3D4186840050ED4186800061A
:102C4000EDD41868400508D4186800064FF000005D
:102C500048BF70BD18684005E4D56FF48060186007
:102C6000042014E0154603E053F8140F0006D6D4F0
:102C700018684005F1D4FEF711FC401B2368B042F0
:102C8000F2D958690006EFD4202000E0202000216E
:102C90002022216384F83D2084F83E10226C1043EA
:102CA0002064012084F83C1070BD000080B540F223
:102CB000940040F2CC01C2F20000C2F200010422F2
:102CC000FEF7D2F840F28800C2F20000FEF706FFDD
:102CD00000F0AEF940F29460C2F2000001680022F8
:102CE0004A6240F2C411C2F200010A61BDE88040AC
:102CF000FFF7F0BBFEE70000FEE7000070470000B2
:102D000080B540F2FC10C2F200004FF48061FDF784
:102D10004CFBBDE8804000F075BA000040F2C402F0
:102D2000C2F2000250809180704700002DE9F0410E
:102D300082B040F24060C2F200007821012244F6E5
:102D40002063FEF76DFC4FF0000418B1204602B07E
:102D5000BDE8F08140F240654FF42E40C2F200051C
:102D6000ADF806000A260DF1060228467821022356
:102D70000096FEF75DFD4FF400580DF1060228465F
:102D800078210223ADF806800096FEF751FD4FF43E
:102D900080570DF10602284678210223ADF806700F
:102DA0000096FEF745FD4FF43040ADF806000DF1FA
:102DB00006022846782102230096FEF739FD0DF120
:102DC0000602284678210223ADF806400096FEF759
:102DD0002FFD0DF10602284678210223ADF806707A
:102DE0000096FEF725FD4FF48040ADF806000DF18A
:102DF00006022846782102230096FEF719FD4FF4BB
:102E00004040ADF806000DF1060228467821022365
:102E10000096FEF70DFD4FF42040ADF806000DF1D1
:102E200006022846782102230096FEF701FD4FF4A2
:102E30000140ADF806000DF1060228467821022374
:102E40000096FEF7F5FC4FF47F40ADF806000DF15B
:102E500006022846782102230096FEF7E9FC4FF48B
:102E60002640ADF806000DF106022846782102231F
:102E70000096FEF7DDFC4FF42840ADF806000DF19A
:102E800006022846782102230096FEF7D1FC4FF473
:102E90007C50ADF806000DF1060228467821022389
:102EA0000096FEF7C5FC4FF42440ADF806000DF186
:102EB00006022846782102230096FEF7B9FC4FF45B
:102EC0005340ADF806000DF1060228467821022392
:102ED0000096FEF7ADFC0DF106022846782102238C
:102EE000ADF806400096FEF7A3FC4FF45540ADF850
:102EF00006000DF106022846782102230096FEF70F
:102F000097FC4FF47040ADF806000DF1060228461C
:102F1000782102230096FEF78BFC4FF45940ADF860
:102F200006000DF106022846782102230096FEF7DE
:102F30007FFC4FF40850ADF806000DF1060228465C
:102F4000782102230096FEF773FC4FF45A40ADF847
:102F500006000DF106022846782102230096FEF7AE
:102F600067FC4FF49050ADF806000DF106022846BC
:102F7000782102230096FEF75BFC4FF45B40ADF82E
:102F800006000DF106022846782102230096FEF77E
:102F90004FFC0DF10602284678210223ADF8068089
:102FA0000096FEF745FC4FF40D40ADF806000DF11C
:102FB00006022846782102230096FEF739FC4FF4DA
:102FC000A050ADF806000DF1060228467821022334
:102FD0000096FEF72DFC4FF42F40ADF806000DF1E2
:102FE00006022846782102230096FEF721FC4FF4C2
:102FF0003850ADF806000DF106022846782102236C
:103000000096FEF715FC40F2FC10C2F200004FF4EF
:103010008061FDF7CAF900F0F5F840F2C400C2F291
:103020000000C0F802400124204602B0BDE8F08153
:1030300010B5FFF77BFEFFF763FE00200521FFF7C9
:103040006DFE40F21004C2F2000418A021460122D5
:1030500000F0C0F800202021FFF760FE15A02146F7
:10306000012200F0B7F800F0CDF84FF47A70FEF7C7
:10307000E9F8FFF745FE00200521FFF74FFE0FA0FE
:103080002146012200F0A6F800202021FFF746FE8D
:103090000DA02146012200F09DF800F0B3F84FF496
:1030A0007A70BDE81040FEF7CDB800BF47415349E4
:1030B0004F4E00004149525445430000204861767C
:1030C00065206120000000006E696365646179001D
:1030D0002DE9F04F87B040F2C403C2F20003B3F809
:1030E00002A00E7806EB0A077F2F05D89F884D783F
:1030F00003972F443F2F03D9002007B0BDE8F08F7E
:103100001B78B2FA82F77F09002B05971CBF3A465D
:103110000123002D0693009050D0013A2038B2FAD6
:1031200082F240F2FC190190002750093346C2F2A6
:103130000009049004E000BF00230137AF423DD2F4
:10314000002BF9D00398C21994B23F2CF5D80198FE
:103150004C6805FB0070012334F8108002F0070072
:1031600003FA00F54FF68070C0F20F00029700EAF4
:10317000021EE843002703E00E780137B74219D258
:103180000AEB0706B6B27F2EF6D8764408FA07F3A4
:1031900019F806B01B04049B0BEA000CDDE90524BA
:1031A00058BF82EA0403002B18BF4BEA050C09F84C
:1031B00006C0E1E74D78029F3346BEE7F0B240F229
:1031C000C4015044C2F2000148805DF81C0BBDE808
:1031D000F08F000070B503787BB114460D46461C95
:1031E000D8B229462246FFF773FF16F8011C884221
:1031F00006D116F8013B002BF2D1002070BD00BFB4
:10320000084670BD2DE9F04FC1B00DF1040B40F23E
:1032100040660BF101094FF000086FF07F050A24AA
:10322000C2F200064FF0000A40F2FC10C2F20000A9
:10323000284400F18007AAF150008DF805003046BF
:1032400078215A4602238DF804800094FEF7F0FAA4
:10325000304678215A460223ADF804800094FEF7E8
:10326000E7FA4FF48050ADF80400304678215A4612
:1032700002230094FEF7DCFA40208DF80400484653
:1032800039468022FDF74CF8304678215A46812392
:103290000094FEF7CDFA8035B5F5607F0AF1010A9A
:1032A000C2D141B0BDE8F08F7047000080B500F09A
:1032B00007F8BDE88040FEF717BC0000704700002B
:1032C00040F2C410C2F200000168D0E902230131CB
:1032D0000160511C816040F29461C2F200015A1CED
:1032E0000968C260496A4161FDF7C2BA40F2946060
:1032F000C2F20000FFF7F6B9FEE7000080B541F228
:103300000000C4F201004FF40051FEF7B9F832207A
:10331000FDF798FF40F2C410C2F20000416801318D
:10332000416040F28800C2F20000FEF7D7FBBDE822
:103330008040FDF7B3BB000094B0FEF7E3FB0A202A
:103340000A90012010210E90CDE90F104FF40020BB
:103350000024022513900AA80D94CDE90B44039490
:10336000CDE90144CDE91154FEF7ECFD20B1EFF3B6
:10337000108072B6FEE700BF0F20CDE904054FF4C0
:103380008060CDE9070404A800210694FEF7E6FC5E
:1033900020B1EFF3108072B6FEE700BF4FF00209D4
:1033A00000276846CDF800900297FEF751FC28B13F
:1033B000EFF3108072B600BFFEE700BF41F21804C1
:1033C000C4F20204206840F6004840F0100020607B
:1033D0002068C4F2010800F010000A900A982068E2
:1033E00008F5806540F00400206020684FF400512B
:1033F00000F004000A900A982068002240F00800BB
:10340000206020684FF4005600F008000A900A98E7
:103410002846FEF73DF840464FF4404100224FF465
:10342000404BFEF735F80A960AAE4FF0010A2846DF
:103430003146CDE90BA7CDF83490FDF717FF4FF4D7
:103440004050CDE90A07404631460C97FDF70EFF84
:1034500040463146CDE90ABACDE90C79FDF706FFC1
:1034600054F8040C40F2880540F0010044F8040CC4
:1034700054F8040CC2F2000500F001000A900A980A
:1034800008F5C051284640F80C1F4FF480714FF4E6
:103490006022C0E90171042107730775C2610161EF
:1034A000FDF7E6FB20B1EFF3108072B6FEE700BF38
:1034B000062005F10C0602240C900AA93046CDE93D
:1034C0000A4AFDF705FB28B1EFF3108072B600BF82
:1034D000FEE700BF03270AA93046CDE90A74FDF7CD
:1034E000F7FA28B1EFF3108072B600BFFEE700BF15
:1034F00004240AA93046CDE90A47FDF7E9FA28B1C4
:10350000EFF3108072B600BFFEE700BF0520CDE9E3
:103510000A040AA93046FDF7DBFA28B1EFF3108060
:1035200072B600BFFEE700BF40F294600021C2F215
:1035300000004FF0804243F67F6341F26F770D91B8
:10354000CDE90B11CDE90411C0E90023C0E9021750
:1035500001618161FEF728FF20B1EFF3108072B6A0
:10356000FEE700BF4FF480500A9040F29460C2F230
:1035700000000AA9FEF7E6FF20B1EFF3108072B653
:10358000FEE700BF40F29460C2F2000004A9FEF71B
:10359000CDFE18B1EFF3108072B6FEE7A8F55C40DF
:1035A000062140F6FF7285E807002846FEF768FA14
:1035B00020B1EFF3108072B6FEE700BF40F240602A
:1035C000A8F53841C2F2000041F6802200234FF4F2
:1035D0008047C0F2060280E80E00C0E90337C0E968
:1035E0000533C0E90733FDF75FFF18B1EFF3108033
:1035F00072B6FEE70B2005210022FEF7EDFA0B2044
:10360000FEF7DAFA1C2002210022FEF7E5FA1C2060
:10361000FEF7D2FAFFF74AFBFFF770FEFCE7000067
:1036200021F0004201F00043A2F16052B2F5801F88
:1036300028BFD2F17F6C0BD95FEA001C43EAC202BB
:1036400042EB507018BF704728BF20F00100704750
:10365000B2F5801FBCBF184670474FEA410C1CF5FD
:10366000001F02D2084600F044BA70B500F077F9A6
:1036700000000089FFF7F6BF4FF00040A0F5800082
:10368000704700002DE9C04130B4DFF8A4C23CEA25
:10369000111418BF3CEA131400F0ED801CEA111459
:1036A00081EA030544EAD57418BF1CEA131500F03B
:1036B000C880A4EB050404F17F7404F500344FF0D6
:1036C000004545EAC12145EAC32341EA505143EA96
:1036D00052534FEAC0204FEAC222994208BF90429B
:1036E00000F09D804FEA13650FF24416765D4FEAB5
:1036F000134506FB05F7C7F1807706FB07F74FEA8E
:10370000D737A7FB03687642A7FB06CEC8F58038FB
:1037100038BFA8F1010807FB08E6A6FB028C4FF0B2
:10372000000EE6FB03CEDCF1000CCEF1004E38BFFC
:10373000AEF1010EA6FB0C584FF00007E6FB0E871A
:10374000A1FB08C6A0FB07CE16EB0E064FF0000546
:1037500045F10005E1FB076515F1E04E7EBFA4F5DC
:1037600080345FEA46066D4116F1800745F1000599
:103770004FEA172747EA05674FEA15254FEA06661D
:10378000A6F1DE46B6F1805F20D9384605EBC4715C
:1037900024F0010C01EB0C11BCF1FE6F02D8F0BC5F
:1037A000BDE8008124425CBF01F5801E9EEAC47F13
:1037B00002D4F0BCBDE80081244200F13980A1F1BF
:1037C000C041F0BCBDE8004100F017B94FEAD0207D
:1037D00040EA41504FEAD1214FEAD22242EA435215
:1037E0004FEAD323A7FB028607FB036605FB0266AD
:1037F0001EEA0E0F58BFA6EB0056B6EB00564FEA76
:10380000520E4EEAC37E18EB0E0E56EB530EBCD58D
:1038100018EB02085E417F1C55F10005B5E74FF437
:1038200080154FF000074FF000064FF00008ACE79E
:1038300001F1C04101F000414FF00000F0BCBDE8D3
:1038400000810CEA131511EA0C1F00D00CE013EAFA
:103850000C1F00F026804FF0000081EA030101F008
:103860000041F0BCBDE80081F0BCBDE8004181EA48
:10387000030100F0C2B8F0BCBDE8004170B500F033
:103880006EF800BF097EFC3E00F007B84FF0000064
:1038900081EA030101F00041704781EA030100F071
:1038A000ACB8F0BCBDE8004122494FF000007047C1
:1038B000FFFDFBF9F7F5F4F2F0EEEDEBE9E8E6E4F5
:1038C000E3E1E0DEDDDBDAD8D7D5D4D3D1D0CFCD7C
:1038D000CCCBCAC8C7C6C5C4C2C1C0BFBEBDBCBBB5
:1038E000BAB9B8B7B6B5B4B3B2B1B0AFAEADACABB0
:1038F000AAA9A8A8A7A6A5A4A3A3A2A1A09F9F9E8A
:103900009D9C9C9B9A99999897979695959493933B
:10391000929191908F8F8E8E8D8C8C8B8B8A8989D2
:103920008888878786858584848383828281818055
:103930000000FF070000F87FB0FA80F310FA03F1EF
:103940000AD0C3F11D0303F580634FEA03524FEA27
:10395000415002EBD12170474FF0000070470EF14B
:10396000020E2EF0030E5EF8046B364205D4012AD7
:1039700043EB030515F5001F12D8012841EB010C9C
:103980001CF5001F0CD80ED14FEAD17C0CEB4C0C6F
:103990000CF1020C15F5001F08BF4CEBD37C04E0C2
:1039A0004FF0080C01E04FEAD37C0CEB4C0526FAF3
:1039B00005F606F00706B6F1040C06D20EEB860CEF
:1039C000BDE870404CF0010C6047DFE80CF0090BDB
:1039D00002024FF00041A1F500214FF0000070BD40
:1039E00019461046012851EB010418BFD4F5001404
:1039F00084BF002001F0004170BD0808A0F500114F
:103A00004FEA31017047000041000B0ED3F19E02D6
:103A100008D950F400034FEA032323FA02F048BF09
:103A20004042704710B500F01EF800BF4992248054
:103A3000002070476FF0004282EA200070470000CB
:103A4000B0FA80F310FA03F2C3F19D030AD0D9054E
:103A500001EB1220530638BF704700F1010008BF88
:103A600020F0010070470EF1020E2EF0030E5EF8FA
:103A7000044B244204D44FEA4102B2F17F4F11D8E3
:103A80004FEA4003B3F17F4F0CD80ED14FEAD07C00
:103A90000CEB4C0C0CF1020CB2F17F4F08BF4CEB5D
:103AA000D17C04E04FF0080C01E04FEAD17C0CEB34
:103AB0004C0324FA03F404F00704B4F1040C06D216
:103AC0000EEB840CBDE810404CF0010C6047DFE8C1
:103AD0000CF0070802024FF00040A0F5800010BD76
:103AE0000846420018BFD2F1807288BF00F0004043
:103AF00010BDFF2141EAD050C00570470000000012
:103B0000000000000102030406070809000000008D
:103B1000010203040000000000000000000000009B
:103B20000000000000000000000000000000000095
:103B300000000000000000000000000C000C000C61
:103B4000000C000C000C000C000C000C000C000C15
:103B50000000000C000C0000000000000000001B32
:103B6000001B001B001B001B0000000000000000E9
:103B70000000000000000000000000000000000045
:103B800000008019801980198019C07FC07F8019BA
:103B90000033C07FC07F00330033003300330000A8
:103BA000000000000000001E003F8075806500746A
:103BB000003C001E00078005806580658075003F21
:103BC000001E0004000400000000007000D840D86F
:103BD000C0D880D900730006000C801BC036C066B8
:103BE000C046C00680030000000000000000001E68
:103BF000003F003300330033001E000CC03CC066A1
:103C0000806380618063C03E801C00000000000073
:103C10000000000C000C000C000C000C0000000068
:103C20000000000000000000000000000000000094
:103C300000000000800000010003000600060004F0
:103C4000000C000C000C000C000C000C0004000622
:103C50000006000300018000002000100018000C86
:103C6000000C000400060006000600060006000620
:103C70000004000C000C0018001000200000000CD4
:103C8000002D003F001E0033000000000000000077
:103C90000000000000000000000000000000000024
:103CA000000000000000000C000C000C000CC0FF25
:103CB000C0FF000C000C000C000C00000000000015
:103CC00000000000000000000000000000000000F4
:103CD0000000000000000000000000000000000CD8
:103CE000000C0004000400080000000000000000B8
:103CF00000000000000000000000001E001E000088
:103D000000000000000000000000000000000000B3
:103D100000000000000000000000000000000000A3
:103D2000000000000000000C000C0000000000007B
:103D30000000000300030003000600060006000662
:103D4000000C000C000C000C0018001800180000FB
:103D5000000000000000001E003F00338061806111
:103D60008061806D806D8061806180610033003F83
:103D7000001E00000000000000000006000E001EF3
:103D800000360026000600060006000600060006B3
:103D90000006000600060000000000000000001EF3
:103DA000003F807380618061800100030006000C89
:103DB000001800300060807F807F0000000000005D
:103DC0000000001C003E006300630003000E000EB4
:103DD00000038001800180618073003F001E0000AD
:103DE0000000000000000006000E000E001E001E75
:103DF0000016003600360066807F807F00060006D1
:103E000000060000000000000000007F007F00604E
:103E100000600060006E007F80638001800180612F
:103E20008073003F001E0000000000000000001E24
:103E3000003F803380610060006E007F807380618E
:103E4000806180618033003F001E000000000000A0
:103E50000000807F807F80010003000300060006D1
:103E6000000C000C000C00080018001800180000DE
:103E7000000000000000001E003F80638061806140
:103E80000021001E003F8061806180618061003FF1
:103E9000001E0000000000000000001E003F007334
:103EA0008061806180618073803F801D80018061BE
:103EB0000073003F001E0000000000000000000032
:103EC000000000000000000C000C000000000000DA
:103ED000000000000000000C000C000000000000CA
:103EE000000000000000000000000000000C000CBA
:103EF00000000000000000000000000C000C0004A6
:103F000000040008000000000000000080008003A2
:103F1000000E003800600038000E800380000000B2
:103F20000000000000000000000000000000000091
:103F30000000807F807F00000000807F807F000085
:103F40000000000000000000000000000000000071
:103F50000000000000400070001C00078001000706
:103F6000001C007000400000000000000000000085
:103F70000000001F803FC071C060C000C00180030E
:103F80000007000E000C000C0000000C000C0000EC
:103F9000000000000000001E003F8031807180633F
:103FA000806F806D806D806F806700600032003EA2
:103FB000001C0000000000000000000E000E001BAE
:103FC000001B001B001B80318031803F803F80310F
:103FD000C060C060C0600000000000000000007C05
:103FE000007E0063006300630063007E007E006368
:103FF000806180618063007F007E0000000000001F
:104000000000001E003F80318061006000600060A1
:1040100000600060006080618031003F001E000091
:10402000000000000000007C007F0063806380616E
:104030008061806180618061806100630063007ED7
:10404000007C0000000000000000807F807F006096
:10405000006000600060007F007F00600060006022
:104060000060807F807F0000000000000000807FF3
:10407000807F0060006000600060007F007F006063
:104080000060006000600060006000000000000050
:104090000000001E003F8031806100600060006011
:1040A00080638063806180618031803F001E0000FA
:1040B000000000000000806180618061806180619B
:1040C0008061807F807F80618061806180618061AC
:1040D00080610000000000000000003F003F000C75
:1040E000000C000C000C000C000C000C000C000C70
:1040F000000C003F003F00000000000000008001B5
:1041000080018001800180018001800180018001A7
:10411000806180618073003F001E0000000000008D
:104120000000C0608061006300660066006C00787B
:10413000007C00660066006380618061C0600000F2
:10414000000000000000006000600060006000608F
:104150000060006000600060006000600060807FC0
:10416000807F0000000000000000C071C071C07BB3
:10417000C07AC06AC06AC06EC064C060C060C060FF
:10418000C060C060C06000000000000000008071DE
:104190008071807980798079806D806D806D806597
:1041A0008067806780678063806300000000000094
:1041B0000000001E003F00338061806180618061EB
:1041C00080618061806180610033003F001E0000DB
:1041D000000000000000007E007F8063806180613D
:1041E00080618063007F007E00600060006000608E
:1041F00000600000000000000000001E003F0033CF
:10420000806180618061806180618061806580679C
:104210000033803F401E0000000000000000007ED0
:10422000007F8063806180618063007F007E006624
:104230000063006380618061C060000000000000D6
:104240000000000E001F8031803100300038001E59
:1042500000078003806180618031003F001E000004
:10426000000000000000C0FFC0FF000C000C000CAC
:10427000000C000C000C000C000C000C000C000CDE
:10428000000C00000000000000008061806180617F
:104290008061806180618061806180618061806116
:1042A0008073003F001E0000000000000000C0609E
:1042B000C060C060803180318031001B001B001B5A
:1042C000001B000E000E000E0004000000000000A5
:1042D0000000C0C0C0C0C0C0C0C0C0C0C0CC804C06
:1042E000804C805E805280528073806180610000CB
:1042F000000000000000C0C0806080610033003B0F
:10430000001E000C000C001E001F003B807180612D
:10431000C0C00000000000000000C0C080618061DB
:1043200000330033001E001E000C000C000C000CBB
:10433000000C000C000C0000000000000000803F9A
:10434000803F8001000300030006000C000C0018F1
:10435000001800300060807F807F000000000000B7
:10436000000F000F000C000C000C000C000C000CE7
:10437000000C000C000C000C000C000C000C000CDD
:10438000000F000F0000001800180018000C000CAF
:10439000000C000C000600060006000600030003E7
:1043A0000003000000000000001E001E00060006C2
:1043B00000060006000600060006000600060006CD
:1043C0000006000600060006001E001E0000000C8D
:1043D000000C001E00120033003380618061000079
:1043E00000000000000000000000000000000000CD
:1043F00000000000000000000000000000000000BD
:1044000000000000000000000000000000000000AC
:10441000E0FF0000000000380018000C0000000061
:10442000000000000000000000000000000000008C
:10443000000000000000000000000000000000007C
:104440000000001F803F80618001801F803F8061ED
:104450008063807FC0380000000000000000006022
:10446000006000600060006E007F8073806180618A
:10447000806180618073007F006E0000000000009A
:1044800000000000000000000000001E003F8073DC
:1044900080610060006080618073003F001E00004A
:1044A0000000000000008001800180018001801D6B
:1044B000803F807380618061806180618073803F14
:1044C000801D00000000000000000000000000004F
:1044D0000000001E003F00738061807F807F0060CD
:1044E0008071003F001E0000000000000000C007B7
:1044F000C00F000C000C807F807F000C000C000CB3
:10450000000C000C000C000C000C0000000000006F
:104510000000000000000000801D803F807380616B
:104520008061806180618073803F801D8001806335
:10453000007F003E00000060006000600060006FCF
:10454000807F807180618061806180618061806135
:10455000806100000000000000000006000600006E
:104560000000003E003E00060006000600060006B1
:10457000000600060006000000000000000600061D
:1045800000000000003E003E000600060006000697
:10459000000600060006000600060046007E003CFD
:1045A00000000060006000600060806100630066E1
:1045B000006C007C0076006300638061C0600000D6
:1045C000000000000000003E003E0006000600065D
:1045D00000060006000600060006000600060006AB
:1045E00000060000000000000000000000000000C5
:1045F000000080DDC0FFC0CEC0CCC0CCC0CCC0CCE1
:10460000C0CCC0CCC0CC0000000000000000000006
:10461000000000000000006F807F80718061806179
:104620008061806180618061806100000000000025
:1046300000000000000000000000001E003F80732A
:1046400080618061806180618073003F001E000096
:10465000000000000000000000000000006E007F6D
:10466000807380618061806180618073007F006EF3
:1046700000600060006000600000000000000000BA
:10468000801D803F80738061806180618061807364
:10469000803F801D800180018001800100000000BA
:1046A0000000000000000067803F0039003000304B
:1046B000003000300030003000300000000000000A
:1046C00000000000000000000000001E803F80612C
:1046D0000060007F803F80018061007F001E00003D
:1046E0000000000000000000000800180018007F13
:1046F000007F001800180018001800180018801F0C
:10470000800F00000000000000000000000000001A
:104710000000806180618061806180618061806172
:104720008063807F803D00000000000000000000EA
:10473000000000000000C060803180318031001B2B
:10474000001B001B000E000E000600000000000011
:104750000000000000000000000080DD80DD80DD42
:104760000055005500550077007700220022000018
:104770000000000000000000000000000000806158
:1047800000330033001E000C000C001E0033003309
:104790008061000000000000000000000000000038
:1047A00080618061803100330033001B001B001BDF
:1047B000000E000E000E001C007C007000000000C7
:1047C000000000000000C07FC07F800100030006E1
:1047D000000C00180030C07FC07F00000000000007
:1047E0008003800700060006000600060006000E93
:1047F000001C001C000E0006000600060006000655
:10480000800780030006000600060006000600067A
:104810000006000600060006000600060006000668
:1048200000060006000600060038003C000C000CE4
:10483000000C000C000C000E00070007000E000C1E
:10484000000C000C000C000C003C003800000000C4
:10485000000000000000000000008038807F00475A
:104860000000000000000000000000000000000048
:104870000000000000000000000000000000000038
:104880000000000000000000000000000000000028
:104890000000000000000000000000000000000018
:1048A00000000000E003E003E003E003E003E003B6
:1048B000E003E003C003C003C001C001C001C001A8
:1048C000C001000000000000E003E003E00300007E
:1048D00000000000000000003C1E3C1E3C1E3C1E70
:1048E0003C1E3C1E3C1E00000000000000000000BA
:1048F00000000000000000000000000000000000B8
:10490000000000000000000000000000CE01CE0307
:10491000DE039E039C039C07FF3FFF7F3807380F91
:10492000780F780F780EFFFFFFFFF01EF01CE01CE1
:10493000E03CE03DE0390000000000000000000025
:10494000FC03FE0FEE1FE01EE01EE01EE01EE01F57
:10495000E00FE007F003FC01FE01FE01FE01FE0195
:10496000FE01FE01FE3DFC3FF00FE001E001000012
:1049700000000000033E07F78FE78EE79EE3BCE3ED
:10498000B8E7F8E7F0F7E03FC001FF03FF07F307E0
:10499000F30FF31EF33CF338F3787FF03FE00000B1
:1049A0000000000000000000E007F80F780F781FFB
:1049B000781F781F780FF00FE00F801FC37FC3FBB5
:1049C000E7F3F7F1F7F0FFF07FF03EF87F7CFF3F71
:1049D000EF1F00000000000000000000E003E00303
:1049E000E003E003E003C003C0010000000000009A
:1049F00000000000000000000000000000000000B7
:104A000000000000000000000000000000000000A6
:104A10003F007C00F001E001C003C0078007800771
:104A2000800F000F000F000F000F000F000F800F0E
:104A300080078007C007C003E001F0017C003F0051
:104A40000F000000007E001FC007C003E001F0015E
:104A5000F000F000F8007800780078007800780026
:104A60007800F800F000F000F001E001C003C0079A
:104A7000001F007E00780000E003C003C001CE39B3
:104A8000FF3F7F3F20037003F807780F3C1F380675
:104A90000000000000000000000000000000000016
:104AA0000000000000000000000000000000000006
:104AB0000000000000000000C001C001C001C001F2
:104AC000C001C001C001FFFFFFFFC001C001C00164
:104AD000C001C001C0010000000000000000000093
:104AE00000000000000000000000000000000000C6
:104AF00000000000000000000000000000000000B6
:104B00000000E003E003E003E003E001E001E00176
:104B1000C001800300000000000000000000000051
:104B200000000000000000000000FE3FFE3F00000B
:104B30000000000000000000000000000000000075
:104B40000000000000000000000000000000000065
:104B50000000000000000000000000000000000055
:104B600000000000000000000000E003E003E0039C
:104B7000E003000000000000000000000F000F0034
:104B80001E001E003C003C0078007800F000F000A1
:104B9000E001E001C003C00380078007000F000FA1
:104BA000001E001E003C003C0078007800F0000071
:104BB000F007F80F7C1F3E3E1E3C1F7C1F7C0F78C9
:104BC0000F780F780F780F780F780F781F7C1F7C85
:104BD0001E3C3E3E7C1FF80FF00700000000000066
:104BE00000000000F000F007F03FF03FF001F0019E
:104BF000F001F001F001F001F001F001F001F0012D
:104C0000F001F001F001F001F001FF3FFF3F000073
:104C10000000000000000000E00FF83F7C3C3C007A
:104C20003E003E003E003C003C007C00F800F001ED
:104C3000E003C0078007000F001E003E003CFE3F5F
:104C4000FE3F00000000000000000000F00FF81F11
:104C50007C1C3E003E003E003C003C00F800F00F93
:104C6000F80F7C003E001E001E001E001E003E00CD
:104C70007C1CF81FE01F0000000000000000000086
:104C80007800F800F800F801F803F807F807780F43
:104C9000781E781E783C78787878FFFFFFFF7800E0
:104CA00078007800780078007800000000000000AC
:104CB00000000000FC1FFC1FFC1F001E001E001E49
:104CC000001E001EE01FF81FFC007C003E003E009E
:104CD0001E003E003E003C007C1CF81FE01F000050
:104CE0000000000000000000FC01FE078E0F001F06
:104CF000001E003E003C003CF83DFC3F3E7F1F7E16
:104D00000F3C0F3C0F3C0F3C0F3E1F1E3E1FFC0F85
:104D1000F00300000000000000000000FF3FFF3F24
:104D2000FF3F0F001E001E003C0038007800F0001E
:104D3000F000E001E001C003C0038007800F800F96
:104D4000000F001F001F0000000000000000000016
:104D5000F807FC0F3E1F1E1E1E3E1E3E1E1E3C1F61
:104D6000F80FF007F80FFC1E3E3E1F3C1F7C0F7C27
:104D70000F7C1F3C3E3FFC1FF007000000000000BE
:104D800000000000F007F80F7C1E3E3C1E3C1F7C1C
:104D90001F7C1F7C1F7C1F3C3F3EFF1FEF071F0037
:104DA0001E001E003E003C00F838F03FE01F0000EF
:104DB00000000000000000000000000000000000F3
:104DC00000000000E003E003E003E0030000000057
:104DD00000000000000000000000E003E003E0032A
:104DE000E0030000000000000000000000000000E0
:104DF0000000000000000000E003E003E003E00327
:104E00000000000000000000000000000000E003BF
:104E1000E003E003E003E001E001E001C003800300
:104E200000000000000000000000000003000F0070
:104E30003F00FC00F003C00F003F00FE003FC00F2A
:104E4000F003FC003F000F00030000000000000022
:104E50000000000000000000000000000000000052
:104E60000000000000000000FFFFFFFF0000000046
:104E70000000FFFFFFFF0000000000000000000036
:104E80000000000000000000000000000000000022
:104E90000000000000E000F8007E801FE007F8013D
:104EA0007E001F007E00F801E007801F007E00F8F2
:104EB00000E000000000000000000000F01FFC3FC8
:104EC0003E381F381F381E001E003C007800F000DE
:104ED000E001C003C003C007C007000000000000DD
:104EE000C007C007C007000000000000000000006D
:104EF000F803FE0F1E1F0F3E7F3CFF78EF79C7734C
:104F0000C7F38FF38FF38FF39FF39FF3FF73FF7B51
:104F1000F779003C1C1FFC0FF803000000000000A4
:104F200000000000000000000000E003E003F007C4
:104F3000F007F007780F780F7C0E3C1E3C1E3E3CBD
:104F4000FE3FFF3F1F780F780FF007F007F00000DB
:104F50000000000000000000000000000000F83F1A
:104F6000FC3F3E3C1E3C1E3C1E3C3E3C7C3CF03F1D
:104F7000F83F7E3C1F3C1F3C0F3C0F3C1F3CFE3F5C
:104F8000F83F0000000000000000000000000000EA
:104F90000000FF01FF07871F003E003C007C0078F7
:104FA0000078007800780078007C007C003E003FAC
:104FB000831FFF07FF010000000000000000000049
:104FC000000000000000F07FFC7F7E781F781F78D3
:104FD0000F780F780F780F780F780F780F780F7899
:104FE0001F781E787E78F87FE07F000000000000C8
:104FF00000000000000000000000FF3FFF3F003EF7
:10500000003E003E003E003E003EFE3FFE3F003EB2
:10501000003E003E003E003E003EFF3FFF3F0000DE
:105020000000000000000000000000000000FF1F62
:10503000FF1F001E001E001E001E001E001EFF1F80
:10504000FF1F001E001E001E001E001E001E001E70
:10505000001E000000000000000000000000000032
:105060000000FE03FF0F871F003E007C007C0078DD
:1050700000F800F87FF87FF80F780F7C0F7C0F3E68
:105080008F1FFF0FFE030000000000000000000063
:105090000000000000001F7C1F7C1F7C1F7C1F7C09
:1050A0001F7C1F7C1F7CFF7FFF7F1F7C1F7C1F7C62
:1050B0001F7C1F7C1F7C1F7C1F7C000000000000E9
:1050C00000000000000000000000FF3FFF3FE00381
:1050D000E003E003E003E003E003E003E003E003B8
:1050E000E003E003E003E003E003FF3FFF3F0000D5
:1050F0000000000000000000000000000000FC1F95
:10510000FC1F7C007C007C007C007C007C007C0020
:105110007C007C007C007C0078007800F838F03F50
:10512000C03F000000000000000000000000000080
:1051300000001F3C1E3C3C3C783CF03CE03DE03F26
:10514000C03F803FC03FE03FF03DF03C783C7C3CBE
:105150003E3C1F3C0F3C000000000000000000002F
:10516000000000000000003E003E003E003E003E09
:10517000003E003E003E003E003E003E003E003E3F
:10518000003E003E003EFF3FFF3F000000000000E9
:10519000000000000000000000001FF81FFC1FFCC2
:1051A0003FFE3FFE3FFE7FFF77FF77FFF7F7E7F712
:1051B000E7F3E7F3C7F307F007F007F007F00000A5
:1051C00000000000000000000000000000000F7C54
:1051D0000F7C0F7E0F7F0F7F8F7F8F7FCF7FEF7BC7
:1051E000EF79FF79FF78FF787F783F783F781F78F5
:1051F0001F78000000000000000000000000000018
:105200000000F007FC1F3E3E1F7C0F780F780FF860
:105210000FF80FF80FF80FF80FF80F780F781F7CC2
:105220003E3EFC1FF00700000000000000000000F0
:10523000000000000000FC3FFF3F1F3E0F3E0F3EFE
:105240000F3E0F3E1F3E3F3EFC3FF03F003E003E04
:10525000003E003E003E003E003E00000000000018
:1052600000000000000000000000F007FC1F3E3EB0
:105270001F7C0F780F780FF80FF80FF80FF80FF862
:105280000FF80F780F781F7C3E3EFC1FF8077C005C
:105290003F000F0003000000000000000000F03F8E
:1052A000FC3F7E3C3E3C1E3C1E3C3E3C3C3CFC3CB1
:1052B000F03FE03FF03DF83C7C3C3E3C1E3C1F3C58
:1052C0000F3C000000000000000000000000000093
:1052D0000000FC07FE1F0E3E003C003C003C003E70
:1052E000C01FF80FFE037F001F000F000F001F20DC
:1052F0003E3CFC3FF01F00000000000000000000EA
:10530000000000000000FFFFFFFFE003E003E003F8
:10531000E003E003E003E003E003E003E003E00375
:10532000E003E003E003E003E0030000000000000E
:10533000000000000000000000000F7C0F7C0F7CCC
:105340000F7C0F7C0F7C0F7C0F7C0F7C0F7C0F7C05
:105350000F7C0F7C1E3C1E3C3E3EFC1FF0070000F5
:10536000000000000000000000000000000007F046
:1053700007F007F80F780F7C1E3C1E3C1E3E3C1EBB
:105380003C1F781F780FF80FF007F007F007E003D5
:10539000E00300000000000000000000000000002A
:1053A000000003E003F003F007F0E7F3E7F3E7F3AF
:1053B000E773F77BF77FFF7F7F7F7F7F7E7F7E3F77
:1053C0003E3E3E3E3E3E0000000000000000000069
:1053D00000000000000007F80F7C1E3E3E3E3C1F10
:1053E000F80FF007E007E003E003F007F80F7C0F89
:1053F0007C1E3E3C1F780F780FF00000000000007C
:105400000000000000000000000007F807780F7C93
:105410001E3C1E3E3C1F780FF80FF007E003E00330
:10542000E003E003E003E003E003E003E003000047
:105430000000000000000000000000000000FF7FEE
:10544000FF7F0F001F003E007C00F800F000E0012D
:10545000E003C007800F000F001E003E007CFF7FAE
:10546000FF7F00000000000000000000FF07800731
:1054700080078007800780078007800780078007F4
:1054800080078007800780078007800780078007E4
:1054900080078007800780078007FF07FF0700005D
:1054A00000780078003C003C001E001E000F000F3A
:1054B00080078007C003C003E001E001F000F000B6
:1054C000780078003C003C001E001E000F000F001A
:1054D00007000000F07FF000F000F000F000F000A6
:1054E000F000F000F000F000F000F000F000F0003C
:1054F000F000F000F000F000F000F000F000F0002C
:10550000F000F07FF07F0000C000C001C001E003A8
:10551000E003F007F0077807780F380F3C1E3C1EB9
:105520001E3C1E3C0F380F7807780000000000007A
:10553000000000000000000000000000000000006B
:10554000000000000000000000000000000000005B
:10555000000000000000000000000000000000004B
:10556000000000000000FFFFFFFF0000000000003F
:10557000F00000000000000000000000000000003B
:10558000000000000000000000000000000000001B
:10559000000000000000000000000000000000000B
:1055A00000000000000000000000000000000000FB
:1055B000F80FFC3F7C3C3E003E003E00FE07FE1F15
:1055C0003E3E3E7C3E783E7C7E7CFF3FCF1F00000F
:1055D0000000000000000000003C003C003C003CDB
:1055E000003C003CF83DFE3F3E3F1F3E0F3C0F3C61
:1055F0000F3C0F3C0F3C0F3C1F3C1E3C3E3FFC3F12
:10560000F03B00000000000000000000000000006F
:105610000000000000000000FE03FF0F871F003E97
:10562000003E003C007C007C007C003C003E003ED4
:10563000871FFF0FFE0300000000000000000000B5
:105640001F001F001F001F001F001F00FF07FF1F7C
:105650003F3E1F3C1F7C1F7C1F7C1F781F781F7CD8
:105660001F7C3F3C7F3EFF1FDF0F0000000000005B
:10567000000000000000000000000000000000002A
:10568000F803FC0F3E1F1E3E1F3C1F7CFF7FFF7F69
:10569000007C007C003C003E071FFF0FFE03000063
:1056A0000000000000000000FF01E103C003C0078C
:1056B000C007C007FF7FFF7FC007C007C007C00744
:1056C000C007C007C007C007C007C007C007C007A2
:1056D000C007000000000000000000000000000003
:1056E0000000000000000000EF07FF1F7F3E1F3C8E
:1056F0001F7C1F7C1F781F781F781F7C1F7C3F3CFE
:105700007F3EFF1FDF0F1E001E001E007C38F83F8B
:10571000003C003C003C003C003C003CFC3DFE3FAB
:105720009E3F1F3F1F3E1F3C1F3C1F3C1F3C1F3C1A
:105730001F3C1F3C1F3C1F3C1F3C000000000000A2
:1057400000000000F001F001000000000000000077
:10575000E07FE07FE001E001E001E001E001E00145
:10576000E001E001E001E001E001E001E001000012
:105770000000000000000000F800F8000000000039
:1057800000000000F83FF83FF800F800F800F800CB
:10579000F800F800F800F800F800F800F800F80049
:1057A000F800F800F800F000F071E07F003C003CE9
:1057B000003C003C003C003C1F3C3E3C7C3CF83C38
:1057C000F03DE03DC03FC03FE03FF03DF83C7C3C59
:1057D0003E3C1F3C1F3C0000000000000000000099
:1057E000F07FF001F001F001F001F001F001F001B3
:1057F000F001F001F001F001F001F001F001F00121
:10580000F001F001F001F001F001000000000000E3
:105810000000000000000000000000000000000088
:105820009EF7FFFFFFFFFFFFE7FBE7F9C7F1C7F1B7
:10583000C7F1C7F1C7F1C7F1C7F1C7F1C7F1000060
:105840000000000000000000000000000000000058
:1058500000000000FC3DFE3F9E3F1F3F1F3E1F3CDF
:105860001F3C1F3C1F3C1F3C1F3C1F3C1F3C1F3C60
:105870001F3C0000000000000000000000000000CD
:105880000000000000000000F007FC1F3E3E1F3C2F
:105890001F7C0F780F780F780F780F781F7C1F3CD4
:1058A0003E3EFC1FF007000000000000000000006A
:1058B000000000000000000000000000F83DFE3F76
:1058C0003E3F1F3E0F3C0F3C0F3C0F3C0F3C0F3C3C
:1058D0001F3C1E3E3E3FFC3FF83F003C003C003C6E
:1058E000003C003C00000000000000000000000040
:1058F000EE07FE1F7E3E1E3C1E7C1E781E781E7824
:105900001E781E781E7C3E7C7E3EFE1FDE0F1E0033
:105910001E001E001E001E0000000000000000000F
:10592000000000007F1FFF1FE71FC71F871F001F0A
:10593000001F001F001F001F001F001F001F001F6F
:10594000001F000000000000000000000000000038
:105950000000000000000000FC07FE1F0E1E003EBD
:10596000003E003FE01FFC07FE003E001E001E0040
:105970003E3CFC3FF01F0000000000000000000063
:10598000000000000000800780078007FF7FFF7F86
:1059900080078007800780078007800780078007CF
:1059A00080078007C007FF03FF0100000000000020
:1059B00000000000000000000000000000000000E7
:1059C0001E3C1E3C1E3C1E3C1E3C1E3C1E3C1E3C07
:1059D0001E3C1E3C3E3C7E3CFE3EFE1FDE0F000099
:1059E00000000000000000000000000000000000B7
:1059F0000000000007F00F780F781E3C1E3C1E3E92
:105A00003C1E3C1E780F780FF00FF007F007E00304
:105A1000E0030000000000000000000000000000A3
:105A2000000000000000000003F0E3F1E3F3E7F3FF
:105A3000F7F3F7F3F77F777F7F7F7F7F7F7F3E3EB0
:105A40003E3E3E3E3E3E00000000000000000000E2
:105A50000000000000000000000000000F7C1E3E5F
:105A60003C3E3C1FF80FF007F007E003F007F80793
:105A7000F80F7C1E3E3E1F3C1F7800000000000017
:105A80000000000000000000000000000000000016
:105A900007F80F780F7C1E3C1E3C3C1E3C1E3C1F32
:105AA000780FF80FF007F007E003E003C003C0032E
:105AB000C0038007800F007F00000000000000008E
:105AC00000000000FF3FFF3F1F003E007C00F80089
:105AD000F001E003C007800F001F001E003CFF7FA5
