S0140000463430315F4E5246315F54782E7372656394
S31508000000000001203D1900082D17000835170008C3
S315080000103D170008451700084D17000800000000A6
S31508000020000000000000000000000000551700084E
S315080000306317000800000000711700087F17000802
S315080000408D1900088D1900088D1900088D190008EA
S315080000508D1900088D1900088D1900088D190008DA
S315080000608D1900088D1900088D1900088D190008CA
S315080000708D1900088D1900088D1900088D190008BA
S315080000808D1900088D1900088D1900080000000058
S315080000900000000000000000000000008D190008A4
S315080000A08D1900088D1900088D1900088D1900088A
S315080000B08D1900088D1900088D1900088D1900087A
S315080000C08D1900088D1900088D1900088D1900086A
S315080000D08D1900088D1900088D1900080000000008
S315080000E08D1900088D1900088D19000800000000F8
S315080000F00000000000000000000000008D19000844
S31508000100000000008D1900088D1900088D190008D7
S3150800011000000000000000000000000000000000D1
S315080001208D1900088D1900088D1900088D19000809
S315080001308D19000800000000000000000000000003
S315080001400000000000000000000000008D190008F3
S315080001508D1900088D1900088D1900088D190008D9
S315080001608D1900088D190008000000000000000025
S315080001700000000000000000000000000000000071
S31508000180000000008D1900080000000000000000B3
S309080001908D190008AF
S315080001A010B5054C237833B9044B13B10448AFF3A3
S315080001B000800123237010BDDC0100200000000030
S315080001C0B47A000808B5034B1BB103490348AFF3DB
S315080001D0008008BD00000000E0010020B47A000895
S315080001E001F0FF01102A2BDB10F0070F08D010F8DA
S315080001F0013B013A8B422DD010F0070F42B3F6D1DE
S31508000200F0B441EA012141EA014122F007047FF0F6
S3150800021000070023F0E80256083C85EA010586EA4D
S31508000220010685FA47F5A3FA87F586FA47F6A5FA89
S3150800023087F68EB9EED1F0BC01F0FF0102F0070295
S3150800024032B110F8013B013A83EA010313B1F8D140
S315080002500020704701387047002D06BF3546033821
S31508000260073815F0010F07D1013015F4807F02BF5A
S31508000270013015F4C03F0130F0BC0138704700BFAB
S31508000280034613F8012B002AFBD1181A01387047C8
S3150800029081F0004102E000BF83F0004330B54FEA29
S315080002A041044FEA430594EA050F08BF90EA020F96
S315080002B01FBF54EA000C55EA020C7FEA645C7FEA29
S315080002C0655C00F0E2804FEA5454D4EB5555B8BF4C
S315080002D06D420CDD2C4480EA020281EA030382EABD
S315080002E0000083EA010180EA020281EA0303362D4F
S315080002F088BF30BD11F0004F4FEA01314FF4801C22
S315080003004CEA113102D0404261EB410113F0004F33
S315080003104FEA03334CEA133302D0524263EB4303EA
S3150800032094EA050F00F0A780A4F10104D5F1200E88
S315080003300DDB02FA0EFC22FA05F2801841F10001E3
S3150800034003FA0EF2801843FA05F359410EE0A5F1B7
S3150800035020050EF1200E012A03FA0EFC28BF4CF0E8
S31508000360020C43FA05F3C01851EBE37101F000459E
S3150800037007D54FF0000EDCF1000C7EEB00006EEBAB
S315080003800101B1F5801F1BD3B1F5001F0CD3490835
S315080003905FEA30004FEA3C0C04F101044FEA44528C
S315080003A012F5800F80F09A80BCF1004F08BF5FEA13
S315080003B0500C50F1000041EB045141EA050130BDF3
S315080003C05FEA4C0C404141EB0101013C28BFB1F505
S315080003D0801FE9D291F0000F04BF01460020B1FA50
S315080003E081F308BF2033A3F10B03B3F120020CDA23
S315080003F00C3208DD02F1140CC2F10C0201FA0CF001
S3150800040021FA02F10CE002F11402D8BFC2F1200C65
S3150800041001FA02F120FA0CFCDCBF41EA0C0190401B
S31508000420E41AA2BF01EB0451294330BD6FEA040464
S315080004301F3C1CDA0C340EDC04F11404C4F120024F
S3150800044020FA04F001FA02F340EA030021FA04F361
S3150800045045EA030130BDC4F10C04C4F1200220FAB8
S3150800046002F001FA04F340EA0300294630BD21FAF6
S3150800047004F0294630BD94F0000F83F4801306BFBC
S3150800048081F480110134013D4EE77FEA645C18BFB0
S315080004907FEA655C29D094EA050F08BF90EA020F47
S315080004A005D054EA000C04BF1946104630BD91EA3F
S315080004B0030F1EBF0021002030BD5FEA545C05D142
S315080004C04000494128BF41F0004130BD14F5800481
S315080004D03CBF01F5801130BD01F0004545F0FE41F5
S315080004E041F470014FF0000030BD7FEA645C1ABF2A
S315080004F0194610467FEA655C1CBF0B46024650EA61
S31508000500013406BF52EA033591EA030F41F400218C
S3150800051030BD00BF90F0000F04BF0021704730B512
S315080005204FF4806404F132044FF000054FF00001E7
S3150800053050E700BF90F0000F04BF0021704730B5A8
S315080005404FF4806404F1320410F0004548BF40427D
S315080005504FF000013EE700BF42004FEAE2014FEAD2
S3150800056031014FEA02701FBF12F07F4393F07F4FAD
S3150800057081F06051704732F07F4208BF704793F0B0
S315080005807F4F04BF41F40021704730B54FF46074C3
S3150800059001F0004521F000411CE700BF50EA0102C6
S315080005A008BF704730B54FF000050AE050EA01026F
S315080005B008BF704730B511F0004502D5404261EBDF
S315080005C041014FF4806404F132045FEA915C3FF420
S315080005D0D8AE4FF003025FEADC0C18BF03325FEABD
S315080005E0DC0C18BF033202EBDC02C2F1200300FA6E
S315080005F003FC20FA02F001FA03FE40EA0E0021FA93
S3150800060002F11444BDE600BF70B54FF0FF0C4CF480
S31508000610E06C1CEA11541DBF1CEA135594EA0C0F32
S3150800062095EA0C0F00F0DEF82C4481EA030621EA6D
S315080006304C5123EA4C5350EA013518BF52EA0335A8
S3150800064041F4801143F4801338D0A0FB02CE4FF05A
S315080006500005E1FB02E506F00042E0FB03E54FF08A
S315080006600006E1FB03569CF0000F18BF4EF0010E82
S31508000670A4F1FF04B6F5007F64F5407404D25FEA7E
S315080006804E0E6D4146EB060642EAC62141EA555131
S315080006904FEAC52040EA5E504FEACE2EB4F1FD0C73
S315080006A088BFBCF5E06F1ED8BEF1004F08BF5FEAF1
S315080006B0500E50F1000041EB045170BD06F00046A3
S315080006C046EA010140EA020081EA0301B4EB5C0450
S315080006D0C2BFD4EB0C0541EA045170BD41F4801148
S315080006E04FF0000E013C00F3AB8014F1360FDEBF6D
S315080006F0002001F0004170BDC4F10004203C35DA49
S315080007000C341BDC04F11404C4F1200500FA05F3CB
S3150800071020FA04F001FA05F240EA020001F000426C
S3150800072021F0004110EBD37021FA04F642EB0601E2
S315080007305EEA430E08BF20EAD37070BDC4F10C040C
S31508000740C4F1200500FA04F320FA05F001FA04F2D0
S3150800075040EA020001F0004110EBD37041F10001BC
S315080007605EEA430E08BF20EAD37070BDC4F12005C7
S3150800077000FA05F24EEA020E20FA04F301FA05F22F
S3150800078043EA020321FA04F001F0004121FA04F2D7
S3150800079020EA020000EBD3705EEA430E08BF20EAA7
S315080007A0D37070BD94F0000F0FD101F000464000E1
S315080007B041EB010111F4801F08BF013CF7D041EA63
S315080007C0060195F0000F18BF704703F00046520067
S315080007D043EB030313F4801F08BF013DF7D043EA38
S315080007E00603704794EA0C0F0CEA135518BF95EAEE
S315080007F00C0F0CD050EA410618BF52EA4306D1D175
S3150800080081EA030101F000414FF0000070BD50EA93
S31508000810410606BF1046194652EA430619D094EA1D
S315080008200C0F02D150EA013613D195EA0C0F05D107
S3150800083052EA03361CBF104619460AD181EA03015B
S3150800084001F0004141F0FE4141F470014FF0000013
S3150800085070BD41F0FE4141F4780170BD70B54FF0AE
S31508000860FF0C4CF4E06C1CEA11541DBF1CEA13552E
S3150800087094EA0C0F95EA0C0F00F0A7F8A4EB050410
S3150800088081EA030E52EA03354FEA013100F0888007
S315080008904FEA03334FF0805545EA131343EA1263D0
S315080008A04FEA022245EA111545EA10654FEA002685
S315080008B00EF000419D4208BF964244F1FD0404F53E
S315080008C0407402D25B084FEA3202B61A65EB03059A
S315080008D05B084FEA32024FF480104FF4002CB6EB57
S315080008E0020E75EB030E22BFB61A754640EA0C00D7
S315080008F05B084FEA3202B6EB020E75EB030E22BF17
S31508000900B61A754640EA5C005B084FEA3202B6EB57
S31508000910020E75EB030E22BFB61A754640EA9C0016
S315080009205B084FEA3202B6EB020E75EB030E22BFE6
S31508000930B61A754640EADC0055EA060E18D04FEAA4
S31508000940051545EA16754FEA06164FEAC30343EA44
S3150800095052734FEAC2025FEA1C1CC0D111F4801F11
S315080009600BD141EA00014FF000004FF0004CB6E70A
S3150800097011F4801F04BF01430020B4F1FD0C88BFA9
S31508000980BCF5E06F3FF6AFAEB5EB030C04BFB6EBB4
S31508000990020C5FEA500C50F1000041EB045170BDA7
S315080009A00EF0004E4EEA113114EB5C04C2BFD4EBD4
S315080009B00C0541EA045170BD41F480114FF0000E58
S315080009C0013C90E645EA060E8DE60CEA135594EAD4
S315080009D00C0F08BF95EA0C0F3FF43BAF94EA0C0FD7
S315080009E00AD150EA01347FF434AF95EA0C0F7FF44C
S315080009F025AF104619462CE795EA0C0F06D152EAA0
S31508000A0003353FF4FDAE1046194622E750EA410683
S31508000A1018BF52EA43067FF4C5AE50EA41047FF494
S31508000A200DAF52EA43057FF4EBAE12E74FF0FF3CF9
S31508000A3006E000BF4FF0010C02E000BF4FF0010CCA
S31508000A404DF804CD4FEA410C7FEA6C5C4FEA430C43
S31508000A5018BF7FEA6C5C1BD001B050EA410C0CBF92
S31508000A6052EA430C91EA030F02BF90EA020F0020F4
S31508000A70704710F1000F91EA030F58BF994208BF5B
S31508000A8090422CBFD8176FEAE37040F00100704718
S31508000A904FEA410C7FEA6C5C02D150EA013C07D16F
S31508000AA04FEA430C7FEA6C5CD6D152EA033CD3D0BA
S31508000AB05DF8040B704700BF8446104662468C46B4
S31508000AC01946634600E000BF01B5FFF7B7FF0028E7
S31508000AD048BF10F1000F01BD4DF808EDFFF7F4FF10
S31508000AE00CBF012000205DF808FB00BF4DF808ED9B
S31508000AF0FFF7EAFF34BF012000205DF808FB00BFBE
S31508000B004DF808EDFFF7E0FF94BF012000205DF8DF
S31508000B1008FB00BF4DF808EDFFF7CEFF94BF012094
S31508000B2000205DF808FB00BF4DF808EDFFF7C4FF8D
S31508000B3034BF012000205DF808FB00BF4FEA410CD6
S31508000B407FEA6C5C02D150EA013C0AD14FEA430CB9
S31508000B507FEA6C5C02D152EA033C02D14FF00000F6
S31508000B6070474FF0010070474FEA410212F5001234
S31508000B7015D211D56FF47873B3EB625212D94FEAD6
S31508000B80C12343F0004343EA505311F0004F23FAC0
S31508000B9002F018BF404270474FF00000704750EA15
S31508000BA0013005D111F0004008BF6FF000407047D2
S31508000BB04FF00000704700BF4A0011D212F500122C
S31508000BC011D20DD56FF47873B3EB62520ED44FEA97
S31508000BD0C12343F0004343EA505323FA02F0704717
S31508000BE04FF00000704750EA013002D14FF0FF3055
S31508000BF070474FF0000070474FEA4102B2F1E043F8
S31508000C0024BFB3F5001CDCF1FE5C0DD901F0004CE5
S31508000C104FEAC0024CEA5070B2F1004F40EB830035
S31508000C2008BF20F00100704711F0804F21D113F161
S31508000C303872BCBF01F00040704741F480114FEA9A
S31508000C405252C2F11802C2F1200C10FA0CF320FA23
S31508000C5002F018BF40F001004FEAC1234FEAD32340
S31508000C6003FA0CFC40EA0C0023FA02F34FEA4303AA
S31508000C70CCE77FEA625307D150EA01331EBF4FF033
S31508000C80FE4040F44000704701F0004040F0FE404E
S31508000C9040F40000704700BF53B94AB9002908BF9D
S31508000CA000281CBF4FF0FF314FF0FF3000F0A0B90D
S31508000CB0ADF1080C6DE904CE00F03CF8DDF804E06F
S31508000CC0DDE9022304B0704738B500220023044644
S31508000CD00D46FFF70BFF28B920462946BDE83840E0
S31508000CE000F00AB8204605F1004100F005F8404238
S31508000CF061EB410138BD00BFD0B50C4B002206465A
S31508000D000F46FFF781FCFFF757FF0446FFF702FC83
S31508000D10074B0022FFF778FC02460B463046394659
S31508000D20FFF7BAFAFFF748FF2146D0BD0000F03DAD
S31508000D300000F0412DE9F047089D0C46002B4ED1E6
S31508000D4094468C458646B2FA82F262D94AB1C2F115
S31508000D502003914020FA03F30CFA02FC194300FA27
S31508000D6002FE4FEA1C471FFA8CF6B1FBF7F44FEA6E
S31508000D701E4307FB141143EA014304FB06F199429B
S31508000D800AD91CEB030304F1FF3080F01281994263
S31508000D9040F20F81023C6344591A1FFA8EF3B1FBE5
S31508000DA0F7F007FB101143EA014300FB06F69E42E3
S31508000DB00AD91CEB030300F1FF3180F0FC809E4248
S31508000DC040F2F980634402389B1B40EA0440002144
S31508000DD01DB1D3400022C5E90032BDE8F0878B4239
S31508000DE005D90DB1C5E9000100210846F5E7B3FAB2
S31508000DF083F1002946D1A34202D39042C0F0F08085
S31508000E00861A64EB03030120002DE6D0C5E90063CA
S31508000E10E3E7002A40F09080A1EB0C044FEA1C4857
S31508000E201FFA8CF70121B4FBF8F64FEA1E4308FBBC
S31508000E30164443EA044307FB06F0984208D91CEB1C
S31508000E40030306F1FF3402D2984200F2CD8026460B
S31508000E501C1A1FFA8EF3B4FBF8F008FB104443EA99
S31508000E60044300FB07F79F4208D91CEB030300F174
S31508000E70FF3402D29F4200F2B0802046DB1B40EAD4
S31508000E800640A5E7C1F120068B4022FA06F71F4364
S31508000E9020FA06FC04FA01F343EA0C03F44000FACC
S31508000EA001F8380C4FEA1349B4FBF0FE1FFA87FC29
S31508000EB000FB1E4449EA04440EFB0CF9A14502FA5C
S31508000EC001F20AD93C190EF1FF3A80F08480A14557
S31508000ED040F28180AEF1020E3C44A4EB09041FFAED
S31508000EE083F9B4FBF0F300FB134449EA044403FB1B
S31508000EF00CFCA44507D93C1903F1FF3067D2A44579
S31508000F0065D9023B3C4443EA0E40A0FB0293A4EB9E
S31508000F100C049C42CE469C4651D34ED055B1B8EBF4
S31508000F200E0364EB0C0404FA06F6CB401E43CC40D1
S31508000F30C5E90064002150E7C2F1200320FA03F155
S31508000F400CFA02FC24FA03F394400C434FEA1C48BB
S31508000F5000FA02FE1FFA8CF7B3FBF8F008FB103113
S31508000F60230C43EA014300FB07F1994208D91CEB1D
S31508000F70030300F1FF362CD299422AD9023863447A
S31508000F805B1AA4B2B3FBF8F108FB113344EA034435
S31508000F9001FB07F3A34208D91CEB040401F1FF3651
S31508000FA013D2A34211D902396444E41A41EA004132
S31508000FB039E70446F0E6084606E7C845AED2B9EB77
S31508000FC0020E63EB070C0138A8E73146EDE7034646
S31508000FD099E73046D4E7D6467FE7634402384DE7BB
S31508000FE00646234608460FE7023E634430E700BF3D
S31508000FF0704700BF80B500AF00221021024800F0FC
S31508001000C7FF00BF80BD00BF0000024080B500AF2B
S3150800101001221021024800F0BBFF00BF80BD00BFBF
S315080010200000024080B500AF01220821024800F006
S31508001030AFFF00BF80BD00BF0000024080B500AF13
S3150800104000220821024800F0A3FF00BF80BD00BFB0
S315080010500000024080B584B000AF03460A46FB7123
S315080010601346BB71FB7943F02003DBB23B73BB79B4
S315080010707B73FFF7BFFF07F10C014FF47A73022267
S31508001080044801F066FCFFF7C1FF00BF1037BD46F4
S3150800109080BD00BF1002002080B586B000AF0346B1
S315080010A0B9607A60FB73FB7B43F02003DBB23B75C8
S315080010B0FFF7A0FF07F1140164230122084801F095
S315080010C048FC7B689AB24FF47A73B968044801F011
S315080010D040FCFFF79BFF00BF1837BD4680BD00BF29
S315080010E01002002080B584B000AF0346FB710023D0
S315080010F0FB73FFF77FFFF91D64230122084801F0FF
S3150800110028FC07F10F0164230122054801F065FD5B
S31508001110FFF77CFFFB7B18461037BD4680BD00BF36
S315080011201002002080B582B000AF0346FB71FFF7BE
S3150800113061FFF91D64230122044801F00AFCFFF748
S3150800114065FF00BF0837BD4680BD00BF10020020FE
S3150800115080B500AFFFF772FF002000F085F8002188
S315080011600020FFF777FF00210120FFF773FF00211A
S315080011700220FFF76FFF03210320FFF76BFF002113
S315080011800420FFF767FF00210520FFF763FF0E2104
S315080011900620FFF75FFFFFF745FF00BF80BD80B55C
S315080011A084B000AF78600B46FB70FFF747FFFB780B
S315080011B019460520FFF74EFF052279681020FFF72C
S315080011C06BFF0020FFF78EFF0346FB73FB7B43F0A4
S315080011D00203FB73FB7B19460020FFF73BFFFFF773
S315080011E021FF00BF1037BD4680BD000080B584B022
S315080011F000AF78600023BB73FFF7FCFEA023BB7328
S3150800120007F10E0164230122164801F0A2FB4FF4F0
S315080012107A7320227968134801F09BFBFFF7F6FEE4
S31508001220012000F027FC1720FFF75CFF0346FB733D
S31508001230FB7B03F01003002B0FD0FB7B03F00803A6
S31508001240002B0AD1E123BB73BB7B1846FFF76AFF65
S31508001250172000F009F8012300E00023184610378C
S31508001260BD4680BD1002002080B588B000AF034699
S31508001270FB71FB79172B04D111211720FFF7EAFE22
S3150800128088E008210020FFF7E5FE3F210120FFF74F
S31508001290E1FE03210220FFF7DDFE03210320FFF70D
S315080012A0D9FE03210420FFF7D5FE02210520FFF70A
S315080012B0D1FE0E210620FFF7CDFE00210720FFF7FD
S315080012C0C9FE00210820FFF7C5FE00210920FFF707
S315080012D0C1FE324A07F1180392E803001860043386
S315080012E0197007F11803052219460A20FFF7D4FEDC
S315080012F02B4A07F1100392E80300186004331970AB
S3150800130007F11003052219460B20FFF7C5FEC32176
S315080013100C20FFF79FFEC4210D20FFF79BFEC52179
S315080013200E20FFF797FEC6210F20FFF793FE1B4AF4
S3150800133007F1080392E8030018600433197007F1EF
S315080013400803052219461020FFF7A6FE00211120E2
S31508001350FFF780FE00211220FFF77CFE00211320F4
S31508001360FFF778FE00211420FFF774FE00211520F0
S31508001370FFF770FE00211620FFF76CFE11211720DB
S31508001380FFF768FE00211C20FFF764FE00211D20E0
S31508001390FFF760FE00BF2037BD4680BDD07A000843
S315080013A0D87A000880B500AF00F0F2FA00F03CF8F1
S315080013B000F0D0F800F098F801224FF400511548D3
S315080013C000F0E6FDFFF7C4FE0A211348FFF7E7FE23
S315080013D014220021114802F096FF114B1B781A4679
S315080013E010490E4802F02CFF0C48FFF7FFFE034693
S315080013F0012B04D14FF40051064800F0E2FD6420A9
S3150800140000F038FB064B1B780133DAB2044B1A702E
S31508001410DEE700BF0008024000000020F8010020B7
S315080014200C020020E07A000880B594B000AF07F1FE
S31508001430200330220021184602F065FF07F10C034D
S3150800144000221A605A609A60DA601A610023BB604B
S31508001450234B1B6C224A43F080531364204B1B6CAE
S3150800146003F08053BB60BB6800237B601D4B1B6881
S3150800147023F440431B4A43F400431360194B1B688B
S3150800148003F440437B607B6802233B620123FB62D3
S3150800149010233B630023BB6307F12003184600F0C3
S315080014A0ABFD0346002B01D000F0CAF80F23FB6002
S315080014B000233B6100237B610023BB610023FB61A2
S315080014C007F10C030021184601F00EF80346002B1D
S315080014D001D000F0B5F800BF5037BD4680BD00BF4B
S315080014E0003802400070004080B500AF174B184A1C
S315080014F01A60164B4FF482725A60144B00229A6097
S31508001500124B0022DA60114B00221A610F4B00229F
S315080015105A610E4B4FF400729A610C4B1022DA6135
S315080015200A4B00221A62094B00225A62074B002214
S315080015309A62064B0A22DA62044801F081F90346E8
S31508001540002B01D000F07CF800BF80BD10020020FF
S315080015500030014080B588B000AF07F10C030022C7
S315080015601A605A609A60DA601A610023BB60304BD1
S315080015701B6B2F4A43F0040313632D4B1B6B03F0BD
S315080015800403BB60BB6800237B60294B1B6B284A9E
S3150800159043F001031363264B1B6B03F001037B60C7
S315080015A07B6800233B60224B1B6B214A43F00203F6
S315080015B013631F4B1B6B03F002033B603B6800225F
S315080015C04FF400511B4800F0E3FC002218211A488A
S315080015D000F0DEFC4FF40053FB6001233B6100235F
S315080015E07B610023BB6107F10C031946114800F023
S315080015F04BFB1823FB6001233B6100237B6100231F
S31508001600BB6107F10C0319460B4800F03DFB0123AB
S31508001610FB6000233B6100237B6107F10C0319463D
S31508001620064800F031FB00BF2037BD4680BD00BF2D
S315080016300038024000080240000002400004024050
S3150800164080B400AF72B600BF00BFFDE780B483B0B8
S3150800165000AF00237B60104B5B6C0F4A43F480435A
S3150800166053640D4B5B6C03F480437B607B680023FB
S315080016703B60094B1B6C084A43F080531364064BC6
S315080016801B6C03F080533B603B6800BF0C37BD46BC
S315080016905DF8047B704700BF0038024080B58AB009
S315080016A000AF786007F1140300221A605A609A6046
S315080016B0DA601A617B681B68194A93422BD10023AA
S315080016C03B61184B5B6C174A43F480535364154BC4
S315080016D05B6C03F480533B613B690023FB60114B51
S315080016E01B6B104A43F0010313630E4B1B6B03F08D
S315080016F00103FB60FB68E0237B610223BB610023D7
S31508001700FB6103233B6205237B6207F11403194639
S31508001710054800F0B9FA00BF2837BD4680BD00BFAE
S3150800172000300140003802400000024080B400AF9B
S3150800173000BFFDE780B400AF00BFFDE780B400AF8F
S3150800174000BFFDE780B400AF00BFFDE780B400AF7F
S3150800175000BFFDE780B400AF00BFBD465DF8047B5F
S31508001760704780B400AF00BFBD465DF8047B704784
S3150800177080B400AF00BFBD465DF8047B704780B5F6
S3150800178000AF00F057F900BF80BD80B400AF012359
S315080017901846BD465DF8047B704780B582B000AF39
S315080017A07860396002F002FE034616221A604FF08E
S315080017B0FF3318460837BD4680BD80B582B000AFF6
S315080017C078604FF0FF317868FFF7E7FF00BFFDE765
S315080017D080B586B000AFF860B9607A6000237B6197
S315080017E00AE0AFF300800146BB685A1CBA60CAB269
S315080017F01A707B6901337B617A697B689A42F0DBF0
S315080018007B6818461837BD4680BD80B586B000AFE0
S31508001810F860B9607A6000237B6109E0BB685A1CEE
S31508001820BA601B781846AFF300807B6901337B6189
S315080018307A697B689A42F1DB7B6818461837BD4699
S3150800184080BD80B483B000AF78604FF0FF33184690
S315080018500C37BD465DF8047B704780B483B000AF93
S31508001860786039603B684FF400525A600023184686
S315080018700C37BD465DF8047B704780B483B000AF73
S315080018807860012318460C37BD465DF8047B70471F
S3150800189080B485B000AFF860B9607A600023184656
S315080018A01437BD465DF8047B7047000080B586B0E6
S315080018B000AF7860144A154BD31A7B617B693B618C
S315080018C0134B1B68002B02D1114B124A1A60104B9E
S315080018D01A687B6813443A699A4207D202F066FD91
S315080018E003460C221A604FF0FF3309E0084B1B68C9
S315080018F0FB60074B1A687B681344054A1360FB684C
S3150800190018461837BD4680BD0000012000040000B7
S3150800191068020020C003002080B400AF064BD3F84D
S315080019208830054A43F47003C2F8883000BFBD46C4
S315080019305DF8047B704700BF00ED00E0DFF834D0A7
S31508001940FFF7EAFF0C480D490D4A002302E0D45878
S31508001950C4500433C4188C42F9D30A4A0A4C0023EB
S3150800196001E013600432A242FBD302F025FDFFF723
S3150800197019FD70470000012000000020DC0100204E
S31508001980407F0008DC010020BC030020FEE70000C1
S3150800199080B500AF0E4B1B680D4A43F40073136005
S315080019A00B4B1B680A4A43F480631360084B1B6899
S315080019B0074A43F480731360032000F031F90F20BF
S315080019C000F008F8FFF742FE0023184680BD00BF66
S315080019D0003C024080B582B000AF7860124B1A68AE
S315080019E0124B1B7819464FF47A73B3FBF1F3B2FB2B
S315080019F0F3F3184600F03BF90346002B01D0012308
S31508001A000EE07B680F2B0AD8002279684FF0FF306A
S31508001A1000F011F9064A7B681360002300E00123F1
S31508001A2018460837BD4680BD080000201000002073
S31508001A300C00002080B400AF064B1B781A46064BF4
S31508001A401B681344044A136000BFBD465DF8047B57
S31508001A50704700BF100000206C02002080B400AF61
S31508001A60034B1B681846BD465DF8047B704700BFEC
S31508001A706C02002080B584B000AF7860FFF7EEFFF7
S31508001A80B8607B68FB60FB68B3F1FF3F05D00A4B83
S31508001A901B781A46FB681344FB6000BFFFF7DEFF9E
S31508001AA00246BB68D31AFA689A42F7D800BF00BF45
S31508001AB01037BD4680BD00BF1000002080B485B039
S31508001AC000AF78607B6803F00703FB600C4BDB68AC
S31508001AD0BB60BA684FF6FF031340BB60FB681A0287
S31508001AE0BB68134343F0BF6343F40033BB60044A47
S31508001AF0BB68D36000BF1437BD465DF8047B7047EA
S31508001B0000ED00E080B400AF044BDB681B0A03F06D
S31508001B1007031846BD465DF8047B704700ED00E0F4
S31508001B2080B483B000AF03463960FB7197F907307C
S31508001B30002B0ADB3B68DAB20C4997F90730120129
S31508001B40D2B20B4483F800230AE03B68DAB20849AC
S31508001B50FB7903F00F03043B1201D2B20B441A7649
S31508001B6000BF0C37BD465DF8047B704700E100E016
S31508001B7000ED00E080B489B000AFF860B9607A6023
S31508001B80FB6803F00703FB61FB69C3F10703042B3A
S31508001B9028BF0423BB61FB690433062B02D9FB6902
S31508001BA0033B00E000237B614FF0FF32BB6902FA7A
S31508001BB003F3DA43BB681A407B699A404FF0FF315A
S31508001BC07B6901FA03F3D9437B680B401343184634
S31508001BD02437BD465DF8047B7047000080B582B0A7
S31508001BE000AF78607B68013BB3F1807F01D30123A6
S31508001BF00FE00A4A7B68013B53600F214FF0FF3024
S31508001C00FFF78EFF054B00229A60044B07221A60E5
S31508001C10002318460837BD4680BD00BF10E000E027
S31508001C2080B582B000AF78607868FFF747FF00BFDD
S31508001C300837BD4680BD80B586B000AF0346B9609B
S31508001C407A60FB7300237B61FFF75CFF78617A6833
S31508001C50B9687869FFF78EFF024697F90F30114683
S31508001C601846FFF75DFF00BF1837BD4680BD80B533
S31508001C7082B000AF78607868FFF7B0FF0346184671
S31508001C800837BD4680BD000080B489B000AF7860D3
S31508001C90396000237B6100233B610023BB6100237D
S31508001CA0FB6159E10122FB6902FA03F37B613B6898
S31508001CB01B687A6913403B613A697B699A4240F02E
S31508001CC048813B685B6803F00303012B05D03B683A
S31508001CD05B6803F00303022B30D17B689B68BB610A
S31508001CE0FB695B00032202FA03F3DB43BA6913407C
S31508001CF0BB613B68DA68FB695B0002FA03F3BA6901
S31508001D001343BB617B68BA699A607B685B68BB6191
S31508001D100122FB6902FA03F3DB43BA691340BB618C
S31508001D203B685B681B0903F00102FB6902FA03F3CF
S31508001D30BA691343BB617B68BA695A603B685B68DA
S31508001D4003F00303032B17D07B68DB68BB61FB69D1
S31508001D505B00032202FA03F3DB43BA691340BB6153
S31508001D603B689A68FB695B0002FA03F3BA69134396
S31508001D70BB617B68BA69DA603B685B6803F003039A
S31508001D80022B23D1FB69DA087B68083253F8223024
S31508001D90BB61FB6903F007039B000F2202FA03F3FA
S31508001DA0DB43BA691340BB613B681A69FB6903F0F8
S31508001DB007039B0002FA03F3BA691343BB61FB6985
S31508001DC0DA087B680832B96943F822107B681B6811
S31508001DD0BB61FB695B00032202FA03F3DB43BA69C2
S31508001DE01340BB613B685B6803F00302FB695B0059
S31508001DF002FA03F3BA691343BB617B68BA691A60CE
S31508001E003B685B6803F44033002B00F0A280002394
S31508001E10FB60574B5B6C564A43F480435364544B00
S31508001E205B6C03F48043FB60FB68524AFB699B08C2
S31508001E30023352F82330BB61FB6903F003039B00AE
S31508001E400F2202FA03F3DB43BA691340BB617B68CE
S31508001E50494A934219D07B68484A934213D07B6813
S31508001E60474A93420DD07B68464A934207D07B681F
S31508001E70454A934201D1042308E0072306E00323D9
S31508001E8004E0022302E0012300E00023FA6902F0DD
S31508001E90030292009340BA691343BB613549FB6953
S31508001EA09B080233BA6941F82320384B9B68BB610B
S31508001EB03B69DB43BA691340BB613B685B6803F463
S31508001EC08013002B03D0BA693B691343BB612F4AC1
S31508001ED0BB6993602D4BDB68BB613B69DB43BA6921
S31508001EE01340BB613B685B6803F40013002B03D007
S31508001EF0BA693B691343BB61244ABB69D360234B68
S31508001F005B68BB613B69DB43BA691340BB613B68ED
S31508001F105B6803F40033002B03D0BA693B691343AB
S31508001F20BB611A4ABB695360184B1B68BB613B69A6
S31508001F30DB43BA691340BB613B685B6803F48033D3
S31508001F40002B03D0BA693B691343BB610F4ABB69CF
S31508001F501360FB690133FB61FB690F2B7FF6A2AEA9
S31508001F6000BF00BF2437BD465DF8047B704700BF3D
S31508001F7000380240003801400000024000040240D8
S31508001F8000080240000C024000100240003C0140DC
S31508001F9080B483B000AF78600B467B8013467B70B5
S31508001FA07B78002B03D07A887B689A6103E07B886C
S31508001FB01A047B689A6100BF0C37BD465DF8047B3E
S31508001FC0704780B485B000AF78600B467B807B682D
S31508001FD05B69FB607A88FB6813401A04FB68D9437F
S31508001FE07B880B401A437B689A6100BF1437BD464D
S31508001FF05DF8047B7047000080B586B000AF786056
S315080020007B68002B01D1012367E27B681B6803F01C
S315080020100103002B75D0884B9B6803F00C03042B37
S315080020200CD0854B9B6803F00C03082B12D1824B0E
S315080020305B6803F48003B3F5800F0BD17E4B1B68F6
S3150800204003F40033002B5BD07B685B68002B57D109
S31508002050012342E27B685B68B3F5803F06D1764B85
S315080020601B68754A43F4803313601DE07B685B6820
S31508002070B3F5A02F0CD1704B1B686F4A43F480232D
S3150800208013606D4B1B686C4A43F4803313600BE096
S31508002090694B1B68684A23F480331360664B1B68D8
S315080020A0654A23F4802313607B685B68002B13D092
S315080020B0FFF7D4FC386108E0FFF7D0FC02463B691D
S315080020C0D31A642B01D9032307E25B4B1B6803F47D
S315080020D00033002BF0D014E0FFF7C0FC386108E0AD
S315080020E0FFF7BCFC02463B69D31A642B01D90323CC
S315080020F0F3E1514B1B6803F40033002BF0D100E0E9
S3150800210000BF7B681B6803F00203002B63D04A4BB1
S315080021109B6803F00C03002B0BD0474B9B6803F01E
S315080021200C03082B1CD1444B5B6803F48003002B7B
S3150800213016D1414B1B6803F00203002B05D07B68C0
S31508002140DB68012B01D00123C7E13B4B1B6823F059
S31508002150F8027B681B69DB00374913430B603AE0DA
S315080021607B68DB68002B20D0344B01221A60FFF70E
S3150800217075FC386108E0FFF771FC02463B69D31A23
S31508002180022B01D90323A8E12B4B1B6803F002039A
S31508002190002BF0D0284B1B6823F0F8027B681B69DC
S315080021A0DB00254913430B6015E0244B00221A6017
S315080021B0FFF754FC386108E0FFF750FC02463B691C
S315080021C0D31A022B01D9032387E11B4B1B6803F0A3
S315080021D00203002BF0D17B681B6803F00803002B71
S315080021E036D07B685B69002B16D0154B01221A6026
S315080021F0FFF734FC386108E0FFF730FC02463B691C
S31508002200D31A022B01D9032367E10B4B5B6F03F04B
S315080022100203002BF0D01BE0094B00221A60FFF7DF
S315080022201DFC38610EE0FFF719FC02463B69D31A1C
S31508002230022B07D9032350E1003802400000474229
S31508002240800E4742884B5B6F03F00203002BEAD1EE
S315080022507B681B6803F00403002B00F097800023BB
S31508002260FB75814B1B6C03F08053002B0FD10023A9
S31508002270BB607D4B1B6C7C4A43F0805313647A4BDE
S315080022801B6C03F08053BB60BB680123FB75774B5F
S315080022901B6803F48073002B18D1744B1B68734AB0
S315080022A043F480731360FFF7D9FB386108E0FFF742
S315080022B0D5FB02463B69D31A022B01D903230CE14D
S315080022C06A4B1B6803F48073002BF0D07B689B680D
S315080022D0012B06D1644B1B6F634A43F00103136756
S315080022E01CE07B689B68052B0CD15F4B1B6F5E4A15
S315080022F043F0040313675C4B1B6F5B4A43F001030F
S3150800230013670BE0584B1B6F574A23F001031367FB
S31508002310554B1B6F544A23F0040313677B689B686D
S31508002320002B15D0FFF79AFB38610AE0FFF796FBFA
S3150800233002463B69D31A41F28832934201D90323F4
S31508002340CBE0494B1B6F03F00203002BEED014E0E1
S31508002350FFF784FB38610AE0FFF780FB02463B691A
S31508002360D31A41F28832934201D90323B5E03E4B92
S315080023701B6F03F00203002BEED1FB7D012B05D169
S31508002380394B1B6C384A23F0805313647B689B696E
S31508002390002B00F0A180344B9B6803F00C03082B3C
S315080023A05CD07B689B69022B41D1314B00221A60B5
S315080023B0FFF754FB386108E0FFF750FB02463B691C
S315080023C0D31A022B01D9032387E0274B1B6803F096
S315080023D00073002BF0D17B68DA697B681B6A1A43A5
S315080023E07B685B6A9B011A437B689B6A5B08013BB7
S315080023F01B041A437B68DB6A1B061B4913434B60A5
S315080024001B4B01221A60FFF729FB386108E0FFF72A
S3150800241025FB02463B69D31A022B01D903235CE04C
S31508002420114B1B6803F00073002BF0D054E0104BDF
S3150800243000221A60FFF712FB386108E0FFF70EFB6F
S3150800244002463B69D31A022B01D9032345E0064B02
S315080024501B6803F00073002BF0D13DE07B689B6995
S31508002460012B07D1012338E00038024000700040F4
S31508002470600047421B4B5B68FB607B689B69012BCE
S3150800248028D0FB6803F480027B68DB699A4221D175
S31508002490FB6803F03F027B681B6A9A421AD1FA6806
S315080024A047F6C07313407A68526A9201934211D173
S315080024B0FB6803F440327B689B6A5B08013B1B049C
S315080024C09A4207D1FB6803F070627B68DB6A1B06D9
S315080024D09A4201D0012300E0002318461837BD466A
S315080024E080BD00BF0038024080B584B000AF786078
S315080024F039607B68002B01D10123CCE0684B1B684F
S3150800250003F007033A689A420CD9654B3A68D2B287
S315080025101A70634B1B6803F007033A689A4201D0A6
S315080025200123B8E07B681B6803F00203002B20D068
S315080025307B681B6803F00403002B05D0594B9B6886
S31508002540584A43F4E05393607B681B6803F008031A
S31508002550002B05D0534B9B68524A43F46043936063
S31508002560504B9B6823F0F0027B689B684D491343E8
S315080025708B607B681B6803F00103002B44D07B68E3
S315080025805B68012B07D1474B1B6803F40033002B0C
S3150800259019D101237FE07B685B68022B03D07B6837
S315080025A05B68032B07D13F4B1B6803F00073002BB6
S315080025B009D101236FE03B4B1B6803F00203002B94
S315080025C001D1012367E0374B9B6823F003027B6840
S315080025D05B68344913438B60FFF740FAF8600AE0FA
S315080025E0FFF73CFA0246FB68D31A41F28832934257
S315080025F001D903234FE02B4B9B6803F00C027B6841
S315080026005B689B009A42EBD1254B1B6803F00703D6
S315080026103A689A420CD2224B3A68D2B21A70204BC8
S315080026201B6803F007033A689A4201D0012332E097
S315080026307B681B6803F00403002B08D0194B9B68C2
S3150800264023F4E0527B68DB68164913438B607B688A
S315080026501B6803F00803002B09D0124B9B6823F470
S3150800266060427B681B69DB000E4913438B6000F0F0
S3150800267021F802460B4B9B681B0903F00F030A4916
S31508002680CB5C22FA03F3094A1360094B1B68184608
S31508002690FFF7A0F9002318461037BD4680BD00BFD6
S315080026A0003C024000380240F47A00080800002086
S315080026B00C0000202DE9B04F90B000AF00237B63DB
S315080026C00023FB6300233B630023BB63594B9B68D2
S315080026D003F00C03082B0DD0082B00F2A180002B69
S315080026E002D0042B03D09BE0534BBB639BE0534BB8
S315080026F0BB6398E04F4B5B6803F03F037B634D4B2E
S315080027005B6803F48003002B28D04A4B5B689B095F
S3150800271000223B627A623B6AC3F308000021474BFA
S3150800272003FB01F2002300FB03F31344434AA0FB17
S315080027300212FA620A46BA62FA6A1344FB627B6BB1
S315080027400022BB61FA61D7E90623D7E90A01FEF739
S31508002750A3FA02460B461346FB6353E0354B5B6808
S315080027609B0900223B617A613B69C3F3080A4FF073
S31508002770000B52465B464FF000004FF0000159012E
S3150800278041EAD261500102460B46B2EB0A0863EBF6
S315080027900B094FF000024FF000034FEA891343EA92
S315080027A098634FEA8812B2EB080463EB09054FF009
S315080027B000024FF00003EB0043EA5473E2001446AC
S315080027C01D4614EB0A033B6045EB0B037B604FF099
S315080027D000024FF00003D7E9004529468B0221463F
S315080027E043EA915321468A02104619467B6B00221A
S315080027F0BB60FA60D7E90223FEF74EFA02460B469B
S315080028001346FB630B4B5B681B0C03F00303013396
S315080028105B003B63FA6B3B6BB2FBF3F3BB6302E013
S31508002820054BBB6300BFBB6B18464037BD46BDE8CA
S31508002830B08F00BF003802400024F40040787D01C4
S3150800284080B582B000AF78607B68002B01D1012388
S315080028507BE07B685B6A002B08D17B685B68B3F515
S31508002860827F09D07B680022DA6105E07B68002256
S315080028701A617B6800225A617B6800229A627B682B
S3150800288093F85130DBB2002B06D17B68002283F81F
S3150800289050207868FEF702FF7B68022283F85120F1
S315080028A07B681B681A687B681B6822F040021A60FE
S315080028B07B685B6803F482727B689B6803F4044355
S315080028C01A437B68DB6803F400631A437B681B6959
S315080028D003F002031A437B685B6903F001031A439A
S315080028E07B689B6903F400731A437B68DB6903F012
S315080028F038031A437B681B6A03F0800342EA030124
S315080029007B689B6A03F400527B681B680A431A605B
S315080029107B689B691B0C03F004017B685B6A03F008
S3150800292010027B681B680A435A607B681B68DA6971
S315080029307B681B6822F40062DA617B6800225A65AC
S315080029407B68012283F85120002318460837BD46C4
S3150800295080BD80B588B000AFF860B9603B601346AB
S31508002960FB80FFF77BF8F861FB887B83FB6893F8AD
S315080029705130DBB2012B01D002232AE1BB68002BC0
S3150800298002D0FB88002B01D1012322E1FB6893F8D2
S315080029905030012B01D102231BE1FB68012283F889
S315080029A05020FB68032283F85120FB6800225A65F1
S315080029B0FB68BA681A63FB68FA889A86FB68FA881D
S315080029C0DA86FB6800229A63FB6800229A87FB680E
S315080029D00022DA87FB6800225A64FB6800221A6420
S315080029E0FB689B68B3F5004F0FD1FB681B681A6834
S315080029F0FB681B6822F040021A60FB681B681A68AD
S31508002A00FB681B6842F480421A60FB681B681B68F7
S31508002A1003F04003402B07D0FB681B681A68FB6865
S31508002A201B6842F040021A60FB68DB68B3F5006F6A
S31508002A3052D1FB685B68002B02D07B8B012B45D1FA
S31508002A40FB681B6B1A88FB681B68DA60FB681B6BE4
S31508002A509A1CFB681A63FB68DB8E9BB2013B9AB231
S31508002A60FB68DA8632E0FB681B689B6803F00203A2
S31508002A70022B12D1FB681B6B1A88FB681B68DA608D
S31508002A80FB681B6B9A1CFB681A63FB68DB8E9BB2A0
S31508002A90013B9AB2FB68DA8618E0FEF7DFFF0246CA
S31508002AA0FB69D31A3A689A4203D83B68B3F1FF3FE9
S31508002AB002D13B68002B09D1FB68012283F851201B
S31508002AC0FB68002283F85020032382E0FB68DB8E34
S31508002AD09BB2002BC7D153E0FB685B68002B02D082
S31508002AE07B8B012B47D1FB681A6BFB681B680C3381
S31508002AF012781A70FB681B6B5A1CFB681A63FB6812
S31508002B00DB8E9BB2013B9AB2FB68DA8633E0FB6840
S31508002B101B689B6803F00203022B13D1FB681A6B30
S31508002B20FB681B680C3312781A70FB681B6B5A1CFF
S31508002B30FB681A63FB68DB8E9BB2013B9AB2FB68A3
S31508002B40DA8618E0FEF78AFF0246FB69D31A3A6866
S31508002B509A4203D83B68B3F1FF3F02D13B68002B8A
S31508002B6009D1FB68012283F85120FB68002283F80B
S31508002B70502003232DE0FB68DB8E9BB2002BC6D1C9
S31508002B80FA693968F86800F0D9FB0346002B02D0C9
S31508002B90FB6820225A65FB689B68002B0AD1002334
S31508002BA07B61FB681B68DB687B61FB681B689B684D
S31508002BB07B617B69FB68012283F85120FB68002250
S31508002BC083F85020FB685B6D002B01D0012300E0E1
S31508002BD0002318462037BD4680BD80B588B002AFB1
S31508002BE0F860B9603B601346FB80FB6893F8513088
S31508002BF0DBB2012B01D0022304E1BB68002B02D013
S31508002C00FB88002B01D10123FCE0FB685B68B3F568
S31508002C10827F12D1FB689B68002B0ED1FB680422C9
S31508002C2083F85120FA883B6800931346BA68B96856
S31508002C30F86800F0EBF80346E4E0FEF70FFF78616A
S31508002C40FB6893F85030012B01D10223DAE0FB68C8
S31508002C50012283F85020FB68042283F85120FB6880
S31508002C6000225A65FB68BA689A63FB68FA889A87ED
S31508002C70FB68FA88DA87FB6800221A63FB68002279
S31508002C809A86FB680022DA86FB6800221A64FB68CB
S31508002C9000225A64FB689B68B3F5004F0FD1FB68A6
S31508002CA01B681A68FB681B6822F040021A60FB68FA
S31508002CB01B681A68FB681B6822F480421A60FB6866
S31508002CC01B681B6803F04003402B07D0FB681B6892
S31508002CD01A68FB681B6842F040021A60FB68DB68EA
S31508002CE0002B70D135E0FB681B689B6803F0010375
S31508002CF0012B15D1FB681B6803F10C02FB689B6B63
S31508002D001278D2B21A70FB689B6B5A1CFB689A63DE
S31508002D10FB68DB8F9BB2013B9AB2FB68DA8718E047
S31508002D20FEF79CFE02467B69D31A3A689A4203D894
S31508002D303B68B3F1FF3F02D13B68002B09D1FB6822
S31508002D40012283F85120FB68002283F850200323D0
S31508002D5058E0FB68DB8F9BB2002BC4D138E0FB68D8
S31508002D601B689B6803F00103012B13D1FB681B68E2
S31508002D70DA68FB689B6B92B21A80FB689B6B9A1C9D
S31508002D80FB689A63FB68DB8F9BB2013B9AB2FB68D0
S31508002D90DA8718E0FEF762FE02467B69D31A3A68BC
S31508002DA09A4203D83B68B3F1FF3F02D13B68002B38
S31508002DB009D1FB68012283F85120FB68002283F8B9
S31508002DC0502003231EE0FB68DB8F9BB2002BC6D185
S31508002DD07A693968F86800F04BFA0346002B02D086
S31508002DE0FB6820225A65FB68012283F85120FB689C
S31508002DF0002283F85020FB685B6D002B01D001236D
S31508002E0000E0002318461837BD4680BD80B58AB055
S31508002E1000AFF860B9607A607B8001237B62FEF7B9
S31508002E201DFE3862FB6893F85130FB77FB685B68D8
S31508002E30BB617B88FB82FB7F012B0CD0BB69B3F59A
S31508002E40827F06D1FB689B68002B02D1FB7F042B8F
S31508002E5001D002237FE1BB68002B05D07B68002BDD
S31508002E6002D07B88002B01D1012374E1FB6893F81B
S31508002E705030012B01D102236DE1FB68012283F852
S31508002E805020FB6893F85130DBB2042B03D0FB6863
S31508002E90052283F85120FB6800225A65FB687A6888
S31508002EA09A63FB687A88DA87FB687A889A87FB6868
S31508002EB0BA681A63FB687A88DA86FB687A889A861B
S31508002EC0FB6800221A64FB6800225A64FB681B68C8
S31508002ED01B6803F04003402B07D0FB681B681A6881
S31508002EE0FB681B6842F040021A60FB68DB68B3F5B2
S31508002EF0006F7ED1FB685B68002B02D0FB8A012B32
S31508002F006CD1FB681B6B1A88FB681B68DA60FB6868
S31508002F101B6B9A1CFB681A63FB68DB8E9BB2013B32
S31508002F209AB2FB68DA8659E0FB681B689B6803F06F
S31508002F300203022B1BD1FB68DB8E9BB2002B16D03B
S31508002F407B6A012B13D1FB681B6B1A88FB681B680D
S31508002F50DA60FB681B6B9A1CFB681A63FB68DB8EDE
S31508002F609BB2013B9AB2FB68DA8600237B62FB6858
S31508002F701B689B6803F00103012B19D1FB68DB8FE3
S31508002F809BB2002B14D0FB681B68DA68FB689B6B46
S31508002F9092B21A80FB689B6B9A1CFB689A63FB6863
S31508002FA0DB8F9BB2013B9AB2FB68DA8701237B620F
S31508002FB0FEF754FD02463B6AD31A3A6B9A420DD87D
S31508002FC03B6BB3F1FF3F09D0FB68012283F8512020
S31508002FD0FB68002283F850200323BCE0FB68DB8EE5
S31508002FE09BB2002BA0D1FB68DB8F9BB2002B9BD139
S31508002FF082E0FB685B68002B02D0FB8A012B71D14B
S31508003000FB681A6BFB681B680C3312781A70FB682E
S315080030101B6B5A1CFB681A63FB68DB8E9BB2013B71
S315080030209AB2FB68DA865DE0FB681B689B6803F06A
S315080030300203022B1CD1FB68DB8E9BB2002B17D038
S315080030407B6A012B14D1FB681A6BFB681B680C336F
S3150800305012781A70FB681B6B5A1CFB681A63FB68AC
S31508003060DB8E9BB2013B9AB2FB68DA8600237B6251
S31508003070FB681B689B6803F00103012B19D1FB68E9
S31508003080DB8F9BB2002B14D0FB681B68DA68FB68E1
S315080030909B6BD2B21A70FB689B6B5A1CFB689A63CF
S315080030A0FB68DB8F9BB2013B9AB2FB68DA87012388
S315080030B07B62FEF7D3FC02463B6AD31A3A6B9A4206
S315080030C003D83B6BB3F1FF3F02D13B6B002B09D111
S315080030D0FB68012283F85120FB68002283F8502000
S315080030E0032338E0FB68DB8E9BB2002B9CD1FB6880
S315080030F0DB8F9BB2002B97D13A6A396BF86800F0E0
S315080031001DF90346002B08D0FB6820225A65FB6888
S31508003110002283F8502001231DE0FB689B68002BE2
S315080031200AD100233B61FB681B68DB683B61FB68CF
S315080031301B689B683B613B69FB68012283F8512049
S31508003140FB68002283F85020FB685B6D002B01D0DA
S31508003150012300E0002318462837BD4680BD00003D
S3150800316080B588B000AFF860B9603B601346FB7164
S31508003170FEF774FC0246BB6A9B1A3A681344FB6165
S31508003180FEF76CFCB861394B1B685B011B0DFA69CD
S3150800319002FB03F37B6155E03B68B3F1FF3F51D077
S315080031A0FEF75CFC0246BB69D31AFA699A4202D951
S315080031B0FB69002B3DD1FB681B685A68FB681B68D6
S315080031C022F0E0025A60FB685B68B3F5827F11D192
S315080031D0FB689B68B3F5004F04D0FB689B68B3F5A2
S315080031E0806F07D1FB681B681A68FB681B6822F0AA
S315080031F040021A60FB689B6AB3F5005F0FD1FB6853
S315080032001B681A68FB681B6822F400521A60FB6880
S315080032101B681A68FB681B6842F400521A60FB6850
S31508003220012283F85120FB68002283F850200323EB
S3150800323018E07B69002B02D10023FB6102E07B6961
S31508003240013B7B61FB681B689A68BB681340BA68D8
S315080032509A420CBF01230023DBB21A46FB799A4235
S315080032609AD1002318462037BD4680BD08000020A5
S3150800327080B586B002AFF860B9607A60FB685B68B3
S31508003280B3F5827F11D1FB689B68B3F5004F04D074
S31508003290FB689B68B3F5806F07D1FB681B681A68E3
S315080032A0FB681B6822F040021A60FB685B68B3F58E
S315080032B0827F2AD1FB689B68B3F5806F12D07B6842
S315080032C00093BB6800228021F868FFF749FF034690
S315080032D0002B2DD0FB685B6D43F02002FB685A6516
S315080032E0032326E07B680093BB6800220121F86867
S315080032F0FFF736FF0346002B1AD0FB685B6D43F0D9
S315080033002002FB685A65032313E07B680093BB68B9
S3150800331000220121F868FFF723FF0346002B07D098
S31508003320FB685B6D43F02002FB685A65032300E0E7
S31508003330002318461037BD4680BD000080B588B00A
S3150800334002AFF860B9607A607B680093BB680122B7
S315080033500221F868FFF704FF0346002B07D0FB6835
S315080033605B6D43F02002FB685A65032332E01B4B72
S315080033701B681B4AA2FB03235B0D4FF47A7202FB00
S3150800338003F37B61FB685B68B3F5827F12D17B68C8
S315080033900093BB6800228021F868FFF7E1FE034628
S315080033A0002B16D0FB685B6D43F02002FB685A655C
S315080033B003230FE07B69002B0AD07B69013B7B6105
S315080033C0FB681B689B6803F08003802BF2D000E043
S315080033D000BF002318461837BD4680BD08000020E8
S315080033E0819F5E162DE9FF4757EC106B002F0C46A0
S315080033F019463B46BBBF07F100431F4600232D2352
S315080034000B700D9BDDF830A0914623F02008BCBF59
S3150800341032461646B8F1460F05D0B8F1450F00D129
S315080034200134022100E0032103AB019302AB0093B0
S3150800343047EC106B5346224601F076F8B8F1470F71
S31508003440054619D119F0010F0ED000EB0409002228
S31508003450002330463946FDF73FFB08B1CDF80C90FE
S315080034603022039B4B451ED3039B0E9A5B1B2846B3
S31508003470136004B0BDE8F087B8F1460F00EB040905
S31508003480E5D10378302B0AD100220023304639468D
S31508003490FDF722FB18B9C4F10104CAF80040DAF8AE
S315080034A000309944D3E7591C03911A70D9E7F7B548
S315080034B00029BABF49422D232B23092902704370DC
S315080034C029DD0DF107031D460A271A46B1FBF7F653
S315080034D007FB1614303402F8014C0C46632C03F132
S315080034E0FF333146F1DC3031941E03F8011C411CD0
S315080034F02346AB420AD30DF109039B1AAC4288BF97
S31508003500002302330344181A03B0F0BD13F8016B05
S3150800351001F8016FEDE7302330318370C170031D68
S31508003520F1E700002DE9F04F8DB00C46DDF8588024
S3150800353016461F46054600F0EFFE03680493184634
S31508003540FCF79EFE00230A93D8F80030059007334F
S3150800355023F0070303F1080294F818A0D4F800B082
S31508003560C8F80020D3E9008929F000430793CDF86D
S315080035701880C4E91289DDE906019C4B4FF0FF3239
S31508003580FDF7DCFA70BBDDE90601984B4FF0FF3218
S31508003590FDF7B6FA30BB0022002340464946FDF740
S315080035A0A5FA10B12D2384F84330914A914BBAF10C
S315080035B0470F94BF90469846032323612BF00403D4
S315080035C023604FF00009009733460BAA2146284688
S315080035D000F0D2F9013040F08D804FF0FF300DB089
S315080035E0BDE8F08F42464B4640464946FDF7A6FAE7
S315080035F040B14B46002BBCBF2D2384F843307E4A8E
S315080036007E4BD4E763680AF0DF0206925A1C3BD168
S31508003610062363604BF480620023226003930AAB9F
S31508003620CDE901A309AB0093616849EC108B0DF154
S3150800363023032846FFF7D6FE069B0999472B8046A3
S3150800364029D1C81C02DB6368994241DDAAF1020A46
S315080036505FFA8AFA0139524604F150000991FFF7D8
S3150800366026FF0A9A1318012A8146236102DC22687A
S31508003670D20701D5013323619DF82330002BA2D050
S315080036802D2384F843309EE7069A472AC2D1002B99
S31508003690C0D10123BDE7BAF1650FDBD9BAF1660FD0
S315080036A018D1002963680BDD216113B92268D00798
S315080036B002D501330B442361A1654FF00009DBE70E
S315080036C013B92268D20701D50233F4E70123F2E7DA
S315080036D04FF0670A0A9B994205DB23682161D807E0
S315080036E0EAD54B1CE7E70029D4BFC1F10202012243
S315080036F01344E0E723685A0507D42369424631464E
S315080037002846B84701302BD167E7BAF1650F40F272
S31508003710DD80D4E9120100220023FDF7DDF9002837
S3150800372033D0374A012331462846B84701303FF49B
S3150800373054AFDDE90938434502DB2368D8070FD5BE
S31508003740DDE9042331462846B84701303FF445AF42
S315080037504FF0000908F1FF3804F11A0AC84509DCD8
S3150800376023689B0700F10381E0680B9B9842B8BF6A
S31508003770184634E70123524631462846B8470130F1
S315080037803FF42BAF09F10109E8E7099B002B39DC67
S315080037901B4A012331462846B84701303FF41DAF7E
S315080037A0DDE9093959EA030302D12368D907D7D5D0
S315080037B0DDE9042331462846B84701303FF40DAF0A
S315080037C04FF0000A04F11A0B099B5B42534501DCD2
S315080037D04B4693E701235A4631462846B8470130F7
S315080037E03FF4FBAE0AF1010AEEE700BFFFFFEF7FE9
S315080037F0047B0008087B00080C7B0008107B000887
S31508003800147B0008A36DDDF828A05345A8BF5346CE
S31508003810002B994636DC4FF0000B29EAE97904F1CA
S315080038201A02A36D0693A3EB09035B4531DC099BDA
S315080038309A453ADC2368DA0737D4099BAAEB0309C9
S31508003840069BAAEB03039945A8BF9946B9F1000F51
S3150800385033DC4FF0000829EAE97904F11A0B099BD1
S31508003860AAEB0303A3EB090343457FF779AF0123CB
S315080038705A4631462846B84701303FF4AEAE08F1FD
S315080038800108ECE7424631462846B8470130C2D11E
S31508003890A3E60123314628460692B84701303FF48D
S315080038A09CAE069A0BF1010BBBE7DDE90423314612
S315080038B02846B8470130C0D18FE6069A4B4642449F
S315080038C031462846B8470130C3D186E6DDF828A038
S315080038D0BAF1010F01DCDB0736D501234246314632
S315080038E02846B84701303FF478AEDDE9042331466F
S315080038F02846B84701303FF470AED4E912010022D9
S3150800390000230AF1FF3AFDF7E7F8C0B9534608F174
S31508003910010231462846B84701300CD15DE601233D
S315080039205A4631462846B84701303FF456AE08F1A4
S315080039300108D045F3DB4B4604F15002DFE64FF0B1
S31508003940000804F11A0BF4E701234246E1E70123D4
S315080039504A4631462846B84701303FF43EAE08F19C
S315080039600108E3680B995B1A4345F0DCFCE64FF067
S31508003970000804F11909F4E72DE9F04716469846B8
S315080039808A680B69DDF820909342B8BF1346336006
S3150800399091F8432007460C460AB101333360236881
S315080039A0990642BF336802333360256815F0060569
S315080039B006D104F1190AE36832689B1AAB4226DC81
S315080039C094F843302268003B18BF012392062BD493
S315080039D004F1430241463846C84701301ED02368E1
S315080039E0226903F00603042B02BFE5683368ED1A63
S315080039F0A3680CBF25EAE57500259342C4BF9B1A48
S31508003A00ED1800261A34B5421AD1002008E0012321
S31508003A10524641463846C847013003D14FF0FF3079
S31508003A20BDE8F0870135C6E7E1185A1C302081F851
S31508003A304300224494F8451082F843100233C7E73E
S31508003A400123224641463846C8470130E6D00136AA
S31508003A50D9E700002DE9FF470F7E0C9E782F914687
S31508003A6080460C469A4601F1430207D8622F0AD8C7
S31508003A70002F00F0D280582F00F0B98004F14206DA
S31508003A8084F842703AE0A7F16303152BF6D801A132
S31508003A9051F823F0ED3A0008013B00087D3A00088A
S31508003AA07D3A00087D3A00087D3A0008013B000887
S31508003AB07D3A00087D3A00087D3A00087D3A0008FC
S31508003AC0013C00082B3B0008BB3B00087D3A000878
S31508003AD07D3A0008233C00087D3A00082B3B000885
S31508003AE07D3A00087D3A0008C33B000833681A1D72
S31508003AF01B68326004F1420684F8423001239DE0D7
S31508003B0033682068191D3160060601D51D6803E073
S31508003B104506FBD5B3F90050002D03DA2D236D4277
S31508003B2084F8433059480A2311E0216833680806A7
S31508003B3053F8045B02D4490648BFADB26F2F534809
S31508003B40336014BF0A230823002184F843106668EB
S31508003B50A660002EA2BF216821F0040121600DB9DC
S31508003B60002E4BD01646B5FBF3F103FB1157C75D84
S31508003B7006F8017D2F46BB420D46F4D9082B0BD11A
S31508003B802368DF0708D5236961689942DEBF3023B9
S31508003B9006F8013C06F1FF36921B2261CDF800A01B
S31508003BA04B4603AA21464046FFF7E6FE01304AD1B6
S31508003BB04FF0FF3004B0BDE8F087236843F02003D8
S31508003BC023603348782784F84570236831681F06D0
S31508003BD051F8045B02D45F0648BFADB23160D9071D
S31508003BE044BF43F0200323601DB11023ACE72748E8
S31508003BF0E9E7236823F020032360F6E71646BDE7C6
S31508003C00336825686169181D30602E061B6801D562
S31508003C10196002E06806FBD5198000232361164661
S31508003C20BCE733681A1D32601E6862680021304698
S31508003C30FCF7D6FA08B1801B60606368236100232D
S31508003C4084F84330AAE72369324649464046D047B6
S31508003C500130ADD023689B0713D4E068039B9842D4
S31508003C60B8BF1846A6E70123324649464046D0471C
S31508003C7001309DD00135E36803995B1AAB42F2DC4B
S31508003C80EBE7002504F11906F5E700BF167B0008E7
S31508003C90277B00082DE9F04F87B0174603938B68FA
S31508003CA05A1EB2F5AE7F81BF6FF4AE7503EB050BF6
S31508003CB040F25D138B600B680A464FF0000543F42B
S31508003CC0F06342F81C3BCDE9045580460C4698BF84
S31508003CD04FF0000B01921646AA46A9460295A2681D
S31508003CE052B13B681B784E2B64D8402B3CD8A3F1C5
S31508003CF02B01C8B20E283AD9B9F1000F03D02368B0
S31508003D0023F4807323600AF1FF3ABAF1010F00F237
S31508003D101781019B9E4200F20881012007B0BDE889
S31508003D20F08FA3F161020D2AE6D801A151F822F01D
S31508003D30773E0008F93C0008F93C0008F93C000801
S31508003D40D73E0008AF3E0008F93C0008F93C0008D9
S31508003D50853E0008F93C0008F93C0008F93C0008D3
S31508003D60F93C00083D3E0008A3F14102DBE70E29B5
S31508003D70C2D801A050F821F02D3E0008F93C0008F1
S31508003D802D3E0008C33E0008F93C0008D53D000852
S31508003D90133E0008133E0008133E0008133E0008B1
S31508003DA0133E0008133E0008133E0008133E0008A1
S31508003DB0133E00086E2B09D8602BB2D8542B7BD043
S31508003DC0592B99D1072D97D108252CE0742B73D040
S31508003DD0792BF6E72168C8051BD521F080012160FB
S31508003DE009F10109BBF1000F03D001320BF1FF3BCA
S31508003DF0A260A368013BA3602369013323617B6842
S31508003E00013B002B7B6040F387803B6801333B60B6
S31508003E1065E71AEB05017FF46FAF226822F4C072DA
S31508003E2022600D468A4606F8013BE2E7226810063C
S31508003E307FF562AF22F080022260F4E7BAF1000F44
S31508003E400ED1B9F1000F0ED1226802F4E061B1F586
S31508003E50E06F08D122F4F06222604FF0010AE2E72F
S31508003E60BAF1020F55D0012D02D0042D7FF444AFCC
S31508003E700135EDB2D7E7BAF1010F7FF43DAF4FF048
S31508003E80020AD0E77DB9B9F1000F7FF438AF22688E
S31508003E9002F4E061B1F5E06F40F0088122F4F062C7
S31508003EA022600125BFE7032DE2D0052DDEE7022DAE
S31508003EB07FF422AF0325B6E7062D7FF41DAF07254D
S31508003EC0B1E7226891057FF517AF22F420722260C8
S31508003ED0CDF80890A7E7226802F4A061B1F5806FD3
S31508003EE006D050057FF508AFB9F1000F00F0DE8067
S31508003EF0910558BF029922F4F06258BFA9EB010157
S31508003F0042F4C07258BFCDE9041622604FF000098A
S31508003F1089E74FF0030A86E7D4F8803139464046E8
S31508003F20984700283FF4DBAEE6E6D4F87C3116F86D
S31508003F30011D3A46404698472369013B2361E8E656
S31508003F406B1E062B24D8022D36D8019B9E427FF67F
S31508003F50E4AED4F87C3116F8011D3A464046984737
S31508003F602369013B2361F0E7D4F87C311BF8011D76
S31508003F703A46404698472369013B23610AF1FF3ACE
S31508003F805FFA8AFABAF1020FEED1033DEDB2761B5B
S31508003F902368DA0530D55B0511D5019B9E427FF66D
S31508003FA0BCAED4F87C3116F8011D3A46404698470F
S31508003FB02369013B2361F0E7AA46B346DEE716F814
S31508003FC0011C2369652903F1FF3306F1FF352361D7
S31508003FD00CD045290AD0D4F87C313A464046984751
S31508003FE0236916F8021C013BB51E2361D4F87C31FF
S31508003FF03A46404698472E46226812F0100201D0EB
S3150800400000208BE63270236803F4C063B3F5806F33
S315080040101CD1029B4B45A3EB090223D1019900222F
S31508004020404602F0F9FB039B21681B6811F0020F5A
S3150800403057EC106B03F104021FD003990A601B6842
S31508004040C3E90067E3680133E360D9E7049B002B03
S31508004050E4D005990A230131404602F05DFC049B31
S31508004060059EC21A04F26F139E4228BF04F5B7765E
S315080040701049304600F0E4F8D0E711F0040F039930
S315080040800A60DCD11D6832463B4630463946FCF7A5
S3150800409055FD28B1084800F0B7F985ED000AD1E7C3
S315080040A030463946FCF7A8FD2860CBE74FF00009F3
S315080040B029E600BF387B0008CD7E0008002310B52E
S315080040C00446C0E90033C0E904338360818143664E
S315080040D0C2818361194608225C3000F014F90D4B41
S315080040E063620D4BA3620D4BE3620D4B23630D4BCD
S315080040F024629C4206D003F16802944202D0D0336F
S315080041009C4205D104F15800BDE8104000F078B98A
S3150800411010BD00BF81420008A3420008DB42000828
S31508004120FF42000870020020024A0349034800F0D3
S3150800413069B800BF14000020D56C000824000020D0
S3150800414041680C4B994210B5044601D002F0C2FDF5
S31508004150A168094B994202D0204602F0BBFDE168EE
S31508004160064B994204D02046BDE8104002F0B2BD85
S3150800417010BD00BF70020020D802002040030020B6
S3150800418010B50B4B0B4C0C4A1A6020460022042132
S31508004190FFF794FF04F1680001220921FFF78EFF5B
S315080041A004F1D0000222BDE810401221FFF786BFB5
S315080041B0A80300207002002029410008014800F0E9
S315080041C020B900BFB1030020014800F01BB900BFA9
S315080041D0B103002010B50446FFF7F0FF236A1BB1B0
S315080041E0BDE81040FFF7F0BF044B2362044B1B6881
S315080041F0002BF5D1FFF7C4FFF2E700BF41410008E5
S31508004200A80300202DE9F8430746884614460026E9
S31508004210D4E90195B9F1010905D52468002CF7D12F
S315080042203046BDE8F883AB89012B07D9B5F90E30BE
S31508004230013303D029463846C04706436835E9E7BF
S315080042400EB400B59CB01DAB029006906FF000410D
S31508004250094807910491094953F8042B0591006808
S31508004260019302A902F0B6FB029B00221A701CB049
S315080042705DF804EB03B07047200000200802FFFF3A
S3150800428010B50C46B1F90E1000F06CF80028ABBF5B
S31508004290636DA3891B1823F48053ACBF6365A381A0
S315080042A010BD2DE9F0411F468B89DB0505460C46F6
S315080042B0164605D5B1F90E100223002200F040F883
S315080042C0A389B4F90E1023F48053A38132463B46E2
S315080042D02846BDE8F04100F057B810B50C46B1F9CC
S315080042E00E1000F02DF8431CA38915BF606523F452
S315080042F0805343F48053A38118BFA38110BDB1F93D
S315080043000E1000F00DB802440346934200D17047E0
S3150800431003F8011BF9E70000004870476001002018
S3150800432038B5064D0023044608462B60FDF789FA82
S31508004330431C02D12B6803B1236038BDAC030020AF
S3150800434038B5074D04460846114600222A601A4623
S31508004350FDF79EFA431C02D12B6803B1236038BDD2
S31508004360AC03002038B5074D04460846114600221E
S315080043702A601A46FDF72CFA431C02D12B6803B1B2
S31508004380236038BDAC03002038B5074D04460846FF
S31508004390114600222A601A46FDF737FA431C02D155
S315080043A02B6803B1236038BDAC030020014B1868A5
S315080043B0704700BF2000002070B50D4D0D4C641BE2
S315080043C0A4100026A64209D10B4D0C4C03F072FB33
S315080043D0641BA4100026A64205D170BD55F8043BFF
S315080043E098470136EEE755F8043B98470136F2E759
S315080043F0387F0008387F0008387F00083C7F0008AF
S3150800440070477047704700009FED010A704700BF6C
S315080044100000C07F2DE9F74F03690C69A3420746E0
S315080044207EDB013C01F11408A30000F1140500939A
S3150800443005EB8403019358F8243055F824200133FA
S315080044409A4208EB8409B2FBF3F62ED34FF0000A22
S31508004450C446AE46D3465CF8043B98B206FB00A0B9
S31508004460020C1B0C06FB0323DEF8002080B292B276
S31508004470121A5A44DEF800004FEA134A9BB2C3EBFD
S31508004480224303EB104392B242EA0342E1454EF857
S31508004490042B4FEA234BDED2009BEB582BB9019B2A
S315080044A0043B9D421A462FD33C61384601F0C4F9B5
S315080044B0002825DB2946002058F8042BD1F800C02F
S315080044C01FFA82FE1FFA8CF3A3EB0E030344120CA9
S315080044D0C2EB234202EB1C429BB243EA0243C145AC
S315080044E041F8043B4FEA2240E6D255F8242005EB72
S315080044F0840322B9043B9D421A460BD33C6101361C
S31508004500304603B0BDE8F08F1268043B002ACBD1D1
S31508004510013CC6E71268043B002AEFD1013CEAE7F2
S315080045200020EEE7000000002DE9F04FC76999B0BA
S315080045308DED020B55EC104B229E099183460E9287
S3150800454013937FB9102000F0FDFD0246CBF81C003E
S3150800455020B9A74BEF21A74802F036FCC0E901773E
S315080045600760C760DBF81C30196859B15A684A6099
S31508004570012393408B60584600F0DAFEDBF81C30C6
S3150800458000221A602B1EB9BF23F0004303930023B1
S315080045903360039F984BBCBF01223260BB4312D1E4
S315080045A0139A42F20F731360C7F31303234300F001
S315080045B04D85239BDFF854A2002B00F04F850AF1A6
S315080045C0030300F049BD9DED027B002251EC170B59
S315080045D000238DED0C7BFCF77FFA804658B1139AC1
S315080045E001231360239B13B1239A844B1360DFF8CE
S315080045F020A200F033BD9DED0C0B16AA17A958464C
S3150800460001F03AFAC7F30A568146002E77D00D9B79
S31508004610CDF85080C3F31303DDE90C0143F07F5353
S3150800462043F44013A6F2FF3619460022744BFBF7F3
S3150800463033FE69A3D3E90023FBF7E6FF68A3D3E9B2
S315080046400023FBF72BFE044630460D46FBF772FFA8
S3150800465065A3D3E90023FBF7D7FF02460B4620469E
S315080046602946FBF71BFE04460D46FCF77DFA002299
S315080046700746002320462946FCF738FA40B1384653
S31508004680FBF758FF22462B46FCF726FA00B9013FEE
S31508004690162F51D85B4B03EBC703D3E90023DDE99B
S315080046A00C01FCF723FA002848D0013F0023129397
S315080046B0169B9B1B5A1E44BFC3F101080023089290
S315080046C054BF4FF000080893002F39DB089B0F975B
S315080046D03B44089300230A93099B092B64D8052BAE
S315080046E0C4BF043B0993099BA3F10203CCBF002472
S315080046F00124032B63D8DFE803F02A373555DDE9B3
S3150800470016631E4406F23243202BC1BFC3F1400391
S315080047109F4006F2124324FA03F3D6BFC3F12003DF
S3150800472047EA030004FA03F0FBF7F4FE0122A1F1BD
S31508004730F873013E149277E70123B8E71290B7E7BA
S315080047407B420A930023A8EB07080F93C4E70023CC
S315080047500B930E9B002B35DC0123009307931A4617
S315080047600E920BE00123F3E700230B930E9BFB1835
S3150800477000930133012B0793B8BF0123DBF81C0014
S315080047800021042202F114059D421FD941605846B2
S3150800479000F08EFD824600283CD11B4B024640F2B3
S315080047A0AF11D8E60123E0E70124002309930B940F
S315080047B04FF0FF330093079300221223D0E701231B
S315080047C00B93F5E70E9B00930793D7E70131520049
S315080047D0D8E700BFAFF3008061436F63A787D23F76
S315080047E0B3C8608B288AC63FFB799F501344D33FD2
S315080047F04A7B0008617B00080000F07F157B0008F3
S315080048000000F83F587C0008B97B0008467B000882
S31508004810147B0008DBF81C301860079B0E2B00F28F
S31508004820A480002C00F0A180002F33DDAD4B07F0EB
S315080048300F0203EBC20393ED007BF8058DED047BB5
S315080048404FEA271416D5A84BDDE90C01D3E908234E
S31508004850FCF704F8CDE9020104F00F040326A24D83
S3150800486054B9DDE90423DDE90201FBF7F7FFCDE9D9
S31508004870020128E00226F2E7E10708D5DDE904018E
S31508004880D5E90023FBF7C0FECDE904010136641023
S315080048900835E5E700F0D2807C42924B924D04F051
S315080048A00F0203EBC203D3E90023DDE90C01FBF792
S315080048B0ABFECDE90201241100230226002C40F0AC
S315080048C0B280002BD3D1129BDDE90245002B00F004
S315080048D0B780864B002220462946FCF707F90028B0
S315080048E000F0AE80079B002B00F0AA80009B002BEF
S315080048F037DD7B1E049320467D4B00222946FBF7B5
S3150800490083FECDE90201009C01363046FBF712FE14
S31508004910DDE90223FBF778FE764B0022FBF7BEFCA7
S315080049200546A1F15076002C40F08D80DDE90201A4
S31508004930714B0022FBF7B0FC02460B46CDE9022379
S315080049402A463346FCF7F0F8002840F08B82DDE96A
S3150800495002012A4606F10043FCF7C8F8002840F091
S315080049602881DDE90C34CDE90234179B002BC0F20F
S315080049705A810E2F00F357815A4B03EBC70393ED69
S31508004980007B0E9B002B8DED007B03DA079B002B2B
S3150800499040F30181DDE902455646DDE9002320465C
S315080049A02946FBF75BFFFCF7DFF88046FBF7C2FDFD
S315080049B0DDE90023FBF728FE02460B46204629467A
S315080049C008F13004FBF768FC06F8014B079DA6EBD7
S315080049D00A04A54202460B4640F01781FBF75EFC27
S315080049E0DDE9002304460D46FCF79EF8002840F052
S315080049F0F980DDE9002320462946FCF76DF818B151
S31508004A0018F0010F40F0EE804946584600F090FC39
S31508004A1000233370139B01371F60239B002B00F084
S31508004A201D831E601AE3E20705D5D5E90023FBF7C7
S31508004A30EBFD01360123641008353FE7022642E7FD
S31508004A40079C049761E7274B0B9903EBC40353E9CB
S31508004A5002235444002953D028490020FBF7FEFEC0
S31508004A6033462A46FBF718FCCDE910015646DDE920
S31508004A700201FCF779F80546FBF75CFD02460B4692
S31508004A80DDE90201FBF708FC303502460B46CDE9A5
S31508004A90022306F8015BDDE91023FCF727F8002856
S31508004AA071D1DDE9022311490020FBF7F5FBDDE9A9
S31508004AB01023FCF71BF8002840F09580A6423FF427
S31508004AC050AFDDE910010A4B0022FBF79DFD084BAC
S31508004AD0CDE910010022DDE90201FBF795FDCDE9DC
S31508004AE00201C4E7587C0008307C00080000F03F4B
S31508004AF00000244000001C40000014400000E03F75
S31508004B0031462846FBF780FDCDE910011594564637
S31508004B10DDE90201FCF728F80546FBF70BFD02461E
S31508004B200B46DDE90201FBF7B7FB303506F8015BFA
S31508004B3002460B46A642CDE902234FF0000224D1D5
S31508004B40AC4BDDE91001FBF7A9FB02460B46DDE994
S31508004B500201FBF7E9FF002845D1DDE91023A54945
S31508004B600020FBF799FB02460B46DDE90201FBF73D
S31508004B70BDFF00283FF4F5AE159E731E159316F873
S31508004B80013C302BF8D0049F3EE79B4BFBF73CFDDE
S31508004B90CDE90201BCE70CD1984B0022DDE9000102
S31508004BA0FBF732FDDDE90223FBF7B4FF002800F02E
S31508004BB05781002425460E9BDB430493564600275F
S31508004BC02146584600F0B4FB002DDCD02FB1AF4289
S31508004BD003D03946584600F0ABFB2946584600F044
S31508004BE0A7FBD0E7049733461E4613F8012D392A4A
S31508004BF007D19A45F8D1049A0132049230228AF8EC
S31508004C0000201A7801321A70BDE77B4B0022FBF7A9
S31508004C10FBFC0022002304460D46FBF75DFF002837
S31508004C203FF4BBAEF0E60B9A002A00F0DB80099A47
S31508004C30012A00F3BF80149A002A00F0B78003F215
S31508004C4033430A9C4646089A01211A445846984412
S31508004C50089200F06BFC05465EB1089B002B08DD48
S31508004C60B342089AA8BF3346A8EB0308F61AD31A24
S31508004C7008930A9BF3B10B9B002B00F0B7808CB10D
S31508004C8029462246584600F011FD4A460146054681
S31508004C90584600F061FC49460490584600F048FB27
S31508004CA0049B99460A9B1A1B04D04946584600F0AD
S31508004CB0FDFC81460121584600F038FC0F9B04464E
S31508004CC0002B00F0CF811A460146584600F0EEFC4C
S31508004CD0099B012B044600F39580029B002B40F0AC
S31508004CE08780039BC3F31303002B40F08980039B43
S31508004CF023F000431B0D1B052BB1089B01330893BA
S31508004D0008F1010801230A930F9B002B00F0B081DC
S31508004D10236904EB8303186900F0BCFBC0F120008B
S31508004D20089B184410F01F0077D0C0F12003042B0D
S31508004D306BDD089BC0F11C000344804406440893BD
S31508004D40B8F1000F05DD49464246584600F008FD11
S31508004D508146089B002B05DD21461A46584600F079
S31508004D60FFFC0446129B002B59D02146484600F00A
S31508004D7063FD002853DA7B1E0493494600230A2262
S31508004D80584600F0F7FA0B9B8146002B00F072811B
S31508004D90002329460A22584600F0ECFA009B002B0D
S31508004DA0054667DC099B022B41DC63E0169BC3F1D1
S31508004DB0360346E7079B5C1E0A9BA342BFBF0A9BB6
S31508004DC00F9A0A94E31AB4BFD2181C1B079BBCBFE0
S31508004DD00F920024002BB5BFA8EB0306079B002300
S31508004DE0464630E70A9C0B9D464635E70A9A5CE735
S31508004DF0002388E70000E03F00002440000014403C
S31508004E00029B80E700230A9382E799D0089A1C330D
S31508004E101A4498441E44089292E70346F6E7079B0D
S31508004E200497002B20DC0093099B022B1EDD009BB8
S31508004E30002B7FF4C0AE21460522584600F09AFAA8
S31508004E4001460446484600F0F7FC00287FF7B3AE53
S31508004E505646312306F8013B049B01330493AEE61C
S31508004E60079C04972546F3E7079B00930B9B002BAB
S31508004E7000F00481002E05DD29463246584600F02A
S31508004E806FFC05460A9B002B5AD06968584600F005
S31508004E900FFA064628B9844B024640F2EF21FFF77F
S31508004EA05ABB2A690232920005F10C010C3001F056
S31508004EB075FF01223146584600F052FC0AF10103FB
S31508004EC00793009B53440B93029B03F001032F4661
S31508004ED00A930546079B2146013B48460093FFF780
S31508004EE099FA3946029000F13008484600F0A4FCC9
S31508004EF02A4608902146584600F0BAFCC26806467B
S31508004F0002BB0146484600F097FC02463146584621
S31508004F100E9200F00DFA099B0E9A079E43EA0201CB
S31508004F200A9B194310D1B8F1390F29D0089B002BD9
S31508004F3002DD029B03F13108009B83F800803FE6FF
S31508004F402846BBE70122E1E7089B002B04DB099909
S31508004F500B430A990B4320D1002AEDDD494601226D
S31508004F60584600F0FDFB2146814600F065FC002806
S31508004F7003DCE1D118F0010FDED0B8F1390FD8D132
S31508004F80009A3923137033461E46013B16F8012C46
S31508004F90392A52D001321A7012E6002A07DDB8F112
S31508004FA0390FEDD0009A08F10103137008E6079B44
S31508004FB0079A03F8018C0B9B934228D04946002395
S31508004FC00A22584600F0D6F9AF4281464FF0000350
S31508004FD04FF00A023946584607D100F0CBF9074682
S31508004FE00546079B0133079374E700F0C3F9294682
S31508004FF0074600230A22584600F0BCF90546F0E7A2
S31508005000009B002BCCBF1E46012656440027494666
S315080050100122584600F0A4FB2146814600F00CFC0C
S315080050200028B0DC02D118F0010FACD133461E4679
S3150800503013F8012D302AFAD0C2E59A45A4D1049B6B
S315080050400133049331238AF80030B9E5239BDFF84E
S315080050505CA01BB10AF10803239A1360504619B0E5
S31508005060BDE8F08F099B012B7FF737AE0F9B0A939C
S31508005070012055E6009B002B7FF7D6AE5646214603
S315080050804846FFF7C7F900F1300806F8018B009B80
S31508005090A6EB0A029342B3DD494600230A22584684
S315080050A000F068F98146EAE7B97B00083D7B00080D
S315080050B038B50546002941D051F8043C0C1F002B91
S315080050C0B8BFE41800F0E8F81D4A136833B96360FE
S315080050D014602846BDE8384000F0E4B8A34208D971
S315080050E0206821188B4201BF19685B68091821607E
S315080050F0EDE71A465B680BB1A342FAD91168501856
S31508005100A0420BD120680144501883421160E0D1B7
S3150800511018685B68536008441060DAE702D90C2304
S315080051202B60D6E7206821188B4204BF19685B6894
S31508005130636004BF091821605460CAE738BD00BF20
S31508005140B8030020024B0146186800F025B800BFD6
S315080051502000002070B50F4E0C463168054611B97F
S3150800516001F00CFE30602146284601F007FE431C7C
S3150800517003D14FF0FF34204670BDC41C24F003044D
S31508005180A042F8D0211A284601F0F8FD0130F2D1E4
S31508005190EFE700BFB40300202DE9F843CD1C25F046
S315080051A0030508350C2D38BF0C25002D064601DBF6
S315080051B0A94204D90C2333600020BDE8F883DFF840
S315080051C0D48000F069F8D8F800301C4644BB29465C
S315080051D03046FFF7BFFF431C044658D1D8F80040B5
S315080051E02746002F43D1002C4BD02368394630463A
S315080051F004EB030901F0C2FD814542D121686D1A0D
S3150800520029463046FFF7A6FF01303AD023682B44DB
S315080052102360D8F800305A6862BBC8F800700FE0FF
S315080052202268521B20D40B2A17D96119A34225607C
S3150800523018BF5960636808BFC8F8001062514B6010
S31508005240304600F02FF804F10B00231D20F007006C
S31508005250C21A1CBF1B1AA350AFE76268A3420CBF51
S31508005260C8F800205A60EBE723466468AEE73C4678
S315080052707F68B6E71A465B68A342FBD100235360F2
S31508005280DEE70C233360304600F00CF894E705603F
S31508005290D6E700BFB80300200148FFF7B2B800BF41
S315080052A0B00300200148FFF7ADB800BFB0030020E7
S315080052B070B5C66904460D4676B91020FFF742FF59
S315080052C00246E06120B9184B18486B2101F07CFDB5
S315080052D0C0E901660660C660E669F36883B1E369FA
S315080052E0DB6853F82500B8B9012101FA05F6721DE5
S315080052F09200204601F086FD60B1C0E901560EE035
S3150800530021220421204601F07DFDE369F060DB6877
S31508005310002BE4D1002070BD026843F82520002345
S31508005320C0E90333F7E700BF4A7B0008CA7B0008D9
S3150800533070B5C66905460C4676B91020FFF702FF18
S315080053400246E86120B9094B09488F2101F03CFD66
S31508005350C0E901660660C6603CB1EB696268DB6855
S3150800536053F82210216043F8224070BD4A7B00089A
S31508005370CA7B00082DE9F0410D6907460C461E4612
S3150800538001F1140C0020DCF8003099B202FB01612F
S315080053901E0C0B0C02FB063389B2013001EB0341EC
S315080053A085424CF8041B4FEA1346ECDC0EB3A3689F
S315080053B0AB4219DC616838460131FFF779FF804650
S315080053C028B902460C4B0D48BA2101F0FDFC2269AA
S315080053D0023204F10C0192000C3001F0DFFC214688
S315080053E03846FFF7A5FF444604EB850301355E61A1
S315080053F025612046BDE8F081B97B0008CA7B000814
S315080054002DE9F8430C4615461F4609220833064679
S3150800541093FBF2F3002101229A4209DB3046FFF79B
S3150800542047FF40B90246194B1948D32101F0CCFC75
S3150800543052000131F0E7089B4361092D4FF0010343
S31508005440036116DD04F10909C8462C4418F8013B26
S315080054500146303B0A223046FFF78CFFA045F5D1BE
S31508005460A5F108044C442D1B6319BB4204DBBDE8B7
S31508005470F8830A340925F6E714F8013B0146303B60
S315080054800A223046FFF776FFEEE700BFB97B000831
S31508005490CA7B0008B0F5803F034636BF03040020E8
S315080054A01020B3F1807F3CBF1B020830B3F1805F48
S315080054B03CBF1B010430B3F1804F3CBF9B00023058
S315080054C0002B05DB13F0804F00F1010008BF2020F8
S315080054D070470368024613F007000BD0D90721D49A
S315080054E0980749BF5B089B08012013605CBF1360DF
S315080054F00220704799B209B91B0C1020D9B209B914
S3150800550008301B0A190704BF1B090430990704BF92
